{
	"contracts/MyToken.sol": {
		"Pokemon": {
			"abi": [
				{
					"inputs": [
						{
							"internalType": "contract IPancakeV2Router02",
							"name": "_pancakeV2Router",
							"type": "address"
						},
						{
							"internalType": "address",
							"name": "_marketingWallet",
							"type": "address"
						},
						{
							"internalType": "address",
							"name": "_antiManager",
							"type": "address"
						}
					],
					"stateMutability": "nonpayable",
					"type": "constructor"
				},
				{
					"anonymous": false,
					"inputs": [
						{
							"indexed": true,
							"internalType": "address",
							"name": "owner",
							"type": "address"
						},
						{
							"indexed": true,
							"internalType": "address",
							"name": "spender",
							"type": "address"
						},
						{
							"indexed": false,
							"internalType": "uint256",
							"name": "value",
							"type": "uint256"
						}
					],
					"name": "Approval",
					"type": "event"
				},
				{
					"anonymous": false,
					"inputs": [
						{
							"indexed": true,
							"internalType": "address",
							"name": "previousOwner",
							"type": "address"
						},
						{
							"indexed": true,
							"internalType": "address",
							"name": "newOwner",
							"type": "address"
						}
					],
					"name": "OwnershipTransferred",
					"type": "event"
				},
				{
					"anonymous": false,
					"inputs": [
						{
							"indexed": false,
							"internalType": "uint256",
							"name": "tokensSwapped",
							"type": "uint256"
						},
						{
							"indexed": false,
							"internalType": "uint256",
							"name": "ethReceived",
							"type": "uint256"
						},
						{
							"indexed": false,
							"internalType": "uint256",
							"name": "tokensIntoLiqudity",
							"type": "uint256"
						}
					],
					"name": "SwapAndLiquify",
					"type": "event"
				},
				{
					"anonymous": false,
					"inputs": [
						{
							"indexed": false,
							"internalType": "bool",
							"name": "enabled",
							"type": "bool"
						}
					],
					"name": "SwapAndLiquifyEnabledUpdated",
					"type": "event"
				},
				{
					"anonymous": false,
					"inputs": [
						{
							"indexed": true,
							"internalType": "address",
							"name": "from",
							"type": "address"
						},
						{
							"indexed": true,
							"internalType": "address",
							"name": "to",
							"type": "address"
						},
						{
							"indexed": false,
							"internalType": "uint256",
							"name": "value",
							"type": "uint256"
						}
					],
					"name": "Transfer",
					"type": "event"
				},
				{
					"inputs": [],
					"name": "MAX_HOLDING_PERCENTS_DIVISOR",
					"outputs": [
						{
							"internalType": "uint256",
							"name": "",
							"type": "uint256"
						}
					],
					"stateMutability": "view",
					"type": "function"
				},
				{
					"inputs": [],
					"name": "_burnFee",
					"outputs": [
						{
							"internalType": "uint256",
							"name": "",
							"type": "uint256"
						}
					],
					"stateMutability": "view",
					"type": "function"
				},
				{
					"inputs": [],
					"name": "_liquidityFee",
					"outputs": [
						{
							"internalType": "uint256",
							"name": "",
							"type": "uint256"
						}
					],
					"stateMutability": "view",
					"type": "function"
				},
				{
					"inputs": [],
					"name": "_marketingFee",
					"outputs": [
						{
							"internalType": "uint256",
							"name": "",
							"type": "uint256"
						}
					],
					"stateMutability": "view",
					"type": "function"
				},
				{
					"inputs": [],
					"name": "_maxHoldingPercents",
					"outputs": [
						{
							"internalType": "uint256",
							"name": "",
							"type": "uint256"
						}
					],
					"stateMutability": "view",
					"type": "function"
				},
				{
					"inputs": [],
					"name": "_sellBurnFee",
					"outputs": [
						{
							"internalType": "uint256",
							"name": "",
							"type": "uint256"
						}
					],
					"stateMutability": "view",
					"type": "function"
				},
				{
					"inputs": [],
					"name": "_sellLiquidityFee",
					"outputs": [
						{
							"internalType": "uint256",
							"name": "",
							"type": "uint256"
						}
					],
					"stateMutability": "view",
					"type": "function"
				},
				{
					"inputs": [],
					"name": "_sellMarketingFee",
					"outputs": [
						{
							"internalType": "uint256",
							"name": "",
							"type": "uint256"
						}
					],
					"stateMutability": "view",
					"type": "function"
				},
				{
					"inputs": [],
					"name": "_sellTaxFee",
					"outputs": [
						{
							"internalType": "uint256",
							"name": "",
							"type": "uint256"
						}
					],
					"stateMutability": "view",
					"type": "function"
				},
				{
					"inputs": [],
					"name": "_taxFee",
					"outputs": [
						{
							"internalType": "uint256",
							"name": "",
							"type": "uint256"
						}
					],
					"stateMutability": "view",
					"type": "function"
				},
				{
					"inputs": [
						{
							"internalType": "address",
							"name": "owner",
							"type": "address"
						},
						{
							"internalType": "address",
							"name": "spender",
							"type": "address"
						}
					],
					"name": "allowance",
					"outputs": [
						{
							"internalType": "uint256",
							"name": "",
							"type": "uint256"
						}
					],
					"stateMutability": "view",
					"type": "function"
				},
				{
					"inputs": [],
					"name": "antiBotEnabled",
					"outputs": [
						{
							"internalType": "bool",
							"name": "",
							"type": "bool"
						}
					],
					"stateMutability": "view",
					"type": "function"
				},
				{
					"inputs": [],
					"name": "antiManager",
					"outputs": [
						{
							"internalType": "address",
							"name": "",
							"type": "address"
						}
					],
					"stateMutability": "view",
					"type": "function"
				},
				{
					"inputs": [],
					"name": "antiWhaleEnabled",
					"outputs": [
						{
							"internalType": "bool",
							"name": "",
							"type": "bool"
						}
					],
					"stateMutability": "view",
					"type": "function"
				},
				{
					"inputs": [],
					"name": "antisnipe",
					"outputs": [
						{
							"internalType": "contract IAntisnipe",
							"name": "",
							"type": "address"
						}
					],
					"stateMutability": "view",
					"type": "function"
				},
				{
					"inputs": [],
					"name": "antisnipeDisable",
					"outputs": [
						{
							"internalType": "bool",
							"name": "",
							"type": "bool"
						}
					],
					"stateMutability": "view",
					"type": "function"
				},
				{
					"inputs": [
						{
							"internalType": "address",
							"name": "spender",
							"type": "address"
						},
						{
							"internalType": "uint256",
							"name": "amount",
							"type": "uint256"
						}
					],
					"name": "approve",
					"outputs": [
						{
							"internalType": "bool",
							"name": "",
							"type": "bool"
						}
					],
					"stateMutability": "nonpayable",
					"type": "function"
				},
				{
					"inputs": [
						{
							"internalType": "address",
							"name": "account",
							"type": "address"
						}
					],
					"name": "balanceOf",
					"outputs": [
						{
							"internalType": "uint256",
							"name": "",
							"type": "uint256"
						}
					],
					"stateMutability": "view",
					"type": "function"
				},
				{
					"inputs": [],
					"name": "decimals",
					"outputs": [
						{
							"internalType": "uint8",
							"name": "",
							"type": "uint8"
						}
					],
					"stateMutability": "view",
					"type": "function"
				},
				{
					"inputs": [
						{
							"internalType": "address",
							"name": "spender",
							"type": "address"
						},
						{
							"internalType": "uint256",
							"name": "subtractedValue",
							"type": "uint256"
						}
					],
					"name": "decreaseAllowance",
					"outputs": [
						{
							"internalType": "bool",
							"name": "",
							"type": "bool"
						}
					],
					"stateMutability": "nonpayable",
					"type": "function"
				},
				{
					"inputs": [
						{
							"internalType": "uint256",
							"name": "tAmount",
							"type": "uint256"
						}
					],
					"name": "deliver",
					"outputs": [],
					"stateMutability": "nonpayable",
					"type": "function"
				},
				{
					"inputs": [
						{
							"internalType": "address",
							"name": "account",
							"type": "address"
						}
					],
					"name": "excludeFromFee",
					"outputs": [],
					"stateMutability": "nonpayable",
					"type": "function"
				},
				{
					"inputs": [
						{
							"internalType": "address",
							"name": "account",
							"type": "address"
						}
					],
					"name": "excludeFromReward",
					"outputs": [],
					"stateMutability": "nonpayable",
					"type": "function"
				},
				{
					"inputs": [
						{
							"internalType": "address",
							"name": "account",
							"type": "address"
						}
					],
					"name": "includeInFee",
					"outputs": [],
					"stateMutability": "nonpayable",
					"type": "function"
				},
				{
					"inputs": [
						{
							"internalType": "address",
							"name": "account",
							"type": "address"
						}
					],
					"name": "includeInReward",
					"outputs": [],
					"stateMutability": "nonpayable",
					"type": "function"
				},
				{
					"inputs": [
						{
							"internalType": "address",
							"name": "spender",
							"type": "address"
						},
						{
							"internalType": "uint256",
							"name": "addedValue",
							"type": "uint256"
						}
					],
					"name": "increaseAllowance",
					"outputs": [
						{
							"internalType": "bool",
							"name": "",
							"type": "bool"
						}
					],
					"stateMutability": "nonpayable",
					"type": "function"
				},
				{
					"inputs": [
						{
							"internalType": "address",
							"name": "account",
							"type": "address"
						}
					],
					"name": "isExcludedFromFee",
					"outputs": [
						{
							"internalType": "bool",
							"name": "",
							"type": "bool"
						}
					],
					"stateMutability": "view",
					"type": "function"
				},
				{
					"inputs": [
						{
							"internalType": "address",
							"name": "account",
							"type": "address"
						}
					],
					"name": "isExcludedFromReward",
					"outputs": [
						{
							"internalType": "bool",
							"name": "",
							"type": "bool"
						}
					],
					"stateMutability": "view",
					"type": "function"
				},
				{
					"inputs": [],
					"name": "marketingWallet",
					"outputs": [
						{
							"internalType": "address",
							"name": "",
							"type": "address"
						}
					],
					"stateMutability": "view",
					"type": "function"
				},
				{
					"inputs": [],
					"name": "name",
					"outputs": [
						{
							"internalType": "string",
							"name": "",
							"type": "string"
						}
					],
					"stateMutability": "view",
					"type": "function"
				},
				{
					"inputs": [],
					"name": "owner",
					"outputs": [
						{
							"internalType": "address",
							"name": "",
							"type": "address"
						}
					],
					"stateMutability": "view",
					"type": "function"
				},
				{
					"inputs": [],
					"name": "pancakeV2Pair",
					"outputs": [
						{
							"internalType": "address",
							"name": "",
							"type": "address"
						}
					],
					"stateMutability": "view",
					"type": "function"
				},
				{
					"inputs": [],
					"name": "pancakeV2Router",
					"outputs": [
						{
							"internalType": "contract IPancakeV2Router02",
							"name": "",
							"type": "address"
						}
					],
					"stateMutability": "view",
					"type": "function"
				},
				{
					"inputs": [
						{
							"internalType": "uint256",
							"name": "tAmount",
							"type": "uint256"
						},
						{
							"internalType": "bool",
							"name": "deductTransferFee",
							"type": "bool"
						}
					],
					"name": "reflectionFromToken",
					"outputs": [
						{
							"internalType": "uint256",
							"name": "",
							"type": "uint256"
						}
					],
					"stateMutability": "view",
					"type": "function"
				},
				{
					"inputs": [],
					"name": "renounceOwnership",
					"outputs": [],
					"stateMutability": "nonpayable",
					"type": "function"
				},
				{
					"inputs": [
						{
							"internalType": "bool",
							"name": "enabled",
							"type": "bool"
						}
					],
					"name": "setAntiBot",
					"outputs": [],
					"stateMutability": "nonpayable",
					"type": "function"
				},
				{
					"inputs": [
						{
							"internalType": "bool",
							"name": "enabled",
							"type": "bool"
						}
					],
					"name": "setAntiWhale",
					"outputs": [],
					"stateMutability": "nonpayable",
					"type": "function"
				},
				{
					"inputs": [
						{
							"internalType": "address",
							"name": "addr",
							"type": "address"
						}
					],
					"name": "setAntisnipeAddress",
					"outputs": [],
					"stateMutability": "nonpayable",
					"type": "function"
				},
				{
					"inputs": [],
					"name": "setAntisnipeDisable",
					"outputs": [],
					"stateMutability": "nonpayable",
					"type": "function"
				},
				{
					"inputs": [
						{
							"internalType": "uint256",
							"name": "burnFee",
							"type": "uint256"
						}
					],
					"name": "setBurnFeePercent",
					"outputs": [],
					"stateMutability": "nonpayable",
					"type": "function"
				},
				{
					"inputs": [
						{
							"internalType": "uint256",
							"name": "liquidityFee",
							"type": "uint256"
						}
					],
					"name": "setLiquidityFeePercent",
					"outputs": [],
					"stateMutability": "nonpayable",
					"type": "function"
				},
				{
					"inputs": [
						{
							"internalType": "uint256",
							"name": "marketingFee",
							"type": "uint256"
						}
					],
					"name": "setMarketingFeePercent",
					"outputs": [],
					"stateMutability": "nonpayable",
					"type": "function"
				},
				{
					"inputs": [
						{
							"internalType": "address",
							"name": "newWallet",
							"type": "address"
						}
					],
					"name": "setMarketingWallet",
					"outputs": [],
					"stateMutability": "nonpayable",
					"type": "function"
				},
				{
					"inputs": [
						{
							"internalType": "uint256",
							"name": "maxHoldingPercents",
							"type": "uint256"
						}
					],
					"name": "setMaxHoldingPercents",
					"outputs": [],
					"stateMutability": "nonpayable",
					"type": "function"
				},
				{
					"inputs": [
						{
							"internalType": "uint256",
							"name": "sellBurnFee",
							"type": "uint256"
						}
					],
					"name": "setSellBurnFeePercent",
					"outputs": [],
					"stateMutability": "nonpayable",
					"type": "function"
				},
				{
					"inputs": [
						{
							"internalType": "uint256",
							"name": "sellLiquidityFee",
							"type": "uint256"
						}
					],
					"name": "setSellLiquidityFeePercent",
					"outputs": [],
					"stateMutability": "nonpayable",
					"type": "function"
				},
				{
					"inputs": [
						{
							"internalType": "uint256",
							"name": "sellMarketingFee",
							"type": "uint256"
						}
					],
					"name": "setSellMarketingFeePercent",
					"outputs": [],
					"stateMutability": "nonpayable",
					"type": "function"
				},
				{
					"inputs": [
						{
							"internalType": "uint256",
							"name": "sellTaxFee",
							"type": "uint256"
						}
					],
					"name": "setSellTaxFeePercent",
					"outputs": [],
					"stateMutability": "nonpayable",
					"type": "function"
				},
				{
					"inputs": [
						{
							"internalType": "bool",
							"name": "_enabled",
							"type": "bool"
						}
					],
					"name": "setSwapAndLiquifyEnabled",
					"outputs": [],
					"stateMutability": "nonpayable",
					"type": "function"
				},
				{
					"inputs": [
						{
							"internalType": "uint256",
							"name": "taxFee",
							"type": "uint256"
						}
					],
					"name": "setTaxFeePercent",
					"outputs": [],
					"stateMutability": "nonpayable",
					"type": "function"
				},
				{
					"inputs": [],
					"name": "swapAndLiquifyEnabled",
					"outputs": [
						{
							"internalType": "bool",
							"name": "",
							"type": "bool"
						}
					],
					"stateMutability": "view",
					"type": "function"
				},
				{
					"inputs": [],
					"name": "symbol",
					"outputs": [
						{
							"internalType": "string",
							"name": "",
							"type": "string"
						}
					],
					"stateMutability": "view",
					"type": "function"
				},
				{
					"inputs": [
						{
							"internalType": "uint256",
							"name": "rAmount",
							"type": "uint256"
						}
					],
					"name": "tokenFromReflection",
					"outputs": [
						{
							"internalType": "uint256",
							"name": "",
							"type": "uint256"
						}
					],
					"stateMutability": "view",
					"type": "function"
				},
				{
					"inputs": [],
					"name": "totalFees",
					"outputs": [
						{
							"internalType": "uint256",
							"name": "",
							"type": "uint256"
						}
					],
					"stateMutability": "view",
					"type": "function"
				},
				{
					"inputs": [],
					"name": "totalSupply",
					"outputs": [
						{
							"internalType": "uint256",
							"name": "",
							"type": "uint256"
						}
					],
					"stateMutability": "view",
					"type": "function"
				},
				{
					"inputs": [
						{
							"internalType": "address",
							"name": "recipient",
							"type": "address"
						},
						{
							"internalType": "uint256",
							"name": "amount",
							"type": "uint256"
						}
					],
					"name": "transfer",
					"outputs": [
						{
							"internalType": "bool",
							"name": "",
							"type": "bool"
						}
					],
					"stateMutability": "nonpayable",
					"type": "function"
				},
				{
					"inputs": [
						{
							"internalType": "address",
							"name": "sender",
							"type": "address"
						},
						{
							"internalType": "address",
							"name": "recipient",
							"type": "address"
						},
						{
							"internalType": "uint256",
							"name": "amount",
							"type": "uint256"
						}
					],
					"name": "transferFrom",
					"outputs": [
						{
							"internalType": "bool",
							"name": "",
							"type": "bool"
						}
					],
					"stateMutability": "nonpayable",
					"type": "function"
				},
				{
					"inputs": [
						{
							"internalType": "address",
							"name": "newOwner",
							"type": "address"
						}
					],
					"name": "transferOwnership",
					"outputs": [],
					"stateMutability": "nonpayable",
					"type": "function"
				},
				{
					"stateMutability": "payable",
					"type": "receive"
				}
			],
			"devdoc": {
				"kind": "dev",
				"methods": {
					"allowance(address,address)": {
						"details": "Returns the remaining number of tokens that `spender` will be allowed to spend on behalf of `owner` through {transferFrom}. This is zero by default. This value changes when {approve} or {transferFrom} are called."
					},
					"approve(address,uint256)": {
						"details": "Sets `amount` as the allowance of `spender` over the caller's tokens. Returns a boolean value indicating whether the operation succeeded. IMPORTANT: Beware that changing an allowance with this method brings the risk that someone may use both the old and the new allowance by unfortunate transaction ordering. One possible solution to mitigate this race condition is to first reduce the spender's allowance to 0 and set the desired value afterwards: https://github.com/ethereum/EIPs/issues/20#issuecomment-263524729 Emits an {Approval} event."
					},
					"balanceOf(address)": {
						"details": "Returns the amount of tokens owned by `account`."
					},
					"owner()": {
						"details": "Returns the address of the current owner."
					},
					"renounceOwnership()": {
						"details": "Leaves the contract without owner. It will not be possible to call `onlyOwner` functions anymore. Can only be called by the current owner. NOTE: Renouncing ownership will leave the contract without an owner, thereby removing any functionality that is only available to the owner."
					},
					"totalSupply()": {
						"details": "Returns the amount of tokens in existence."
					},
					"transferOwnership(address)": {
						"details": "Transfers ownership of the contract to a new account (`newOwner`). Can only be called by the current owner."
					}
				},
				"version": 1
			},
			"evm": {
				"assembly": "    /* \"contracts/MyToken.sol\":541:25294  contract Pokemon is Context, IERC20, Ownable {... */\n  mstore(0x40, 0x80)\n    /* \"contracts/MyToken.sol\":1043:1065  7_777_777_777 * 10**18 */\n  0x1921a082258a73bfc3240000\n    /* \"contracts/MyToken.sol\":1017:1065  uint256 private _tTotal = 7_777_777_777 * 10**18 */\n  0x07\n  dup2\n  swap1\n  sstore\n    /* \"contracts/MyToken.sol\":1105:1118  MAX % _tTotal */\n  tag_1\n  swap1\n  not(0x00)\n  tag_2\n  jump\t// in\ntag_1:\n    /* \"contracts/MyToken.sol\":1098:1119  MAX - (MAX % _tTotal) */\n  tag_3\n  swap1\n  not(0x00)\n  tag_4\n  jump\t// in\ntag_3:\n    /* \"contracts/MyToken.sol\":1071:1120  uint256 private _rTotal = (MAX - (MAX % _tTotal)) */\n  0x08\n  sstore\n    /* \"contracts/MyToken.sol\":1159:1196  string private _name = 'Meta-pokemon' */\n  0x40\n  dup1\n  mload\n  dup1\n  dup3\n  add\n  swap1\n  swap2\n  mstore\n  0x0c\n  dup1\n  dup3\n  mstore\n  shl(0xa1, 0x26b2ba3096b837b5b2b6b7b7)\n  0x20\n  swap1\n  swap3\n  add\n  swap2\n  dup3\n  mstore\n  tag_5\n  swap2\n  0x0a\n  swap2\n  tag_6\n  jump\t// in\ntag_5:\n  pop\n    /* \"contracts/MyToken.sol\":1202:1236  string private _symbol = 'pokemon' */\n  0x40\n  dup1\n  mload\n  dup1\n  dup3\n  add\n  swap1\n  swap2\n  mstore\n  0x07\n  dup1\n  dup3\n  mstore\n  shl(0xc9, 0x3837b5b2b6b7b7)\n  0x20\n  swap1\n  swap3\n  add\n  swap2\n  dup3\n  mstore\n  tag_7\n  swap2\n  0x0b\n  swap2\n  tag_6\n  jump\t// in\ntag_7:\n  pop\n    /* \"contracts/MyToken.sol\":1242:1270  uint8 private _decimals = 18 */\n  0x0c\n  dup1\n  sload\n  not(0xff)\n  and\n    /* \"contracts/MyToken.sol\":1268:1270  18 */\n  0x12\n    /* \"contracts/MyToken.sol\":1242:1270  uint8 private _decimals = 18 */\n  swap1\n  dup2\n  or\n  swap1\n  swap2\n  sstore\n    /* \"contracts/MyToken.sol\":1319:1320  2 */\n  0x02\n    /* \"contracts/MyToken.sol\":1294:1320  uint256 public _taxFee = 2 */\n  0x0d\n  dup2\n  swap1\n  sstore\n    /* \"contracts/MyToken.sol\":1326:1367  uint256 private _previousTaxFee = _taxFee */\n  0x0e\n  dup2\n  swap1\n  sstore\n    /* \"contracts/MyToken.sol\":1242:1270  uint8 private _decimals = 18 */\n  0x01\n    /* \"contracts/MyToken.sol\":1374:1406  uint256 public _liquidityFee = 1 */\n  0x0f\n  dup2\n  swap1\n  sstore\n    /* \"contracts/MyToken.sol\":1412:1465  uint256 private _previousLiquidityFee = _liquidityFee */\n  0x10\n  dup2\n  swap1\n  sstore\n    /* \"contracts/MyToken.sol\":1472:1499  uint256 public _burnFee = 2 */\n  0x11\n  dup3\n  swap1\n  sstore\n    /* \"contracts/MyToken.sol\":1505:1548  uint256 private _previousBurnFee = _burnFee */\n  swap2\n  dup2\n  swap1\n  sstore\n    /* \"contracts/MyToken.sol\":1555:1587  uint256 public _marketingFee = 2 */\n  0x13\n  dup2\n  swap1\n  sstore\n    /* \"contracts/MyToken.sol\":1629:1682  uint256 private _previousMarketingFee = _marketingFee */\n  0x15\n  dup2\n  swap1\n  sstore\n    /* \"contracts/MyToken.sol\":1706:1736  uint256 public _sellTaxFee = 2 */\n  0x16\n  dup2\n  swap1\n  sstore\n    /* \"contracts/MyToken.sol\":1742:1778  uint256 public _sellLiquidityFee = 1 */\n  0x17\n  swap2\n  swap1\n  swap2\n  sstore\n    /* \"contracts/MyToken.sol\":1784:1820  uint256 public _sellMarketingFee = 2 */\n  0x18\n  dup2\n  swap1\n  sstore\n    /* \"contracts/MyToken.sol\":1826:1857  uint256 public _sellBurnFee = 2 */\n  0x19\n  sstore\n    /* \"contracts/MyToken.sol\":1984:1985  5 */\n  0x05\n    /* \"contracts/MyToken.sol\":1947:1985  uint256 public _maxHoldingPercents = 5 */\n  0x1a\n  sstore\n    /* \"contracts/MyToken.sol\":2284:2325  bool public swapAndLiquifyEnabled = false */\n  0x1f\n  dup1\n  sload\n  not(shl(0xa8, 0xff))\n  and\n  swap1\n  sstore\n    /* \"contracts/MyToken.sol\":2379:2395  1000000 * 10**18 */\n  0xd3c21bcecceda1000000\n    /* \"contracts/MyToken.sol\":2331:2395  uint256 private numTokensSellToAddToLiquidity = 1000000 * 10**18 */\n  0x20\n  swap1\n  dup2\n  sstore\n    /* \"contracts/MyToken.sol\":2401:2622  uint256[] _allowedBuyAmount = [... */\n  0x40\n  dup1\n  mload\n  0x0160\n  dup2\n  add\n  dup3\n  mstore\n    /* \"contracts/MyToken.sol\":2441:2446  65678 */\n  0x01008e\n    /* \"contracts/MyToken.sol\":2401:2622  uint256[] _allowedBuyAmount = [... */\n  dup2\n  mstore\n    /* \"contracts/MyToken.sol\":2456:2462  129052 */\n  0x01f81c\n    /* \"contracts/MyToken.sol\":2401:2622  uint256[] _allowedBuyAmount = [... */\n  swap3\n  dup2\n  add\n  swap3\n  swap1\n  swap3\n  mstore\n    /* \"contracts/MyToken.sol\":2472:2478  263555 */\n  0x040583\n    /* \"contracts/MyToken.sol\":2401:2622  uint256[] _allowedBuyAmount = [... */\n  swap1\n  dup3\n  add\n  mstore\n    /* \"contracts/MyToken.sol\":2488:2494  521287 */\n  0x07f447\n    /* \"contracts/MyToken.sol\":2401:2622  uint256[] _allowedBuyAmount = [... */\n  0x60\n  dup3\n  add\n  mstore\n    /* \"contracts/MyToken.sol\":2504:2511  1047577 */\n  0x0ffc19\n    /* \"contracts/MyToken.sol\":2401:2622  uint256[] _allowedBuyAmount = [... */\n  0x80\n  dup3\n  add\n  mstore\n    /* \"contracts/MyToken.sol\":2521:2528  2087152 */\n  0x1fd8f0\n    /* \"contracts/MyToken.sol\":2401:2622  uint256[] _allowedBuyAmount = [... */\n  0xa0\n  dup3\n  add\n  mstore\n    /* \"contracts/MyToken.sol\":2538:2545  4194221 */\n  0x3fffad\n    /* \"contracts/MyToken.sol\":2401:2622  uint256[] _allowedBuyAmount = [... */\n  0xc0\n  dup3\n  add\n  mstore\n    /* \"contracts/MyToken.sol\":2555:2562  8386606 */\n  0x7ff82e\n    /* \"contracts/MyToken.sol\":2401:2622  uint256[] _allowedBuyAmount = [... */\n  0xe0\n  dup3\n  add\n  mstore\n    /* \"contracts/MyToken.sol\":2572:2580  16877115 */\n  0x0101863b\n    /* \"contracts/MyToken.sol\":1242:1270  uint8 private _decimals = 18 */\n  0x0100\n    /* \"contracts/MyToken.sol\":2401:2622  uint256[] _allowedBuyAmount = [... */\n  dup3\n  add\n  mstore\n    /* \"contracts/MyToken.sol\":2590:2598  33564442 */\n  0x0200271a\n    /* \"contracts/MyToken.sol\":2401:2622  uint256[] _allowedBuyAmount = [... */\n  0x0120\n  dup3\n  add\n  mstore\n    /* \"contracts/MyToken.sol\":2608:2616  67308851 */\n  0x04030d33\n    /* \"contracts/MyToken.sol\":2401:2622  uint256[] _allowedBuyAmount = [... */\n  0x0140\n  dup3\n  add\n  mstore\n  tag_8\n  swap1\n  0x21\n  swap1\n  0x0b\n  tag_9\n  jump\t// in\ntag_8:\n  pop\n    /* \"contracts/MyToken.sol\":2926:3944  constructor(... */\n  callvalue\n  dup1\n  iszero\n  tag_10\n  jumpi\n  0x00\n  dup1\n  revert\ntag_10:\n  pop\n  mload(0x40)\n  sub(codesize, bytecodeSize)\n  dup1\n  bytecodeSize\n  dup4\n  codecopy\n  dup2\n  add\n  0x40\n  dup2\n  swap1\n  mstore\n  tag_11\n  swap2\n  tag_12\n  jump\t// in\ntag_11:\n    /* \"@openzeppelin/contracts/access/Ownable.sol\":936:968  _transferOwnership(_msgSender()) */\n  tag_16\n    /* \"@openzeppelin/contracts/utils/Context.sol\":719:729  msg.sender */\n  caller\n    /* \"@openzeppelin/contracts/access/Ownable.sol\":936:954  _transferOwnership */\n  tag_19\n    /* \"@openzeppelin/contracts/access/Ownable.sol\":936:968  _transferOwnership(_msgSender()) */\n  jump\t// in\ntag_16:\n    /* \"contracts/MyToken.sol\":3063:3078  marketingWallet */\n  0x14\n    /* \"contracts/MyToken.sol\":3063:3097  marketingWallet = _marketingWallet */\n  dup1\n  sload\n  not(sub(shl(0xa0, 0x01), 0x01))\n  and\n  sub(shl(0xa0, 0x01), 0x01)\n  dup5\n  dup2\n  and\n  swap2\n  swap1\n  swap2\n  or\n  swap1\n  swap2\n  sstore\n    /* \"contracts/MyToken.sol\":3107:3118  antiManager */\n  0x1d\n    /* \"contracts/MyToken.sol\":3107:3133  antiManager = _antiManager */\n  dup1\n  sload\n  not(sub(shl(0xa8, 0x01), 0x0100))\n  and\n    /* \"contracts/MyToken.sol\":3063:3097  marketingWallet = _marketingWallet */\n  0x0100\n    /* \"contracts/MyToken.sol\":3107:3133  antiManager = _antiManager */\n  swap3\n  dup5\n  and\n  swap3\n  swap1\n  swap3\n  mul\n  swap2\n  swap1\n  swap2\n  or\n  swap1\n  sstore\n    /* \"contracts/MyToken.sol\":3167:3174  _rTotal */\n  sload(0x08)\n  0x01\n  0x00\n    /* \"contracts/MyToken.sol\":3151:3163  _msgSender() */\n  tag_21\n    /* \"@openzeppelin/contracts/utils/Context.sol\":719:729  msg.sender */\n  caller\n  swap1\n    /* \"@openzeppelin/contracts/utils/Context.sol\":640:736  function _msgSender() internal view virtual returns (address) {... */\n  jump\n    /* \"contracts/MyToken.sol\":3151:3163  _msgSender() */\ntag_21:\n  sub(shl(0xa0, 0x01), 0x01)\n    /* \"contracts/MyToken.sol\":3143:3164  _rOwned[_msgSender()] */\n  and\n  sub(shl(0xa0, 0x01), 0x01)\n  and\n  dup2\n  mstore\n  0x20\n  add\n  swap1\n  dup2\n  mstore\n  0x20\n  add\n  0x00\n  keccak256\n    /* \"contracts/MyToken.sol\":3143:3174  _rOwned[_msgSender()] = _rTotal */\n  dup2\n  swap1\n  sstore\n  pop\n    /* \"contracts/MyToken.sol\":3271:3287  _pancakeV2Router */\n  dup3\n  sub(shl(0xa0, 0x01), 0x01)\n    /* \"contracts/MyToken.sol\":3271:3295  _pancakeV2Router.factory */\n  and\n  0xc45a0155\n    /* \"contracts/MyToken.sol\":3271:3297  _pancakeV2Router.factory() */\n  mload(0x40)\n  dup2\n  0xffffffff\n  and\n  0xe0\n  shl\n  dup2\n  mstore\n  0x04\n  add\n  0x20\n  mload(0x40)\n  dup1\n  dup4\n  sub\n  dup2\n  dup7\n  dup1\n  extcodesize\n  iszero\n  dup1\n  iszero\n  tag_22\n  jumpi\n  0x00\n  dup1\n  revert\ntag_22:\n  pop\n  gas\n  staticcall\n  iszero\n  dup1\n  iszero\n  tag_24\n  jumpi\n  returndatasize\n  0x00\n  dup1\n  returndatacopy\n  revert(0x00, returndatasize)\ntag_24:\n  pop\n  pop\n  pop\n  pop\n  mload(0x40)\n  returndatasize\n  not(0x1f)\n  0x1f\n  dup3\n  add\n  and\n  dup3\n  add\n  dup1\n  0x40\n  mstore\n  pop\n  dup2\n  add\n  swap1\n  tag_25\n  swap2\n  swap1\n  tag_26\n  jump\t// in\ntag_25:\n  sub(shl(0xa0, 0x01), 0x01)\n    /* \"contracts/MyToken.sol\":3253:3309  IPancakeV2Factory(_pancakeV2Router.factory()).createPair */\n  and\n  0xc9c65396\n    /* \"contracts/MyToken.sol\":3331:3335  this */\n  address\n    /* \"contracts/MyToken.sol\":3350:3366  _pancakeV2Router */\n  dup6\n  sub(shl(0xa0, 0x01), 0x01)\n    /* \"contracts/MyToken.sol\":3350:3371  _pancakeV2Router.WETH */\n  and\n  0xad5c4648\n    /* \"contracts/MyToken.sol\":3350:3373  _pancakeV2Router.WETH() */\n  mload(0x40)\n  dup2\n  0xffffffff\n  and\n  0xe0\n  shl\n  dup2\n  mstore\n  0x04\n  add\n  0x20\n  mload(0x40)\n  dup1\n  dup4\n  sub\n  dup2\n  dup7\n  dup1\n  extcodesize\n  iszero\n  dup1\n  iszero\n  tag_27\n  jumpi\n  0x00\n  dup1\n  revert\ntag_27:\n  pop\n  gas\n  staticcall\n  iszero\n  dup1\n  iszero\n  tag_29\n  jumpi\n  returndatasize\n  0x00\n  dup1\n  returndatacopy\n  revert(0x00, returndatasize)\ntag_29:\n  pop\n  pop\n  pop\n  pop\n  mload(0x40)\n  returndatasize\n  not(0x1f)\n  0x1f\n  dup3\n  add\n  and\n  dup3\n  add\n  dup1\n  0x40\n  mstore\n  pop\n  dup2\n  add\n  swap1\n  tag_30\n  swap2\n  swap1\n  tag_26\n  jump\t// in\ntag_30:\n    /* \"contracts/MyToken.sol\":3253:3383  IPancakeV2Factory(_pancakeV2Router.factory()).createPair(... */\n  mload(0x40)\n  not(sub(shl(0xe0, 0x01), 0x01))\n  0xe0\n  dup6\n  swap1\n  shl\n  and\n  dup2\n  mstore\n  sub(shl(0xa0, 0x01), 0x01)\n    /* \"#utility.yul\":1051:1066   */\n  swap3\n  dup4\n  and\n    /* \"contracts/MyToken.sol\":3253:3383  IPancakeV2Factory(_pancakeV2Router.factory()).createPair(... */\n  0x04\n  dup3\n  add\n    /* \"#utility.yul\":1033:1067   */\n  mstore\n    /* \"#utility.yul\":1103:1118   */\n  swap2\n  and\n    /* \"#utility.yul\":1083:1101   */\n  0x24\n  dup3\n  add\n    /* \"#utility.yul\":1076:1119   */\n  mstore\n    /* \"#utility.yul\":968:986   */\n  0x44\n  add\n    /* \"contracts/MyToken.sol\":3253:3383  IPancakeV2Factory(_pancakeV2Router.factory()).createPair(... */\n  0x20\n  mload(0x40)\n  dup1\n  dup4\n  sub\n  dup2\n  0x00\n  dup8\n  dup1\n  extcodesize\n  iszero\n  dup1\n  iszero\n  tag_33\n  jumpi\n  0x00\n  dup1\n  revert\ntag_33:\n  pop\n  gas\n  call\n  iszero\n  dup1\n  iszero\n  tag_35\n  jumpi\n  returndatasize\n  0x00\n  dup1\n  returndatacopy\n  revert(0x00, returndatasize)\ntag_35:\n  pop\n  pop\n  pop\n  pop\n  mload(0x40)\n  returndatasize\n  not(0x1f)\n  0x1f\n  dup3\n  add\n  and\n  dup3\n  add\n  dup1\n  0x40\n  mstore\n  pop\n  dup2\n  add\n  swap1\n  tag_36\n  swap2\n  swap1\n  tag_26\n  jump\t// in\ntag_36:\n    /* \"contracts/MyToken.sol\":3237:3250  pancakeV2Pair */\n  0x1f\n    /* \"contracts/MyToken.sol\":3237:3383  pancakeV2Pair = IPancakeV2Factory(_pancakeV2Router.factory()).createPair(... */\n  dup1\n  sload\n  not(sub(shl(0xa0, 0x01), 0x01))\n  swap1\n  dup2\n  and\n  sub(shl(0xa0, 0x01), 0x01)\n  swap4\n  dup5\n  and\n  or\n  swap1\n  swap2\n  sstore\n    /* \"contracts/MyToken.sol\":3444:3459  pancakeV2Router */\n  0x1e\n    /* \"contracts/MyToken.sol\":3444:3478  pancakeV2Router = _pancakeV2Router */\n  dup1\n  sload\n  swap1\n  swap2\n  and\n  swap2\n  dup6\n  and\n  swap2\n  swap1\n  swap2\n  or\n  swap1\n  sstore\n  0x01\n    /* \"contracts/MyToken.sol\":3554:3572  _isExcludedFromFee */\n  0x04\n  0x00\n    /* \"contracts/MyToken.sol\":3573:3580  owner() */\n  tag_37\n    /* \"@openzeppelin/contracts/access/Ownable.sol\":1247:1254  address */\n  0x00\n    /* \"@openzeppelin/contracts/access/Ownable.sol\":1273:1279  _owner */\n  sload\n  sub(shl(0xa0, 0x01), 0x01)\n  and\n  swap1\n    /* \"@openzeppelin/contracts/access/Ownable.sol\":1201:1286  function owner() public view virtual returns (address) {... */\n  jump\n    /* \"contracts/MyToken.sol\":3573:3580  owner() */\ntag_37:\n  sub(shl(0xa0, 0x01), 0x01)\n    /* \"contracts/MyToken.sol\":3554:3581  _isExcludedFromFee[owner()] */\n  swap1\n  dup2\n  and\n  dup3\n  mstore\n  0x20\n  dup1\n  dup4\n  add\n  swap4\n  swap1\n  swap4\n  mstore\n  0x40\n  swap2\n  dup3\n  add\n  0x00\n  swap1\n  dup2\n  keccak256\n    /* \"contracts/MyToken.sol\":3554:3588  _isExcludedFromFee[owner()] = true */\n  dup1\n  sload\n  swap6\n  iszero\n  iszero\n  not(0xff)\n  swap7\n  dup8\n  and\n  or\n  swap1\n  sstore\n    /* \"contracts/MyToken.sol\":3598:3630  _isExcludedFromFee[_antiManager] */\n  swap1\n  dup6\n  and\n  dup2\n  mstore\n    /* \"contracts/MyToken.sol\":3598:3616  _isExcludedFromFee */\n  0x04\n    /* \"contracts/MyToken.sol\":3598:3630  _isExcludedFromFee[_antiManager] */\n  swap1\n  swap3\n  mstore\n  dup1\n  dup3\n  keccak256\n    /* \"contracts/MyToken.sol\":3598:3637  _isExcludedFromFee[_antiManager] = true */\n  dup1\n  sload\n  dup5\n  and\n    /* \"contracts/MyToken.sol\":3554:3588  _isExcludedFromFee[owner()] = true */\n  0x01\n    /* \"contracts/MyToken.sol\":3598:3637  _isExcludedFromFee[_antiManager] = true */\n  swap1\n  dup2\n  or\n  swap1\n  swap2\n  sstore\n    /* \"contracts/MyToken.sol\":3674:3678  this */\n  address\n    /* \"contracts/MyToken.sol\":3647:3680  _isExcludedFromFee[address(this)] */\n  dup4\n  mstore\n  swap1\n  dup3\n  keccak256\n    /* \"contracts/MyToken.sol\":3647:3687  _isExcludedFromFee[address(this)] = true */\n  dup1\n  sload\n  swap1\n  swap4\n  and\n  or\n  swap1\n  swap2\n  sstore\n    /* \"contracts/MyToken.sol\":3745:3879  for (uint256 i = 0; i < _allowedBuyAmount.length; i++) {... */\ntag_39:\n    /* \"contracts/MyToken.sol\":3769:3786  _allowedBuyAmount */\n  0x21\n    /* \"contracts/MyToken.sol\":3769:3793  _allowedBuyAmount.length */\n  sload\n    /* \"contracts/MyToken.sol\":3765:3793  i < _allowedBuyAmount.length */\n  dup2\n  lt\n    /* \"contracts/MyToken.sol\":3745:3879  for (uint256 i = 0; i < _allowedBuyAmount.length; i++) {... */\n  iszero\n  tag_40\n  jumpi\n    /* \"contracts/MyToken.sol\":3864:3868  true */\n  0x01\n    /* \"contracts/MyToken.sol\":3814:3830  allowedBuyAmount */\n  0x1c\n    /* \"contracts/MyToken.sol\":3814:3861  allowedBuyAmount[_allowedBuyAmount[i] * 10**18] */\n  0x00\n    /* \"contracts/MyToken.sol\":3831:3848  _allowedBuyAmount */\n  0x21\n    /* \"contracts/MyToken.sol\":3849:3850  i */\n  dup5\n    /* \"contracts/MyToken.sol\":3831:3851  _allowedBuyAmount[i] */\n  dup2\n  sload\n  dup2\n  lt\n  tag_43\n  jumpi\n  tag_43\n  tag_44\n  jump\t// in\ntag_43:\n  swap1\n  0x00\n  mstore\n  keccak256(0x00, 0x20)\n  add\n  sload\n    /* \"contracts/MyToken.sol\":3854:3860  10**18 */\n  0x0de0b6b3a7640000\n    /* \"contracts/MyToken.sol\":3831:3860  _allowedBuyAmount[i] * 10**18 */\n  tag_46\n  swap2\n  swap1\n  tag_47\n  jump\t// in\ntag_46:\n    /* \"contracts/MyToken.sol\":3814:3861  allowedBuyAmount[_allowedBuyAmount[i] * 10**18] */\n  dup2\n  mstore\n  0x20\n  dup2\n  add\n  swap2\n  swap1\n  swap2\n  mstore\n  0x40\n  add\n  0x00\n  keccak256\n    /* \"contracts/MyToken.sol\":3814:3868  allowedBuyAmount[_allowedBuyAmount[i] * 10**18] = true */\n  dup1\n  sload\n  not(0xff)\n  and\n  swap2\n  iszero\n  iszero\n  swap2\n  swap1\n  swap2\n  or\n  swap1\n  sstore\n    /* \"contracts/MyToken.sol\":3795:3798  i++ */\n  dup1\n  tag_48\n  dup2\n  tag_49\n  jump\t// in\ntag_48:\n  swap2\n  pop\n  pop\n    /* \"contracts/MyToken.sol\":3745:3879  for (uint256 i = 0; i < _allowedBuyAmount.length; i++) {... */\n  jump(tag_39)\ntag_40:\n  pop\n    /* \"contracts/MyToken.sol\":3929:3936  _tTotal */\n  sload(0x07)\n    /* \"contracts/MyToken.sol\":3894:3937  Transfer(address(0), _msgSender(), _tTotal) */\n  mload(0x40)\n    /* \"#utility.yul\":1276:1301   */\n  swap1\n  dup2\n  mstore\n    /* \"@openzeppelin/contracts/utils/Context.sol\":719:729  msg.sender */\n  caller\n  swap1\n    /* \"contracts/MyToken.sol\":3911:3912  0 */\n  0x00\n  swap1\n    /* \"contracts/MyToken.sol\":3894:3937  Transfer(address(0), _msgSender(), _tTotal) */\n  0xddf252ad1be2c89b69c2b068fc378daa952ba7f163c4a11628f55a4df523b3ef\n  swap1\n    /* \"#utility.yul\":1264:1266   */\n  0x20\n    /* \"#utility.yul\":1249:1267   */\n  add\n    /* \"contracts/MyToken.sol\":3894:3937  Transfer(address(0), _msgSender(), _tTotal) */\n  mload(0x40)\n  dup1\n  swap2\n  sub\n  swap1\n  log3\n    /* \"contracts/MyToken.sol\":2926:3944  constructor(... */\n  pop\n  pop\n  pop\n    /* \"contracts/MyToken.sol\":541:25294  contract Pokemon is Context, IERC20, Ownable {... */\n  jump(tag_72)\n    /* \"@openzeppelin/contracts/access/Ownable.sol\":2433:2620  function _transferOwnership(address newOwner) internal virtual {... */\ntag_19:\n    /* \"@openzeppelin/contracts/access/Ownable.sol\":2506:2522  address oldOwner */\n  0x00\n    /* \"@openzeppelin/contracts/access/Ownable.sol\":2525:2531  _owner */\n  dup1\n  sload\n  sub(shl(0xa0, 0x01), 0x01)\n    /* \"@openzeppelin/contracts/access/Ownable.sol\":2541:2558  _owner = newOwner */\n  dup4\n  dup2\n  and\n  not(sub(shl(0xa0, 0x01), 0x01))\n  dup4\n  and\n  dup2\n  or\n  dup5\n  sstore\n    /* \"@openzeppelin/contracts/access/Ownable.sol\":2573:2613  OwnershipTransferred(oldOwner, newOwner) */\n  mload(0x40)\n    /* \"@openzeppelin/contracts/access/Ownable.sol\":2525:2531  _owner */\n  swap2\n  swap1\n  swap3\n  and\n  swap3\n  dup4\n  swap2\n    /* \"@openzeppelin/contracts/access/Ownable.sol\":2573:2613  OwnershipTransferred(oldOwner, newOwner) */\n  0x8be0079c531659141344cd1fd0a4f28419497f9722a3daafe3b4186f6b6457e0\n  swap2\n    /* \"@openzeppelin/contracts/access/Ownable.sol\":2506:2522  address oldOwner */\n  swap1\n    /* \"@openzeppelin/contracts/access/Ownable.sol\":2573:2613  OwnershipTransferred(oldOwner, newOwner) */\n  log3\n    /* \"@openzeppelin/contracts/access/Ownable.sol\":2496:2620  {... */\n  pop\n    /* \"@openzeppelin/contracts/access/Ownable.sol\":2433:2620  function _transferOwnership(address newOwner) internal virtual {... */\n  pop\n  jump\t// out\n    /* \"contracts/MyToken.sol\":541:25294  contract Pokemon is Context, IERC20, Ownable {... */\ntag_6:\n  dup3\n  dup1\n  sload\n  tag_57\n  swap1\n  tag_58\n  jump\t// in\ntag_57:\n  swap1\n  0x00\n  mstore\n  keccak256(0x00, 0x20)\n  swap1\n  0x1f\n  add\n  0x20\n  swap1\n  div\n  dup2\n  add\n  swap3\n  dup3\n  tag_60\n  jumpi\n  0x00\n  dup6\n  sstore\n  jump(tag_63)\ntag_60:\n  dup3\n  0x1f\n  lt\n  tag_61\n  jumpi\n  dup1\n  mload\n  not(0xff)\n  and\n  dup4\n  dup1\n  add\n  or\n  dup6\n  sstore\n  jump(tag_63)\ntag_61:\n  dup3\n  dup1\n  add\n  0x01\n  add\n  dup6\n  sstore\n  dup3\n  iszero\n  tag_63\n  jumpi\n  swap2\n  dup3\n  add\ntag_62:\n  dup3\n  dup2\n  gt\n  iszero\n  tag_63\n  jumpi\n  dup3\n  mload\n  dup3\n  sstore\n  swap2\n  0x20\n  add\n  swap2\n  swap1\n  0x01\n  add\n  swap1\n  jump(tag_62)\ntag_63:\n  pop\n  tag_64\n  swap3\n  swap2\n  pop\n  tag_65\n  jump\t// in\ntag_64:\n  pop\n  swap1\n  jump\t// out\ntag_9:\n  dup3\n  dup1\n  sload\n  dup3\n  dup3\n  sstore\n  swap1\n  0x00\n  mstore\n  keccak256(0x00, 0x20)\n  swap1\n  dup2\n  add\n  swap3\n  dup3\n  iszero\n  tag_63\n  jumpi\n  swap2\n  0x20\n  mul\n  dup3\n  add\ntag_67:\n  dup3\n  dup2\n  gt\n  iszero\n  tag_63\n  jumpi\n  dup3\n  mload\n  dup3\n  swap1\n  0xffffffff\n  and\n  swap1\n  sstore\n  swap2\n  0x20\n  add\n  swap2\n  swap1\n  0x01\n  add\n  swap1\n  jump(tag_67)\ntag_65:\ntag_70:\n  dup1\n  dup3\n  gt\n  iszero\n  tag_64\n  jumpi\n  0x00\n  dup2\n  sstore\n  0x01\n  add\n  jump(tag_70)\n    /* \"#utility.yul\":14:265   */\ntag_26:\n    /* \"#utility.yul\":84:90   */\n  0x00\n    /* \"#utility.yul\":137:139   */\n  0x20\n    /* \"#utility.yul\":125:134   */\n  dup3\n    /* \"#utility.yul\":116:123   */\n  dup5\n    /* \"#utility.yul\":112:135   */\n  sub\n    /* \"#utility.yul\":108:140   */\n  slt\n    /* \"#utility.yul\":105:157   */\n  iszero\n  tag_74\n  jumpi\n    /* \"#utility.yul\":153:154   */\n  0x00\n    /* \"#utility.yul\":150:151   */\n  dup1\n    /* \"#utility.yul\":143:155   */\n  revert\n    /* \"#utility.yul\":105:157   */\ntag_74:\n    /* \"#utility.yul\":185:194   */\n  dup2\n    /* \"#utility.yul\":179:195   */\n  mload\n    /* \"#utility.yul\":204:235   */\n  tag_75\n    /* \"#utility.yul\":229:234   */\n  dup2\n    /* \"#utility.yul\":204:235   */\n  tag_76\n  jump\t// in\ntag_75:\n    /* \"#utility.yul\":254:259   */\n  swap4\n    /* \"#utility.yul\":14:265   */\n  swap3\n  pop\n  pop\n  pop\n  jump\t// out\n    /* \"#utility.yul\":270:816   */\ntag_12:\n    /* \"#utility.yul\":385:391   */\n  0x00\n    /* \"#utility.yul\":393:399   */\n  dup1\n    /* \"#utility.yul\":401:407   */\n  0x00\n    /* \"#utility.yul\":454:456   */\n  0x60\n    /* \"#utility.yul\":442:451   */\n  dup5\n    /* \"#utility.yul\":433:440   */\n  dup7\n    /* \"#utility.yul\":429:452   */\n  sub\n    /* \"#utility.yul\":425:457   */\n  slt\n    /* \"#utility.yul\":422:474   */\n  iszero\n  tag_78\n  jumpi\n    /* \"#utility.yul\":470:471   */\n  0x00\n    /* \"#utility.yul\":467:468   */\n  dup1\n    /* \"#utility.yul\":460:472   */\n  revert\n    /* \"#utility.yul\":422:474   */\ntag_78:\n    /* \"#utility.yul\":502:511   */\n  dup4\n    /* \"#utility.yul\":496:512   */\n  mload\n    /* \"#utility.yul\":521:552   */\n  tag_79\n    /* \"#utility.yul\":546:551   */\n  dup2\n    /* \"#utility.yul\":521:552   */\n  tag_76\n  jump\t// in\ntag_79:\n    /* \"#utility.yul\":621:623   */\n  0x20\n    /* \"#utility.yul\":606:624   */\n  dup6\n  add\n    /* \"#utility.yul\":600:625   */\n  mload\n    /* \"#utility.yul\":571:576   */\n  swap1\n  swap4\n  pop\n    /* \"#utility.yul\":634:667   */\n  tag_80\n    /* \"#utility.yul\":600:625   */\n  dup2\n    /* \"#utility.yul\":634:667   */\n  tag_76\n  jump\t// in\ntag_80:\n    /* \"#utility.yul\":738:740   */\n  0x40\n    /* \"#utility.yul\":723:741   */\n  dup6\n  add\n    /* \"#utility.yul\":717:742   */\n  mload\n    /* \"#utility.yul\":686:693   */\n  swap1\n  swap3\n  pop\n    /* \"#utility.yul\":751:784   */\n  tag_81\n    /* \"#utility.yul\":717:742   */\n  dup2\n    /* \"#utility.yul\":751:784   */\n  tag_76\n  jump\t// in\ntag_81:\n    /* \"#utility.yul\":803:810   */\n  dup1\n    /* \"#utility.yul\":793:810   */\n  swap2\n  pop\n  pop\n    /* \"#utility.yul\":270:816   */\n  swap3\n  pop\n  swap3\n  pop\n  swap3\n  jump\t// out\n    /* \"#utility.yul\":1312:1480   */\ntag_47:\n    /* \"#utility.yul\":1352:1359   */\n  0x00\n    /* \"#utility.yul\":1418:1419   */\n  dup2\n    /* \"#utility.yul\":1414:1415   */\n  0x00\n    /* \"#utility.yul\":1410:1416   */\n  not\n    /* \"#utility.yul\":1406:1420   */\n  div\n    /* \"#utility.yul\":1403:1404   */\n  dup4\n    /* \"#utility.yul\":1400:1421   */\n  gt\n    /* \"#utility.yul\":1395:1396   */\n  dup3\n    /* \"#utility.yul\":1388:1397   */\n  iszero\n    /* \"#utility.yul\":1381:1398   */\n  iszero\n    /* \"#utility.yul\":1377:1422   */\n  and\n    /* \"#utility.yul\":1374:1445   */\n  iszero\n  tag_86\n  jumpi\n    /* \"#utility.yul\":1425:1443   */\n  tag_86\n  tag_87\n  jump\t// in\ntag_86:\n  pop\n    /* \"#utility.yul\":1465:1474   */\n  mul\n  swap1\n    /* \"#utility.yul\":1312:1480   */\n  jump\t// out\n    /* \"#utility.yul\":1485:1610   */\ntag_4:\n    /* \"#utility.yul\":1525:1529   */\n  0x00\n    /* \"#utility.yul\":1553:1554   */\n  dup3\n    /* \"#utility.yul\":1550:1551   */\n  dup3\n    /* \"#utility.yul\":1547:1555   */\n  lt\n    /* \"#utility.yul\":1544:1578   */\n  iszero\n  tag_90\n  jumpi\n    /* \"#utility.yul\":1558:1576   */\n  tag_90\n  tag_87\n  jump\t// in\ntag_90:\n  pop\n    /* \"#utility.yul\":1595:1604   */\n  sub\n  swap1\n    /* \"#utility.yul\":1485:1610   */\n  jump\t// out\n    /* \"#utility.yul\":1615:1995   */\ntag_58:\n    /* \"#utility.yul\":1694:1695   */\n  0x01\n    /* \"#utility.yul\":1690:1702   */\n  dup2\n  dup2\n  shr\n  swap1\n    /* \"#utility.yul\":1737:1749   */\n  dup3\n  and\n  dup1\n    /* \"#utility.yul\":1758:1819   */\n  tag_92\n  jumpi\n    /* \"#utility.yul\":1812:1816   */\n  0x7f\n    /* \"#utility.yul\":1804:1810   */\n  dup3\n    /* \"#utility.yul\":1800:1817   */\n  and\n    /* \"#utility.yul\":1790:1817   */\n  swap2\n  pop\n    /* \"#utility.yul\":1758:1819   */\ntag_92:\n    /* \"#utility.yul\":1865:1867   */\n  0x20\n    /* \"#utility.yul\":1857:1863   */\n  dup3\n    /* \"#utility.yul\":1854:1868   */\n  lt\n    /* \"#utility.yul\":1834:1852   */\n  dup2\n    /* \"#utility.yul\":1831:1869   */\n  eq\n    /* \"#utility.yul\":1828:1989   */\n  iszero\n  tag_93\n  jumpi\n    /* \"#utility.yul\":1911:1921   */\n  0x4e487b71\n    /* \"#utility.yul\":1906:1909   */\n  0xe0\n    /* \"#utility.yul\":1902:1922   */\n  shl\n    /* \"#utility.yul\":1899:1900   */\n  0x00\n    /* \"#utility.yul\":1892:1923   */\n  mstore\n    /* \"#utility.yul\":1946:1950   */\n  0x22\n    /* \"#utility.yul\":1943:1944   */\n  0x04\n    /* \"#utility.yul\":1936:1951   */\n  mstore\n    /* \"#utility.yul\":1974:1978   */\n  0x24\n    /* \"#utility.yul\":1971:1972   */\n  0x00\n    /* \"#utility.yul\":1964:1979   */\n  revert\n    /* \"#utility.yul\":1828:1989   */\ntag_93:\n  pop\n    /* \"#utility.yul\":1615:1995   */\n  swap2\n  swap1\n  pop\n  jump\t// out\n    /* \"#utility.yul\":2000:2135   */\ntag_49:\n    /* \"#utility.yul\":2039:2042   */\n  0x00\n  not(0x00)\n    /* \"#utility.yul\":2060:2077   */\n  dup3\n  eq\n    /* \"#utility.yul\":2057:2100   */\n  iszero\n  tag_96\n  jumpi\n    /* \"#utility.yul\":2080:2098   */\n  tag_96\n  tag_87\n  jump\t// in\ntag_96:\n  pop\n    /* \"#utility.yul\":2127:2128   */\n  0x01\n    /* \"#utility.yul\":2116:2129   */\n  add\n  swap1\n    /* \"#utility.yul\":2000:2135   */\n  jump\t// out\n    /* \"#utility.yul\":2140:2349   */\ntag_2:\n    /* \"#utility.yul\":2172:2173   */\n  0x00\n    /* \"#utility.yul\":2198:2199   */\n  dup3\n    /* \"#utility.yul\":2188:2320   */\n  tag_98\n  jumpi\n    /* \"#utility.yul\":2242:2252   */\n  0x4e487b71\n    /* \"#utility.yul\":2237:2240   */\n  0xe0\n    /* \"#utility.yul\":2233:2253   */\n  shl\n    /* \"#utility.yul\":2230:2231   */\n  0x00\n    /* \"#utility.yul\":2223:2254   */\n  mstore\n    /* \"#utility.yul\":2277:2281   */\n  0x12\n    /* \"#utility.yul\":2274:2275   */\n  0x04\n    /* \"#utility.yul\":2267:2282   */\n  mstore\n    /* \"#utility.yul\":2305:2309   */\n  0x24\n    /* \"#utility.yul\":2302:2303   */\n  0x00\n    /* \"#utility.yul\":2295:2310   */\n  revert\n    /* \"#utility.yul\":2188:2320   */\ntag_98:\n  pop\n    /* \"#utility.yul\":2334:2343   */\n  mod\n  swap1\n    /* \"#utility.yul\":2140:2349   */\n  jump\t// out\n    /* \"#utility.yul\":2354:2481   */\ntag_87:\n    /* \"#utility.yul\":2415:2425   */\n  0x4e487b71\n    /* \"#utility.yul\":2410:2413   */\n  0xe0\n    /* \"#utility.yul\":2406:2426   */\n  shl\n    /* \"#utility.yul\":2403:2404   */\n  0x00\n    /* \"#utility.yul\":2396:2427   */\n  mstore\n    /* \"#utility.yul\":2446:2450   */\n  0x11\n    /* \"#utility.yul\":2443:2444   */\n  0x04\n    /* \"#utility.yul\":2436:2451   */\n  mstore\n    /* \"#utility.yul\":2470:2474   */\n  0x24\n    /* \"#utility.yul\":2467:2468   */\n  0x00\n    /* \"#utility.yul\":2460:2475   */\n  revert\n    /* \"#utility.yul\":2486:2613   */\ntag_44:\n    /* \"#utility.yul\":2547:2557   */\n  0x4e487b71\n    /* \"#utility.yul\":2542:2545   */\n  0xe0\n    /* \"#utility.yul\":2538:2558   */\n  shl\n    /* \"#utility.yul\":2535:2536   */\n  0x00\n    /* \"#utility.yul\":2528:2559   */\n  mstore\n    /* \"#utility.yul\":2578:2582   */\n  0x32\n    /* \"#utility.yul\":2575:2576   */\n  0x04\n    /* \"#utility.yul\":2568:2583   */\n  mstore\n    /* \"#utility.yul\":2602:2606   */\n  0x24\n    /* \"#utility.yul\":2599:2600   */\n  0x00\n    /* \"#utility.yul\":2592:2607   */\n  revert\n    /* \"#utility.yul\":2618:2749   */\ntag_76:\n  sub(shl(0xa0, 0x01), 0x01)\n    /* \"#utility.yul\":2693:2724   */\n  dup2\n  and\n    /* \"#utility.yul\":2683:2725   */\n  dup2\n  eq\n    /* \"#utility.yul\":2673:2743   */\n  tag_102\n  jumpi\n    /* \"#utility.yul\":2739:2740   */\n  0x00\n    /* \"#utility.yul\":2736:2737   */\n  dup1\n    /* \"#utility.yul\":2729:2741   */\n  revert\n    /* \"#utility.yul\":2673:2743   */\ntag_102:\n    /* \"#utility.yul\":2618:2749   */\n  pop\n  jump\t// out\ntag_72:\n    /* \"contracts/MyToken.sol\":541:25294  contract Pokemon is Context, IERC20, Ownable {... */\n  dataSize(sub_0)\n  dup1\n  dataOffset(sub_0)\n  0x00\n  codecopy\n  0x00\n  return\nstop\n\nsub_0: assembly {\n        /* \"contracts/MyToken.sol\":541:25294  contract Pokemon is Context, IERC20, Ownable {... */\n      mstore(0x40, 0x80)\n      jumpi(tag_1, lt(calldatasize, 0x04))\n      shr(0xe0, calldataload(0x00))\n      dup1\n      0x6bc87c3a\n      gt\n      tag_61\n      jumpi\n      dup1\n      0xa9059cbb\n      gt\n      tag_62\n      jumpi\n      dup1\n      0xd0e03523\n      gt\n      tag_63\n      jumpi\n      dup1\n      0xe1e144de\n      gt\n      tag_64\n      jumpi\n      dup1\n      0xe1e144de\n      eq\n      tag_57\n      jumpi\n      dup1\n      0xea2f0b37\n      eq\n      tag_58\n      jumpi\n      dup1\n      0xebf78663\n      eq\n      tag_59\n      jumpi\n      dup1\n      0xf2fde38b\n      eq\n      tag_60\n      jumpi\n      0x00\n      dup1\n      revert\n    tag_64:\n      dup1\n      0xd0e03523\n      eq\n      tag_53\n      jumpi\n      dup1\n      0xd5bde46c\n      eq\n      tag_54\n      jumpi\n      dup1\n      0xd8c6404b\n      eq\n      tag_55\n      jumpi\n      dup1\n      0xdd62ed3e\n      eq\n      tag_56\n      jumpi\n      0x00\n      dup1\n      revert\n    tag_63:\n      dup1\n      0xc2c7c03a\n      gt\n      tag_65\n      jumpi\n      dup1\n      0xc2c7c03a\n      eq\n      tag_49\n      jumpi\n      dup1\n      0xc49b9a80\n      eq\n      tag_50\n      jumpi\n      dup1\n      0xc8607952\n      eq\n      tag_51\n      jumpi\n      dup1\n      0xcea26958\n      eq\n      tag_52\n      jumpi\n      0x00\n      dup1\n      revert\n    tag_65:\n      dup1\n      0xa9059cbb\n      eq\n      tag_46\n      jumpi\n      dup1\n      0xa928681c\n      eq\n      tag_47\n      jumpi\n      dup1\n      0xc0b0fda2\n      eq\n      tag_48\n      jumpi\n      0x00\n      dup1\n      revert\n    tag_62:\n      dup1\n      0x88790a68\n      gt\n      tag_66\n      jumpi\n      dup1\n      0x8ee88c53\n      gt\n      tag_67\n      jumpi\n      dup1\n      0x8ee88c53\n      eq\n      tag_42\n      jumpi\n      dup1\n      0x95d89b41\n      eq\n      tag_43\n      jumpi\n      dup1\n      0x9655cab5\n      eq\n      tag_44\n      jumpi\n      dup1\n      0xa457c2d7\n      eq\n      tag_45\n      jumpi\n      0x00\n      dup1\n      revert\n    tag_67:\n      dup1\n      0x88790a68\n      eq\n      tag_39\n      jumpi\n      dup1\n      0x88f82020\n      eq\n      tag_40\n      jumpi\n      dup1\n      0x8da5cb5b\n      eq\n      tag_41\n      jumpi\n      0x00\n      dup1\n      revert\n    tag_66:\n      dup1\n      0x74fb20e1\n      gt\n      tag_68\n      jumpi\n      dup1\n      0x74fb20e1\n      eq\n      tag_35\n      jumpi\n      dup1\n      0x75f0a874\n      eq\n      tag_36\n      jumpi\n      dup1\n      0x7abdc1ca\n      eq\n      tag_37\n      jumpi\n      dup1\n      0x882cfb3f\n      eq\n      tag_38\n      jumpi\n      0x00\n      dup1\n      revert\n    tag_68:\n      dup1\n      0x6bc87c3a\n      eq\n      tag_32\n      jumpi\n      dup1\n      0x70a08231\n      eq\n      tag_33\n      jumpi\n      dup1\n      0x715018a6\n      eq\n      tag_34\n      jumpi\n      0x00\n      dup1\n      revert\n    tag_61:\n      dup1\n      0x3b124fe7\n      gt\n      tag_69\n      jumpi\n      dup1\n      0x52390c02\n      gt\n      tag_70\n      jumpi\n      dup1\n      0x5d098b38\n      gt\n      tag_71\n      jumpi\n      dup1\n      0x5d098b38\n      eq\n      tag_28\n      jumpi\n      dup1\n      0x611bf629\n      eq\n      tag_29\n      jumpi\n      dup1\n      0x632a6a35\n      eq\n      tag_30\n      jumpi\n      dup1\n      0x64a06e80\n      eq\n      tag_31\n      jumpi\n      0x00\n      dup1\n      revert\n    tag_71:\n      dup1\n      0x52390c02\n      eq\n      tag_24\n      jumpi\n      dup1\n      0x5342acb4\n      eq\n      tag_25\n      jumpi\n      dup1\n      0x57d87f0d\n      eq\n      tag_26\n      jumpi\n      dup1\n      0x5876ccc5\n      eq\n      tag_27\n      jumpi\n      0x00\n      dup1\n      revert\n    tag_70:\n      dup1\n      0x4549b039\n      gt\n      tag_72\n      jumpi\n      dup1\n      0x4549b039\n      eq\n      tag_20\n      jumpi\n      dup1\n      0x457c194c\n      eq\n      tag_21\n      jumpi\n      dup1\n      0x4a5566bf\n      eq\n      tag_22\n      jumpi\n      dup1\n      0x4a74bb02\n      eq\n      tag_23\n      jumpi\n      0x00\n      dup1\n      revert\n    tag_72:\n      dup1\n      0x3b124fe7\n      eq\n      tag_17\n      jumpi\n      dup1\n      0x3bd5d173\n      eq\n      tag_18\n      jumpi\n      dup1\n      0x437823ec\n      eq\n      tag_19\n      jumpi\n      0x00\n      dup1\n      revert\n    tag_69:\n      dup1\n      0x200a692d\n      gt\n      tag_73\n      jumpi\n      dup1\n      0x2d838119\n      gt\n      tag_74\n      jumpi\n      dup1\n      0x2d838119\n      eq\n      tag_13\n      jumpi\n      dup1\n      0x313ce567\n      eq\n      tag_14\n      jumpi\n      dup1\n      0x3685d419\n      eq\n      tag_15\n      jumpi\n      dup1\n      0x39509351\n      eq\n      tag_16\n      jumpi\n      0x00\n      dup1\n      revert\n    tag_74:\n      dup1\n      0x200a692d\n      eq\n      tag_10\n      jumpi\n      dup1\n      0x22976e0d\n      eq\n      tag_11\n      jumpi\n      dup1\n      0x23b872dd\n      eq\n      tag_12\n      jumpi\n      0x00\n      dup1\n      revert\n    tag_73:\n      dup1\n      0x0a7d2d87\n      gt\n      tag_75\n      jumpi\n      dup1\n      0x0a7d2d87\n      eq\n      tag_6\n      jumpi\n      dup1\n      0x13114a9d\n      eq\n      tag_7\n      jumpi\n      dup1\n      0x18160ddd\n      eq\n      tag_8\n      jumpi\n      dup1\n      0x1a4cd1b1\n      eq\n      tag_9\n      jumpi\n      0x00\n      dup1\n      revert\n    tag_75:\n      dup1\n      0x061c82d0\n      eq\n      tag_3\n      jumpi\n      dup1\n      0x06fdde03\n      eq\n      tag_4\n      jumpi\n      dup1\n      0x095ea7b3\n      eq\n      tag_5\n      jumpi\n      0x00\n      dup1\n      revert\n    tag_1:\n      jumpi(tag_2, calldatasize)\n      stop\n    tag_2:\n      0x00\n      dup1\n      revert\n        /* \"contracts/MyToken.sol\":22752:22912  function setTaxFeePercent(uint256 taxFee) external onlyOwner {... */\n    tag_3:\n      callvalue\n      dup1\n      iszero\n      tag_78\n      jumpi\n      0x00\n      dup1\n      revert\n    tag_78:\n      pop\n      tag_79\n      tag_80\n      calldatasize\n      0x04\n      tag_81\n      jump\t// in\n    tag_80:\n      tag_82\n      jump\t// in\n    tag_79:\n      stop\n        /* \"contracts/MyToken.sol\":4585:4666  function name() public view returns (string memory) {... */\n    tag_4:\n      callvalue\n      dup1\n      iszero\n      tag_83\n      jumpi\n      0x00\n      dup1\n      revert\n    tag_83:\n      pop\n      tag_84\n      tag_85\n      jump\t// in\n    tag_84:\n      mload(0x40)\n      tag_86\n      swap2\n      swap1\n      tag_87\n      jump\t// in\n    tag_86:\n      mload(0x40)\n      dup1\n      swap2\n      sub\n      swap1\n      return\n        /* \"contracts/MyToken.sol\":5503:5661  function approve(address spender, uint256 amount) public override returns (bool) {... */\n    tag_5:\n      callvalue\n      dup1\n      iszero\n      tag_88\n      jumpi\n      0x00\n      dup1\n      revert\n    tag_88:\n      pop\n      tag_89\n      tag_90\n      calldatasize\n      0x04\n      tag_91\n      jump\t// in\n    tag_90:\n      tag_92\n      jump\t// in\n    tag_89:\n      mload(0x40)\n        /* \"#utility.yul\":4241:4255   */\n      swap1\n      iszero\n        /* \"#utility.yul\":4234:4256   */\n      iszero\n        /* \"#utility.yul\":4216:4257   */\n      dup2\n      mstore\n        /* \"#utility.yul\":4204:4206   */\n      0x20\n        /* \"#utility.yul\":4189:4207   */\n      add\n        /* \"contracts/MyToken.sol\":5503:5661  function approve(address spender, uint256 amount) public override returns (bool) {... */\n      tag_86\n        /* \"#utility.yul\":4076:4263   */\n      jump\n        /* \"contracts/MyToken.sol\":1947:1985  uint256 public _maxHoldingPercents = 5 */\n    tag_6:\n      callvalue\n      dup1\n      iszero\n      tag_95\n      jumpi\n      0x00\n      dup1\n      revert\n    tag_95:\n      pop\n      tag_96\n      sload(0x1a)\n      dup2\n      jump\n    tag_96:\n      mload(0x40)\n        /* \"#utility.yul\":15381:15406   */\n      swap1\n      dup2\n      mstore\n        /* \"#utility.yul\":15369:15371   */\n      0x20\n        /* \"#utility.yul\":15354:15372   */\n      add\n        /* \"contracts/MyToken.sol\":1947:1985  uint256 public _maxHoldingPercents = 5 */\n      tag_86\n        /* \"#utility.yul\":15235:15412   */\n      jump\n        /* \"contracts/MyToken.sol\":6915:7000  function totalFees() public view returns (uint256) {... */\n    tag_7:\n      callvalue\n      dup1\n      iszero\n      tag_100\n      jumpi\n      0x00\n      dup1\n      revert\n    tag_100:\n      pop\n        /* \"contracts/MyToken.sol\":6983:6993  _tFeeTotal */\n      sload(0x09)\n        /* \"contracts/MyToken.sol\":6915:7000  function totalFees() public view returns (uint256) {... */\n      jump(tag_96)\n        /* \"contracts/MyToken.sol\":4850:4943  function totalSupply() public view override returns (uint256) {... */\n    tag_8:\n      callvalue\n      dup1\n      iszero\n      tag_104\n      jumpi\n      0x00\n      dup1\n      revert\n    tag_104:\n      pop\n        /* \"contracts/MyToken.sol\":4929:4936  _tTotal */\n      sload(0x07)\n        /* \"contracts/MyToken.sol\":4850:4943  function totalSupply() public view override returns (uint256) {... */\n      jump(tag_96)\n        /* \"contracts/MyToken.sol\":2175:2216  IPancakeV2Router02 public pancakeV2Router */\n    tag_9:\n      callvalue\n      dup1\n      iszero\n      tag_108\n      jumpi\n      0x00\n      dup1\n      revert\n    tag_108:\n      pop\n      sload(0x1e)\n      tag_109\n      swap1\n      sub(shl(0xa0, 0x01), 0x01)\n      and\n      dup2\n      jump\n    tag_109:\n      mload(0x40)\n      sub(shl(0xa0, 0x01), 0x01)\n        /* \"#utility.yul\":2959:2991   */\n      swap1\n      swap2\n      and\n        /* \"#utility.yul\":2941:2992   */\n      dup2\n      mstore\n        /* \"#utility.yul\":2929:2931   */\n      0x20\n        /* \"#utility.yul\":2914:2932   */\n      add\n        /* \"contracts/MyToken.sol\":2175:2216  IPancakeV2Router02 public pancakeV2Router */\n      tag_86\n        /* \"#utility.yul\":2795:2998   */\n      jump\n        /* \"contracts/MyToken.sol\":1706:1736  uint256 public _sellTaxFee = 2 */\n    tag_10:\n      callvalue\n      dup1\n      iszero\n      tag_113\n      jumpi\n      0x00\n      dup1\n      revert\n    tag_113:\n      pop\n      tag_96\n      sload(0x16)\n      dup2\n      jump\n        /* \"contracts/MyToken.sol\":1555:1587  uint256 public _marketingFee = 2 */\n    tag_11:\n      callvalue\n      dup1\n      iszero\n      tag_117\n      jumpi\n      0x00\n      dup1\n      revert\n    tag_117:\n      pop\n      tag_96\n      sload(0x13)\n      dup2\n      jump\n        /* \"contracts/MyToken.sol\":5667:6098  function transferFrom(... */\n    tag_12:\n      callvalue\n      dup1\n      iszero\n      tag_121\n      jumpi\n      0x00\n      dup1\n      revert\n    tag_121:\n      pop\n      tag_89\n      tag_123\n      calldatasize\n      0x04\n      tag_124\n      jump\t// in\n    tag_123:\n      tag_125\n      jump\t// in\n        /* \"contracts/MyToken.sol\":7859:8108  function tokenFromReflection(uint256 rAmount) public view returns (uint256) {... */\n    tag_13:\n      callvalue\n      dup1\n      iszero\n      tag_127\n      jumpi\n      0x00\n      dup1\n      revert\n    tag_127:\n      pop\n      tag_96\n      tag_129\n      calldatasize\n      0x04\n      tag_81\n      jump\t// in\n    tag_129:\n      tag_130\n      jump\t// in\n        /* \"contracts/MyToken.sol\":4763:4844  function decimals() public view returns (uint8) {... */\n    tag_14:\n      callvalue\n      dup1\n      iszero\n      tag_132\n      jumpi\n      0x00\n      dup1\n      revert\n    tag_132:\n      pop\n        /* \"contracts/MyToken.sol\":4828:4837  _decimals */\n      sload(0x0c)\n        /* \"contracts/MyToken.sol\":4763:4844  function decimals() public view returns (uint8) {... */\n      mload(0x40)\n        /* \"contracts/MyToken.sol\":4828:4837  _decimals */\n      0xff\n      swap1\n      swap2\n      and\n        /* \"#utility.yul\":16868:16904   */\n      dup2\n      mstore\n        /* \"#utility.yul\":16856:16858   */\n      0x20\n        /* \"#utility.yul\":16841:16859   */\n      add\n        /* \"contracts/MyToken.sol\":4763:4844  function decimals() public view returns (uint8) {... */\n      tag_86\n        /* \"#utility.yul\":16726:16910   */\n      jump\n        /* \"contracts/MyToken.sol\":8571:9037  function includeInReward(address account) external onlyOwner {... */\n    tag_15:\n      callvalue\n      dup1\n      iszero\n      tag_137\n      jumpi\n      0x00\n      dup1\n      revert\n    tag_137:\n      pop\n      tag_79\n      tag_139\n      calldatasize\n      0x04\n      tag_140\n      jump\t// in\n    tag_139:\n      tag_141\n      jump\t// in\n        /* \"contracts/MyToken.sol\":6104:6393  function increaseAllowance(address spender, uint256 addedValue)... */\n    tag_16:\n      callvalue\n      dup1\n      iszero\n      tag_142\n      jumpi\n      0x00\n      dup1\n      revert\n    tag_142:\n      pop\n      tag_89\n      tag_144\n      calldatasize\n      0x04\n      tag_91\n      jump\t// in\n    tag_144:\n      tag_145\n      jump\t// in\n        /* \"contracts/MyToken.sol\":1294:1320  uint256 public _taxFee = 2 */\n    tag_17:\n      callvalue\n      dup1\n      iszero\n      tag_147\n      jumpi\n      0x00\n      dup1\n      revert\n    tag_147:\n      pop\n      tag_96\n      sload(0x0d)\n      dup2\n      jump\n        /* \"contracts/MyToken.sol\":7006:7381  function deliver(uint256 tAmount) public {... */\n    tag_18:\n      callvalue\n      dup1\n      iszero\n      tag_151\n      jumpi\n      0x00\n      dup1\n      revert\n    tag_151:\n      pop\n      tag_79\n      tag_153\n      calldatasize\n      0x04\n      tag_81\n      jump\t// in\n    tag_153:\n      tag_154\n      jump\t// in\n        /* \"contracts/MyToken.sol\":22407:22516  function excludeFromFee(address account) public onlyOwner {... */\n    tag_19:\n      callvalue\n      dup1\n      iszero\n      tag_155\n      jumpi\n      0x00\n      dup1\n      revert\n    tag_155:\n      pop\n      tag_79\n      tag_157\n      calldatasize\n      0x04\n      tag_140\n      jump\t// in\n    tag_157:\n      tag_158\n      jump\t// in\n        /* \"contracts/MyToken.sol\":7387:7853  function reflectionFromToken(uint256 tAmount, bool deductTransferFee)... */\n    tag_20:\n      callvalue\n      dup1\n      iszero\n      tag_159\n      jumpi\n      0x00\n      dup1\n      revert\n    tag_159:\n      pop\n      tag_96\n      tag_161\n      calldatasize\n      0x04\n      tag_162\n      jump\t// in\n    tag_161:\n      tag_163\n      jump\t// in\n        /* \"contracts/MyToken.sol\":23120:23316  function setMarketingFeePercent(uint256 marketingFee) external onlyOwner {... */\n    tag_21:\n      callvalue\n      dup1\n      iszero\n      tag_165\n      jumpi\n      0x00\n      dup1\n      revert\n    tag_165:\n      pop\n      tag_79\n      tag_167\n      calldatasize\n      0x04\n      tag_81\n      jump\t// in\n    tag_167:\n      tag_168\n      jump\t// in\n        /* \"contracts/MyToken.sol\":24832:25061  function setAntiWhale(bool enabled) external {... */\n    tag_22:\n      callvalue\n      dup1\n      iszero\n      tag_169\n      jumpi\n      0x00\n      dup1\n      revert\n    tag_169:\n      pop\n      tag_79\n      tag_171\n      calldatasize\n      0x04\n      tag_172\n      jump\t// in\n    tag_171:\n      tag_173\n      jump\t// in\n        /* \"contracts/MyToken.sol\":2284:2325  bool public swapAndLiquifyEnabled = false */\n    tag_23:\n      callvalue\n      dup1\n      iszero\n      tag_174\n      jumpi\n      0x00\n      dup1\n      revert\n    tag_174:\n      pop\n      sload(0x1f)\n      tag_89\n      swap1\n      shl(0xa8, 0x01)\n      swap1\n      div\n      0xff\n      and\n      dup2\n      jump\n        /* \"contracts/MyToken.sol\":8114:8565  function excludeFromReward(address account) public onlyOwner {... */\n    tag_24:\n      callvalue\n      dup1\n      iszero\n      tag_178\n      jumpi\n      0x00\n      dup1\n      revert\n    tag_178:\n      pop\n      tag_79\n      tag_180\n      calldatasize\n      0x04\n      tag_140\n      jump\t// in\n    tag_180:\n      tag_181\n      jump\t// in\n        /* \"contracts/MyToken.sol\":13948:14070  function isExcludedFromFee(address account) public view returns (bool) {... */\n    tag_25:\n      callvalue\n      dup1\n      iszero\n      tag_182\n      jumpi\n      0x00\n      dup1\n      revert\n    tag_182:\n      pop\n      tag_89\n      tag_184\n      calldatasize\n      0x04\n      tag_140\n      jump\t// in\n    tag_184:\n      sub(shl(0xa0, 0x01), 0x01)\n        /* \"contracts/MyToken.sol\":14036:14063  _isExcludedFromFee[account] */\n      and\n        /* \"contracts/MyToken.sol\":14013:14017  bool */\n      0x00\n        /* \"contracts/MyToken.sol\":14036:14063  _isExcludedFromFee[account] */\n      swap1\n      dup2\n      mstore\n        /* \"contracts/MyToken.sol\":14036:14054  _isExcludedFromFee */\n      0x04\n        /* \"contracts/MyToken.sol\":14036:14063  _isExcludedFromFee[account] */\n      0x20\n      mstore\n      0x40\n      swap1\n      keccak256\n      sload\n      0xff\n      and\n      swap1\n        /* \"contracts/MyToken.sol\":13948:14070  function isExcludedFromFee(address account) public view returns (bool) {... */\n      jump\n        /* \"contracts/MyToken.sol\":1991:2019  bool public antiWhaleEnabled */\n    tag_26:\n      callvalue\n      dup1\n      iszero\n      tag_187\n      jumpi\n      0x00\n      dup1\n      revert\n    tag_187:\n      pop\n      sload(0x1b)\n      tag_89\n      swap1\n      0xff\n      and\n      dup2\n      jump\n        /* \"contracts/MyToken.sol\":23918:24139  function setSellLiquidityFeePercent(uint256 sellLiquidityFee) external onlyOwner {... */\n    tag_27:\n      callvalue\n      dup1\n      iszero\n      tag_191\n      jumpi\n      0x00\n      dup1\n      revert\n    tag_191:\n      pop\n      tag_79\n      tag_193\n      calldatasize\n      0x04\n      tag_81\n      jump\t// in\n    tag_193:\n      tag_194\n      jump\t// in\n        /* \"contracts/MyToken.sol\":22636:22746  function setMarketingWallet(address newWallet) external onlyOwner {... */\n    tag_28:\n      callvalue\n      dup1\n      iszero\n      tag_195\n      jumpi\n      0x00\n      dup1\n      revert\n    tag_195:\n      pop\n      tag_79\n      tag_197\n      calldatasize\n      0x04\n      tag_140\n      jump\t// in\n    tag_197:\n      tag_198\n      jump\t// in\n        /* \"contracts/MyToken.sol\":4472:4579  function setAntisnipeAddress(address addr) external onlyOwner {... */\n    tag_29:\n      callvalue\n      dup1\n      iszero\n      tag_199\n      jumpi\n      0x00\n      dup1\n      revert\n    tag_199:\n      pop\n      tag_79\n      tag_201\n      calldatasize\n      0x04\n      tag_140\n      jump\t// in\n    tag_201:\n      tag_202\n      jump\t// in\n        /* \"contracts/MyToken.sol\":2222:2250  address public pancakeV2Pair */\n    tag_30:\n      callvalue\n      dup1\n      iszero\n      tag_203\n      jumpi\n      0x00\n      dup1\n      revert\n    tag_203:\n      pop\n      sload(0x1f)\n      tag_109\n      swap1\n      sub(shl(0xa0, 0x01), 0x01)\n      and\n      dup2\n      jump\n        /* \"contracts/MyToken.sol\":1882:1941  uint256 public constant MAX_HOLDING_PERCENTS_DIVISOR = 1000 */\n    tag_31:\n      callvalue\n      dup1\n      iszero\n      tag_208\n      jumpi\n      0x00\n      dup1\n      revert\n    tag_208:\n      pop\n      tag_96\n        /* \"contracts/MyToken.sol\":1937:1941  1000 */\n      0x03e8\n        /* \"contracts/MyToken.sol\":1882:1941  uint256 public constant MAX_HOLDING_PERCENTS_DIVISOR = 1000 */\n      dup2\n      jump\n        /* \"contracts/MyToken.sol\":1374:1406  uint256 public _liquidityFee = 1 */\n    tag_32:\n      callvalue\n      dup1\n      iszero\n      tag_212\n      jumpi\n      0x00\n      dup1\n      revert\n    tag_212:\n      pop\n      tag_96\n      sload(0x0f)\n      dup2\n      jump\n        /* \"contracts/MyToken.sol\":4949:5144  function balanceOf(address account) public view override returns (uint256) {... */\n    tag_33:\n      callvalue\n      dup1\n      iszero\n      tag_216\n      jumpi\n      0x00\n      dup1\n      revert\n    tag_216:\n      pop\n      tag_96\n      tag_218\n      calldatasize\n      0x04\n      tag_140\n      jump\t// in\n    tag_218:\n      tag_219\n      jump\t// in\n        /* \"@openzeppelin/contracts/access/Ownable.sol\":1831:1932  function renounceOwnership() public virtual onlyOwner {... */\n    tag_34:\n      callvalue\n      dup1\n      iszero\n      tag_221\n      jumpi\n      0x00\n      dup1\n      revert\n    tag_221:\n      pop\n      tag_79\n      tag_223\n      jump\t// in\n        /* \"contracts/MyToken.sol\":4340:4466  function setAntisnipeDisable() external onlyOwner {... */\n    tag_35:\n      callvalue\n      dup1\n      iszero\n      tag_224\n      jumpi\n      0x00\n      dup1\n      revert\n    tag_224:\n      pop\n      tag_79\n      tag_226\n      jump\t// in\n        /* \"contracts/MyToken.sol\":1593:1623  address public marketingWallet */\n    tag_36:\n      callvalue\n      dup1\n      iszero\n      tag_227\n      jumpi\n      0x00\n      dup1\n      revert\n    tag_227:\n      pop\n      sload(0x14)\n      tag_109\n      swap1\n      sub(shl(0xa0, 0x01), 0x01)\n      and\n      dup2\n      jump\n        /* \"contracts/MyToken.sol\":1826:1857  uint256 public _sellBurnFee = 2 */\n    tag_37:\n      callvalue\n      dup1\n      iszero\n      tag_231\n      jumpi\n      0x00\n      dup1\n      revert\n    tag_231:\n      pop\n      tag_96\n      sload(0x19)\n      dup2\n      jump\n        /* \"contracts/MyToken.sol\":3950:3977  IAntisnipe public antisnipe */\n    tag_38:\n      callvalue\n      dup1\n      iszero\n      tag_235\n      jumpi\n      0x00\n      dup1\n      revert\n    tag_235:\n      pop\n      sload(0x22)\n      tag_109\n      swap1\n      sub(shl(0xa0, 0x01), 0x01)\n      and\n      dup2\n      jump\n        /* \"contracts/MyToken.sol\":1742:1778  uint256 public _sellLiquidityFee = 1 */\n    tag_39:\n      callvalue\n      dup1\n      iszero\n      tag_240\n      jumpi\n      0x00\n      dup1\n      revert\n    tag_240:\n      pop\n      tag_96\n      sload(0x17)\n      dup2\n      jump\n        /* \"contracts/MyToken.sol\":6791:6909  function isExcludedFromReward(address account) public view returns (bool) {... */\n    tag_40:\n      callvalue\n      dup1\n      iszero\n      tag_244\n      jumpi\n      0x00\n      dup1\n      revert\n    tag_244:\n      pop\n      tag_89\n      tag_246\n      calldatasize\n      0x04\n      tag_140\n      jump\t// in\n    tag_246:\n      sub(shl(0xa0, 0x01), 0x01)\n        /* \"contracts/MyToken.sol\":6882:6902  _isExcluded[account] */\n      and\n        /* \"contracts/MyToken.sol\":6859:6863  bool */\n      0x00\n        /* \"contracts/MyToken.sol\":6882:6902  _isExcluded[account] */\n      swap1\n      dup2\n      mstore\n        /* \"contracts/MyToken.sol\":6882:6893  _isExcluded */\n      0x05\n        /* \"contracts/MyToken.sol\":6882:6902  _isExcluded[account] */\n      0x20\n      mstore\n      0x40\n      swap1\n      keccak256\n      sload\n      0xff\n      and\n      swap1\n        /* \"contracts/MyToken.sol\":6791:6909  function isExcludedFromReward(address account) public view returns (bool) {... */\n      jump\n        /* \"@openzeppelin/contracts/access/Ownable.sol\":1201:1286  function owner() public view virtual returns (address) {... */\n    tag_41:\n      callvalue\n      dup1\n      iszero\n      tag_249\n      jumpi\n      0x00\n      dup1\n      revert\n    tag_249:\n      pop\n        /* \"@openzeppelin/contracts/access/Ownable.sol\":1247:1254  address */\n      0x00\n        /* \"@openzeppelin/contracts/access/Ownable.sol\":1273:1279  _owner */\n      sload\n      sub(shl(0xa0, 0x01), 0x01)\n      and\n        /* \"@openzeppelin/contracts/access/Ownable.sol\":1201:1286  function owner() public view virtual returns (address) {... */\n      jump(tag_109)\n        /* \"contracts/MyToken.sol\":22918:23114  function setLiquidityFeePercent(uint256 liquidityFee) external onlyOwner {... */\n    tag_42:\n      callvalue\n      dup1\n      iszero\n      tag_253\n      jumpi\n      0x00\n      dup1\n      revert\n    tag_253:\n      pop\n      tag_79\n      tag_255\n      calldatasize\n      0x04\n      tag_81\n      jump\t// in\n    tag_255:\n      tag_256\n      jump\t// in\n        /* \"contracts/MyToken.sol\":4672:4757  function symbol() public view returns (string memory) {... */\n    tag_43:\n      callvalue\n      dup1\n      iszero\n      tag_257\n      jumpi\n      0x00\n      dup1\n      revert\n    tag_257:\n      pop\n      tag_84\n      tag_259\n      jump\t// in\n        /* \"contracts/MyToken.sol\":24336:24652  function setMaxHoldingPercents(uint256 maxHoldingPercents) external onlyOwner {... */\n    tag_44:\n      callvalue\n      dup1\n      iszero\n      tag_261\n      jumpi\n      0x00\n      dup1\n      revert\n    tag_261:\n      pop\n      tag_79\n      tag_263\n      calldatasize\n      0x04\n      tag_81\n      jump\t// in\n    tag_263:\n      tag_264\n      jump\t// in\n        /* \"contracts/MyToken.sol\":6399:6785  function decreaseAllowance(address spender, uint256 subtractedValue)... */\n    tag_45:\n      callvalue\n      dup1\n      iszero\n      tag_265\n      jumpi\n      0x00\n      dup1\n      revert\n    tag_265:\n      pop\n      tag_89\n      tag_267\n      calldatasize\n      0x04\n      tag_91\n      jump\t// in\n    tag_267:\n      tag_268\n      jump\t// in\n        /* \"contracts/MyToken.sol\":5150:5314  function transfer(address recipient, uint256 amount) public override returns (bool) {... */\n    tag_46:\n      callvalue\n      dup1\n      iszero\n      tag_270\n      jumpi\n      0x00\n      dup1\n      revert\n    tag_270:\n      pop\n      tag_89\n      tag_272\n      calldatasize\n      0x04\n      tag_91\n      jump\t// in\n    tag_272:\n      tag_273\n      jump\t// in\n        /* \"contracts/MyToken.sol\":23691:23912  function setSellMarketingFeePercent(uint256 sellMarketingFee) external onlyOwner {... */\n    tag_47:\n      callvalue\n      dup1\n      iszero\n      tag_275\n      jumpi\n      0x00\n      dup1\n      revert\n    tag_275:\n      pop\n      tag_79\n      tag_277\n      calldatasize\n      0x04\n      tag_81\n      jump\t// in\n    tag_277:\n      tag_278\n      jump\t// in\n        /* \"contracts/MyToken.sol\":1472:1499  uint256 public _burnFee = 2 */\n    tag_48:\n      callvalue\n      dup1\n      iszero\n      tag_279\n      jumpi\n      0x00\n      dup1\n      revert\n    tag_279:\n      pop\n      tag_96\n      sload(0x11)\n      dup2\n      jump\n        /* \"contracts/MyToken.sol\":25067:25292  function setAntiBot(bool enabled) external {... */\n    tag_49:\n      callvalue\n      dup1\n      iszero\n      tag_283\n      jumpi\n      0x00\n      dup1\n      revert\n    tag_283:\n      pop\n      tag_79\n      tag_285\n      calldatasize\n      0x04\n      tag_172\n      jump\t// in\n    tag_285:\n      tag_286\n      jump\t// in\n        /* \"contracts/MyToken.sol\":24658:24826  function setSwapAndLiquifyEnabled(bool _enabled) public onlyOwner {... */\n    tag_50:\n      callvalue\n      dup1\n      iszero\n      tag_287\n      jumpi\n      0x00\n      dup1\n      revert\n    tag_287:\n      pop\n      tag_79\n      tag_289\n      calldatasize\n      0x04\n      tag_172\n      jump\t// in\n    tag_289:\n      tag_290\n      jump\t// in\n        /* \"contracts/MyToken.sol\":1784:1820  uint256 public _sellMarketingFee = 2 */\n    tag_51:\n      callvalue\n      dup1\n      iszero\n      tag_291\n      jumpi\n      0x00\n      dup1\n      revert\n    tag_291:\n      pop\n      tag_96\n      sload(0x18)\n      dup2\n      jump\n        /* \"contracts/MyToken.sol\":23322:23488  function setBurnFeePercent(uint256 burnFee) external onlyOwner {... */\n    tag_52:\n      callvalue\n      dup1\n      iszero\n      tag_295\n      jumpi\n      0x00\n      dup1\n      revert\n    tag_295:\n      pop\n      tag_79\n      tag_297\n      calldatasize\n      0x04\n      tag_81\n      jump\t// in\n    tag_297:\n      tag_298\n      jump\t// in\n        /* \"contracts/MyToken.sol\":24145:24330  function setSellTaxFeePercent(uint256 sellTaxFee) external onlyOwner {... */\n    tag_53:\n      callvalue\n      dup1\n      iszero\n      tag_299\n      jumpi\n      0x00\n      dup1\n      revert\n    tag_299:\n      pop\n      tag_79\n      tag_301\n      calldatasize\n      0x04\n      tag_81\n      jump\t// in\n    tag_301:\n      tag_302\n      jump\t// in\n        /* \"contracts/MyToken.sol\":2142:2168  address public antiManager */\n    tag_54:\n      callvalue\n      dup1\n      iszero\n      tag_303\n      jumpi\n      0x00\n      dup1\n      revert\n    tag_303:\n      pop\n      sload(0x1d)\n      tag_109\n      swap1\n      0x0100\n      swap1\n      div\n      sub(shl(0xa0, 0x01), 0x01)\n      and\n      dup2\n      jump\n        /* \"contracts/MyToken.sol\":2089:2115  bool public antiBotEnabled */\n    tag_55:\n      callvalue\n      dup1\n      iszero\n      tag_307\n      jumpi\n      0x00\n      dup1\n      revert\n    tag_307:\n      pop\n      sload(0x1d)\n      tag_89\n      swap1\n      0xff\n      and\n      dup2\n      jump\n        /* \"contracts/MyToken.sol\":5320:5497  function allowance(address owner, address spender)... */\n    tag_56:\n      callvalue\n      dup1\n      iszero\n      tag_311\n      jumpi\n      0x00\n      dup1\n      revert\n    tag_311:\n      pop\n      tag_96\n      tag_313\n      calldatasize\n      0x04\n      tag_314\n      jump\t// in\n    tag_313:\n      sub(shl(0xa0, 0x01), 0x01)\n        /* \"contracts/MyToken.sol\":5463:5481  _allowances[owner] */\n      swap2\n      dup3\n      and\n        /* \"contracts/MyToken.sol\":5433:5440  uint256 */\n      0x00\n        /* \"contracts/MyToken.sol\":5463:5481  _allowances[owner] */\n      swap1\n      dup2\n      mstore\n        /* \"contracts/MyToken.sol\":5463:5474  _allowances */\n      0x03\n        /* \"contracts/MyToken.sol\":5463:5481  _allowances[owner] */\n      0x20\n      swap1\n      dup2\n      mstore\n      0x40\n      dup1\n      dup4\n      keccak256\n        /* \"contracts/MyToken.sol\":5463:5490  _allowances[owner][spender] */\n      swap4\n      swap1\n      swap5\n      and\n      dup3\n      mstore\n      swap2\n      swap1\n      swap2\n      mstore\n      keccak256\n      sload\n      swap1\n        /* \"contracts/MyToken.sol\":5320:5497  function allowance(address owner, address spender)... */\n      jump\n        /* \"contracts/MyToken.sol\":3983:4011  bool public antisnipeDisable */\n    tag_57:\n      callvalue\n      dup1\n      iszero\n      tag_317\n      jumpi\n      0x00\n      dup1\n      revert\n    tag_317:\n      pop\n      sload(0x22)\n      tag_89\n      swap1\n      shl(0xa0, 0x01)\n      swap1\n      div\n      0xff\n      and\n      dup2\n      jump\n        /* \"contracts/MyToken.sol\":22522:22630  function includeInFee(address account) public onlyOwner {... */\n    tag_58:\n      callvalue\n      dup1\n      iszero\n      tag_321\n      jumpi\n      0x00\n      dup1\n      revert\n    tag_321:\n      pop\n      tag_79\n      tag_323\n      calldatasize\n      0x04\n      tag_140\n      jump\t// in\n    tag_323:\n      tag_324\n      jump\t// in\n        /* \"contracts/MyToken.sol\":23494:23685  function setSellBurnFeePercent(uint256 sellBurnFee) external onlyOwner {... */\n    tag_59:\n      callvalue\n      dup1\n      iszero\n      tag_325\n      jumpi\n      0x00\n      dup1\n      revert\n    tag_325:\n      pop\n      tag_79\n      tag_327\n      calldatasize\n      0x04\n      tag_81\n      jump\t// in\n    tag_327:\n      tag_328\n      jump\t// in\n        /* \"@openzeppelin/contracts/access/Ownable.sol\":2081:2279  function transferOwnership(address newOwner) public virtual onlyOwner {... */\n    tag_60:\n      callvalue\n      dup1\n      iszero\n      tag_329\n      jumpi\n      0x00\n      dup1\n      revert\n    tag_329:\n      pop\n      tag_79\n      tag_331\n      calldatasize\n      0x04\n      tag_140\n      jump\t// in\n    tag_331:\n      tag_332\n      jump\t// in\n        /* \"contracts/MyToken.sol\":22752:22912  function setTaxFeePercent(uint256 taxFee) external onlyOwner {... */\n    tag_82:\n        /* \"@openzeppelin/contracts/access/Ownable.sol\":1094:1107  _checkOwner() */\n      tag_334\n        /* \"@openzeppelin/contracts/access/Ownable.sol\":1094:1105  _checkOwner */\n      tag_335\n        /* \"@openzeppelin/contracts/access/Ownable.sol\":1094:1107  _checkOwner() */\n      jump\t// in\n    tag_334:\n        /* \"contracts/MyToken.sol\":22841:22843  10 */\n      0x0a\n        /* \"contracts/MyToken.sol\":22831:22837  taxFee */\n      dup2\n        /* \"contracts/MyToken.sol\":22831:22843  taxFee <= 10 */\n      gt\n      iszero\n        /* \"contracts/MyToken.sol\":22823:22879  require(taxFee <= 10, 'Tax fee cannot be more than 10%') */\n      tag_337\n      jumpi\n      mload(0x40)\n      shl(0xe5, 0x461bcd)\n      dup2\n      mstore\n        /* \"#utility.yul\":5534:5536   */\n      0x20\n        /* \"contracts/MyToken.sol\":22823:22879  require(taxFee <= 10, 'Tax fee cannot be more than 10%') */\n      0x04\n      dup3\n      add\n        /* \"#utility.yul\":5516:5537   */\n      mstore\n        /* \"#utility.yul\":5573:5575   */\n      0x1f\n        /* \"#utility.yul\":5553:5571   */\n      0x24\n      dup3\n      add\n        /* \"#utility.yul\":5546:5576   */\n      mstore\n        /* \"#utility.yul\":5612:5645   */\n      0x546178206665652063616e6e6f74206265206d6f7265207468616e2031302500\n        /* \"#utility.yul\":5592:5610   */\n      0x44\n      dup3\n      add\n        /* \"#utility.yul\":5585:5646   */\n      mstore\n        /* \"#utility.yul\":5663:5681   */\n      0x64\n      add\n        /* \"contracts/MyToken.sol\":22823:22879  require(taxFee <= 10, 'Tax fee cannot be more than 10%') */\n    tag_338:\n      mload(0x40)\n      dup1\n      swap2\n      sub\n      swap1\n      revert\n    tag_337:\n        /* \"contracts/MyToken.sol\":22889:22896  _taxFee */\n      0x0d\n        /* \"contracts/MyToken.sol\":22889:22905  _taxFee = taxFee */\n      sstore\n        /* \"contracts/MyToken.sol\":22752:22912  function setTaxFeePercent(uint256 taxFee) external onlyOwner {... */\n      jump\t// out\n        /* \"contracts/MyToken.sol\":4585:4666  function name() public view returns (string memory) {... */\n    tag_85:\n        /* \"contracts/MyToken.sol\":4622:4635  string memory */\n      0x60\n        /* \"contracts/MyToken.sol\":4654:4659  _name */\n      0x0a\n        /* \"contracts/MyToken.sol\":4647:4659  return _name */\n      dup1\n      sload\n      tag_341\n      swap1\n      tag_342\n      jump\t// in\n    tag_341:\n      dup1\n      0x1f\n      add\n      0x20\n      dup1\n      swap2\n      div\n      mul\n      0x20\n      add\n      mload(0x40)\n      swap1\n      dup2\n      add\n      0x40\n      mstore\n      dup1\n      swap3\n      swap2\n      swap1\n      dup2\n      dup2\n      mstore\n      0x20\n      add\n      dup3\n      dup1\n      sload\n      tag_343\n      swap1\n      tag_342\n      jump\t// in\n    tag_343:\n      dup1\n      iszero\n      tag_344\n      jumpi\n      dup1\n      0x1f\n      lt\n      tag_345\n      jumpi\n      0x0100\n      dup1\n      dup4\n      sload\n      div\n      mul\n      dup4\n      mstore\n      swap2\n      0x20\n      add\n      swap2\n      jump(tag_344)\n    tag_345:\n      dup3\n      add\n      swap2\n      swap1\n      0x00\n      mstore\n      keccak256(0x00, 0x20)\n      swap1\n    tag_346:\n      dup2\n      sload\n      dup2\n      mstore\n      swap1\n      0x01\n      add\n      swap1\n      0x20\n      add\n      dup1\n      dup4\n      gt\n      tag_346\n      jumpi\n      dup3\n      swap1\n      sub\n      0x1f\n      and\n      dup3\n      add\n      swap2\n    tag_344:\n      pop\n      pop\n      pop\n      pop\n      pop\n      swap1\n      pop\n        /* \"contracts/MyToken.sol\":4585:4666  function name() public view returns (string memory) {... */\n      swap1\n      jump\t// out\n        /* \"contracts/MyToken.sol\":5503:5661  function approve(address spender, uint256 amount) public override returns (bool) {... */\n    tag_92:\n        /* \"contracts/MyToken.sol\":5578:5582  bool */\n      0x00\n        /* \"contracts/MyToken.sol\":5594:5633  _approve(_msgSender(), spender, amount) */\n      tag_348\n        /* \"@openzeppelin/contracts/utils/Context.sol\":719:729  msg.sender */\n      caller\n        /* \"contracts/MyToken.sol\":5617:5624  spender */\n      dup5\n        /* \"contracts/MyToken.sol\":5626:5632  amount */\n      dup5\n        /* \"contracts/MyToken.sol\":5594:5602  _approve */\n      tag_351\n        /* \"contracts/MyToken.sol\":5594:5633  _approve(_msgSender(), spender, amount) */\n      jump\t// in\n    tag_348:\n      pop\n        /* \"contracts/MyToken.sol\":5650:5654  true */\n      0x01\n        /* \"contracts/MyToken.sol\":5503:5661  function approve(address spender, uint256 amount) public override returns (bool) {... */\n    tag_347:\n      swap3\n      swap2\n      pop\n      pop\n      jump\t// out\n        /* \"contracts/MyToken.sol\":5667:6098  function transferFrom(... */\n    tag_125:\n        /* \"contracts/MyToken.sol\":5795:5799  bool */\n      0x00\n        /* \"contracts/MyToken.sol\":5811:5847  _transfer(sender, recipient, amount) */\n      tag_355\n        /* \"contracts/MyToken.sol\":5821:5827  sender */\n      dup5\n        /* \"contracts/MyToken.sol\":5829:5838  recipient */\n      dup5\n        /* \"contracts/MyToken.sol\":5840:5846  amount */\n      dup5\n        /* \"contracts/MyToken.sol\":5811:5820  _transfer */\n      tag_356\n        /* \"contracts/MyToken.sol\":5811:5847  _transfer(sender, recipient, amount) */\n      jump\t// in\n    tag_355:\n        /* \"contracts/MyToken.sol\":5857:6070  _approve(... */\n      tag_357\n        /* \"contracts/MyToken.sol\":5879:5885  sender */\n      dup5\n        /* \"@openzeppelin/contracts/utils/Context.sol\":719:729  msg.sender */\n      caller\n        /* \"contracts/MyToken.sol\":5925:6060  _allowances[sender][_msgSender()].sub(... */\n      tag_359\n        /* \"contracts/MyToken.sol\":5980:5986  amount */\n      dup6\n        /* \"contracts/MyToken.sol\":5925:6060  _allowances[sender][_msgSender()].sub(... */\n      mload(0x40)\n      dup1\n      0x60\n      add\n      0x40\n      mstore\n      dup1\n      0x28\n      dup2\n      mstore\n      0x20\n      add\n      data_4f3506f4ba71c79c3cbd442a3afeb30e9b27af2d84e116a4385b34e267d2287e\n      0x28\n      swap2\n      codecopy\n      sub(shl(0xa0, 0x01), 0x01)\n        /* \"contracts/MyToken.sol\":5925:5944  _allowances[sender] */\n      dup11\n      and\n      0x00\n      swap1\n      dup2\n      mstore\n        /* \"contracts/MyToken.sol\":5925:5936  _allowances */\n      0x03\n        /* \"contracts/MyToken.sol\":5925:5944  _allowances[sender] */\n      0x20\n      swap1\n      dup2\n      mstore\n      0x40\n      dup1\n      dup4\n      keccak256\n        /* \"@openzeppelin/contracts/utils/Context.sol\":719:729  msg.sender */\n      caller\n        /* \"contracts/MyToken.sol\":5925:5958  _allowances[sender][_msgSender()] */\n      dup5\n      mstore\n      swap1\n      swap2\n      mstore\n      swap1\n      keccak256\n      sload\n      swap2\n      swap1\n        /* \"contracts/MyToken.sol\":5925:5962  _allowances[sender][_msgSender()].sub */\n      tag_361\n        /* \"contracts/MyToken.sol\":5925:6060  _allowances[sender][_msgSender()].sub(... */\n      jump\t// in\n    tag_359:\n        /* \"contracts/MyToken.sol\":5857:5865  _approve */\n      tag_351\n        /* \"contracts/MyToken.sol\":5857:6070  _approve(... */\n      jump\t// in\n    tag_357:\n      pop\n        /* \"contracts/MyToken.sol\":6087:6091  true */\n      0x01\n        /* \"contracts/MyToken.sol\":5667:6098  function transferFrom(... */\n      swap4\n      swap3\n      pop\n      pop\n      pop\n      jump\t// out\n        /* \"contracts/MyToken.sol\":7859:8108  function tokenFromReflection(uint256 rAmount) public view returns (uint256) {... */\n    tag_130:\n        /* \"contracts/MyToken.sol\":7926:7933  uint256 */\n      0x00\n        /* \"contracts/MyToken.sol\":7964:7971  _rTotal */\n      sload(0x08)\n        /* \"contracts/MyToken.sol\":7953:7960  rAmount */\n      dup3\n        /* \"contracts/MyToken.sol\":7953:7971  rAmount <= _rTotal */\n      gt\n      iszero\n        /* \"contracts/MyToken.sol\":7945:8018  require(rAmount <= _rTotal, 'Amount must be less than total reflections') */\n      tag_363\n      jumpi\n      mload(0x40)\n      shl(0xe5, 0x461bcd)\n      dup2\n      mstore\n        /* \"#utility.yul\":7875:7877   */\n      0x20\n        /* \"contracts/MyToken.sol\":7945:8018  require(rAmount <= _rTotal, 'Amount must be less than total reflections') */\n      0x04\n      dup3\n      add\n        /* \"#utility.yul\":7857:7878   */\n      mstore\n        /* \"#utility.yul\":7914:7916   */\n      0x2a\n        /* \"#utility.yul\":7894:7912   */\n      0x24\n      dup3\n      add\n        /* \"#utility.yul\":7887:7917   */\n      mstore\n        /* \"#utility.yul\":7953:7987   */\n      0x416d6f756e74206d757374206265206c657373207468616e20746f74616c2072\n        /* \"#utility.yul\":7933:7951   */\n      0x44\n      dup3\n      add\n        /* \"#utility.yul\":7926:7988   */\n      mstore\n      shl(0xb0, 0x65666c656374696f6e73)\n        /* \"#utility.yul\":8004:8022   */\n      0x64\n      dup3\n      add\n        /* \"#utility.yul\":7997:8037   */\n      mstore\n        /* \"#utility.yul\":8054:8073   */\n      0x84\n      add\n        /* \"contracts/MyToken.sol\":7945:8018  require(rAmount <= _rTotal, 'Amount must be less than total reflections') */\n      tag_338\n        /* \"#utility.yul\":7673:8079   */\n      jump\n        /* \"contracts/MyToken.sol\":7945:8018  require(rAmount <= _rTotal, 'Amount must be less than total reflections') */\n    tag_363:\n        /* \"contracts/MyToken.sol\":8028:8047  uint256 currentRate */\n      0x00\n        /* \"contracts/MyToken.sol\":8050:8060  _getRate() */\n      tag_366\n        /* \"contracts/MyToken.sol\":8050:8058  _getRate */\n      tag_367\n        /* \"contracts/MyToken.sol\":8050:8060  _getRate() */\n      jump\t// in\n    tag_366:\n        /* \"contracts/MyToken.sol\":8028:8060  uint256 currentRate = _getRate() */\n      swap1\n      pop\n        /* \"contracts/MyToken.sol\":8077:8101  rAmount.div(currentRate) */\n      tag_368\n        /* \"contracts/MyToken.sol\":8077:8084  rAmount */\n      dup4\n        /* \"contracts/MyToken.sol\":8028:8060  uint256 currentRate = _getRate() */\n      dup3\n        /* \"contracts/MyToken.sol\":8077:8088  rAmount.div */\n      tag_369\n        /* \"contracts/MyToken.sol\":8077:8101  rAmount.div(currentRate) */\n      jump\t// in\n    tag_368:\n        /* \"contracts/MyToken.sol\":8070:8101  return rAmount.div(currentRate) */\n      swap4\n        /* \"contracts/MyToken.sol\":7859:8108  function tokenFromReflection(uint256 rAmount) public view returns (uint256) {... */\n      swap3\n      pop\n      pop\n      pop\n      jump\t// out\n        /* \"contracts/MyToken.sol\":8571:9037  function includeInReward(address account) external onlyOwner {... */\n    tag_141:\n        /* \"@openzeppelin/contracts/access/Ownable.sol\":1094:1107  _checkOwner() */\n      tag_372\n        /* \"@openzeppelin/contracts/access/Ownable.sol\":1094:1105  _checkOwner */\n      tag_335\n        /* \"@openzeppelin/contracts/access/Ownable.sol\":1094:1107  _checkOwner() */\n      jump\t// in\n    tag_372:\n      sub(shl(0xa0, 0x01), 0x01)\n        /* \"contracts/MyToken.sol\":8650:8670  _isExcluded[account] */\n      dup2\n      and\n      0x00\n      swap1\n      dup2\n      mstore\n        /* \"contracts/MyToken.sol\":8650:8661  _isExcluded */\n      0x05\n        /* \"contracts/MyToken.sol\":8650:8670  _isExcluded[account] */\n      0x20\n      mstore\n      0x40\n      swap1\n      keccak256\n      sload\n      0xff\n      and\n        /* \"contracts/MyToken.sol\":8642:8702  require(_isExcluded[account], 'Account is already excluded') */\n      tag_374\n      jumpi\n      mload(0x40)\n      shl(0xe5, 0x461bcd)\n      dup2\n      mstore\n        /* \"#utility.yul\":9104:9106   */\n      0x20\n        /* \"contracts/MyToken.sol\":8642:8702  require(_isExcluded[account], 'Account is already excluded') */\n      0x04\n      dup3\n      add\n        /* \"#utility.yul\":9086:9107   */\n      mstore\n        /* \"#utility.yul\":9143:9145   */\n      0x1b\n        /* \"#utility.yul\":9123:9141   */\n      0x24\n      dup3\n      add\n        /* \"#utility.yul\":9116:9146   */\n      mstore\n        /* \"#utility.yul\":9182:9211   */\n      0x4163636f756e7420697320616c7265616479206578636c756465640000000000\n        /* \"#utility.yul\":9162:9180   */\n      0x44\n      dup3\n      add\n        /* \"#utility.yul\":9155:9212   */\n      mstore\n        /* \"#utility.yul\":9229:9247   */\n      0x64\n      add\n        /* \"contracts/MyToken.sol\":8642:8702  require(_isExcluded[account], 'Account is already excluded') */\n      tag_338\n        /* \"#utility.yul\":8902:9253   */\n      jump\n        /* \"contracts/MyToken.sol\":8642:8702  require(_isExcluded[account], 'Account is already excluded') */\n    tag_374:\n        /* \"contracts/MyToken.sol\":8717:8726  uint256 i */\n      0x00\n        /* \"contracts/MyToken.sol\":8712:9031  for (uint256 i = 0; i < _excluded.length; i++) {... */\n    tag_377:\n        /* \"contracts/MyToken.sol\":8736:8745  _excluded */\n      0x06\n        /* \"contracts/MyToken.sol\":8736:8752  _excluded.length */\n      sload\n        /* \"contracts/MyToken.sol\":8732:8752  i < _excluded.length */\n      dup2\n      lt\n        /* \"contracts/MyToken.sol\":8712:9031  for (uint256 i = 0; i < _excluded.length; i++) {... */\n      iszero\n      tag_378\n      jumpi\n        /* \"contracts/MyToken.sol\":8793:8800  account */\n      dup2\n      sub(shl(0xa0, 0x01), 0x01)\n        /* \"contracts/MyToken.sol\":8777:8800  _excluded[i] == account */\n      and\n        /* \"contracts/MyToken.sol\":8777:8786  _excluded */\n      0x06\n        /* \"contracts/MyToken.sol\":8787:8788  i */\n      dup3\n        /* \"contracts/MyToken.sol\":8777:8789  _excluded[i] */\n      dup2\n      sload\n      dup2\n      lt\n      tag_381\n      jumpi\n      tag_381\n      tag_382\n      jump\t// in\n    tag_381:\n      0x00\n      swap2\n      dup3\n      mstore\n      0x20\n      swap1\n      swap2\n      keccak256\n      add\n      sload\n      sub(shl(0xa0, 0x01), 0x01)\n      and\n        /* \"contracts/MyToken.sol\":8777:8800  _excluded[i] == account */\n      eq\n        /* \"contracts/MyToken.sol\":8773:9021  if (_excluded[i] == account) {... */\n      iszero\n      tag_384\n      jumpi\n        /* \"contracts/MyToken.sol\":8835:8844  _excluded */\n      0x06\n        /* \"contracts/MyToken.sol\":8845:8861  _excluded.length */\n      dup1\n      sload\n        /* \"contracts/MyToken.sol\":8845:8865  _excluded.length - 1 */\n      tag_385\n      swap1\n        /* \"contracts/MyToken.sol\":8864:8865  1 */\n      0x01\n      swap1\n        /* \"contracts/MyToken.sol\":8845:8865  _excluded.length - 1 */\n      tag_386\n      jump\t// in\n    tag_385:\n        /* \"contracts/MyToken.sol\":8835:8866  _excluded[_excluded.length - 1] */\n      dup2\n      sload\n      dup2\n      lt\n      tag_388\n      jumpi\n      tag_388\n      tag_382\n      jump\t// in\n    tag_388:\n      0x00\n      swap2\n      dup3\n      mstore\n      0x20\n      swap1\n      swap2\n      keccak256\n      add\n      sload\n        /* \"contracts/MyToken.sol\":8820:8829  _excluded */\n      0x06\n        /* \"contracts/MyToken.sol\":8820:8832  _excluded[i] */\n      dup1\n      sload\n      sub(shl(0xa0, 0x01), 0x01)\n        /* \"contracts/MyToken.sol\":8835:8866  _excluded[_excluded.length - 1] */\n      swap1\n      swap3\n      and\n      swap2\n        /* \"contracts/MyToken.sol\":8830:8831  i */\n      dup4\n      swap1\n        /* \"contracts/MyToken.sol\":8820:8832  _excluded[i] */\n      dup2\n      lt\n      tag_391\n      jumpi\n      tag_391\n      tag_382\n      jump\t// in\n    tag_391:\n      0x00\n      swap2\n      dup3\n      mstore\n      0x20\n      dup1\n      dup4\n      keccak256\n      swap2\n      swap1\n      swap2\n      add\n        /* \"contracts/MyToken.sol\":8820:8866  _excluded[i] = _excluded[_excluded.length - 1] */\n      dup1\n      sload\n      not(sub(shl(0xa0, 0x01), 0x01))\n      and\n      sub(shl(0xa0, 0x01), 0x01)\n      swap5\n      dup6\n      and\n      or\n      swap1\n      sstore\n        /* \"contracts/MyToken.sol\":8884:8900  _tOwned[account] */\n      swap2\n      dup5\n      and\n      dup2\n      mstore\n        /* \"contracts/MyToken.sol\":8884:8891  _tOwned */\n      0x02\n        /* \"contracts/MyToken.sol\":8884:8900  _tOwned[account] */\n      dup3\n      mstore\n      0x40\n      dup1\n      dup3\n      keccak256\n        /* \"contracts/MyToken.sol\":8884:8904  _tOwned[account] = 0 */\n      dup3\n      swap1\n      sstore\n        /* \"contracts/MyToken.sol\":8922:8933  _isExcluded */\n      0x05\n        /* \"contracts/MyToken.sol\":8922:8942  _isExcluded[account] */\n      swap1\n      swap3\n      mstore\n      keccak256\n        /* \"contracts/MyToken.sol\":8922:8950  _isExcluded[account] = false */\n      dup1\n      sload\n      not(0xff)\n      and\n      swap1\n      sstore\n        /* \"contracts/MyToken.sol\":8968:8977  _excluded */\n      0x06\n        /* \"contracts/MyToken.sol\":8968:8983  _excluded.pop() */\n      dup1\n      sload\n      dup1\n      tag_394\n      jumpi\n      tag_394\n      tag_395\n      jump\t// in\n    tag_394:\n      0x00\n      dup3\n      dup2\n      mstore\n      0x20\n      swap1\n      keccak256\n      dup2\n      add\n      not(0x00)\n      swap1\n      dup2\n      add\n      dup1\n      sload\n      not(sub(shl(0xa0, 0x01), 0x01))\n      and\n      swap1\n      sstore\n      add\n      swap1\n      sstore\n        /* \"contracts/MyToken.sol\":8712:9031  for (uint256 i = 0; i < _excluded.length; i++) {... */\n      pop\n        /* \"contracts/MyToken.sol\":8571:9037  function includeInReward(address account) external onlyOwner {... */\n      pop\n      jump\t// out\n        /* \"contracts/MyToken.sol\":8773:9021  if (_excluded[i] == account) {... */\n    tag_384:\n        /* \"contracts/MyToken.sol\":8754:8757  i++ */\n      dup1\n      tag_397\n      dup2\n      tag_398\n      jump\t// in\n    tag_397:\n      swap2\n      pop\n      pop\n        /* \"contracts/MyToken.sol\":8712:9031  for (uint256 i = 0; i < _excluded.length; i++) {... */\n      jump(tag_377)\n    tag_378:\n      pop\n        /* \"contracts/MyToken.sol\":8571:9037  function includeInReward(address account) external onlyOwner {... */\n      pop\n      jump\t// out\n        /* \"contracts/MyToken.sol\":6104:6393  function increaseAllowance(address spender, uint256 addedValue)... */\n    tag_145:\n        /* \"@openzeppelin/contracts/utils/Context.sol\":719:729  msg.sender */\n      caller\n        /* \"contracts/MyToken.sol\":6216:6220  bool */\n      0x00\n        /* \"contracts/MyToken.sol\":6305:6330  _allowances[_msgSender()] */\n      dup2\n      dup2\n      mstore\n        /* \"contracts/MyToken.sol\":6305:6316  _allowances */\n      0x03\n        /* \"contracts/MyToken.sol\":6305:6330  _allowances[_msgSender()] */\n      0x20\n      swap1\n      dup2\n      mstore\n      0x40\n      dup1\n      dup4\n      keccak256\n      sub(shl(0xa0, 0x01), 0x01)\n        /* \"contracts/MyToken.sol\":6305:6339  _allowances[_msgSender()][spender] */\n      dup8\n      and\n      dup5\n      mstore\n      swap1\n      swap2\n      mstore\n      dup2\n      keccak256\n      sload\n        /* \"contracts/MyToken.sol\":6216:6220  bool */\n      swap1\n      swap2\n        /* \"contracts/MyToken.sol\":6236:6365  _approve(... */\n      tag_348\n      swap2\n        /* \"contracts/MyToken.sol\":6284:6291  spender */\n      dup6\n      swap1\n        /* \"contracts/MyToken.sol\":6305:6355  _allowances[_msgSender()][spender].add(addedValue) */\n      tag_359\n      swap1\n        /* \"contracts/MyToken.sol\":6344:6354  addedValue */\n      dup7\n        /* \"contracts/MyToken.sol\":6305:6343  _allowances[_msgSender()][spender].add */\n      tag_404\n        /* \"contracts/MyToken.sol\":6305:6355  _allowances[_msgSender()][spender].add(addedValue) */\n      jump\t// in\n        /* \"contracts/MyToken.sol\":7006:7381  function deliver(uint256 tAmount) public {... */\n    tag_154:\n        /* \"@openzeppelin/contracts/utils/Context.sol\":719:729  msg.sender */\n      caller\n        /* \"contracts/MyToken.sol\":7057:7071  address sender */\n      0x00\n        /* \"contracts/MyToken.sol\":7105:7124  _isExcluded[sender] */\n      dup2\n      dup2\n      mstore\n        /* \"contracts/MyToken.sol\":7105:7116  _isExcluded */\n      0x05\n        /* \"contracts/MyToken.sol\":7105:7124  _isExcluded[sender] */\n      0x20\n      mstore\n      0x40\n      swap1\n      keccak256\n      sload\n      0xff\n      and\n        /* \"contracts/MyToken.sol\":7104:7124  !_isExcluded[sender] */\n      iszero\n        /* \"contracts/MyToken.sol\":7096:7173  require(!_isExcluded[sender], 'Excluded addresses cannot call this function') */\n      tag_407\n      jumpi\n      mload(0x40)\n      shl(0xe5, 0x461bcd)\n      dup2\n      mstore\n        /* \"#utility.yul\":14215:14217   */\n      0x20\n        /* \"contracts/MyToken.sol\":7096:7173  require(!_isExcluded[sender], 'Excluded addresses cannot call this function') */\n      0x04\n      dup3\n      add\n        /* \"#utility.yul\":14197:14218   */\n      mstore\n        /* \"#utility.yul\":14254:14256   */\n      0x2c\n        /* \"#utility.yul\":14234:14252   */\n      0x24\n      dup3\n      add\n        /* \"#utility.yul\":14227:14257   */\n      mstore\n        /* \"#utility.yul\":14293:14327   */\n      0x4578636c75646564206164647265737365732063616e6e6f742063616c6c2074\n        /* \"#utility.yul\":14273:14291   */\n      0x44\n      dup3\n      add\n        /* \"#utility.yul\":14266:14328   */\n      mstore\n      shl(0xa1, 0x3434b990333ab731ba34b7b7)\n        /* \"#utility.yul\":14344:14362   */\n      0x64\n      dup3\n      add\n        /* \"#utility.yul\":14337:14379   */\n      mstore\n        /* \"#utility.yul\":14396:14415   */\n      0x84\n      add\n        /* \"contracts/MyToken.sol\":7096:7173  require(!_isExcluded[sender], 'Excluded addresses cannot call this function') */\n      tag_338\n        /* \"#utility.yul\":14013:14421   */\n      jump\n        /* \"contracts/MyToken.sol\":7096:7173  require(!_isExcluded[sender], 'Excluded addresses cannot call this function') */\n    tag_407:\n        /* \"contracts/MyToken.sol\":7184:7199  uint256 rAmount */\n      0x00\n        /* \"contracts/MyToken.sol\":7213:7232  _getValues(tAmount) */\n      tag_410\n        /* \"contracts/MyToken.sol\":7224:7231  tAmount */\n      dup4\n        /* \"contracts/MyToken.sol\":7213:7223  _getValues */\n      tag_411\n        /* \"contracts/MyToken.sol\":7213:7232  _getValues(tAmount) */\n      jump\t// in\n    tag_410:\n      pop\n      pop\n      pop\n      pop\n      sub(shl(0xa0, 0x01), 0x01)\n        /* \"contracts/MyToken.sol\":7260:7275  _rOwned[sender] */\n      dup5\n      and\n      0x00\n      swap1\n      dup2\n      mstore\n        /* \"contracts/MyToken.sol\":7260:7267  _rOwned */\n      0x01\n        /* \"contracts/MyToken.sol\":7260:7275  _rOwned[sender] */\n      0x20\n      mstore\n      0x40\n      swap1\n      keccak256\n      sload\n        /* \"contracts/MyToken.sol\":7183:7232  (uint256 rAmount, , , , , ) = _getValues(tAmount) */\n      swap2\n      swap3\n      pop\n        /* \"contracts/MyToken.sol\":7260:7288  _rOwned[sender].sub(rAmount) */\n      tag_412\n      swap2\n        /* \"contracts/MyToken.sol\":7260:7275  _rOwned[sender] */\n      swap1\n      pop\n        /* \"contracts/MyToken.sol\":7183:7232  (uint256 rAmount, , , , , ) = _getValues(tAmount) */\n      dup3\n        /* \"contracts/MyToken.sol\":7260:7279  _rOwned[sender].sub */\n      tag_413\n        /* \"contracts/MyToken.sol\":7260:7288  _rOwned[sender].sub(rAmount) */\n      jump\t// in\n    tag_412:\n      sub(shl(0xa0, 0x01), 0x01)\n        /* \"contracts/MyToken.sol\":7242:7257  _rOwned[sender] */\n      dup4\n      and\n      0x00\n      swap1\n      dup2\n      mstore\n        /* \"contracts/MyToken.sol\":7242:7249  _rOwned */\n      0x01\n        /* \"contracts/MyToken.sol\":7242:7257  _rOwned[sender] */\n      0x20\n      mstore\n      0x40\n      swap1\n      keccak256\n        /* \"contracts/MyToken.sol\":7242:7288  _rOwned[sender] = _rOwned[sender].sub(rAmount) */\n      sstore\n        /* \"contracts/MyToken.sol\":7308:7315  _rTotal */\n      sload(0x08)\n        /* \"contracts/MyToken.sol\":7308:7328  _rTotal.sub(rAmount) */\n      tag_414\n      swap1\n        /* \"contracts/MyToken.sol\":7320:7327  rAmount */\n      dup3\n        /* \"contracts/MyToken.sol\":7308:7319  _rTotal.sub */\n      tag_413\n        /* \"contracts/MyToken.sol\":7308:7328  _rTotal.sub(rAmount) */\n      jump\t// in\n    tag_414:\n        /* \"contracts/MyToken.sol\":7298:7305  _rTotal */\n      0x08\n        /* \"contracts/MyToken.sol\":7298:7328  _rTotal = _rTotal.sub(rAmount) */\n      sstore\n        /* \"contracts/MyToken.sol\":7351:7361  _tFeeTotal */\n      sload(0x09)\n        /* \"contracts/MyToken.sol\":7351:7374  _tFeeTotal.add(tAmount) */\n      tag_415\n      swap1\n        /* \"contracts/MyToken.sol\":7366:7373  tAmount */\n      dup5\n        /* \"contracts/MyToken.sol\":7351:7365  _tFeeTotal.add */\n      tag_404\n        /* \"contracts/MyToken.sol\":7351:7374  _tFeeTotal.add(tAmount) */\n      jump\t// in\n    tag_415:\n        /* \"contracts/MyToken.sol\":7338:7348  _tFeeTotal */\n      0x09\n        /* \"contracts/MyToken.sol\":7338:7374  _tFeeTotal = _tFeeTotal.add(tAmount) */\n      sstore\n      pop\n      pop\n      pop\n        /* \"contracts/MyToken.sol\":7006:7381  function deliver(uint256 tAmount) public {... */\n      jump\t// out\n        /* \"contracts/MyToken.sol\":22407:22516  function excludeFromFee(address account) public onlyOwner {... */\n    tag_158:\n        /* \"@openzeppelin/contracts/access/Ownable.sol\":1094:1107  _checkOwner() */\n      tag_417\n        /* \"@openzeppelin/contracts/access/Ownable.sol\":1094:1105  _checkOwner */\n      tag_335\n        /* \"@openzeppelin/contracts/access/Ownable.sol\":1094:1107  _checkOwner() */\n      jump\t// in\n    tag_417:\n      sub(shl(0xa0, 0x01), 0x01)\n        /* \"contracts/MyToken.sol\":22475:22502  _isExcludedFromFee[account] */\n      and\n      0x00\n      swap1\n      dup2\n      mstore\n        /* \"contracts/MyToken.sol\":22475:22493  _isExcludedFromFee */\n      0x04\n        /* \"contracts/MyToken.sol\":22475:22502  _isExcludedFromFee[account] */\n      0x20\n      mstore\n      0x40\n      swap1\n      keccak256\n        /* \"contracts/MyToken.sol\":22475:22509  _isExcludedFromFee[account] = true */\n      dup1\n      sload\n      not(0xff)\n      and\n        /* \"contracts/MyToken.sol\":22505:22509  true */\n      0x01\n        /* \"contracts/MyToken.sol\":22475:22509  _isExcludedFromFee[account] = true */\n      or\n      swap1\n      sstore\n        /* \"contracts/MyToken.sol\":22407:22516  function excludeFromFee(address account) public onlyOwner {... */\n      jump\t// out\n        /* \"contracts/MyToken.sol\":7387:7853  function reflectionFromToken(uint256 tAmount, bool deductTransferFee)... */\n    tag_163:\n        /* \"contracts/MyToken.sol\":7502:7509  uint256 */\n      0x00\n        /* \"contracts/MyToken.sol\":7544:7551  _tTotal */\n      sload(0x07)\n        /* \"contracts/MyToken.sol\":7533:7540  tAmount */\n      dup4\n        /* \"contracts/MyToken.sol\":7533:7551  tAmount <= _tTotal */\n      gt\n      iszero\n        /* \"contracts/MyToken.sol\":7525:7587  require(tAmount <= _tTotal, 'Amount must be less than supply') */\n      tag_420\n      jumpi\n      mload(0x40)\n      shl(0xe5, 0x461bcd)\n      dup2\n      mstore\n        /* \"#utility.yul\":10633:10635   */\n      0x20\n        /* \"contracts/MyToken.sol\":7525:7587  require(tAmount <= _tTotal, 'Amount must be less than supply') */\n      0x04\n      dup3\n      add\n        /* \"#utility.yul\":10615:10636   */\n      mstore\n        /* \"#utility.yul\":10672:10674   */\n      0x1f\n        /* \"#utility.yul\":10652:10670   */\n      0x24\n      dup3\n      add\n        /* \"#utility.yul\":10645:10675   */\n      mstore\n        /* \"#utility.yul\":10711:10744   */\n      0x416d6f756e74206d757374206265206c657373207468616e20737570706c7900\n        /* \"#utility.yul\":10691:10709   */\n      0x44\n      dup3\n      add\n        /* \"#utility.yul\":10684:10745   */\n      mstore\n        /* \"#utility.yul\":10762:10780   */\n      0x64\n      add\n        /* \"contracts/MyToken.sol\":7525:7587  require(tAmount <= _tTotal, 'Amount must be less than supply') */\n      tag_338\n        /* \"#utility.yul\":10431:10786   */\n      jump\n        /* \"contracts/MyToken.sol\":7525:7587  require(tAmount <= _tTotal, 'Amount must be less than supply') */\n    tag_420:\n        /* \"contracts/MyToken.sol\":7602:7619  deductTransferFee */\n      dup2\n        /* \"contracts/MyToken.sol\":7597:7847  if (!deductTransferFee) {... */\n      tag_423\n      jumpi\n        /* \"contracts/MyToken.sol\":7636:7651  uint256 rAmount */\n      0x00\n        /* \"contracts/MyToken.sol\":7665:7684  _getValues(tAmount) */\n      tag_424\n        /* \"contracts/MyToken.sol\":7676:7683  tAmount */\n      dup5\n        /* \"contracts/MyToken.sol\":7665:7675  _getValues */\n      tag_411\n        /* \"contracts/MyToken.sol\":7665:7684  _getValues(tAmount) */\n      jump\t// in\n    tag_424:\n      pop\n        /* \"contracts/MyToken.sol\":7635:7684  (uint256 rAmount, , , , , ) = _getValues(tAmount) */\n      swap4\n      swap6\n      pop\n        /* \"contracts/MyToken.sol\":7698:7712  return rAmount */\n      tag_347\n      swap5\n      pop\n      pop\n      pop\n      pop\n      pop\n      jump\n        /* \"contracts/MyToken.sol\":7597:7847  if (!deductTransferFee) {... */\n    tag_423:\n        /* \"contracts/MyToken.sol\":7746:7769  uint256 rTransferAmount */\n      0x00\n        /* \"contracts/MyToken.sol\":7781:7800  _getValues(tAmount) */\n      tag_426\n        /* \"contracts/MyToken.sol\":7792:7799  tAmount */\n      dup5\n        /* \"contracts/MyToken.sol\":7781:7791  _getValues */\n      tag_411\n        /* \"contracts/MyToken.sol\":7781:7800  _getValues(tAmount) */\n      jump\t// in\n    tag_426:\n      pop\n        /* \"contracts/MyToken.sol\":7743:7800  (, uint256 rTransferAmount, , , , ) = _getValues(tAmount) */\n      swap3\n      swap6\n      pop\n        /* \"contracts/MyToken.sol\":7814:7836  return rTransferAmount */\n      tag_347\n      swap5\n      pop\n      pop\n      pop\n      pop\n      pop\n      jump\n        /* \"contracts/MyToken.sol\":23120:23316  function setMarketingFeePercent(uint256 marketingFee) external onlyOwner {... */\n    tag_168:\n        /* \"@openzeppelin/contracts/access/Ownable.sol\":1094:1107  _checkOwner() */\n      tag_428\n        /* \"@openzeppelin/contracts/access/Ownable.sol\":1094:1105  _checkOwner */\n      tag_335\n        /* \"@openzeppelin/contracts/access/Ownable.sol\":1094:1107  _checkOwner() */\n      jump\t// in\n    tag_428:\n        /* \"contracts/MyToken.sol\":23227:23229  10 */\n      0x0a\n        /* \"contracts/MyToken.sol\":23211:23223  marketingFee */\n      dup2\n        /* \"contracts/MyToken.sol\":23211:23229  marketingFee <= 10 */\n      gt\n      iszero\n        /* \"contracts/MyToken.sol\":23203:23271  require(marketingFee <= 10, 'Marketing fee cannot be more than 10%') */\n      tag_430\n      jumpi\n      mload(0x40)\n      shl(0xe5, 0x461bcd)\n      dup2\n      mstore\n        /* \"#utility.yul\":9874:9876   */\n      0x20\n        /* \"contracts/MyToken.sol\":23203:23271  require(marketingFee <= 10, 'Marketing fee cannot be more than 10%') */\n      0x04\n      dup3\n      add\n        /* \"#utility.yul\":9856:9877   */\n      mstore\n        /* \"#utility.yul\":9913:9915   */\n      0x25\n        /* \"#utility.yul\":9893:9911   */\n      0x24\n      dup3\n      add\n        /* \"#utility.yul\":9886:9916   */\n      mstore\n        /* \"#utility.yul\":9952:9986   */\n      0x4d61726b6574696e67206665652063616e6e6f74206265206d6f726520746861\n        /* \"#utility.yul\":9932:9950   */\n      0x44\n      dup3\n      add\n        /* \"#utility.yul\":9925:9987   */\n      mstore\n      shl(0xd8, 0x6e20313025)\n        /* \"#utility.yul\":10003:10021   */\n      0x64\n      dup3\n      add\n        /* \"#utility.yul\":9996:10031   */\n      mstore\n        /* \"#utility.yul\":10048:10067   */\n      0x84\n      add\n        /* \"contracts/MyToken.sol\":23203:23271  require(marketingFee <= 10, 'Marketing fee cannot be more than 10%') */\n      tag_338\n        /* \"#utility.yul\":9672:10073   */\n      jump\n        /* \"contracts/MyToken.sol\":23203:23271  require(marketingFee <= 10, 'Marketing fee cannot be more than 10%') */\n    tag_430:\n        /* \"contracts/MyToken.sol\":23281:23294  _marketingFee */\n      0x13\n        /* \"contracts/MyToken.sol\":23281:23309  _marketingFee = marketingFee */\n      sstore\n        /* \"contracts/MyToken.sol\":23120:23316  function setMarketingFeePercent(uint256 marketingFee) external onlyOwner {... */\n      jump\t// out\n        /* \"contracts/MyToken.sol\":24832:25061  function setAntiWhale(bool enabled) external {... */\n    tag_173:\n        /* \"@openzeppelin/contracts/access/Ownable.sol\":1247:1254  address */\n      0x00\n        /* \"@openzeppelin/contracts/access/Ownable.sol\":1273:1279  _owner */\n      sload\n      sub(shl(0xa0, 0x01), 0x01)\n      and\n        /* \"contracts/MyToken.sol\":24908:24918  msg.sender */\n      caller\n        /* \"contracts/MyToken.sol\":24908:24929  msg.sender == owner() */\n      eq\n      dup1\n        /* \"contracts/MyToken.sol\":24908:24958  msg.sender == owner() || msg.sender == antiManager */\n      tag_435\n      jumpi\n      pop\n        /* \"contracts/MyToken.sol\":24947:24958  antiManager */\n      sload(0x1d)\n      0x0100\n      swap1\n      div\n      sub(shl(0xa0, 0x01), 0x01)\n      and\n        /* \"contracts/MyToken.sol\":24933:24943  msg.sender */\n      caller\n        /* \"contracts/MyToken.sol\":24933:24958  msg.sender == antiManager */\n      eq\n        /* \"contracts/MyToken.sol\":24908:24958  msg.sender == owner() || msg.sender == antiManager */\n    tag_435:\n        /* \"contracts/MyToken.sol\":24887:25018  require(... */\n      tag_436\n      jumpi\n      mload(0x40)\n      shl(0xe5, 0x461bcd)\n      dup2\n      mstore\n      0x04\n      add\n      tag_338\n      swap1\n      tag_438\n      jump\t// in\n    tag_436:\n        /* \"contracts/MyToken.sol\":25028:25044  antiWhaleEnabled */\n      0x1b\n        /* \"contracts/MyToken.sol\":25028:25054  antiWhaleEnabled = enabled */\n      dup1\n      sload\n      not(0xff)\n      and\n      swap2\n      iszero\n      iszero\n      swap2\n      swap1\n      swap2\n      or\n      swap1\n      sstore\n        /* \"contracts/MyToken.sol\":24832:25061  function setAntiWhale(bool enabled) external {... */\n      jump\t// out\n        /* \"contracts/MyToken.sol\":8114:8565  function excludeFromReward(address account) public onlyOwner {... */\n    tag_181:\n        /* \"@openzeppelin/contracts/access/Ownable.sol\":1094:1107  _checkOwner() */\n      tag_440\n        /* \"@openzeppelin/contracts/access/Ownable.sol\":1094:1105  _checkOwner */\n      tag_335\n        /* \"@openzeppelin/contracts/access/Ownable.sol\":1094:1107  _checkOwner() */\n      jump\t// in\n    tag_440:\n        /* \"contracts/MyToken.sol\":8225:8240  pancakeV2Router */\n      sload(0x1e)\n      sub(shl(0xa0, 0x01), 0x01)\n        /* \"contracts/MyToken.sol\":8206:8241  account != address(pancakeV2Router) */\n      dup3\n      dup2\n      and\n        /* \"contracts/MyToken.sol\":8225:8240  pancakeV2Router */\n      swap2\n      and\n        /* \"contracts/MyToken.sol\":8206:8241  account != address(pancakeV2Router) */\n      eq\n      iszero\n        /* \"contracts/MyToken.sol\":8185:8301  require(... */\n      tag_442\n      jumpi\n      mload(0x40)\n      shl(0xe5, 0x461bcd)\n      dup2\n      mstore\n        /* \"#utility.yul\":13812:13814   */\n      0x20\n        /* \"contracts/MyToken.sol\":8185:8301  require(... */\n      0x04\n      dup3\n      add\n        /* \"#utility.yul\":13794:13815   */\n      mstore\n        /* \"#utility.yul\":13851:13853   */\n      0x22\n        /* \"#utility.yul\":13831:13849   */\n      0x24\n      dup3\n      add\n        /* \"#utility.yul\":13824:13854   */\n      mstore\n        /* \"#utility.yul\":13890:13924   */\n      0x57652063616e206e6f74206578636c7564652050616e63616b6520726f757465\n        /* \"#utility.yul\":13870:13888   */\n      0x44\n      dup3\n      add\n        /* \"#utility.yul\":13863:13925   */\n      mstore\n      shl(0xf1, 0x3917)\n        /* \"#utility.yul\":13941:13959   */\n      0x64\n      dup3\n      add\n        /* \"#utility.yul\":13934:13966   */\n      mstore\n        /* \"#utility.yul\":13983:14002   */\n      0x84\n      add\n        /* \"contracts/MyToken.sol\":8185:8301  require(... */\n      tag_338\n        /* \"#utility.yul\":13610:14008   */\n      jump\n        /* \"contracts/MyToken.sol\":8185:8301  require(... */\n    tag_442:\n      sub(shl(0xa0, 0x01), 0x01)\n        /* \"contracts/MyToken.sol\":8320:8340  _isExcluded[account] */\n      dup2\n      and\n      0x00\n      swap1\n      dup2\n      mstore\n        /* \"contracts/MyToken.sol\":8320:8331  _isExcluded */\n      0x05\n        /* \"contracts/MyToken.sol\":8320:8340  _isExcluded[account] */\n      0x20\n      mstore\n      0x40\n      swap1\n      keccak256\n      sload\n      0xff\n      and\n        /* \"contracts/MyToken.sol\":8319:8340  !_isExcluded[account] */\n      iszero\n        /* \"contracts/MyToken.sol\":8311:8372  require(!_isExcluded[account], 'Account is already excluded') */\n      tag_445\n      jumpi\n      mload(0x40)\n      shl(0xe5, 0x461bcd)\n      dup2\n      mstore\n        /* \"#utility.yul\":9104:9106   */\n      0x20\n        /* \"contracts/MyToken.sol\":8311:8372  require(!_isExcluded[account], 'Account is already excluded') */\n      0x04\n      dup3\n      add\n        /* \"#utility.yul\":9086:9107   */\n      mstore\n        /* \"#utility.yul\":9143:9145   */\n      0x1b\n        /* \"#utility.yul\":9123:9141   */\n      0x24\n      dup3\n      add\n        /* \"#utility.yul\":9116:9146   */\n      mstore\n        /* \"#utility.yul\":9182:9211   */\n      0x4163636f756e7420697320616c7265616479206578636c756465640000000000\n        /* \"#utility.yul\":9162:9180   */\n      0x44\n      dup3\n      add\n        /* \"#utility.yul\":9155:9212   */\n      mstore\n        /* \"#utility.yul\":9229:9247   */\n      0x64\n      add\n        /* \"contracts/MyToken.sol\":8311:8372  require(!_isExcluded[account], 'Account is already excluded') */\n      tag_338\n        /* \"#utility.yul\":8902:9253   */\n      jump\n        /* \"contracts/MyToken.sol\":8311:8372  require(!_isExcluded[account], 'Account is already excluded') */\n    tag_445:\n      sub(shl(0xa0, 0x01), 0x01)\n        /* \"contracts/MyToken.sol\":8386:8402  _rOwned[account] */\n      dup2\n      and\n        /* \"contracts/MyToken.sol\":8405:8406  0 */\n      0x00\n        /* \"contracts/MyToken.sol\":8386:8402  _rOwned[account] */\n      swap1\n      dup2\n      mstore\n        /* \"contracts/MyToken.sol\":8386:8393  _rOwned */\n      0x01\n        /* \"contracts/MyToken.sol\":8386:8402  _rOwned[account] */\n      0x20\n      mstore\n      0x40\n      swap1\n      keccak256\n      sload\n        /* \"contracts/MyToken.sol\":8386:8406  _rOwned[account] > 0 */\n      iszero\n        /* \"contracts/MyToken.sol\":8382:8489  if (_rOwned[account] > 0) {... */\n      tag_447\n      jumpi\n      sub(shl(0xa0, 0x01), 0x01)\n        /* \"contracts/MyToken.sol\":8461:8477  _rOwned[account] */\n      dup2\n      and\n      0x00\n      swap1\n      dup2\n      mstore\n        /* \"contracts/MyToken.sol\":8461:8468  _rOwned */\n      0x01\n        /* \"contracts/MyToken.sol\":8461:8477  _rOwned[account] */\n      0x20\n      mstore\n      0x40\n      swap1\n      keccak256\n      sload\n        /* \"contracts/MyToken.sol\":8441:8478  tokenFromReflection(_rOwned[account]) */\n      tag_448\n      swap1\n        /* \"contracts/MyToken.sol\":8441:8460  tokenFromReflection */\n      tag_130\n        /* \"contracts/MyToken.sol\":8441:8478  tokenFromReflection(_rOwned[account]) */\n      jump\t// in\n    tag_448:\n      sub(shl(0xa0, 0x01), 0x01)\n        /* \"contracts/MyToken.sol\":8422:8438  _tOwned[account] */\n      dup3\n      and\n      0x00\n      swap1\n      dup2\n      mstore\n        /* \"contracts/MyToken.sol\":8422:8429  _tOwned */\n      0x02\n        /* \"contracts/MyToken.sol\":8422:8438  _tOwned[account] */\n      0x20\n      mstore\n      0x40\n      swap1\n      keccak256\n        /* \"contracts/MyToken.sol\":8422:8478  _tOwned[account] = tokenFromReflection(_rOwned[account]) */\n      sstore\n        /* \"contracts/MyToken.sol\":8382:8489  if (_rOwned[account] > 0) {... */\n    tag_447:\n      sub(shl(0xa0, 0x01), 0x01)\n        /* \"contracts/MyToken.sol\":8498:8518  _isExcluded[account] */\n      and\n      0x00\n      dup2\n      dup2\n      mstore\n        /* \"contracts/MyToken.sol\":8498:8509  _isExcluded */\n      0x05\n        /* \"contracts/MyToken.sol\":8498:8518  _isExcluded[account] */\n      0x20\n      mstore\n      0x40\n      dup2\n      keccak256\n        /* \"contracts/MyToken.sol\":8498:8525  _isExcluded[account] = true */\n      dup1\n      sload\n      not(0xff)\n      and\n        /* \"contracts/MyToken.sol\":8521:8525  true */\n      0x01\n        /* \"contracts/MyToken.sol\":8498:8525  _isExcluded[account] = true */\n      swap1\n      dup2\n      or\n      swap1\n      swap2\n      sstore\n        /* \"contracts/MyToken.sol\":8535:8544  _excluded */\n      0x06\n        /* \"contracts/MyToken.sol\":8535:8558  _excluded.push(account) */\n      dup1\n      sload\n      swap2\n      dup3\n      add\n      dup2\n      sstore\n      swap1\n      swap2\n      mstore\n      0xf652222313e28459528d920b65115c16c04f3efc82aaedc97be59f3f377c0d3f\n      add\n      dup1\n      sload\n      not(sub(shl(0xa0, 0x01), 0x01))\n      and\n      swap1\n      swap2\n      or\n      swap1\n      sstore\n        /* \"contracts/MyToken.sol\":8114:8565  function excludeFromReward(address account) public onlyOwner {... */\n      jump\t// out\n        /* \"contracts/MyToken.sol\":23918:24139  function setSellLiquidityFeePercent(uint256 sellLiquidityFee) external onlyOwner {... */\n    tag_194:\n        /* \"@openzeppelin/contracts/access/Ownable.sol\":1094:1107  _checkOwner() */\n      tag_452\n        /* \"@openzeppelin/contracts/access/Ownable.sol\":1094:1105  _checkOwner */\n      tag_335\n        /* \"@openzeppelin/contracts/access/Ownable.sol\":1094:1107  _checkOwner() */\n      jump\t// in\n    tag_452:\n        /* \"contracts/MyToken.sol\":24037:24039  10 */\n      0x0a\n        /* \"contracts/MyToken.sol\":24017:24033  sellLiquidityFee */\n      dup2\n        /* \"contracts/MyToken.sol\":24017:24039  sellLiquidityFee <= 10 */\n      gt\n      iszero\n        /* \"contracts/MyToken.sol\":24009:24086  require(sellLiquidityFee <= 10, 'Sell liquidity fee cannot be more than 10%') */\n      tag_454\n      jumpi\n      mload(0x40)\n      shl(0xe5, 0x461bcd)\n      dup2\n      mstore\n        /* \"#utility.yul\":10993:10995   */\n      0x20\n        /* \"contracts/MyToken.sol\":24009:24086  require(sellLiquidityFee <= 10, 'Sell liquidity fee cannot be more than 10%') */\n      0x04\n      dup3\n      add\n        /* \"#utility.yul\":10975:10996   */\n      mstore\n        /* \"#utility.yul\":11032:11034   */\n      0x2a\n        /* \"#utility.yul\":11012:11030   */\n      0x24\n      dup3\n      add\n        /* \"#utility.yul\":11005:11035   */\n      mstore\n        /* \"#utility.yul\":11071:11105   */\n      0x53656c6c206c6971756964697479206665652063616e6e6f74206265206d6f72\n        /* \"#utility.yul\":11051:11069   */\n      0x44\n      dup3\n      add\n        /* \"#utility.yul\":11044:11106   */\n      mstore\n      shl(0xb0, 0x65207468616e20313025)\n        /* \"#utility.yul\":11122:11140   */\n      0x64\n      dup3\n      add\n        /* \"#utility.yul\":11115:11155   */\n      mstore\n        /* \"#utility.yul\":11172:11191   */\n      0x84\n      add\n        /* \"contracts/MyToken.sol\":24009:24086  require(sellLiquidityFee <= 10, 'Sell liquidity fee cannot be more than 10%') */\n      tag_338\n        /* \"#utility.yul\":10791:11197   */\n      jump\n        /* \"contracts/MyToken.sol\":24009:24086  require(sellLiquidityFee <= 10, 'Sell liquidity fee cannot be more than 10%') */\n    tag_454:\n        /* \"contracts/MyToken.sol\":24096:24113  _sellLiquidityFee */\n      0x17\n        /* \"contracts/MyToken.sol\":24096:24132  _sellLiquidityFee = sellLiquidityFee */\n      sstore\n        /* \"contracts/MyToken.sol\":23918:24139  function setSellLiquidityFeePercent(uint256 sellLiquidityFee) external onlyOwner {... */\n      jump\t// out\n        /* \"contracts/MyToken.sol\":22636:22746  function setMarketingWallet(address newWallet) external onlyOwner {... */\n    tag_198:\n        /* \"@openzeppelin/contracts/access/Ownable.sol\":1094:1107  _checkOwner() */\n      tag_458\n        /* \"@openzeppelin/contracts/access/Ownable.sol\":1094:1105  _checkOwner */\n      tag_335\n        /* \"@openzeppelin/contracts/access/Ownable.sol\":1094:1107  _checkOwner() */\n      jump\t// in\n    tag_458:\n        /* \"contracts/MyToken.sol\":22712:22727  marketingWallet */\n      0x14\n        /* \"contracts/MyToken.sol\":22712:22739  marketingWallet = newWallet */\n      dup1\n      sload\n      not(sub(shl(0xa0, 0x01), 0x01))\n      and\n      sub(shl(0xa0, 0x01), 0x01)\n      swap3\n      swap1\n      swap3\n      and\n      swap2\n      swap1\n      swap2\n      or\n      swap1\n      sstore\n        /* \"contracts/MyToken.sol\":22636:22746  function setMarketingWallet(address newWallet) external onlyOwner {... */\n      jump\t// out\n        /* \"contracts/MyToken.sol\":4472:4579  function setAntisnipeAddress(address addr) external onlyOwner {... */\n    tag_202:\n        /* \"@openzeppelin/contracts/access/Ownable.sol\":1094:1107  _checkOwner() */\n      tag_461\n        /* \"@openzeppelin/contracts/access/Ownable.sol\":1094:1105  _checkOwner */\n      tag_335\n        /* \"@openzeppelin/contracts/access/Ownable.sol\":1094:1107  _checkOwner() */\n      jump\t// in\n    tag_461:\n        /* \"contracts/MyToken.sol\":4544:4553  antisnipe */\n      0x22\n        /* \"contracts/MyToken.sol\":4544:4572  antisnipe = IAntisnipe(addr) */\n      dup1\n      sload\n      not(sub(shl(0xa0, 0x01), 0x01))\n      and\n      sub(shl(0xa0, 0x01), 0x01)\n      swap3\n      swap1\n      swap3\n      and\n      swap2\n      swap1\n      swap2\n      or\n      swap1\n      sstore\n        /* \"contracts/MyToken.sol\":4472:4579  function setAntisnipeAddress(address addr) external onlyOwner {... */\n      jump\t// out\n        /* \"contracts/MyToken.sol\":4949:5144  function balanceOf(address account) public view override returns (uint256) {... */\n    tag_219:\n      sub(shl(0xa0, 0x01), 0x01)\n        /* \"contracts/MyToken.sol\":5038:5058  _isExcluded[account] */\n      dup2\n      and\n        /* \"contracts/MyToken.sol\":5015:5022  uint256 */\n      0x00\n        /* \"contracts/MyToken.sol\":5038:5058  _isExcluded[account] */\n      swap1\n      dup2\n      mstore\n        /* \"contracts/MyToken.sol\":5038:5049  _isExcluded */\n      0x05\n        /* \"contracts/MyToken.sol\":5038:5058  _isExcluded[account] */\n      0x20\n      mstore\n      0x40\n      dup2\n      keccak256\n      sload\n      0xff\n      and\n        /* \"contracts/MyToken.sol\":5034:5083  if (_isExcluded[account]) return _tOwned[account] */\n      iszero\n      tag_464\n      jumpi\n      pop\n      sub(shl(0xa0, 0x01), 0x01)\n        /* \"contracts/MyToken.sol\":5067:5083  _tOwned[account] */\n      and\n      0x00\n      swap1\n      dup2\n      mstore\n        /* \"contracts/MyToken.sol\":5067:5074  _tOwned */\n      0x02\n        /* \"contracts/MyToken.sol\":5067:5083  _tOwned[account] */\n      0x20\n      mstore\n      0x40\n      swap1\n      keccak256\n      sload\n      swap1\n        /* \"contracts/MyToken.sol\":4949:5144  function balanceOf(address account) public view override returns (uint256) {... */\n      jump\t// out\n        /* \"contracts/MyToken.sol\":5034:5083  if (_isExcluded[account]) return _tOwned[account] */\n    tag_464:\n      sub(shl(0xa0, 0x01), 0x01)\n        /* \"contracts/MyToken.sol\":5120:5136  _rOwned[account] */\n      dup3\n      and\n      0x00\n      swap1\n      dup2\n      mstore\n        /* \"contracts/MyToken.sol\":5120:5127  _rOwned */\n      0x01\n        /* \"contracts/MyToken.sol\":5120:5136  _rOwned[account] */\n      0x20\n      mstore\n      0x40\n      swap1\n      keccak256\n      sload\n        /* \"contracts/MyToken.sol\":5100:5137  tokenFromReflection(_rOwned[account]) */\n      tag_347\n      swap1\n        /* \"contracts/MyToken.sol\":5100:5119  tokenFromReflection */\n      tag_130\n        /* \"contracts/MyToken.sol\":5100:5137  tokenFromReflection(_rOwned[account]) */\n      jump\t// in\n        /* \"@openzeppelin/contracts/access/Ownable.sol\":1831:1932  function renounceOwnership() public virtual onlyOwner {... */\n    tag_223:\n        /* \"@openzeppelin/contracts/access/Ownable.sol\":1094:1107  _checkOwner() */\n      tag_467\n        /* \"@openzeppelin/contracts/access/Ownable.sol\":1094:1105  _checkOwner */\n      tag_335\n        /* \"@openzeppelin/contracts/access/Ownable.sol\":1094:1107  _checkOwner() */\n      jump\t// in\n    tag_467:\n        /* \"@openzeppelin/contracts/access/Ownable.sol\":1895:1925  _transferOwnership(address(0)) */\n      tag_469\n        /* \"@openzeppelin/contracts/access/Ownable.sol\":1922:1923  0 */\n      0x00\n        /* \"@openzeppelin/contracts/access/Ownable.sol\":1895:1913  _transferOwnership */\n      tag_470\n        /* \"@openzeppelin/contracts/access/Ownable.sol\":1895:1925  _transferOwnership(address(0)) */\n      jump\t// in\n    tag_469:\n        /* \"@openzeppelin/contracts/access/Ownable.sol\":1831:1932  function renounceOwnership() public virtual onlyOwner {... */\n      jump\t// out\n        /* \"contracts/MyToken.sol\":4340:4466  function setAntisnipeDisable() external onlyOwner {... */\n    tag_226:\n        /* \"@openzeppelin/contracts/access/Ownable.sol\":1094:1107  _checkOwner() */\n      tag_472\n        /* \"@openzeppelin/contracts/access/Ownable.sol\":1094:1105  _checkOwner */\n      tag_335\n        /* \"@openzeppelin/contracts/access/Ownable.sol\":1094:1107  _checkOwner() */\n      jump\t// in\n    tag_472:\n        /* \"contracts/MyToken.sol\":4409:4425  antisnipeDisable */\n      sload(0x22)\n      shl(0xa0, 0x01)\n      swap1\n      div\n      0xff\n      and\n        /* \"contracts/MyToken.sol\":4408:4425  !antisnipeDisable */\n      iszero\n        /* \"contracts/MyToken.sol\":4400:4426  require(!antisnipeDisable) */\n      tag_474\n      jumpi\n      0x00\n      dup1\n      revert\n    tag_474:\n        /* \"contracts/MyToken.sol\":4436:4452  antisnipeDisable */\n      0x22\n        /* \"contracts/MyToken.sol\":4436:4459  antisnipeDisable = true */\n      dup1\n      sload\n      not(shl(0xa0, 0xff))\n      and\n      shl(0xa0, 0x01)\n      or\n      swap1\n      sstore\n        /* \"contracts/MyToken.sol\":4340:4466  function setAntisnipeDisable() external onlyOwner {... */\n      jump\t// out\n        /* \"contracts/MyToken.sol\":22918:23114  function setLiquidityFeePercent(uint256 liquidityFee) external onlyOwner {... */\n    tag_256:\n        /* \"@openzeppelin/contracts/access/Ownable.sol\":1094:1107  _checkOwner() */\n      tag_478\n        /* \"@openzeppelin/contracts/access/Ownable.sol\":1094:1105  _checkOwner */\n      tag_335\n        /* \"@openzeppelin/contracts/access/Ownable.sol\":1094:1107  _checkOwner() */\n      jump\t// in\n    tag_478:\n        /* \"contracts/MyToken.sol\":23025:23027  10 */\n      0x0a\n        /* \"contracts/MyToken.sol\":23009:23021  liquidityFee */\n      dup2\n        /* \"contracts/MyToken.sol\":23009:23027  liquidityFee <= 10 */\n      gt\n      iszero\n        /* \"contracts/MyToken.sol\":23001:23069  require(liquidityFee <= 10, 'Liquidity fee cannot be more than 10%') */\n      tag_480\n      jumpi\n      mload(0x40)\n      shl(0xe5, 0x461bcd)\n      dup2\n      mstore\n        /* \"#utility.yul\":15031:15033   */\n      0x20\n        /* \"contracts/MyToken.sol\":23001:23069  require(liquidityFee <= 10, 'Liquidity fee cannot be more than 10%') */\n      0x04\n      dup3\n      add\n        /* \"#utility.yul\":15013:15034   */\n      mstore\n        /* \"#utility.yul\":15070:15072   */\n      0x25\n        /* \"#utility.yul\":15050:15068   */\n      0x24\n      dup3\n      add\n        /* \"#utility.yul\":15043:15073   */\n      mstore\n        /* \"#utility.yul\":15109:15143   */\n      0x4c6971756964697479206665652063616e6e6f74206265206d6f726520746861\n        /* \"#utility.yul\":15089:15107   */\n      0x44\n      dup3\n      add\n        /* \"#utility.yul\":15082:15144   */\n      mstore\n      shl(0xd8, 0x6e20313025)\n        /* \"#utility.yul\":15160:15178   */\n      0x64\n      dup3\n      add\n        /* \"#utility.yul\":15153:15188   */\n      mstore\n        /* \"#utility.yul\":15205:15224   */\n      0x84\n      add\n        /* \"contracts/MyToken.sol\":23001:23069  require(liquidityFee <= 10, 'Liquidity fee cannot be more than 10%') */\n      tag_338\n        /* \"#utility.yul\":14829:15230   */\n      jump\n        /* \"contracts/MyToken.sol\":23001:23069  require(liquidityFee <= 10, 'Liquidity fee cannot be more than 10%') */\n    tag_480:\n        /* \"contracts/MyToken.sol\":23079:23092  _liquidityFee */\n      0x0f\n        /* \"contracts/MyToken.sol\":23079:23107  _liquidityFee = liquidityFee */\n      sstore\n        /* \"contracts/MyToken.sol\":22918:23114  function setLiquidityFeePercent(uint256 liquidityFee) external onlyOwner {... */\n      jump\t// out\n        /* \"contracts/MyToken.sol\":4672:4757  function symbol() public view returns (string memory) {... */\n    tag_259:\n        /* \"contracts/MyToken.sol\":4711:4724  string memory */\n      0x60\n        /* \"contracts/MyToken.sol\":4743:4750  _symbol */\n      0x0b\n        /* \"contracts/MyToken.sol\":4736:4750  return _symbol */\n      dup1\n      sload\n      tag_341\n      swap1\n      tag_342\n      jump\t// in\n        /* \"contracts/MyToken.sol\":24336:24652  function setMaxHoldingPercents(uint256 maxHoldingPercents) external onlyOwner {... */\n    tag_264:\n        /* \"@openzeppelin/contracts/access/Ownable.sol\":1094:1107  _checkOwner() */\n      tag_490\n        /* \"@openzeppelin/contracts/access/Ownable.sol\":1094:1105  _checkOwner */\n      tag_335\n        /* \"@openzeppelin/contracts/access/Ownable.sol\":1094:1107  _checkOwner() */\n      jump\t// in\n    tag_490:\n        /* \"contracts/MyToken.sol\":24454:24455  1 */\n      0x01\n        /* \"contracts/MyToken.sol\":24432:24450  maxHoldingPercents */\n      dup2\n        /* \"contracts/MyToken.sol\":24432:24455  maxHoldingPercents >= 1 */\n      lt\n      iszero\n        /* \"contracts/MyToken.sol\":24424:24505  require(maxHoldingPercents >= 1, 'Max holding percents cannot be less than 0.1%') */\n      tag_492\n      jumpi\n      mload(0x40)\n      shl(0xe5, 0x461bcd)\n      dup2\n      mstore\n        /* \"#utility.yul\":9460:9462   */\n      0x20\n        /* \"contracts/MyToken.sol\":24424:24505  require(maxHoldingPercents >= 1, 'Max holding percents cannot be less than 0.1%') */\n      0x04\n      dup3\n      add\n        /* \"#utility.yul\":9442:9463   */\n      mstore\n        /* \"#utility.yul\":9499:9501   */\n      0x2d\n        /* \"#utility.yul\":9479:9497   */\n      0x24\n      dup3\n      add\n        /* \"#utility.yul\":9472:9502   */\n      mstore\n        /* \"#utility.yul\":9538:9572   */\n      0x4d617820686f6c64696e672070657263656e74732063616e6e6f74206265206c\n        /* \"#utility.yul\":9518:9536   */\n      0x44\n      dup3\n      add\n        /* \"#utility.yul\":9511:9573   */\n      mstore\n      shl(0x98, 0x657373207468616e20302e3125)\n        /* \"#utility.yul\":9589:9607   */\n      0x64\n      dup3\n      add\n        /* \"#utility.yul\":9582:9625   */\n      mstore\n        /* \"#utility.yul\":9642:9661   */\n      0x84\n      add\n        /* \"contracts/MyToken.sol\":24424:24505  require(maxHoldingPercents >= 1, 'Max holding percents cannot be less than 0.1%') */\n      tag_338\n        /* \"#utility.yul\":9258:9667   */\n      jump\n        /* \"contracts/MyToken.sol\":24424:24505  require(maxHoldingPercents >= 1, 'Max holding percents cannot be less than 0.1%') */\n    tag_492:\n        /* \"contracts/MyToken.sol\":24545:24547  30 */\n      0x1e\n        /* \"contracts/MyToken.sol\":24523:24541  maxHoldingPercents */\n      dup2\n        /* \"contracts/MyToken.sol\":24523:24547  maxHoldingPercents <= 30 */\n      gt\n      iszero\n        /* \"contracts/MyToken.sol\":24515:24595  require(maxHoldingPercents <= 30, 'Max holding percents cannot be more than 3%') */\n      tag_495\n      jumpi\n      mload(0x40)\n      shl(0xe5, 0x461bcd)\n      dup2\n      mstore\n        /* \"#utility.yul\":12170:12172   */\n      0x20\n        /* \"contracts/MyToken.sol\":24515:24595  require(maxHoldingPercents <= 30, 'Max holding percents cannot be more than 3%') */\n      0x04\n      dup3\n      add\n        /* \"#utility.yul\":12152:12173   */\n      mstore\n        /* \"#utility.yul\":12209:12211   */\n      0x2b\n        /* \"#utility.yul\":12189:12207   */\n      0x24\n      dup3\n      add\n        /* \"#utility.yul\":12182:12212   */\n      mstore\n        /* \"#utility.yul\":12248:12282   */\n      0x4d617820686f6c64696e672070657263656e74732063616e6e6f74206265206d\n        /* \"#utility.yul\":12228:12246   */\n      0x44\n      dup3\n      add\n        /* \"#utility.yul\":12221:12283   */\n      mstore\n      shl(0xa8, 0x6f7265207468616e203325)\n        /* \"#utility.yul\":12299:12317   */\n      0x64\n      dup3\n      add\n        /* \"#utility.yul\":12292:12333   */\n      mstore\n        /* \"#utility.yul\":12350:12369   */\n      0x84\n      add\n        /* \"contracts/MyToken.sol\":24515:24595  require(maxHoldingPercents <= 30, 'Max holding percents cannot be more than 3%') */\n      tag_338\n        /* \"#utility.yul\":11968:12375   */\n      jump\n        /* \"contracts/MyToken.sol\":24515:24595  require(maxHoldingPercents <= 30, 'Max holding percents cannot be more than 3%') */\n    tag_495:\n        /* \"contracts/MyToken.sol\":24605:24624  _maxHoldingPercents */\n      0x1a\n        /* \"contracts/MyToken.sol\":24605:24645  _maxHoldingPercents = maxHoldingPercents */\n      sstore\n        /* \"contracts/MyToken.sol\":24336:24652  function setMaxHoldingPercents(uint256 maxHoldingPercents) external onlyOwner {... */\n      jump\t// out\n        /* \"contracts/MyToken.sol\":6399:6785  function decreaseAllowance(address spender, uint256 subtractedValue)... */\n    tag_268:\n        /* \"contracts/MyToken.sol\":6516:6520  bool */\n      0x00\n        /* \"contracts/MyToken.sol\":6536:6757  _approve(... */\n      tag_348\n        /* \"@openzeppelin/contracts/utils/Context.sol\":719:729  msg.sender */\n      caller\n        /* \"contracts/MyToken.sol\":6584:6591  spender */\n      dup5\n        /* \"contracts/MyToken.sol\":6605:6747  _allowances[_msgSender()][spender].sub(... */\n      tag_359\n        /* \"contracts/MyToken.sol\":6661:6676  subtractedValue */\n      dup6\n        /* \"contracts/MyToken.sol\":6605:6747  _allowances[_msgSender()][spender].sub(... */\n      mload(0x40)\n      dup1\n      0x60\n      add\n      0x40\n      mstore\n      dup1\n      0x25\n      dup2\n      mstore\n      0x20\n      add\n      data_b7060b3538dcd3ddc8a941c91636a8115a1aa46914747fd9809d543bbb46cd22\n      0x25\n      swap2\n      codecopy\n        /* \"@openzeppelin/contracts/utils/Context.sol\":719:729  msg.sender */\n      caller\n        /* \"contracts/MyToken.sol\":6605:6630  _allowances[_msgSender()] */\n      0x00\n      swap1\n      dup2\n      mstore\n        /* \"contracts/MyToken.sol\":6605:6616  _allowances */\n      0x03\n        /* \"contracts/MyToken.sol\":6605:6630  _allowances[_msgSender()] */\n      0x20\n      swap1\n      dup2\n      mstore\n      0x40\n      dup1\n      dup4\n      keccak256\n      sub(shl(0xa0, 0x01), 0x01)\n        /* \"contracts/MyToken.sol\":6605:6639  _allowances[_msgSender()][spender] */\n      dup14\n      and\n      dup5\n      mstore\n      swap1\n      swap2\n      mstore\n      swap1\n      keccak256\n      sload\n      swap2\n      swap1\n        /* \"contracts/MyToken.sol\":6605:6643  _allowances[_msgSender()][spender].sub */\n      tag_361\n        /* \"contracts/MyToken.sol\":6605:6747  _allowances[_msgSender()][spender].sub(... */\n      jump\t// in\n        /* \"contracts/MyToken.sol\":5150:5314  function transfer(address recipient, uint256 amount) public override returns (bool) {... */\n    tag_273:\n        /* \"contracts/MyToken.sol\":5228:5232  bool */\n      0x00\n        /* \"contracts/MyToken.sol\":5244:5286  _transfer(_msgSender(), recipient, amount) */\n      tag_348\n        /* \"@openzeppelin/contracts/utils/Context.sol\":719:729  msg.sender */\n      caller\n        /* \"contracts/MyToken.sol\":5268:5277  recipient */\n      dup5\n        /* \"contracts/MyToken.sol\":5279:5285  amount */\n      dup5\n        /* \"contracts/MyToken.sol\":5244:5253  _transfer */\n      tag_356\n        /* \"contracts/MyToken.sol\":5244:5286  _transfer(_msgSender(), recipient, amount) */\n      jump\t// in\n        /* \"contracts/MyToken.sol\":23691:23912  function setSellMarketingFeePercent(uint256 sellMarketingFee) external onlyOwner {... */\n    tag_278:\n        /* \"@openzeppelin/contracts/access/Ownable.sol\":1094:1107  _checkOwner() */\n      tag_507\n        /* \"@openzeppelin/contracts/access/Ownable.sol\":1094:1105  _checkOwner */\n      tag_335\n        /* \"@openzeppelin/contracts/access/Ownable.sol\":1094:1107  _checkOwner() */\n      jump\t// in\n    tag_507:\n        /* \"contracts/MyToken.sol\":23810:23812  10 */\n      0x0a\n        /* \"contracts/MyToken.sol\":23790:23806  sellMarketingFee */\n      dup2\n        /* \"contracts/MyToken.sol\":23790:23812  sellMarketingFee <= 10 */\n      gt\n      iszero\n        /* \"contracts/MyToken.sol\":23782:23859  require(sellMarketingFee <= 10, 'Sell marketing fee cannot be more than 10%') */\n      tag_509\n      jumpi\n      mload(0x40)\n      shl(0xe5, 0x461bcd)\n      dup2\n      mstore\n        /* \"#utility.yul\":8693:8695   */\n      0x20\n        /* \"contracts/MyToken.sol\":23782:23859  require(sellMarketingFee <= 10, 'Sell marketing fee cannot be more than 10%') */\n      0x04\n      dup3\n      add\n        /* \"#utility.yul\":8675:8696   */\n      mstore\n        /* \"#utility.yul\":8732:8734   */\n      0x2a\n        /* \"#utility.yul\":8712:8730   */\n      0x24\n      dup3\n      add\n        /* \"#utility.yul\":8705:8735   */\n      mstore\n        /* \"#utility.yul\":8771:8805   */\n      0x53656c6c206d61726b6574696e67206665652063616e6e6f74206265206d6f72\n        /* \"#utility.yul\":8751:8769   */\n      0x44\n      dup3\n      add\n        /* \"#utility.yul\":8744:8806   */\n      mstore\n      shl(0xb0, 0x65207468616e20313025)\n        /* \"#utility.yul\":8822:8840   */\n      0x64\n      dup3\n      add\n        /* \"#utility.yul\":8815:8855   */\n      mstore\n        /* \"#utility.yul\":8872:8891   */\n      0x84\n      add\n        /* \"contracts/MyToken.sol\":23782:23859  require(sellMarketingFee <= 10, 'Sell marketing fee cannot be more than 10%') */\n      tag_338\n        /* \"#utility.yul\":8491:8897   */\n      jump\n        /* \"contracts/MyToken.sol\":23782:23859  require(sellMarketingFee <= 10, 'Sell marketing fee cannot be more than 10%') */\n    tag_509:\n        /* \"contracts/MyToken.sol\":23869:23886  _sellMarketingFee */\n      0x18\n        /* \"contracts/MyToken.sol\":23869:23905  _sellMarketingFee = sellMarketingFee */\n      sstore\n        /* \"contracts/MyToken.sol\":23691:23912  function setSellMarketingFeePercent(uint256 sellMarketingFee) external onlyOwner {... */\n      jump\t// out\n        /* \"contracts/MyToken.sol\":25067:25292  function setAntiBot(bool enabled) external {... */\n    tag_286:\n        /* \"@openzeppelin/contracts/access/Ownable.sol\":1247:1254  address */\n      0x00\n        /* \"@openzeppelin/contracts/access/Ownable.sol\":1273:1279  _owner */\n      sload\n      sub(shl(0xa0, 0x01), 0x01)\n      and\n        /* \"contracts/MyToken.sol\":25141:25151  msg.sender */\n      caller\n        /* \"contracts/MyToken.sol\":25141:25162  msg.sender == owner() */\n      eq\n      dup1\n        /* \"contracts/MyToken.sol\":25141:25191  msg.sender == owner() || msg.sender == antiManager */\n      tag_514\n      jumpi\n      pop\n        /* \"contracts/MyToken.sol\":25180:25191  antiManager */\n      sload(0x1d)\n      0x0100\n      swap1\n      div\n      sub(shl(0xa0, 0x01), 0x01)\n      and\n        /* \"contracts/MyToken.sol\":25166:25176  msg.sender */\n      caller\n        /* \"contracts/MyToken.sol\":25166:25191  msg.sender == antiManager */\n      eq\n        /* \"contracts/MyToken.sol\":25141:25191  msg.sender == owner() || msg.sender == antiManager */\n    tag_514:\n        /* \"contracts/MyToken.sol\":25120:25251  require(... */\n      tag_515\n      jumpi\n      mload(0x40)\n      shl(0xe5, 0x461bcd)\n      dup2\n      mstore\n      0x04\n      add\n      tag_338\n      swap1\n      tag_438\n      jump\t// in\n    tag_515:\n        /* \"contracts/MyToken.sol\":25261:25275  antiBotEnabled */\n      0x1d\n        /* \"contracts/MyToken.sol\":25261:25285  antiBotEnabled = enabled */\n      dup1\n      sload\n      not(0xff)\n      and\n      swap2\n      iszero\n      iszero\n      swap2\n      swap1\n      swap2\n      or\n      swap1\n      sstore\n        /* \"contracts/MyToken.sol\":25067:25292  function setAntiBot(bool enabled) external {... */\n      jump\t// out\n        /* \"contracts/MyToken.sol\":24658:24826  function setSwapAndLiquifyEnabled(bool _enabled) public onlyOwner {... */\n    tag_290:\n        /* \"@openzeppelin/contracts/access/Ownable.sol\":1094:1107  _checkOwner() */\n      tag_518\n        /* \"@openzeppelin/contracts/access/Ownable.sol\":1094:1105  _checkOwner */\n      tag_335\n        /* \"@openzeppelin/contracts/access/Ownable.sol\":1094:1107  _checkOwner() */\n      jump\t// in\n    tag_518:\n        /* \"contracts/MyToken.sol\":24734:24755  swapAndLiquifyEnabled */\n      0x1f\n        /* \"contracts/MyToken.sol\":24734:24766  swapAndLiquifyEnabled = _enabled */\n      dup1\n      sload\n      dup3\n      iszero\n      iszero\n      shl(0xa8, 0x01)\n      mul\n      not(shl(0xa8, 0xff))\n      swap1\n      swap2\n      and\n      or\n      swap1\n      sstore\n        /* \"contracts/MyToken.sol\":24781:24819  SwapAndLiquifyEnabledUpdated(_enabled) */\n      mload(0x40)\n      0x53726dfcaf90650aa7eb35524f4d3220f07413c8d6cb404cc8c18bf5591bc159\n      swap1\n      tag_520\n      swap1\n        /* \"contracts/MyToken.sol\":24758:24766  _enabled */\n      dup4\n        /* \"#utility.yul\":4241:4255   */\n      iszero\n        /* \"#utility.yul\":4234:4256   */\n      iszero\n        /* \"#utility.yul\":4216:4257   */\n      dup2\n      mstore\n        /* \"#utility.yul\":4204:4206   */\n      0x20\n        /* \"#utility.yul\":4189:4207   */\n      add\n      swap1\n        /* \"#utility.yul\":4076:4263   */\n      jump\n        /* \"contracts/MyToken.sol\":24781:24819  SwapAndLiquifyEnabledUpdated(_enabled) */\n    tag_520:\n      mload(0x40)\n      dup1\n      swap2\n      sub\n      swap1\n      log1\n        /* \"contracts/MyToken.sol\":24658:24826  function setSwapAndLiquifyEnabled(bool _enabled) public onlyOwner {... */\n      pop\n      jump\t// out\n        /* \"contracts/MyToken.sol\":23322:23488  function setBurnFeePercent(uint256 burnFee) external onlyOwner {... */\n    tag_298:\n        /* \"@openzeppelin/contracts/access/Ownable.sol\":1094:1107  _checkOwner() */\n      tag_522\n        /* \"@openzeppelin/contracts/access/Ownable.sol\":1094:1105  _checkOwner */\n      tag_335\n        /* \"@openzeppelin/contracts/access/Ownable.sol\":1094:1107  _checkOwner() */\n      jump\t// in\n    tag_522:\n        /* \"contracts/MyToken.sol\":23414:23416  10 */\n      0x0a\n        /* \"contracts/MyToken.sol\":23403:23410  burnFee */\n      dup2\n        /* \"contracts/MyToken.sol\":23403:23416  burnFee <= 10 */\n      gt\n      iszero\n        /* \"contracts/MyToken.sol\":23395:23453  require(burnFee <= 10, 'Burn fee cannot be more than 10%') */\n      tag_524\n      jumpi\n      mload(0x40)\n      shl(0xe5, 0x461bcd)\n      dup2\n      mstore\n        /* \"#utility.yul\":7108:7110   */\n      0x20\n        /* \"contracts/MyToken.sol\":23395:23453  require(burnFee <= 10, 'Burn fee cannot be more than 10%') */\n      0x04\n      dup3\n      add\n        /* \"#utility.yul\":7090:7111   */\n      dup2\n      swap1\n      mstore\n        /* \"#utility.yul\":7127:7145   */\n      0x24\n      dup3\n      add\n        /* \"#utility.yul\":7120:7150   */\n      mstore\n        /* \"#utility.yul\":7186:7220   */\n      0x4275726e206665652063616e6e6f74206265206d6f7265207468616e20313025\n        /* \"#utility.yul\":7166:7184   */\n      0x44\n      dup3\n      add\n        /* \"#utility.yul\":7159:7221   */\n      mstore\n        /* \"#utility.yul\":7238:7256   */\n      0x64\n      add\n        /* \"contracts/MyToken.sol\":23395:23453  require(burnFee <= 10, 'Burn fee cannot be more than 10%') */\n      tag_338\n        /* \"#utility.yul\":6906:7262   */\n      jump\n        /* \"contracts/MyToken.sol\":23395:23453  require(burnFee <= 10, 'Burn fee cannot be more than 10%') */\n    tag_524:\n        /* \"contracts/MyToken.sol\":23463:23471  _burnFee */\n      0x11\n        /* \"contracts/MyToken.sol\":23463:23481  _burnFee = burnFee */\n      sstore\n        /* \"contracts/MyToken.sol\":23322:23488  function setBurnFeePercent(uint256 burnFee) external onlyOwner {... */\n      jump\t// out\n        /* \"contracts/MyToken.sol\":24145:24330  function setSellTaxFeePercent(uint256 sellTaxFee) external onlyOwner {... */\n    tag_302:\n        /* \"@openzeppelin/contracts/access/Ownable.sol\":1094:1107  _checkOwner() */\n      tag_528\n        /* \"@openzeppelin/contracts/access/Ownable.sol\":1094:1105  _checkOwner */\n      tag_335\n        /* \"@openzeppelin/contracts/access/Ownable.sol\":1094:1107  _checkOwner() */\n      jump\t// in\n    tag_528:\n        /* \"contracts/MyToken.sol\":24246:24248  10 */\n      0x0a\n        /* \"contracts/MyToken.sol\":24232:24242  sellTaxFee */\n      dup2\n        /* \"contracts/MyToken.sol\":24232:24248  sellTaxFee <= 10 */\n      gt\n      iszero\n        /* \"contracts/MyToken.sol\":24224:24289  require(sellTaxFee <= 10, 'Sell tax fee cannot be more than 10%') */\n      tag_530\n      jumpi\n      mload(0x40)\n      shl(0xe5, 0x461bcd)\n      dup2\n      mstore\n        /* \"#utility.yul\":11404:11406   */\n      0x20\n        /* \"contracts/MyToken.sol\":24224:24289  require(sellTaxFee <= 10, 'Sell tax fee cannot be more than 10%') */\n      0x04\n      dup3\n      add\n        /* \"#utility.yul\":11386:11407   */\n      mstore\n        /* \"#utility.yul\":11443:11445   */\n      0x24\n        /* \"#utility.yul\":11423:11441   */\n      dup1\n      dup3\n      add\n        /* \"#utility.yul\":11416:11446   */\n      mstore\n        /* \"#utility.yul\":11482:11516   */\n      0x53656c6c20746178206665652063616e6e6f74206265206d6f7265207468616e\n        /* \"#utility.yul\":11462:11480   */\n      0x44\n      dup3\n      add\n        /* \"#utility.yul\":11455:11517   */\n      mstore\n      shl(0xe0, 0x20313025)\n        /* \"#utility.yul\":11533:11551   */\n      0x64\n      dup3\n      add\n        /* \"#utility.yul\":11526:11560   */\n      mstore\n        /* \"#utility.yul\":11577:11596   */\n      0x84\n      add\n        /* \"contracts/MyToken.sol\":24224:24289  require(sellTaxFee <= 10, 'Sell tax fee cannot be more than 10%') */\n      tag_338\n        /* \"#utility.yul\":11202:11602   */\n      jump\n        /* \"contracts/MyToken.sol\":24224:24289  require(sellTaxFee <= 10, 'Sell tax fee cannot be more than 10%') */\n    tag_530:\n        /* \"contracts/MyToken.sol\":24299:24310  _sellTaxFee */\n      0x16\n        /* \"contracts/MyToken.sol\":24299:24323  _sellTaxFee = sellTaxFee */\n      sstore\n        /* \"contracts/MyToken.sol\":24145:24330  function setSellTaxFeePercent(uint256 sellTaxFee) external onlyOwner {... */\n      jump\t// out\n        /* \"contracts/MyToken.sol\":22522:22630  function includeInFee(address account) public onlyOwner {... */\n    tag_324:\n        /* \"@openzeppelin/contracts/access/Ownable.sol\":1094:1107  _checkOwner() */\n      tag_535\n        /* \"@openzeppelin/contracts/access/Ownable.sol\":1094:1105  _checkOwner */\n      tag_335\n        /* \"@openzeppelin/contracts/access/Ownable.sol\":1094:1107  _checkOwner() */\n      jump\t// in\n    tag_535:\n      sub(shl(0xa0, 0x01), 0x01)\n        /* \"contracts/MyToken.sol\":22588:22615  _isExcludedFromFee[account] */\n      and\n        /* \"contracts/MyToken.sol\":22618:22623  false */\n      0x00\n        /* \"contracts/MyToken.sol\":22588:22615  _isExcludedFromFee[account] */\n      swap1\n      dup2\n      mstore\n        /* \"contracts/MyToken.sol\":22588:22606  _isExcludedFromFee */\n      0x04\n        /* \"contracts/MyToken.sol\":22588:22615  _isExcludedFromFee[account] */\n      0x20\n      mstore\n      0x40\n      swap1\n      keccak256\n        /* \"contracts/MyToken.sol\":22588:22623  _isExcludedFromFee[account] = false */\n      dup1\n      sload\n      not(0xff)\n      and\n      swap1\n      sstore\n        /* \"contracts/MyToken.sol\":22522:22630  function includeInFee(address account) public onlyOwner {... */\n      jump\t// out\n        /* \"contracts/MyToken.sol\":23494:23685  function setSellBurnFeePercent(uint256 sellBurnFee) external onlyOwner {... */\n    tag_328:\n        /* \"@openzeppelin/contracts/access/Ownable.sol\":1094:1107  _checkOwner() */\n      tag_538\n        /* \"@openzeppelin/contracts/access/Ownable.sol\":1094:1105  _checkOwner */\n      tag_335\n        /* \"@openzeppelin/contracts/access/Ownable.sol\":1094:1107  _checkOwner() */\n      jump\t// in\n    tag_538:\n        /* \"contracts/MyToken.sol\":23598:23600  10 */\n      0x0a\n        /* \"contracts/MyToken.sol\":23583:23594  sellBurnFee */\n      dup2\n        /* \"contracts/MyToken.sol\":23583:23600  sellBurnFee <= 10 */\n      gt\n      iszero\n        /* \"contracts/MyToken.sol\":23575:23642  require(sellBurnFee <= 10, 'Sell burn fee cannot be more than 10%') */\n      tag_540\n      jumpi\n      mload(0x40)\n      shl(0xe5, 0x461bcd)\n      dup2\n      mstore\n        /* \"#utility.yul\":7469:7471   */\n      0x20\n        /* \"contracts/MyToken.sol\":23575:23642  require(sellBurnFee <= 10, 'Sell burn fee cannot be more than 10%') */\n      0x04\n      dup3\n      add\n        /* \"#utility.yul\":7451:7472   */\n      mstore\n        /* \"#utility.yul\":7508:7510   */\n      0x25\n        /* \"#utility.yul\":7488:7506   */\n      0x24\n      dup3\n      add\n        /* \"#utility.yul\":7481:7511   */\n      mstore\n        /* \"#utility.yul\":7547:7581   */\n      0x53656c6c206275726e206665652063616e6e6f74206265206d6f726520746861\n        /* \"#utility.yul\":7527:7545   */\n      0x44\n      dup3\n      add\n        /* \"#utility.yul\":7520:7582   */\n      mstore\n      shl(0xd8, 0x6e20313025)\n        /* \"#utility.yul\":7598:7616   */\n      0x64\n      dup3\n      add\n        /* \"#utility.yul\":7591:7626   */\n      mstore\n        /* \"#utility.yul\":7643:7662   */\n      0x84\n      add\n        /* \"contracts/MyToken.sol\":23575:23642  require(sellBurnFee <= 10, 'Sell burn fee cannot be more than 10%') */\n      tag_338\n        /* \"#utility.yul\":7267:7668   */\n      jump\n        /* \"contracts/MyToken.sol\":23575:23642  require(sellBurnFee <= 10, 'Sell burn fee cannot be more than 10%') */\n    tag_540:\n        /* \"contracts/MyToken.sol\":23652:23664  _sellBurnFee */\n      0x19\n        /* \"contracts/MyToken.sol\":23652:23678  _sellBurnFee = sellBurnFee */\n      sstore\n        /* \"contracts/MyToken.sol\":23494:23685  function setSellBurnFeePercent(uint256 sellBurnFee) external onlyOwner {... */\n      jump\t// out\n        /* \"@openzeppelin/contracts/access/Ownable.sol\":2081:2279  function transferOwnership(address newOwner) public virtual onlyOwner {... */\n    tag_332:\n        /* \"@openzeppelin/contracts/access/Ownable.sol\":1094:1107  _checkOwner() */\n      tag_544\n        /* \"@openzeppelin/contracts/access/Ownable.sol\":1094:1105  _checkOwner */\n      tag_335\n        /* \"@openzeppelin/contracts/access/Ownable.sol\":1094:1107  _checkOwner() */\n      jump\t// in\n    tag_544:\n      sub(shl(0xa0, 0x01), 0x01)\n        /* \"@openzeppelin/contracts/access/Ownable.sol\":2169:2191  newOwner != address(0) */\n      dup2\n      and\n        /* \"@openzeppelin/contracts/access/Ownable.sol\":2161:2234  require(newOwner != address(0), \"Ownable: new owner is the zero address\") */\n      tag_546\n      jumpi\n      mload(0x40)\n      shl(0xe5, 0x461bcd)\n      dup2\n      mstore\n        /* \"#utility.yul\":8286:8288   */\n      0x20\n        /* \"@openzeppelin/contracts/access/Ownable.sol\":2161:2234  require(newOwner != address(0), \"Ownable: new owner is the zero address\") */\n      0x04\n      dup3\n      add\n        /* \"#utility.yul\":8268:8289   */\n      mstore\n        /* \"#utility.yul\":8325:8327   */\n      0x26\n        /* \"#utility.yul\":8305:8323   */\n      0x24\n      dup3\n      add\n        /* \"#utility.yul\":8298:8328   */\n      mstore\n        /* \"#utility.yul\":8364:8398   */\n      0x4f776e61626c653a206e6577206f776e657220697320746865207a65726f2061\n        /* \"#utility.yul\":8344:8362   */\n      0x44\n      dup3\n      add\n        /* \"#utility.yul\":8337:8399   */\n      mstore\n      shl(0xd0, 0x646472657373)\n        /* \"#utility.yul\":8415:8433   */\n      0x64\n      dup3\n      add\n        /* \"#utility.yul\":8408:8444   */\n      mstore\n        /* \"#utility.yul\":8461:8480   */\n      0x84\n      add\n        /* \"@openzeppelin/contracts/access/Ownable.sol\":2161:2234  require(newOwner != address(0), \"Ownable: new owner is the zero address\") */\n      tag_338\n        /* \"#utility.yul\":8084:8486   */\n      jump\n        /* \"@openzeppelin/contracts/access/Ownable.sol\":2161:2234  require(newOwner != address(0), \"Ownable: new owner is the zero address\") */\n    tag_546:\n        /* \"@openzeppelin/contracts/access/Ownable.sol\":2244:2272  _transferOwnership(newOwner) */\n      tag_549\n        /* \"@openzeppelin/contracts/access/Ownable.sol\":2263:2271  newOwner */\n      dup2\n        /* \"@openzeppelin/contracts/access/Ownable.sol\":2244:2262  _transferOwnership */\n      tag_470\n        /* \"@openzeppelin/contracts/access/Ownable.sol\":2244:2272  _transferOwnership(newOwner) */\n      jump\t// in\n    tag_549:\n        /* \"@openzeppelin/contracts/access/Ownable.sol\":2081:2279  function transferOwnership(address newOwner) public virtual onlyOwner {... */\n      pop\n      jump\t// out\n        /* \"@openzeppelin/contracts/access/Ownable.sol\":1359:1489  function _checkOwner() internal view virtual {... */\n    tag_335:\n        /* \"@openzeppelin/contracts/access/Ownable.sol\":1247:1254  address */\n      0x00\n        /* \"@openzeppelin/contracts/access/Ownable.sol\":1273:1279  _owner */\n      sload\n      sub(shl(0xa0, 0x01), 0x01)\n      and\n        /* \"@openzeppelin/contracts/utils/Context.sol\":719:729  msg.sender */\n      caller\n        /* \"@openzeppelin/contracts/access/Ownable.sol\":1422:1445  owner() == _msgSender() */\n      eq\n        /* \"@openzeppelin/contracts/access/Ownable.sol\":1414:1482  require(owner() == _msgSender(), \"Ownable: caller is not the owner\") */\n      tag_469\n      jumpi\n      mload(0x40)\n      shl(0xe5, 0x461bcd)\n      dup2\n      mstore\n        /* \"#utility.yul\":11809:11811   */\n      0x20\n        /* \"@openzeppelin/contracts/access/Ownable.sol\":1414:1482  require(owner() == _msgSender(), \"Ownable: caller is not the owner\") */\n      0x04\n      dup3\n      add\n        /* \"#utility.yul\":11791:11812   */\n      dup2\n      swap1\n      mstore\n        /* \"#utility.yul\":11828:11846   */\n      0x24\n      dup3\n      add\n        /* \"#utility.yul\":11821:11851   */\n      mstore\n        /* \"#utility.yul\":11887:11921   */\n      0x4f776e61626c653a2063616c6c6572206973206e6f7420746865206f776e6572\n        /* \"#utility.yul\":11867:11885   */\n      0x44\n      dup3\n      add\n        /* \"#utility.yul\":11860:11922   */\n      mstore\n        /* \"#utility.yul\":11939:11957   */\n      0x64\n      add\n        /* \"@openzeppelin/contracts/access/Ownable.sol\":1414:1482  require(owner() == _msgSender(), \"Ownable: caller is not the owner\") */\n      tag_338\n        /* \"#utility.yul\":11607:11963   */\n      jump\n        /* \"contracts/MyToken.sol\":14076:14437  function _approve(... */\n    tag_351:\n      sub(shl(0xa0, 0x01), 0x01)\n        /* \"contracts/MyToken.sol\":14198:14217  owner != address(0) */\n      dup4\n      and\n        /* \"contracts/MyToken.sol\":14190:14258  require(owner != address(0), 'BEP20: approve from the zero address') */\n      tag_558\n      jumpi\n      mload(0x40)\n      shl(0xe5, 0x461bcd)\n      dup2\n      mstore\n        /* \"#utility.yul\":6703:6705   */\n      0x20\n        /* \"contracts/MyToken.sol\":14190:14258  require(owner != address(0), 'BEP20: approve from the zero address') */\n      0x04\n      dup3\n      add\n        /* \"#utility.yul\":6685:6706   */\n      mstore\n        /* \"#utility.yul\":6742:6744   */\n      0x24\n        /* \"#utility.yul\":6722:6740   */\n      dup1\n      dup3\n      add\n        /* \"#utility.yul\":6715:6745   */\n      mstore\n        /* \"#utility.yul\":6781:6815   */\n      0x42455032303a20617070726f76652066726f6d20746865207a65726f20616464\n        /* \"#utility.yul\":6761:6779   */\n      0x44\n      dup3\n      add\n        /* \"#utility.yul\":6754:6816   */\n      mstore\n      shl(0xe0, 0x72657373)\n        /* \"#utility.yul\":6832:6850   */\n      0x64\n      dup3\n      add\n        /* \"#utility.yul\":6825:6859   */\n      mstore\n        /* \"#utility.yul\":6876:6895   */\n      0x84\n      add\n        /* \"contracts/MyToken.sol\":14190:14258  require(owner != address(0), 'BEP20: approve from the zero address') */\n      tag_338\n        /* \"#utility.yul\":6501:6901   */\n      jump\n        /* \"contracts/MyToken.sol\":14190:14258  require(owner != address(0), 'BEP20: approve from the zero address') */\n    tag_558:\n      sub(shl(0xa0, 0x01), 0x01)\n        /* \"contracts/MyToken.sol\":14276:14297  spender != address(0) */\n      dup3\n      and\n        /* \"contracts/MyToken.sol\":14268:14336  require(spender != address(0), 'BEP20: approve to the zero address') */\n      tag_561\n      jumpi\n      mload(0x40)\n      shl(0xe5, 0x461bcd)\n      dup2\n      mstore\n        /* \"#utility.yul\":14628:14630   */\n      0x20\n        /* \"contracts/MyToken.sol\":14268:14336  require(spender != address(0), 'BEP20: approve to the zero address') */\n      0x04\n      dup3\n      add\n        /* \"#utility.yul\":14610:14631   */\n      mstore\n        /* \"#utility.yul\":14667:14669   */\n      0x22\n        /* \"#utility.yul\":14647:14665   */\n      0x24\n      dup3\n      add\n        /* \"#utility.yul\":14640:14670   */\n      mstore\n        /* \"#utility.yul\":14706:14740   */\n      0x42455032303a20617070726f766520746f20746865207a65726f206164647265\n        /* \"#utility.yul\":14686:14704   */\n      0x44\n      dup3\n      add\n        /* \"#utility.yul\":14679:14741   */\n      mstore\n      shl(0xf0, 0x7373)\n        /* \"#utility.yul\":14757:14775   */\n      0x64\n      dup3\n      add\n        /* \"#utility.yul\":14750:14782   */\n      mstore\n        /* \"#utility.yul\":14799:14818   */\n      0x84\n      add\n        /* \"contracts/MyToken.sol\":14268:14336  require(spender != address(0), 'BEP20: approve to the zero address') */\n      tag_338\n        /* \"#utility.yul\":14426:14824   */\n      jump\n        /* \"contracts/MyToken.sol\":14268:14336  require(spender != address(0), 'BEP20: approve to the zero address') */\n    tag_561:\n      sub(shl(0xa0, 0x01), 0x01)\n        /* \"contracts/MyToken.sol\":14347:14365  _allowances[owner] */\n      dup4\n      dup2\n      and\n      0x00\n      dup2\n      dup2\n      mstore\n        /* \"contracts/MyToken.sol\":14347:14358  _allowances */\n      0x03\n        /* \"contracts/MyToken.sol\":14347:14365  _allowances[owner] */\n      0x20\n      swap1\n      dup2\n      mstore\n      0x40\n      dup1\n      dup4\n      keccak256\n        /* \"contracts/MyToken.sol\":14347:14374  _allowances[owner][spender] */\n      swap5\n      dup8\n      and\n      dup1\n      dup5\n      mstore\n      swap5\n      dup3\n      mstore\n      swap2\n      dup3\n      swap1\n      keccak256\n        /* \"contracts/MyToken.sol\":14347:14383  _allowances[owner][spender] = amount */\n      dup6\n      swap1\n      sstore\n        /* \"contracts/MyToken.sol\":14398:14430  Approval(owner, spender, amount) */\n      swap1\n      mload\n        /* \"#utility.yul\":15381:15406   */\n      dup5\n      dup2\n      mstore\n        /* \"contracts/MyToken.sol\":14398:14430  Approval(owner, spender, amount) */\n      0x8c5be1e5ebec7d5bd14f71427d1e84f3dd0314c0f7b2291e5b200ac8c7c3b925\n      swap2\n        /* \"#utility.yul\":15354:15372   */\n      add\n        /* \"contracts/MyToken.sol\":14398:14430  Approval(owner, spender, amount) */\n      mload(0x40)\n      dup1\n      swap2\n      sub\n      swap1\n      log3\n        /* \"contracts/MyToken.sol\":14076:14437  function _approve(... */\n      pop\n      pop\n      pop\n      jump\t// out\n        /* \"contracts/MyToken.sol\":14443:16288  function _transfer(... */\n    tag_356:\n      sub(shl(0xa0, 0x01), 0x01)\n        /* \"contracts/MyToken.sol\":14560:14578  from != address(0) */\n      dup4\n      and\n        /* \"contracts/MyToken.sol\":14552:14620  require(from != address(0), 'BEP20: transfer from the zero address') */\n      tag_566\n      jumpi\n      mload(0x40)\n      shl(0xe5, 0x461bcd)\n      dup2\n      mstore\n        /* \"#utility.yul\":5894:5896   */\n      0x20\n        /* \"contracts/MyToken.sol\":14552:14620  require(from != address(0), 'BEP20: transfer from the zero address') */\n      0x04\n      dup3\n      add\n        /* \"#utility.yul\":5876:5897   */\n      mstore\n        /* \"#utility.yul\":5933:5935   */\n      0x25\n        /* \"#utility.yul\":5913:5931   */\n      0x24\n      dup3\n      add\n        /* \"#utility.yul\":5906:5936   */\n      mstore\n        /* \"#utility.yul\":5972:6006   */\n      0x42455032303a207472616e736665722066726f6d20746865207a65726f206164\n        /* \"#utility.yul\":5952:5970   */\n      0x44\n      dup3\n      add\n        /* \"#utility.yul\":5945:6007   */\n      mstore\n      shl(0xd8, 0x6472657373)\n        /* \"#utility.yul\":6023:6041   */\n      0x64\n      dup3\n      add\n        /* \"#utility.yul\":6016:6051   */\n      mstore\n        /* \"#utility.yul\":6068:6087   */\n      0x84\n      add\n        /* \"contracts/MyToken.sol\":14552:14620  require(from != address(0), 'BEP20: transfer from the zero address') */\n      tag_338\n        /* \"#utility.yul\":5692:6093   */\n      jump\n        /* \"contracts/MyToken.sol\":14552:14620  require(from != address(0), 'BEP20: transfer from the zero address') */\n    tag_566:\n        /* \"contracts/MyToken.sol\":14647:14648  0 */\n      0x00\n        /* \"contracts/MyToken.sol\":14638:14644  amount */\n      dup2\n        /* \"contracts/MyToken.sol\":14638:14648  amount > 0 */\n      gt\n        /* \"contracts/MyToken.sol\":14630:14694  require(amount > 0, 'Transfer amount must be greater than zero') */\n      tag_569\n      jumpi\n      mload(0x40)\n      shl(0xe5, 0x461bcd)\n      dup2\n      mstore\n        /* \"#utility.yul\":12582:12584   */\n      0x20\n        /* \"contracts/MyToken.sol\":14630:14694  require(amount > 0, 'Transfer amount must be greater than zero') */\n      0x04\n      dup3\n      add\n        /* \"#utility.yul\":12564:12585   */\n      mstore\n        /* \"#utility.yul\":12621:12623   */\n      0x29\n        /* \"#utility.yul\":12601:12619   */\n      0x24\n      dup3\n      add\n        /* \"#utility.yul\":12594:12624   */\n      mstore\n        /* \"#utility.yul\":12660:12694   */\n      0x5472616e7366657220616d6f756e74206d757374206265206772656174657220\n        /* \"#utility.yul\":12640:12658   */\n      0x44\n      dup3\n      add\n        /* \"#utility.yul\":12633:12695   */\n      mstore\n      shl(0xb8, 0x7468616e207a65726f)\n        /* \"#utility.yul\":12711:12729   */\n      0x64\n      dup3\n      add\n        /* \"#utility.yul\":12704:12743   */\n      mstore\n        /* \"#utility.yul\":12760:12779   */\n      0x84\n      add\n        /* \"contracts/MyToken.sol\":14630:14694  require(amount > 0, 'Transfer amount must be greater than zero') */\n      tag_338\n        /* \"#utility.yul\":12380:12785   */\n      jump\n        /* \"contracts/MyToken.sol\":14630:14694  require(amount > 0, 'Transfer amount must be greater than zero') */\n    tag_569:\n        /* \"contracts/MyToken.sol\":14705:14743  _beforeTokenTransfer(from, to, amount) */\n      tag_572\n        /* \"contracts/MyToken.sol\":14726:14730  from */\n      dup4\n        /* \"contracts/MyToken.sol\":14732:14734  to */\n      dup4\n        /* \"contracts/MyToken.sol\":14736:14742  amount */\n      dup4\n        /* \"contracts/MyToken.sol\":14705:14725  _beforeTokenTransfer */\n      tag_573\n        /* \"contracts/MyToken.sol\":14705:14743  _beforeTokenTransfer(from, to, amount) */\n      jump\t// in\n    tag_572:\n        /* \"contracts/MyToken.sol\":14758:14772  antiBotEnabled */\n      and(0xff, sload(0x1d))\n        /* \"contracts/MyToken.sol\":14758:14797  antiBotEnabled && from == pancakeV2Pair */\n      dup1\n      iszero\n      tag_574\n      jumpi\n      pop\n        /* \"contracts/MyToken.sol\":14784:14797  pancakeV2Pair */\n      sload(0x1f)\n      sub(shl(0xa0, 0x01), 0x01)\n        /* \"contracts/MyToken.sol\":14776:14797  from == pancakeV2Pair */\n      dup5\n      dup2\n      and\n        /* \"contracts/MyToken.sol\":14784:14797  pancakeV2Pair */\n      swap2\n      and\n        /* \"contracts/MyToken.sol\":14776:14797  from == pancakeV2Pair */\n      eq\n        /* \"contracts/MyToken.sol\":14758:14797  antiBotEnabled && from == pancakeV2Pair */\n    tag_574:\n        /* \"contracts/MyToken.sol\":14754:14885  if (antiBotEnabled && from == pancakeV2Pair) {... */\n      iszero\n      tag_576\n      jumpi\n        /* \"contracts/MyToken.sol\":14821:14845  allowedBuyAmount[amount] */\n      0x00\n      dup2\n      dup2\n      mstore\n        /* \"contracts/MyToken.sol\":14821:14837  allowedBuyAmount */\n      0x1c\n        /* \"contracts/MyToken.sol\":14821:14845  allowedBuyAmount[amount] */\n      0x20\n      mstore\n      0x40\n      swap1\n      keccak256\n      sload\n      0xff\n      and\n        /* \"contracts/MyToken.sol\":14813:14874  require(allowedBuyAmount[amount], 'Only allowed buy amounts') */\n      tag_576\n      jumpi\n      mload(0x40)\n      shl(0xe5, 0x461bcd)\n      dup2\n      mstore\n        /* \"#utility.yul\":10280:10282   */\n      0x20\n        /* \"contracts/MyToken.sol\":14813:14874  require(allowedBuyAmount[amount], 'Only allowed buy amounts') */\n      0x04\n      dup3\n      add\n        /* \"#utility.yul\":10262:10283   */\n      mstore\n        /* \"#utility.yul\":10319:10321   */\n      0x18\n        /* \"#utility.yul\":10299:10317   */\n      0x24\n      dup3\n      add\n        /* \"#utility.yul\":10292:10322   */\n      mstore\n        /* \"#utility.yul\":10358:10384   */\n      0x4f6e6c7920616c6c6f7765642062757920616d6f756e74730000000000000000\n        /* \"#utility.yul\":10338:10356   */\n      0x44\n      dup3\n      add\n        /* \"#utility.yul\":10331:10385   */\n      mstore\n        /* \"#utility.yul\":10402:10420   */\n      0x64\n      add\n        /* \"contracts/MyToken.sol\":14813:14874  require(allowedBuyAmount[amount], 'Only allowed buy amounts') */\n      tag_338\n        /* \"#utility.yul\":10078:10426   */\n      jump\n        /* \"contracts/MyToken.sol\":14813:14874  require(allowedBuyAmount[amount], 'Only allowed buy amounts') */\n    tag_576:\n        /* \"contracts/MyToken.sol\":15173:15201  uint256 contractTokenBalance */\n      0x00\n        /* \"contracts/MyToken.sol\":15204:15228  balanceOf(address(this)) */\n      tag_579\n        /* \"contracts/MyToken.sol\":15222:15226  this */\n      address\n        /* \"contracts/MyToken.sol\":15204:15213  balanceOf */\n      tag_219\n        /* \"contracts/MyToken.sol\":15204:15228  balanceOf(address(this)) */\n      jump\t// in\n    tag_579:\n        /* \"contracts/MyToken.sol\":15289:15318  numTokensSellToAddToLiquidity */\n      sload(0x20)\n        /* \"contracts/MyToken.sol\":15173:15228  uint256 contractTokenBalance = balanceOf(address(this)) */\n      swap1\n      swap2\n      pop\n        /* \"contracts/MyToken.sol\":15265:15318  contractTokenBalance >= numTokensSellToAddToLiquidity */\n      dup2\n      lt\n      dup1\n      iszero\n      swap1\n      dup2\n      swap1\n        /* \"contracts/MyToken.sol\":15345:15397  overMinTokenBalance &&... */\n      tag_580\n      jumpi\n      pop\n        /* \"contracts/MyToken.sol\":15381:15397  inSwapAndLiquify */\n      sload(0x1f)\n      shl(0xa0, 0x01)\n      swap1\n      div\n      0xff\n      and\n        /* \"contracts/MyToken.sol\":15380:15397  !inSwapAndLiquify */\n      iszero\n        /* \"contracts/MyToken.sol\":15345:15397  overMinTokenBalance &&... */\n    tag_580:\n        /* \"contracts/MyToken.sol\":15345:15434  overMinTokenBalance &&... */\n      dup1\n      iszero\n      tag_581\n      jumpi\n      pop\n        /* \"contracts/MyToken.sol\":15421:15434  pancakeV2Pair */\n      sload(0x1f)\n      sub(shl(0xa0, 0x01), 0x01)\n        /* \"contracts/MyToken.sol\":15413:15434  from != pancakeV2Pair */\n      dup7\n      dup2\n      and\n        /* \"contracts/MyToken.sol\":15421:15434  pancakeV2Pair */\n      swap2\n      and\n        /* \"contracts/MyToken.sol\":15413:15434  from != pancakeV2Pair */\n      eq\n      iszero\n        /* \"contracts/MyToken.sol\":15345:15434  overMinTokenBalance &&... */\n    tag_581:\n        /* \"contracts/MyToken.sol\":15345:15471  overMinTokenBalance &&... */\n      dup1\n      iszero\n      tag_582\n      jumpi\n      pop\n        /* \"contracts/MyToken.sol\":15450:15471  swapAndLiquifyEnabled */\n      sload(0x1f)\n      shl(0xa8, 0x01)\n      swap1\n      div\n      0xff\n      and\n        /* \"contracts/MyToken.sol\":15345:15471  overMinTokenBalance &&... */\n    tag_582:\n        /* \"contracts/MyToken.sol\":15328:15637  if (... */\n      iszero\n      tag_584\n      jumpi\n        /* \"contracts/MyToken.sol\":15519:15548  numTokensSellToAddToLiquidity */\n      sload(0x20)\n        /* \"contracts/MyToken.sol\":15496:15548  contractTokenBalance = numTokensSellToAddToLiquidity */\n      swap2\n      pop\n        /* \"contracts/MyToken.sol\":15590:15626  swapAndLiquify(contractTokenBalance) */\n      tag_584\n        /* \"contracts/MyToken.sol\":15605:15625  contractTokenBalance */\n      dup3\n        /* \"contracts/MyToken.sol\":15590:15604  swapAndLiquify */\n      tag_585\n        /* \"contracts/MyToken.sol\":15590:15626  swapAndLiquify(contractTokenBalance) */\n      jump\t// in\n    tag_584:\n        /* \"contracts/MyToken.sol\":15712:15744  _tokenTransfer(from, to, amount) */\n      tag_586\n        /* \"contracts/MyToken.sol\":15727:15731  from */\n      dup6\n        /* \"contracts/MyToken.sol\":15733:15735  to */\n      dup6\n        /* \"contracts/MyToken.sol\":15737:15743  amount */\n      dup6\n        /* \"contracts/MyToken.sol\":15712:15726  _tokenTransfer */\n      tag_587\n        /* \"contracts/MyToken.sol\":15712:15744  _tokenTransfer(from, to, amount) */\n      jump\t// in\n    tag_586:\n        /* \"contracts/MyToken.sol\":15759:15775  antiWhaleEnabled */\n      and(0xff, sload(0x1b))\n        /* \"contracts/MyToken.sol\":15755:16282  if (antiWhaleEnabled) {... */\n      iszero\n      tag_588\n      jumpi\n        /* \"contracts/MyToken.sol\":15791:15809  uint256 maxAllowed */\n      0x00\n        /* \"contracts/MyToken.sol\":1937:1941  1000 */\n      0x03e8\n        /* \"contracts/MyToken.sol\":15823:15842  _maxHoldingPercents */\n      sload(0x1a)\n        /* \"contracts/MyToken.sol\":15813:15820  _tTotal */\n      sload(0x07)\n        /* \"contracts/MyToken.sol\":15813:15842  _tTotal * _maxHoldingPercents */\n      tag_589\n      swap2\n      swap1\n      tag_590\n      jump\t// in\n    tag_589:\n        /* \"contracts/MyToken.sol\":15812:15890  (_tTotal * _maxHoldingPercents) /... */\n      tag_591\n      swap2\n      swap1\n      tag_592\n      jump\t// in\n    tag_591:\n        /* \"contracts/MyToken.sol\":15914:15927  pancakeV2Pair */\n      sload(0x1f)\n        /* \"contracts/MyToken.sol\":15791:15890  uint256 maxAllowed = (_tTotal * _maxHoldingPercents) /... */\n      swap1\n      swap2\n      pop\n      sub(shl(0xa0, 0x01), 0x01)\n        /* \"contracts/MyToken.sol\":15908:15927  to == pancakeV2Pair */\n      dup7\n      dup2\n      and\n        /* \"contracts/MyToken.sol\":15914:15927  pancakeV2Pair */\n      swap2\n      and\n        /* \"contracts/MyToken.sol\":15908:15927  to == pancakeV2Pair */\n      eq\n        /* \"contracts/MyToken.sol\":15904:16272  if (to == pancakeV2Pair) {... */\n      iszero\n      tag_593\n      jumpi\n        /* \"contracts/MyToken.sol\":15986:15996  maxAllowed */\n      dup1\n        /* \"contracts/MyToken.sol\":15976:15982  amount */\n      dup5\n        /* \"contracts/MyToken.sol\":15976:15996  amount <= maxAllowed */\n      gt\n      iszero\n        /* \"contracts/MyToken.sol\":15947:16084  require(... */\n      tag_594\n      jumpi\n      mload(0x40)\n      shl(0xe5, 0x461bcd)\n      dup2\n      mstore\n        /* \"#utility.yul\":13397:13399   */\n      0x20\n        /* \"contracts/MyToken.sol\":15947:16084  require(... */\n      0x04\n      dup3\n      add\n        /* \"#utility.yul\":13379:13400   */\n      mstore\n        /* \"#utility.yul\":13436:13438   */\n      0x2e\n        /* \"#utility.yul\":13416:13434   */\n      0x24\n      dup3\n      add\n        /* \"#utility.yul\":13409:13439   */\n      mstore\n        /* \"#utility.yul\":13475:13509   */\n      0x5472616e73616374656420616d6f756e742065786365656420746865206d6178\n        /* \"#utility.yul\":13455:13473   */\n      0x44\n      dup3\n      add\n        /* \"#utility.yul\":13448:13510   */\n      mstore\n      shl(0x90, 0x20616c6c6f7765642076616c7565)\n        /* \"#utility.yul\":13526:13544   */\n      0x64\n      dup3\n      add\n        /* \"#utility.yul\":13519:13563   */\n      mstore\n        /* \"#utility.yul\":13580:13599   */\n      0x84\n      add\n        /* \"contracts/MyToken.sol\":15947:16084  require(... */\n      tag_338\n        /* \"#utility.yul\":13195:13605   */\n      jump\n        /* \"contracts/MyToken.sol\":15947:16084  require(... */\n    tag_594:\n        /* \"contracts/MyToken.sol\":15904:16272  if (to == pancakeV2Pair) {... */\n      jump(tag_599)\n    tag_593:\n        /* \"contracts/MyToken.sol\":16169:16179  maxAllowed */\n      dup1\n        /* \"contracts/MyToken.sol\":16152:16165  balanceOf(to) */\n      tag_598\n        /* \"contracts/MyToken.sol\":16162:16164  to */\n      dup7\n        /* \"contracts/MyToken.sol\":16152:16161  balanceOf */\n      tag_219\n        /* \"contracts/MyToken.sol\":16152:16165  balanceOf(to) */\n      jump\t// in\n    tag_598:\n        /* \"contracts/MyToken.sol\":16152:16179  balanceOf(to) <= maxAllowed */\n      gt\n      iszero\n        /* \"contracts/MyToken.sol\":16123:16257  require(... */\n      tag_599\n      jumpi\n      mload(0x40)\n      shl(0xe5, 0x461bcd)\n      dup2\n      mstore\n        /* \"#utility.yul\":12992:12994   */\n      0x20\n        /* \"contracts/MyToken.sol\":16123:16257  require(... */\n      0x04\n      dup3\n      add\n        /* \"#utility.yul\":12974:12995   */\n      mstore\n        /* \"#utility.yul\":13031:13033   */\n      0x24\n        /* \"#utility.yul\":13011:13029   */\n      dup1\n      dup3\n      add\n        /* \"#utility.yul\":13004:13034   */\n      mstore\n        /* \"#utility.yul\":13070:13104   */\n      0x57616c6c65742062616c616e6365206578636565647320746865206d6178206c\n        /* \"#utility.yul\":13050:13068   */\n      0x44\n      dup3\n      add\n        /* \"#utility.yul\":13043:13105   */\n      mstore\n      shl(0xe2, 0x1a5b5a5d)\n        /* \"#utility.yul\":13121:13139   */\n      0x64\n      dup3\n      add\n        /* \"#utility.yul\":13114:13148   */\n      mstore\n        /* \"#utility.yul\":13165:13184   */\n      0x84\n      add\n        /* \"contracts/MyToken.sol\":16123:16257  require(... */\n      tag_338\n        /* \"#utility.yul\":12790:13190   */\n      jump\n        /* \"contracts/MyToken.sol\":16123:16257  require(... */\n    tag_599:\n        /* \"contracts/MyToken.sol\":15777:16282  {... */\n      pop\n        /* \"contracts/MyToken.sol\":15755:16282  if (antiWhaleEnabled) {... */\n    tag_588:\n        /* \"contracts/MyToken.sol\":14542:16288  {... */\n      pop\n      pop\n        /* \"contracts/MyToken.sol\":14443:16288  function _transfer(... */\n      pop\n      pop\n      pop\n      jump\t// out\n        /* \"@openzeppelin/contracts/utils/math/SafeMath.sol\":4959:5190  function sub(... */\n    tag_361:\n        /* \"@openzeppelin/contracts/utils/math/SafeMath.sol\":5075:5082  uint256 */\n      0x00\n        /* \"@openzeppelin/contracts/utils/math/SafeMath.sol\":5134:5146  errorMessage */\n      dup2\n        /* \"@openzeppelin/contracts/utils/math/SafeMath.sol\":5126:5132  b <= a */\n      dup5\n      dup5\n      gt\n      iszero\n        /* \"@openzeppelin/contracts/utils/math/SafeMath.sol\":5118:5147  require(b <= a, errorMessage) */\n      tag_603\n      jumpi\n      mload(0x40)\n      shl(0xe5, 0x461bcd)\n      dup2\n      mstore\n      0x04\n      add\n      tag_338\n      swap2\n      swap1\n      tag_87\n      jump\t// in\n    tag_603:\n      pop\n      pop\n      pop\n        /* \"@openzeppelin/contracts/utils/math/SafeMath.sol\":5168:5173  a - b */\n      swap1\n      sub\n      swap1\n        /* \"@openzeppelin/contracts/utils/math/SafeMath.sol\":4959:5190  function sub(... */\n      jump\t// out\n        /* \"contracts/MyToken.sol\":11584:11745  function _getRate() private view returns (uint256) {... */\n    tag_367:\n        /* \"contracts/MyToken.sol\":11626:11633  uint256 */\n      0x00\n        /* \"contracts/MyToken.sol\":11646:11661  uint256 rSupply */\n      dup1\n        /* \"contracts/MyToken.sol\":11663:11678  uint256 tSupply */\n      0x00\n        /* \"contracts/MyToken.sol\":11682:11701  _getCurrentSupply() */\n      tag_606\n        /* \"contracts/MyToken.sol\":11682:11699  _getCurrentSupply */\n      tag_607\n        /* \"contracts/MyToken.sol\":11682:11701  _getCurrentSupply() */\n      jump\t// in\n    tag_606:\n        /* \"contracts/MyToken.sol\":11645:11701  (uint256 rSupply, uint256 tSupply) = _getCurrentSupply() */\n      swap1\n      swap3\n      pop\n      swap1\n      pop\n        /* \"contracts/MyToken.sol\":11718:11738  rSupply.div(tSupply) */\n      tag_608\n        /* \"contracts/MyToken.sol\":11645:11701  (uint256 rSupply, uint256 tSupply) = _getCurrentSupply() */\n      dup3\n      dup3\n        /* \"contracts/MyToken.sol\":11718:11729  rSupply.div */\n      tag_369\n        /* \"contracts/MyToken.sol\":11718:11738  rSupply.div(tSupply) */\n      jump\t// in\n    tag_608:\n        /* \"contracts/MyToken.sol\":11711:11738  return rSupply.div(tSupply) */\n      swap3\n      pop\n      pop\n      pop\n        /* \"contracts/MyToken.sol\":11584:11745  function _getRate() private view returns (uint256) {... */\n      swap1\n      jump\t// out\n        /* \"@openzeppelin/contracts/utils/math/SafeMath.sol\":3850:3946  function div(uint256 a, uint256 b) internal pure returns (uint256) {... */\n    tag_369:\n        /* \"@openzeppelin/contracts/utils/math/SafeMath.sol\":3908:3915  uint256 */\n      0x00\n        /* \"@openzeppelin/contracts/utils/math/SafeMath.sol\":3934:3939  a / b */\n      tag_368\n        /* \"@openzeppelin/contracts/utils/math/SafeMath.sol\":3938:3939  b */\n      dup3\n        /* \"@openzeppelin/contracts/utils/math/SafeMath.sol\":3934:3935  a */\n      dup5\n        /* \"@openzeppelin/contracts/utils/math/SafeMath.sol\":3934:3939  a / b */\n      tag_592\n      jump\t// in\n        /* \"@openzeppelin/contracts/utils/math/SafeMath.sol\":2755:2851  function add(uint256 a, uint256 b) internal pure returns (uint256) {... */\n    tag_404:\n        /* \"@openzeppelin/contracts/utils/math/SafeMath.sol\":2813:2820  uint256 */\n      0x00\n        /* \"@openzeppelin/contracts/utils/math/SafeMath.sol\":2839:2844  a + b */\n      tag_368\n        /* \"@openzeppelin/contracts/utils/math/SafeMath.sol\":2843:2844  b */\n      dup3\n        /* \"@openzeppelin/contracts/utils/math/SafeMath.sol\":2839:2840  a */\n      dup5\n        /* \"@openzeppelin/contracts/utils/math/SafeMath.sol\":2839:2844  a + b */\n      tag_613\n      jump\t// in\n        /* \"contracts/MyToken.sol\":10027:10632  function _getValues(uint256 tAmount)... */\n    tag_411:\n        /* \"contracts/MyToken.sol\":10123:10130  uint256 */\n      0x00\n        /* \"contracts/MyToken.sol\":10144:10151  uint256 */\n      dup1\n        /* \"contracts/MyToken.sol\":10165:10172  uint256 */\n      0x00\n        /* \"contracts/MyToken.sol\":10186:10193  uint256 */\n      dup1\n        /* \"contracts/MyToken.sol\":10207:10214  uint256 */\n      0x00\n        /* \"contracts/MyToken.sol\":10228:10235  uint256 */\n      dup1\n        /* \"contracts/MyToken.sol\":10261:10284  uint256 tTransferAmount */\n      0x00\n        /* \"contracts/MyToken.sol\":10286:10298  uint256 tFee */\n      dup1\n        /* \"contracts/MyToken.sol\":10300:10318  uint256 tLiquidity */\n      0x00\n        /* \"contracts/MyToken.sol\":10322:10364  _getTValues(... */\n      tag_615\n        /* \"contracts/MyToken.sol\":10347:10354  tAmount */\n      dup11\n        /* \"contracts/MyToken.sol\":10322:10333  _getTValues */\n      tag_616\n        /* \"contracts/MyToken.sol\":10322:10364  _getTValues(... */\n      jump\t// in\n    tag_615:\n        /* \"contracts/MyToken.sol\":10260:10364  (uint256 tTransferAmount, uint256 tFee, uint256 tLiquidity) = _getTValues(... */\n      swap3\n      pop\n      swap3\n      pop\n      swap3\n      pop\n        /* \"contracts/MyToken.sol\":10375:10390  uint256 rAmount */\n      0x00\n        /* \"contracts/MyToken.sol\":10392:10415  uint256 rTransferAmount */\n      dup1\n        /* \"contracts/MyToken.sol\":10417:10429  uint256 rFee */\n      0x00\n        /* \"contracts/MyToken.sol\":10433:10541  _getRValues(... */\n      tag_617\n        /* \"contracts/MyToken.sol\":10458:10465  tAmount */\n      dup14\n        /* \"contracts/MyToken.sol\":10479:10483  tFee */\n      dup7\n        /* \"contracts/MyToken.sol\":10497:10507  tLiquidity */\n      dup7\n        /* \"contracts/MyToken.sol\":10521:10531  _getRate() */\n      tag_618\n        /* \"contracts/MyToken.sol\":10521:10529  _getRate */\n      tag_367\n        /* \"contracts/MyToken.sol\":10521:10531  _getRate() */\n      jump\t// in\n    tag_618:\n        /* \"contracts/MyToken.sol\":10433:10444  _getRValues */\n      tag_619\n        /* \"contracts/MyToken.sol\":10433:10541  _getRValues(... */\n      jump\t// in\n    tag_617:\n        /* \"contracts/MyToken.sol\":10374:10541  (uint256 rAmount, uint256 rTransferAmount, uint256 rFee) = _getRValues(... */\n      swap2\n      swap16\n      swap1\n      swap15\n      pop\n      swap1\n      swap13\n      pop\n        /* \"contracts/MyToken.sol\":10591:10606  tTransferAmount */\n      swap6\n      swap11\n      pop\n        /* \"contracts/MyToken.sol\":10608:10612  tFee */\n      swap4\n      swap9\n      pop\n        /* \"contracts/MyToken.sol\":10614:10624  tLiquidity */\n      swap2\n      swap7\n      pop\n        /* \"contracts/MyToken.sol\":10027:10632  function _getValues(uint256 tAmount)... */\n      swap3\n      swap5\n      pop\n      pop\n      pop\n      pop\n      pop\n      jump\t// out\n        /* \"@openzeppelin/contracts/utils/math/SafeMath.sol\":3122:3218  function sub(uint256 a, uint256 b) internal pure returns (uint256) {... */\n    tag_413:\n        /* \"@openzeppelin/contracts/utils/math/SafeMath.sol\":3180:3187  uint256 */\n      0x00\n        /* \"@openzeppelin/contracts/utils/math/SafeMath.sol\":3206:3211  a - b */\n      tag_368\n        /* \"@openzeppelin/contracts/utils/math/SafeMath.sol\":3210:3211  b */\n      dup3\n        /* \"@openzeppelin/contracts/utils/math/SafeMath.sol\":3206:3207  a */\n      dup5\n        /* \"@openzeppelin/contracts/utils/math/SafeMath.sol\":3206:3211  a - b */\n      tag_386\n      jump\t// in\n        /* \"@openzeppelin/contracts/access/Ownable.sol\":2433:2620  function _transferOwnership(address newOwner) internal virtual {... */\n    tag_470:\n        /* \"@openzeppelin/contracts/access/Ownable.sol\":2506:2522  address oldOwner */\n      0x00\n        /* \"@openzeppelin/contracts/access/Ownable.sol\":2525:2531  _owner */\n      dup1\n      sload\n      sub(shl(0xa0, 0x01), 0x01)\n        /* \"@openzeppelin/contracts/access/Ownable.sol\":2541:2558  _owner = newOwner */\n      dup4\n      dup2\n      and\n      not(sub(shl(0xa0, 0x01), 0x01))\n      dup4\n      and\n      dup2\n      or\n      dup5\n      sstore\n        /* \"@openzeppelin/contracts/access/Ownable.sol\":2573:2613  OwnershipTransferred(oldOwner, newOwner) */\n      mload(0x40)\n        /* \"@openzeppelin/contracts/access/Ownable.sol\":2525:2531  _owner */\n      swap2\n      swap1\n      swap3\n      and\n      swap3\n      dup4\n      swap2\n        /* \"@openzeppelin/contracts/access/Ownable.sol\":2573:2613  OwnershipTransferred(oldOwner, newOwner) */\n      0x8be0079c531659141344cd1fd0a4f28419497f9722a3daafe3b4186f6b6457e0\n      swap2\n        /* \"@openzeppelin/contracts/access/Ownable.sol\":2506:2522  address oldOwner */\n      swap1\n        /* \"@openzeppelin/contracts/access/Ownable.sol\":2573:2613  OwnershipTransferred(oldOwner, newOwner) */\n      log3\n        /* \"@openzeppelin/contracts/access/Ownable.sol\":2496:2620  {... */\n      pop\n        /* \"@openzeppelin/contracts/access/Ownable.sol\":2433:2620  function _transferOwnership(address newOwner) internal virtual {... */\n      pop\n      jump\t// out\n        /* \"contracts/MyToken.sol\":4018:4334  function _beforeTokenTransfer(... */\n    tag_573:\n      sub(shl(0xa0, 0x01), 0x01)\n        /* \"contracts/MyToken.sol\":4143:4161  from == address(0) */\n      dup4\n      and\n      iszero\n      dup1\n        /* \"contracts/MyToken.sol\":4143:4181  from == address(0) || to == address(0) */\n      tag_624\n      jumpi\n      pop\n      sub(shl(0xa0, 0x01), 0x01)\n        /* \"contracts/MyToken.sol\":4165:4181  to == address(0) */\n      dup3\n      and\n      iszero\n        /* \"contracts/MyToken.sol\":4143:4181  from == address(0) || to == address(0) */\n    tag_624:\n        /* \"contracts/MyToken.sol\":4139:4190  if (from == address(0) || to == address(0)) return; */\n      iszero\n      tag_625\n      jumpi\n        /* \"contracts/MyToken.sol\":4018:4334  function _beforeTokenTransfer(... */\n      pop\n      pop\n      pop\n      jump\t// out\n        /* \"contracts/MyToken.sol\":4139:4190  if (from == address(0) || to == address(0)) return; */\n    tag_625:\n        /* \"contracts/MyToken.sol\":4204:4220  antisnipeDisable */\n      sload(0x22)\n      shl(0xa0, 0x01)\n      swap1\n      div\n      0xff\n      and\n        /* \"contracts/MyToken.sol\":4203:4220  !antisnipeDisable */\n      iszero\n        /* \"contracts/MyToken.sol\":4203:4256  !antisnipeDisable && address(antisnipe) != address(0) */\n      dup1\n      iszero\n      tag_626\n      jumpi\n      pop\n        /* \"contracts/MyToken.sol\":4232:4241  antisnipe */\n      and(sub(shl(0xa0, 0x01), 0x01), sload(0x22))\n        /* \"contracts/MyToken.sol\":4224:4256  address(antisnipe) != address(0) */\n      iszero\n      iszero\n        /* \"contracts/MyToken.sol\":4203:4256  !antisnipeDisable && address(antisnipe) != address(0) */\n    tag_626:\n        /* \"contracts/MyToken.sol\":4199:4327  if (!antisnipeDisable && address(antisnipe) != address(0))... */\n      iszero\n      tag_627\n      jumpi\n        /* \"contracts/MyToken.sol\":4270:4279  antisnipe */\n      sload(0x22)\n        /* \"contracts/MyToken.sol\":4270:4327  antisnipe.assureCanTransfer(msg.sender, from, to, amount) */\n      mload(0x40)\n      shl(0xe0, 0x5d37a8dd)\n      dup2\n      mstore\n        /* \"contracts/MyToken.sol\":4298:4308  msg.sender */\n      caller\n        /* \"contracts/MyToken.sol\":4270:4327  antisnipe.assureCanTransfer(msg.sender, from, to, amount) */\n      0x04\n      dup3\n      add\n        /* \"#utility.yul\":3272:3306   */\n      mstore\n      sub(shl(0xa0, 0x01), 0x01)\n        /* \"#utility.yul\":3342:3357   */\n      dup6\n      dup2\n      and\n        /* \"#utility.yul\":3322:3340   */\n      0x24\n      dup4\n      add\n        /* \"#utility.yul\":3315:3358   */\n      mstore\n        /* \"#utility.yul\":3394:3409   */\n      dup5\n      dup2\n      and\n        /* \"#utility.yul\":3374:3392   */\n      0x44\n      dup4\n      add\n        /* \"#utility.yul\":3367:3410   */\n      mstore\n        /* \"#utility.yul\":3426:3444   */\n      0x64\n      dup3\n      add\n        /* \"#utility.yul\":3419:3453   */\n      dup5\n      swap1\n      mstore\n        /* \"contracts/MyToken.sol\":4270:4279  antisnipe */\n      swap1\n      swap2\n      and\n      swap1\n        /* \"contracts/MyToken.sol\":4270:4297  antisnipe.assureCanTransfer */\n      0x5d37a8dd\n      swap1\n        /* \"#utility.yul\":3206:3225   */\n      0x84\n      add\n        /* \"contracts/MyToken.sol\":4270:4327  antisnipe.assureCanTransfer(msg.sender, from, to, amount) */\n      0x00\n      mload(0x40)\n      dup1\n      dup4\n      sub\n      dup2\n      0x00\n      dup8\n      dup1\n      extcodesize\n      iszero\n      dup1\n      iszero\n      tag_630\n      jumpi\n      0x00\n      dup1\n      revert\n    tag_630:\n      pop\n      gas\n      call\n      iszero\n      dup1\n      iszero\n      tag_632\n      jumpi\n      returndatasize\n      0x00\n      dup1\n      returndatacopy\n      revert(0x00, returndatasize)\n    tag_632:\n      pop\n      pop\n      pop\n      pop\n        /* \"contracts/MyToken.sol\":4199:4327  if (!antisnipeDisable && address(antisnipe) != address(0))... */\n    tag_627:\n        /* \"contracts/MyToken.sol\":4018:4334  function _beforeTokenTransfer(... */\n      pop\n      pop\n      pop\n      jump\t// out\n        /* \"contracts/MyToken.sol\":16294:17258  function swapAndLiquify(uint256 contractTokenBalance) private lockTheSwap {... */\n    tag_585:\n        /* \"contracts/MyToken.sol\":2845:2861  inSwapAndLiquify */\n      0x1f\n        /* \"contracts/MyToken.sol\":2845:2868  inSwapAndLiquify = true */\n      dup1\n      sload\n      not(shl(0xa0, 0xff))\n      and\n      shl(0xa0, 0x01)\n      or\n      swap1\n      sstore\n      0x00\n        /* \"contracts/MyToken.sol\":16443:16470  contractTokenBalance.div(2) */\n      tag_635\n        /* \"contracts/MyToken.sol\":16443:16463  contractTokenBalance */\n      dup3\n        /* \"contracts/MyToken.sol\":16468:16469  2 */\n      0x02\n        /* \"contracts/MyToken.sol\":16443:16467  contractTokenBalance.div */\n      tag_369\n        /* \"contracts/MyToken.sol\":16443:16470  contractTokenBalance.div(2) */\n      jump\t// in\n    tag_635:\n        /* \"contracts/MyToken.sol\":16428:16470  uint256 half = contractTokenBalance.div(2) */\n      swap1\n      pop\n        /* \"contracts/MyToken.sol\":16480:16497  uint256 otherHalf */\n      0x00\n        /* \"contracts/MyToken.sol\":16500:16530  contractTokenBalance.sub(half) */\n      tag_636\n        /* \"contracts/MyToken.sol\":16500:16520  contractTokenBalance */\n      dup4\n        /* \"contracts/MyToken.sol\":16428:16470  uint256 half = contractTokenBalance.div(2) */\n      dup4\n        /* \"contracts/MyToken.sol\":16500:16524  contractTokenBalance.sub */\n      tag_413\n        /* \"contracts/MyToken.sol\":16500:16530  contractTokenBalance.sub(half) */\n      jump\t// in\n    tag_636:\n        /* \"contracts/MyToken.sol\":16480:16530  uint256 otherHalf = contractTokenBalance.sub(half) */\n      swap1\n      pop\n        /* \"contracts/MyToken.sol\":16827:16848  address(this).balance */\n      selfbalance\n        /* \"contracts/MyToken.sol\":16890:16912  swapTokensForEth(half) */\n      tag_637\n        /* \"contracts/MyToken.sol\":16907:16911  half */\n      dup4\n        /* \"contracts/MyToken.sol\":16890:16906  swapTokensForEth */\n      tag_638\n        /* \"contracts/MyToken.sol\":16890:16912  swapTokensForEth(half) */\n      jump\t// in\n    tag_637:\n        /* \"contracts/MyToken.sol\":17048:17066  uint256 newBalance */\n      0x00\n        /* \"contracts/MyToken.sol\":17069:17110  address(this).balance.sub(initialBalance) */\n      tag_639\n        /* \"contracts/MyToken.sol\":17069:17090  address(this).balance */\n      selfbalance\n        /* \"contracts/MyToken.sol\":17095:17109  initialBalance */\n      dup4\n        /* \"contracts/MyToken.sol\":17069:17094  address(this).balance.sub */\n      tag_413\n        /* \"contracts/MyToken.sol\":17069:17110  address(this).balance.sub(initialBalance) */\n      jump\t// in\n    tag_639:\n        /* \"contracts/MyToken.sol\":17048:17110  uint256 newBalance = address(this).balance.sub(initialBalance) */\n      swap1\n      pop\n        /* \"contracts/MyToken.sol\":17157:17192  addLiquidity(otherHalf, newBalance) */\n      tag_640\n        /* \"contracts/MyToken.sol\":17170:17179  otherHalf */\n      dup4\n        /* \"contracts/MyToken.sol\":17181:17191  newBalance */\n      dup3\n        /* \"contracts/MyToken.sol\":17157:17169  addLiquidity */\n      tag_641\n        /* \"contracts/MyToken.sol\":17157:17192  addLiquidity(otherHalf, newBalance) */\n      jump\t// in\n    tag_640:\n        /* \"contracts/MyToken.sol\":17208:17251  SwapAndLiquify(half, newBalance, otherHalf) */\n      0x40\n      dup1\n      mload\n        /* \"#utility.yul\":16604:16629   */\n      dup6\n      dup2\n      mstore\n        /* \"#utility.yul\":16660:16662   */\n      0x20\n        /* \"#utility.yul\":16645:16663   */\n      dup2\n      add\n        /* \"#utility.yul\":16638:16672   */\n      dup4\n      swap1\n      mstore\n        /* \"#utility.yul\":16688:16706   */\n      swap1\n      dup2\n      add\n        /* \"#utility.yul\":16681:16715   */\n      dup5\n      swap1\n      mstore\n        /* \"contracts/MyToken.sol\":17208:17251  SwapAndLiquify(half, newBalance, otherHalf) */\n      0x17bbfb9a6069321b6ded73bd96327c9e6b7212a5cd51ff219cd61370acafb561\n      swap1\n        /* \"#utility.yul\":16592:16594   */\n      0x60\n        /* \"#utility.yul\":16577:16595   */\n      add\n        /* \"contracts/MyToken.sol\":17208:17251  SwapAndLiquify(half, newBalance, otherHalf) */\n      mload(0x40)\n      dup1\n      swap2\n      sub\n      swap1\n      log1\n      pop\n      pop\n        /* \"contracts/MyToken.sol\":2889:2905  inSwapAndLiquify */\n      0x1f\n        /* \"contracts/MyToken.sol\":2889:2913  inSwapAndLiquify = false */\n      dup1\n      sload\n      not(shl(0xa0, 0xff))\n      and\n      swap1\n      sstore\n      pop\n      pop\n      pop\n        /* \"contracts/MyToken.sol\":16294:17258  function swapAndLiquify(uint256 contractTokenBalance) private lockTheSwap {... */\n      jump\t// out\n        /* \"contracts/MyToken.sol\":18421:20430  function _tokenTransfer(... */\n    tag_587:\n      sub(shl(0xa0, 0x01), 0x01)\n        /* \"contracts/MyToken.sol\":18548:18574  _isExcludedFromFee[sender] */\n      dup4\n      and\n      0x00\n      swap1\n      dup2\n      mstore\n        /* \"contracts/MyToken.sol\":18548:18566  _isExcludedFromFee */\n      0x04\n        /* \"contracts/MyToken.sol\":18548:18574  _isExcludedFromFee[sender] */\n      0x20\n      mstore\n      0x40\n      swap1\n      keccak256\n      sload\n      0xff\n      and\n      dup1\n        /* \"contracts/MyToken.sol\":18548:18607  _isExcludedFromFee[sender] || _isExcludedFromFee[recipient] */\n      tag_645\n      jumpi\n      pop\n      sub(shl(0xa0, 0x01), 0x01)\n        /* \"contracts/MyToken.sol\":18578:18607  _isExcludedFromFee[recipient] */\n      dup3\n      and\n      0x00\n      swap1\n      dup2\n      mstore\n        /* \"contracts/MyToken.sol\":18578:18596  _isExcludedFromFee */\n      0x04\n        /* \"contracts/MyToken.sol\":18578:18607  _isExcludedFromFee[recipient] */\n      0x20\n      mstore\n      0x40\n      swap1\n      keccak256\n      sload\n      0xff\n      and\n        /* \"contracts/MyToken.sol\":18548:18607  _isExcludedFromFee[sender] || _isExcludedFromFee[recipient] */\n    tag_645:\n        /* \"contracts/MyToken.sol\":18544:18728  if (_isExcludedFromFee[sender] || _isExcludedFromFee[recipient]) {... */\n      iszero\n      tag_646\n      jumpi\n        /* \"contracts/MyToken.sol\":18623:18637  removeAllFee() */\n      tag_647\n        /* \"contracts/MyToken.sol\":18623:18635  removeAllFee */\n      tag_648\n        /* \"contracts/MyToken.sol\":18623:18637  removeAllFee() */\n      jump\t// in\n    tag_647:\n        /* \"contracts/MyToken.sol\":18544:18728  if (_isExcludedFromFee[sender] || _isExcludedFromFee[recipient]) {... */\n      jump(tag_651)\n    tag_646:\n        /* \"contracts/MyToken.sol\":18671:18684  pancakeV2Pair */\n      sload(0x1f)\n      sub(shl(0xa0, 0x01), 0x01)\n        /* \"contracts/MyToken.sol\":18658:18684  recipient == pancakeV2Pair */\n      dup4\n      dup2\n      and\n        /* \"contracts/MyToken.sol\":18671:18684  pancakeV2Pair */\n      swap2\n      and\n        /* \"contracts/MyToken.sol\":18658:18684  recipient == pancakeV2Pair */\n      eq\n        /* \"contracts/MyToken.sol\":18654:18728  if (recipient == pancakeV2Pair) {... */\n      iszero\n      tag_651\n      jumpi\n        /* \"contracts/MyToken.sol\":18700:18717  activateSellFee() */\n      tag_651\n        /* \"contracts/MyToken.sol\":13017:13024  _taxFee */\n      0x0d\n      dup1\n      sload\n        /* \"contracts/MyToken.sol\":12999:13014  _previousTaxFee */\n      0x0e\n        /* \"contracts/MyToken.sol\":12999:13024  _previousTaxFee = _taxFee */\n      sstore\n        /* \"contracts/MyToken.sol\":13058:13071  _liquidityFee */\n      0x0f\n      dup1\n      sload\n        /* \"contracts/MyToken.sol\":13034:13055  _previousLiquidityFee */\n      0x10\n        /* \"contracts/MyToken.sol\":13034:13071  _previousLiquidityFee = _liquidityFee */\n      sstore\n        /* \"contracts/MyToken.sol\":13100:13108  _burnFee */\n      0x11\n      dup1\n      sload\n        /* \"contracts/MyToken.sol\":13081:13097  _previousBurnFee */\n      0x12\n        /* \"contracts/MyToken.sol\":13081:13108  _previousBurnFee = _burnFee */\n      sstore\n        /* \"contracts/MyToken.sol\":13142:13155  _marketingFee */\n      0x13\n      dup1\n      sload\n        /* \"contracts/MyToken.sol\":13118:13139  _previousMarketingFee */\n      0x15\n        /* \"contracts/MyToken.sol\":13118:13155  _previousMarketingFee = _marketingFee */\n      sstore\n        /* \"contracts/MyToken.sol\":13176:13187  _sellTaxFee */\n      sload(0x16)\n        /* \"contracts/MyToken.sol\":13166:13187  _taxFee = _sellTaxFee */\n      swap1\n      swap4\n      sstore\n        /* \"contracts/MyToken.sol\":13213:13230  _sellLiquidityFee */\n      sload(0x17)\n        /* \"contracts/MyToken.sol\":13197:13230  _liquidityFee = _sellLiquidityFee */\n      swap1\n      swap2\n      sstore\n        /* \"contracts/MyToken.sol\":13256:13273  _sellMarketingFee */\n      sload(0x18)\n        /* \"contracts/MyToken.sol\":13240:13273  _marketingFee = _sellMarketingFee */\n      swap1\n      swap2\n      sstore\n        /* \"contracts/MyToken.sol\":13294:13306  _sellBurnFee */\n      sload(0x19)\n        /* \"contracts/MyToken.sol\":13283:13306  _burnFee = _sellBurnFee */\n      swap1\n      sstore\n        /* \"contracts/MyToken.sol\":12954:13313  function activateSellFee() private {... */\n      jump\n        /* \"contracts/MyToken.sol\":18700:18717  activateSellFee() */\n    tag_651:\n        /* \"contracts/MyToken.sol\":18791:18806  uint256 burnAmt */\n      0x00\n        /* \"contracts/MyToken.sol\":18809:18838  amount.mul(_burnFee).div(100) */\n      tag_653\n        /* \"contracts/MyToken.sol\":18834:18837  100 */\n      0x64\n        /* \"contracts/MyToken.sol\":18809:18829  amount.mul(_burnFee) */\n      tag_654\n        /* \"contracts/MyToken.sol\":18820:18828  _burnFee */\n      sload(0x11)\n        /* \"contracts/MyToken.sol\":18809:18815  amount */\n      dup6\n        /* \"contracts/MyToken.sol\":18809:18819  amount.mul */\n      tag_655\n      swap1\n        /* \"contracts/MyToken.sol\":18809:18829  amount.mul(_burnFee) */\n      swap2\n      swap1\n      0xffffffff\n      and\n      jump\t// in\n    tag_654:\n        /* \"contracts/MyToken.sol\":18809:18833  amount.mul(_burnFee).div */\n      swap1\n      tag_369\n        /* \"contracts/MyToken.sol\":18809:18838  amount.mul(_burnFee).div(100) */\n      jump\t// in\n    tag_653:\n        /* \"contracts/MyToken.sol\":18791:18838  uint256 burnAmt = amount.mul(_burnFee).div(100) */\n      swap1\n      pop\n        /* \"contracts/MyToken.sol\":18848:18868  uint256 marketingAmt */\n      0x00\n        /* \"contracts/MyToken.sol\":18871:18905  amount.mul(_marketingFee).div(100) */\n      tag_656\n        /* \"contracts/MyToken.sol\":18901:18904  100 */\n      0x64\n        /* \"contracts/MyToken.sol\":18871:18896  amount.mul(_marketingFee) */\n      tag_654\n        /* \"contracts/MyToken.sol\":18882:18895  _marketingFee */\n      sload(0x13)\n        /* \"contracts/MyToken.sol\":18871:18877  amount */\n      dup7\n        /* \"contracts/MyToken.sol\":18871:18881  amount.mul */\n      tag_655\n      swap1\n        /* \"contracts/MyToken.sol\":18871:18896  amount.mul(_marketingFee) */\n      swap2\n      swap1\n      0xffffffff\n      and\n      jump\t// in\n        /* \"contracts/MyToken.sol\":18871:18905  amount.mul(_marketingFee).div(100) */\n    tag_656:\n      sub(shl(0xa0, 0x01), 0x01)\n        /* \"contracts/MyToken.sol\":18920:18939  _isExcluded[sender] */\n      dup7\n      and\n      0x00\n      swap1\n      dup2\n      mstore\n        /* \"contracts/MyToken.sol\":18920:18931  _isExcluded */\n      0x05\n        /* \"contracts/MyToken.sol\":18920:18939  _isExcluded[sender] */\n      0x20\n      mstore\n      0x40\n      swap1\n      keccak256\n      sload\n        /* \"contracts/MyToken.sol\":18848:18905  uint256 marketingAmt = amount.mul(_marketingFee).div(100) */\n      swap1\n      swap2\n      pop\n        /* \"contracts/MyToken.sol\":18920:18939  _isExcluded[sender] */\n      0xff\n      and\n        /* \"contracts/MyToken.sol\":18920:18966  _isExcluded[sender] && !_isExcluded[recipient] */\n      dup1\n      iszero\n      tag_658\n      jumpi\n      pop\n      sub(shl(0xa0, 0x01), 0x01)\n        /* \"contracts/MyToken.sol\":18944:18966  _isExcluded[recipient] */\n      dup5\n      and\n      0x00\n      swap1\n      dup2\n      mstore\n        /* \"contracts/MyToken.sol\":18944:18955  _isExcluded */\n      0x05\n        /* \"contracts/MyToken.sol\":18944:18966  _isExcluded[recipient] */\n      0x20\n      mstore\n      0x40\n      swap1\n      keccak256\n      sload\n      0xff\n      and\n        /* \"contracts/MyToken.sol\":18943:18966  !_isExcluded[recipient] */\n      iszero\n        /* \"contracts/MyToken.sol\":18920:18966  _isExcluded[sender] && !_isExcluded[recipient] */\n    tag_658:\n        /* \"contracts/MyToken.sol\":18916:19854  if (_isExcluded[sender] && !_isExcluded[recipient]) {... */\n      iszero\n      tag_659\n      jumpi\n        /* \"contracts/MyToken.sol\":18982:19125  _transferFromExcluded(... */\n      tag_660\n        /* \"contracts/MyToken.sol\":19021:19027  sender */\n      dup6\n        /* \"contracts/MyToken.sol\":19045:19054  recipient */\n      dup6\n        /* \"contracts/MyToken.sol\":19073:19110  amount.sub(burnAmt).sub(marketingAmt) */\n      tag_661\n        /* \"contracts/MyToken.sol\":19097:19109  marketingAmt */\n      dup5\n        /* \"contracts/MyToken.sol\":19073:19092  amount.sub(burnAmt) */\n      tag_662\n        /* \"contracts/MyToken.sol\":19073:19079  amount */\n      dup9\n        /* \"contracts/MyToken.sol\":19084:19091  burnAmt */\n      dup9\n        /* \"contracts/MyToken.sol\":19073:19083  amount.sub */\n      tag_413\n        /* \"contracts/MyToken.sol\":19073:19092  amount.sub(burnAmt) */\n      jump\t// in\n    tag_662:\n        /* \"contracts/MyToken.sol\":19073:19096  amount.sub(burnAmt).sub */\n      swap1\n      tag_413\n        /* \"contracts/MyToken.sol\":19073:19110  amount.sub(burnAmt).sub(marketingAmt) */\n      jump\t// in\n    tag_661:\n        /* \"contracts/MyToken.sol\":18982:19003  _transferFromExcluded */\n      tag_663\n        /* \"contracts/MyToken.sol\":18982:19125  _transferFromExcluded(... */\n      jump\t// in\n    tag_660:\n        /* \"contracts/MyToken.sol\":18916:19854  if (_isExcluded[sender] && !_isExcluded[recipient]) {... */\n      jump(tag_686)\n    tag_659:\n      sub(shl(0xa0, 0x01), 0x01)\n        /* \"contracts/MyToken.sol\":19147:19166  _isExcluded[sender] */\n      dup6\n      and\n      0x00\n      swap1\n      dup2\n      mstore\n        /* \"contracts/MyToken.sol\":19147:19158  _isExcluded */\n      0x05\n        /* \"contracts/MyToken.sol\":19147:19166  _isExcluded[sender] */\n      0x20\n      mstore\n      0x40\n      swap1\n      keccak256\n      sload\n      0xff\n      and\n        /* \"contracts/MyToken.sol\":19146:19166  !_isExcluded[sender] */\n      iszero\n        /* \"contracts/MyToken.sol\":19146:19192  !_isExcluded[sender] && _isExcluded[recipient] */\n      dup1\n      iszero\n      tag_665\n      jumpi\n      pop\n      sub(shl(0xa0, 0x01), 0x01)\n        /* \"contracts/MyToken.sol\":19170:19192  _isExcluded[recipient] */\n      dup5\n      and\n      0x00\n      swap1\n      dup2\n      mstore\n        /* \"contracts/MyToken.sol\":19170:19181  _isExcluded */\n      0x05\n        /* \"contracts/MyToken.sol\":19170:19192  _isExcluded[recipient] */\n      0x20\n      mstore\n      0x40\n      swap1\n      keccak256\n      sload\n      0xff\n      and\n        /* \"contracts/MyToken.sol\":19146:19192  !_isExcluded[sender] && _isExcluded[recipient] */\n    tag_665:\n        /* \"contracts/MyToken.sol\":19142:19854  if (!_isExcluded[sender] && _isExcluded[recipient]) {... */\n      iszero\n      tag_666\n      jumpi\n        /* \"contracts/MyToken.sol\":19208:19349  _transferToExcluded(... */\n      tag_660\n        /* \"contracts/MyToken.sol\":19245:19251  sender */\n      dup6\n        /* \"contracts/MyToken.sol\":19269:19278  recipient */\n      dup6\n        /* \"contracts/MyToken.sol\":19297:19334  amount.sub(burnAmt).sub(marketingAmt) */\n      tag_668\n        /* \"contracts/MyToken.sol\":19321:19333  marketingAmt */\n      dup5\n        /* \"contracts/MyToken.sol\":19297:19316  amount.sub(burnAmt) */\n      tag_662\n        /* \"contracts/MyToken.sol\":19297:19303  amount */\n      dup9\n        /* \"contracts/MyToken.sol\":19308:19315  burnAmt */\n      dup9\n        /* \"contracts/MyToken.sol\":19297:19307  amount.sub */\n      tag_413\n        /* \"contracts/MyToken.sol\":19297:19316  amount.sub(burnAmt) */\n      jump\t// in\n        /* \"contracts/MyToken.sol\":19297:19334  amount.sub(burnAmt).sub(marketingAmt) */\n    tag_668:\n        /* \"contracts/MyToken.sol\":19208:19227  _transferToExcluded */\n      tag_670\n        /* \"contracts/MyToken.sol\":19208:19349  _transferToExcluded(... */\n      jump\t// in\n        /* \"contracts/MyToken.sol\":19142:19854  if (!_isExcluded[sender] && _isExcluded[recipient]) {... */\n    tag_666:\n      sub(shl(0xa0, 0x01), 0x01)\n        /* \"contracts/MyToken.sol\":19371:19390  _isExcluded[sender] */\n      dup6\n      and\n      0x00\n      swap1\n      dup2\n      mstore\n        /* \"contracts/MyToken.sol\":19371:19382  _isExcluded */\n      0x05\n        /* \"contracts/MyToken.sol\":19371:19390  _isExcluded[sender] */\n      0x20\n      mstore\n      0x40\n      swap1\n      keccak256\n      sload\n      0xff\n      and\n        /* \"contracts/MyToken.sol\":19370:19390  !_isExcluded[sender] */\n      iszero\n        /* \"contracts/MyToken.sol\":19370:19417  !_isExcluded[sender] && !_isExcluded[recipient] */\n      dup1\n      iszero\n      tag_672\n      jumpi\n      pop\n      sub(shl(0xa0, 0x01), 0x01)\n        /* \"contracts/MyToken.sol\":19395:19417  _isExcluded[recipient] */\n      dup5\n      and\n      0x00\n      swap1\n      dup2\n      mstore\n        /* \"contracts/MyToken.sol\":19395:19406  _isExcluded */\n      0x05\n        /* \"contracts/MyToken.sol\":19395:19417  _isExcluded[recipient] */\n      0x20\n      mstore\n      0x40\n      swap1\n      keccak256\n      sload\n      0xff\n      and\n        /* \"contracts/MyToken.sol\":19394:19417  !_isExcluded[recipient] */\n      iszero\n        /* \"contracts/MyToken.sol\":19370:19417  !_isExcluded[sender] && !_isExcluded[recipient] */\n    tag_672:\n        /* \"contracts/MyToken.sol\":19366:19854  if (!_isExcluded[sender] && !_isExcluded[recipient]) {... */\n      iszero\n      tag_673\n      jumpi\n        /* \"contracts/MyToken.sol\":19433:19510  _transferStandard(sender, recipient, (amount.sub(burnAmt).sub(marketingAmt))) */\n      tag_660\n        /* \"contracts/MyToken.sol\":19451:19457  sender */\n      dup6\n        /* \"contracts/MyToken.sol\":19459:19468  recipient */\n      dup6\n        /* \"contracts/MyToken.sol\":19471:19508  amount.sub(burnAmt).sub(marketingAmt) */\n      tag_675\n        /* \"contracts/MyToken.sol\":19495:19507  marketingAmt */\n      dup5\n        /* \"contracts/MyToken.sol\":19471:19490  amount.sub(burnAmt) */\n      tag_662\n        /* \"contracts/MyToken.sol\":19471:19477  amount */\n      dup9\n        /* \"contracts/MyToken.sol\":19482:19489  burnAmt */\n      dup9\n        /* \"contracts/MyToken.sol\":19471:19481  amount.sub */\n      tag_413\n        /* \"contracts/MyToken.sol\":19471:19490  amount.sub(burnAmt) */\n      jump\t// in\n        /* \"contracts/MyToken.sol\":19471:19508  amount.sub(burnAmt).sub(marketingAmt) */\n    tag_675:\n        /* \"contracts/MyToken.sol\":19433:19450  _transferStandard */\n      tag_677\n        /* \"contracts/MyToken.sol\":19433:19510  _transferStandard(sender, recipient, (amount.sub(burnAmt).sub(marketingAmt))) */\n      jump\t// in\n        /* \"contracts/MyToken.sol\":19366:19854  if (!_isExcluded[sender] && !_isExcluded[recipient]) {... */\n    tag_673:\n      sub(shl(0xa0, 0x01), 0x01)\n        /* \"contracts/MyToken.sol\":19531:19550  _isExcluded[sender] */\n      dup6\n      and\n      0x00\n      swap1\n      dup2\n      mstore\n        /* \"contracts/MyToken.sol\":19531:19542  _isExcluded */\n      0x05\n        /* \"contracts/MyToken.sol\":19531:19550  _isExcluded[sender] */\n      0x20\n      mstore\n      0x40\n      swap1\n      keccak256\n      sload\n      0xff\n      and\n        /* \"contracts/MyToken.sol\":19531:19576  _isExcluded[sender] && _isExcluded[recipient] */\n      dup1\n      iszero\n      tag_679\n      jumpi\n      pop\n      sub(shl(0xa0, 0x01), 0x01)\n        /* \"contracts/MyToken.sol\":19554:19576  _isExcluded[recipient] */\n      dup5\n      and\n      0x00\n      swap1\n      dup2\n      mstore\n        /* \"contracts/MyToken.sol\":19554:19565  _isExcluded */\n      0x05\n        /* \"contracts/MyToken.sol\":19554:19576  _isExcluded[recipient] */\n      0x20\n      mstore\n      0x40\n      swap1\n      keccak256\n      sload\n      0xff\n      and\n        /* \"contracts/MyToken.sol\":19531:19576  _isExcluded[sender] && _isExcluded[recipient] */\n    tag_679:\n        /* \"contracts/MyToken.sol\":19527:19854  if (_isExcluded[sender] && _isExcluded[recipient]) {... */\n      iszero\n      tag_680\n      jumpi\n        /* \"contracts/MyToken.sol\":19592:19735  _transferBothExcluded(... */\n      tag_660\n        /* \"contracts/MyToken.sol\":19631:19637  sender */\n      dup6\n        /* \"contracts/MyToken.sol\":19655:19664  recipient */\n      dup6\n        /* \"contracts/MyToken.sol\":19683:19720  amount.sub(burnAmt).sub(marketingAmt) */\n      tag_682\n        /* \"contracts/MyToken.sol\":19707:19719  marketingAmt */\n      dup5\n        /* \"contracts/MyToken.sol\":19683:19702  amount.sub(burnAmt) */\n      tag_662\n        /* \"contracts/MyToken.sol\":19683:19689  amount */\n      dup9\n        /* \"contracts/MyToken.sol\":19694:19701  burnAmt */\n      dup9\n        /* \"contracts/MyToken.sol\":19683:19693  amount.sub */\n      tag_413\n        /* \"contracts/MyToken.sol\":19683:19702  amount.sub(burnAmt) */\n      jump\t// in\n        /* \"contracts/MyToken.sol\":19683:19720  amount.sub(burnAmt).sub(marketingAmt) */\n    tag_682:\n        /* \"contracts/MyToken.sol\":19592:19613  _transferBothExcluded */\n      tag_684\n        /* \"contracts/MyToken.sol\":19592:19735  _transferBothExcluded(... */\n      jump\t// in\n        /* \"contracts/MyToken.sol\":19527:19854  if (_isExcluded[sender] && _isExcluded[recipient]) {... */\n    tag_680:\n        /* \"contracts/MyToken.sol\":19766:19843  _transferStandard(sender, recipient, (amount.sub(burnAmt).sub(marketingAmt))) */\n      tag_686\n        /* \"contracts/MyToken.sol\":19784:19790  sender */\n      dup6\n        /* \"contracts/MyToken.sol\":19792:19801  recipient */\n      dup6\n        /* \"contracts/MyToken.sol\":19804:19841  amount.sub(burnAmt).sub(marketingAmt) */\n      tag_675\n        /* \"contracts/MyToken.sol\":19828:19840  marketingAmt */\n      dup5\n        /* \"contracts/MyToken.sol\":19804:19823  amount.sub(burnAmt) */\n      tag_662\n        /* \"contracts/MyToken.sol\":19804:19810  amount */\n      dup9\n        /* \"contracts/MyToken.sol\":19815:19822  burnAmt */\n      dup9\n        /* \"contracts/MyToken.sol\":19804:19814  amount.sub */\n      tag_413\n        /* \"contracts/MyToken.sol\":19804:19823  amount.sub(burnAmt) */\n      jump\t// in\n        /* \"contracts/MyToken.sol\":19766:19843  _transferStandard(sender, recipient, (amount.sub(burnAmt).sub(marketingAmt))) */\n    tag_686:\n        /* \"contracts/MyToken.sol\":19957:19958  0 */\n      0x00\n        /* \"contracts/MyToken.sol\":19947:19954  _taxFee */\n      0x0d\n        /* \"contracts/MyToken.sol\":19947:19958  _taxFee = 0 */\n      dup2\n      swap1\n      sstore\n        /* \"contracts/MyToken.sol\":19968:19981  _liquidityFee */\n      0x0f\n        /* \"contracts/MyToken.sol\":19968:19985  _liquidityFee = 0 */\n      dup2\n      swap1\n      sstore\n        /* \"contracts/MyToken.sol\":19996:20042  _transferStandard(sender, address(0), burnAmt) */\n      tag_689\n      swap1\n        /* \"contracts/MyToken.sol\":20014:20020  sender */\n      dup7\n      swap1\n        /* \"contracts/MyToken.sol\":20034:20041  burnAmt */\n      dup5\n        /* \"contracts/MyToken.sol\":19996:20013  _transferStandard */\n      tag_677\n        /* \"contracts/MyToken.sol\":19996:20042  _transferStandard(sender, address(0), burnAmt) */\n      jump\t// in\n    tag_689:\n        /* \"contracts/MyToken.sol\":20078:20093  marketingWallet */\n      sload(0x14)\n        /* \"contracts/MyToken.sol\":20052:20108  _transferStandard(sender, marketingWallet, marketingAmt) */\n      tag_690\n      swap1\n        /* \"contracts/MyToken.sol\":20070:20076  sender */\n      dup7\n      swap1\n      sub(shl(0xa0, 0x01), 0x01)\n        /* \"contracts/MyToken.sol\":20078:20093  marketingWallet */\n      and\n        /* \"contracts/MyToken.sol\":20095:20107  marketingAmt */\n      dup4\n        /* \"contracts/MyToken.sol\":20052:20069  _transferStandard */\n      tag_677\n        /* \"contracts/MyToken.sol\":20052:20108  _transferStandard(sender, marketingWallet, marketingAmt) */\n      jump\t// in\n    tag_690:\n        /* \"contracts/MyToken.sol\":20170:20185  _previousTaxFee */\n      sload(0x0e)\n        /* \"contracts/MyToken.sol\":20160:20167  _taxFee */\n      0x0d\n        /* \"contracts/MyToken.sol\":20160:20185  _taxFee = _previousTaxFee */\n      sstore\n        /* \"contracts/MyToken.sol\":20211:20232  _previousLiquidityFee */\n      sload(0x10)\n        /* \"contracts/MyToken.sol\":20195:20208  _liquidityFee */\n      0x0f\n        /* \"contracts/MyToken.sol\":20195:20232  _liquidityFee = _previousLiquidityFee */\n      sstore\n      sub(shl(0xa0, 0x01), 0x01)\n        /* \"contracts/MyToken.sol\":20260:20286  _isExcludedFromFee[sender] */\n      dup6\n      and\n      0x00\n      swap1\n      dup2\n      mstore\n        /* \"contracts/MyToken.sol\":20260:20278  _isExcludedFromFee */\n      0x04\n        /* \"contracts/MyToken.sol\":20260:20286  _isExcludedFromFee[sender] */\n      0x20\n      mstore\n      0x40\n      swap1\n      keccak256\n      sload\n      0xff\n      and\n      dup1\n        /* \"contracts/MyToken.sol\":20260:20331  _isExcludedFromFee[sender] ||... */\n      tag_691\n      jumpi\n      pop\n      sub(shl(0xa0, 0x01), 0x01)\n        /* \"contracts/MyToken.sol\":20302:20331  _isExcludedFromFee[recipient] */\n      dup5\n      and\n      0x00\n      swap1\n      dup2\n      mstore\n        /* \"contracts/MyToken.sol\":20302:20320  _isExcludedFromFee */\n      0x04\n        /* \"contracts/MyToken.sol\":20302:20331  _isExcludedFromFee[recipient] */\n      0x20\n      mstore\n      0x40\n      swap1\n      keccak256\n      sload\n      0xff\n      and\n        /* \"contracts/MyToken.sol\":20260:20331  _isExcludedFromFee[sender] ||... */\n    tag_691:\n        /* \"contracts/MyToken.sol\":20260:20373  _isExcludedFromFee[sender] ||... */\n      dup1\n      tag_692\n      jumpi\n      pop\n        /* \"contracts/MyToken.sol\":20360:20373  pancakeV2Pair */\n      sload(0x1f)\n      sub(shl(0xa0, 0x01), 0x01)\n        /* \"contracts/MyToken.sol\":20347:20373  recipient == pancakeV2Pair */\n      dup6\n      dup2\n      and\n        /* \"contracts/MyToken.sol\":20360:20373  pancakeV2Pair */\n      swap2\n      and\n        /* \"contracts/MyToken.sol\":20347:20373  recipient == pancakeV2Pair */\n      eq\n        /* \"contracts/MyToken.sol\":20260:20373  _isExcludedFromFee[sender] ||... */\n    tag_692:\n        /* \"contracts/MyToken.sol\":20243:20424  if (... */\n      iszero\n      tag_588\n      jumpi\n        /* \"contracts/MyToken.sol\":20398:20413  restoreAllFee() */\n      tag_588\n        /* \"contracts/MyToken.sol\":13789:13804  _previousTaxFee */\n      sload(0x0e)\n        /* \"contracts/MyToken.sol\":13779:13786  _taxFee */\n      0x0d\n        /* \"contracts/MyToken.sol\":13779:13804  _taxFee = _previousTaxFee */\n      sstore\n        /* \"contracts/MyToken.sol\":13830:13851  _previousLiquidityFee */\n      sload(0x10)\n        /* \"contracts/MyToken.sol\":13814:13827  _liquidityFee */\n      0x0f\n        /* \"contracts/MyToken.sol\":13814:13851  _liquidityFee = _previousLiquidityFee */\n      sstore\n        /* \"contracts/MyToken.sol\":13872:13888  _previousBurnFee */\n      sload(0x12)\n        /* \"contracts/MyToken.sol\":13861:13869  _burnFee */\n      0x11\n        /* \"contracts/MyToken.sol\":13861:13888  _burnFee = _previousBurnFee */\n      sstore\n        /* \"contracts/MyToken.sol\":13914:13935  _previousMarketingFee */\n      sload(0x15)\n        /* \"contracts/MyToken.sol\":13898:13911  _marketingFee */\n      0x13\n        /* \"contracts/MyToken.sol\":13898:13935  _marketingFee = _previousMarketingFee */\n      sstore\n        /* \"contracts/MyToken.sol\":13736:13942  function restoreAllFee() private {... */\n      jump\n        /* \"contracts/MyToken.sol\":11751:12313  function _getCurrentSupply() private view returns (uint256, uint256) {... */\n    tag_607:\n        /* \"contracts/MyToken.sol\":11848:11855  _rTotal */\n      sload(0x08)\n        /* \"contracts/MyToken.sol\":11883:11890  _tTotal */\n      sload(0x07)\n        /* \"contracts/MyToken.sol\":11802:11809  uint256 */\n      0x00\n      swap2\n      dup3\n      swap2\n      dup3\n        /* \"contracts/MyToken.sol\":11900:12201  for (uint256 i = 0; i < _excluded.length; i++) {... */\n    tag_697:\n        /* \"contracts/MyToken.sol\":11924:11933  _excluded */\n      0x06\n        /* \"contracts/MyToken.sol\":11924:11940  _excluded.length */\n      sload\n        /* \"contracts/MyToken.sol\":11920:11940  i < _excluded.length */\n      dup2\n      lt\n        /* \"contracts/MyToken.sol\":11900:12201  for (uint256 i = 0; i < _excluded.length; i++) {... */\n      iszero\n      tag_698\n      jumpi\n        /* \"contracts/MyToken.sol\":11989:11996  rSupply */\n      dup3\n        /* \"contracts/MyToken.sol\":11965:11972  _rOwned */\n      0x01\n        /* \"contracts/MyToken.sol\":11965:11986  _rOwned[_excluded[i]] */\n      0x00\n        /* \"contracts/MyToken.sol\":11973:11982  _excluded */\n      0x06\n        /* \"contracts/MyToken.sol\":11983:11984  i */\n      dup5\n        /* \"contracts/MyToken.sol\":11973:11985  _excluded[i] */\n      dup2\n      sload\n      dup2\n      lt\n      tag_701\n      jumpi\n      tag_701\n      tag_382\n      jump\t// in\n    tag_701:\n      0x00\n      swap2\n      dup3\n      mstore\n      0x20\n      dup1\n      dup4\n      keccak256\n      swap1\n      swap2\n      add\n      sload\n      sub(shl(0xa0, 0x01), 0x01)\n      and\n        /* \"contracts/MyToken.sol\":11965:11986  _rOwned[_excluded[i]] */\n      dup4\n      mstore\n      dup3\n      add\n      swap3\n      swap1\n      swap3\n      mstore\n      0x40\n      add\n      swap1\n      keccak256\n      sload\n        /* \"contracts/MyToken.sol\":11965:11996  _rOwned[_excluded[i]] > rSupply */\n      gt\n      dup1\n        /* \"contracts/MyToken.sol\":11965:12031  _rOwned[_excluded[i]] > rSupply || _tOwned[_excluded[i]] > tSupply */\n      tag_703\n      jumpi\n      pop\n        /* \"contracts/MyToken.sol\":12024:12031  tSupply */\n      dup2\n        /* \"contracts/MyToken.sol\":12000:12007  _tOwned */\n      0x02\n        /* \"contracts/MyToken.sol\":12000:12021  _tOwned[_excluded[i]] */\n      0x00\n        /* \"contracts/MyToken.sol\":12008:12017  _excluded */\n      0x06\n        /* \"contracts/MyToken.sol\":12018:12019  i */\n      dup5\n        /* \"contracts/MyToken.sol\":12008:12020  _excluded[i] */\n      dup2\n      sload\n      dup2\n      lt\n      tag_705\n      jumpi\n      tag_705\n      tag_382\n      jump\t// in\n    tag_705:\n      0x00\n      swap2\n      dup3\n      mstore\n      0x20\n      dup1\n      dup4\n      keccak256\n      swap1\n      swap2\n      add\n      sload\n      sub(shl(0xa0, 0x01), 0x01)\n      and\n        /* \"contracts/MyToken.sol\":12000:12021  _tOwned[_excluded[i]] */\n      dup4\n      mstore\n      dup3\n      add\n      swap3\n      swap1\n      swap3\n      mstore\n      0x40\n      add\n      swap1\n      keccak256\n      sload\n        /* \"contracts/MyToken.sol\":12000:12031  _tOwned[_excluded[i]] > tSupply */\n      gt\n        /* \"contracts/MyToken.sol\":11965:12031  _rOwned[_excluded[i]] > rSupply || _tOwned[_excluded[i]] > tSupply */\n    tag_703:\n        /* \"contracts/MyToken.sol\":11961:12074  if (_rOwned[_excluded[i]] > rSupply || _tOwned[_excluded[i]] > tSupply)... */\n      iszero\n      tag_707\n      jumpi\n        /* \"contracts/MyToken.sol\":12057:12064  _rTotal */\n      sload(0x08)\n        /* \"contracts/MyToken.sol\":12066:12073  _tTotal */\n      sload(0x07)\n        /* \"contracts/MyToken.sol\":12049:12074  return (_rTotal, _tTotal) */\n      swap5\n      pop\n      swap5\n      pop\n      pop\n      pop\n      pop\n        /* \"contracts/MyToken.sol\":11751:12313  function _getCurrentSupply() private view returns (uint256, uint256) {... */\n      swap1\n      swap2\n      jump\t// out\n        /* \"contracts/MyToken.sol\":11961:12074  if (_rOwned[_excluded[i]] > rSupply || _tOwned[_excluded[i]] > tSupply)... */\n    tag_707:\n        /* \"contracts/MyToken.sol\":12098:12132  rSupply.sub(_rOwned[_excluded[i]]) */\n      tag_708\n        /* \"contracts/MyToken.sol\":12110:12117  _rOwned */\n      0x01\n        /* \"contracts/MyToken.sol\":12110:12131  _rOwned[_excluded[i]] */\n      0x00\n        /* \"contracts/MyToken.sol\":12118:12127  _excluded */\n      0x06\n        /* \"contracts/MyToken.sol\":12128:12129  i */\n      dup5\n        /* \"contracts/MyToken.sol\":12118:12130  _excluded[i] */\n      dup2\n      sload\n      dup2\n      lt\n      tag_710\n      jumpi\n      tag_710\n      tag_382\n      jump\t// in\n    tag_710:\n      0x00\n      swap2\n      dup3\n      mstore\n      0x20\n      dup1\n      dup4\n      keccak256\n      swap1\n      swap2\n      add\n      sload\n      sub(shl(0xa0, 0x01), 0x01)\n      and\n        /* \"contracts/MyToken.sol\":12110:12131  _rOwned[_excluded[i]] */\n      dup4\n      mstore\n      dup3\n      add\n      swap3\n      swap1\n      swap3\n      mstore\n      0x40\n      add\n      swap1\n      keccak256\n      sload\n        /* \"contracts/MyToken.sol\":12098:12105  rSupply */\n      dup5\n      swap1\n        /* \"contracts/MyToken.sol\":12098:12109  rSupply.sub */\n      tag_413\n        /* \"contracts/MyToken.sol\":12098:12132  rSupply.sub(_rOwned[_excluded[i]]) */\n      jump\t// in\n    tag_708:\n        /* \"contracts/MyToken.sol\":12088:12132  rSupply = rSupply.sub(_rOwned[_excluded[i]]) */\n      swap3\n      pop\n        /* \"contracts/MyToken.sol\":12156:12190  tSupply.sub(_tOwned[_excluded[i]]) */\n      tag_712\n        /* \"contracts/MyToken.sol\":12168:12175  _tOwned */\n      0x02\n        /* \"contracts/MyToken.sol\":12168:12189  _tOwned[_excluded[i]] */\n      0x00\n        /* \"contracts/MyToken.sol\":12176:12185  _excluded */\n      0x06\n        /* \"contracts/MyToken.sol\":12186:12187  i */\n      dup5\n        /* \"contracts/MyToken.sol\":12176:12188  _excluded[i] */\n      dup2\n      sload\n      dup2\n      lt\n      tag_714\n      jumpi\n      tag_714\n      tag_382\n      jump\t// in\n    tag_714:\n      0x00\n      swap2\n      dup3\n      mstore\n      0x20\n      dup1\n      dup4\n      keccak256\n      swap1\n      swap2\n      add\n      sload\n      sub(shl(0xa0, 0x01), 0x01)\n      and\n        /* \"contracts/MyToken.sol\":12168:12189  _tOwned[_excluded[i]] */\n      dup4\n      mstore\n      dup3\n      add\n      swap3\n      swap1\n      swap3\n      mstore\n      0x40\n      add\n      swap1\n      keccak256\n      sload\n        /* \"contracts/MyToken.sol\":12156:12163  tSupply */\n      dup4\n      swap1\n        /* \"contracts/MyToken.sol\":12156:12167  tSupply.sub */\n      tag_413\n        /* \"contracts/MyToken.sol\":12156:12190  tSupply.sub(_tOwned[_excluded[i]]) */\n      jump\t// in\n    tag_712:\n        /* \"contracts/MyToken.sol\":12146:12190  tSupply = tSupply.sub(_tOwned[_excluded[i]]) */\n      swap2\n      pop\n        /* \"contracts/MyToken.sol\":11942:11945  i++ */\n      dup1\n      tag_716\n      dup2\n      tag_398\n      jump\t// in\n    tag_716:\n      swap2\n      pop\n      pop\n        /* \"contracts/MyToken.sol\":11900:12201  for (uint256 i = 0; i < _excluded.length; i++) {... */\n      jump(tag_697)\n    tag_698:\n      pop\n        /* \"contracts/MyToken.sol\":12236:12243  _tTotal */\n      sload(0x07)\n        /* \"contracts/MyToken.sol\":12224:12231  _rTotal */\n      sload(0x08)\n        /* \"contracts/MyToken.sol\":12224:12244  _rTotal.div(_tTotal) */\n      tag_717\n      swap2\n        /* \"contracts/MyToken.sol\":12224:12235  _rTotal.div */\n      tag_369\n        /* \"contracts/MyToken.sol\":12224:12244  _rTotal.div(_tTotal) */\n      jump\t// in\n    tag_717:\n        /* \"contracts/MyToken.sol\":12214:12221  rSupply */\n      dup3\n        /* \"contracts/MyToken.sol\":12214:12244  rSupply < _rTotal.div(_tTotal) */\n      lt\n        /* \"contracts/MyToken.sol\":12210:12271  if (rSupply < _rTotal.div(_tTotal)) return (_rTotal, _tTotal) */\n      iszero\n      tag_718\n      jumpi\n        /* \"contracts/MyToken.sol\":12254:12261  _rTotal */\n      sload(0x08)\n        /* \"contracts/MyToken.sol\":12263:12270  _tTotal */\n      sload(0x07)\n        /* \"contracts/MyToken.sol\":12246:12271  return (_rTotal, _tTotal) */\n      swap4\n      pop\n      swap4\n      pop\n      pop\n      pop\n        /* \"contracts/MyToken.sol\":11751:12313  function _getCurrentSupply() private view returns (uint256, uint256) {... */\n      swap1\n      swap2\n      jump\t// out\n        /* \"contracts/MyToken.sol\":12210:12271  if (rSupply < _rTotal.div(_tTotal)) return (_rTotal, _tTotal) */\n    tag_718:\n        /* \"contracts/MyToken.sol\":12289:12296  rSupply */\n      swap1\n      swap4\n        /* \"contracts/MyToken.sol\":12298:12305  tSupply */\n      swap1\n      swap3\n      pop\n        /* \"contracts/MyToken.sol\":11751:12313  function _getCurrentSupply() private view returns (uint256, uint256) {... */\n      swap1\n      pop\n      jump\t// out\n        /* \"contracts/MyToken.sol\":10638:11037  function _getTValues(uint256 tAmount)... */\n    tag_616:\n        /* \"contracts/MyToken.sol\":10735:10742  uint256 */\n      0x00\n        /* \"contracts/MyToken.sol\":10756:10763  uint256 */\n      dup1\n        /* \"contracts/MyToken.sol\":10777:10784  uint256 */\n      0x00\n        /* \"contracts/MyToken.sol\":10809:10821  uint256 tFee */\n      dup1\n        /* \"contracts/MyToken.sol\":10824:10848  calculateTaxFee(tAmount) */\n      tag_720\n        /* \"contracts/MyToken.sol\":10840:10847  tAmount */\n      dup6\n        /* \"contracts/MyToken.sol\":10824:10839  calculateTaxFee */\n      tag_721\n        /* \"contracts/MyToken.sol\":10824:10848  calculateTaxFee(tAmount) */\n      jump\t// in\n    tag_720:\n        /* \"contracts/MyToken.sol\":10809:10848  uint256 tFee = calculateTaxFee(tAmount) */\n      swap1\n      pop\n        /* \"contracts/MyToken.sol\":10858:10876  uint256 tLiquidity */\n      0x00\n        /* \"contracts/MyToken.sol\":10879:10909  calculateLiquidityFee(tAmount) */\n      tag_722\n        /* \"contracts/MyToken.sol\":10901:10908  tAmount */\n      dup7\n        /* \"contracts/MyToken.sol\":10879:10900  calculateLiquidityFee */\n      tag_723\n        /* \"contracts/MyToken.sol\":10879:10909  calculateLiquidityFee(tAmount) */\n      jump\t// in\n    tag_722:\n        /* \"contracts/MyToken.sol\":10858:10909  uint256 tLiquidity = calculateLiquidityFee(tAmount) */\n      swap1\n      pop\n        /* \"contracts/MyToken.sol\":10919:10942  uint256 tTransferAmount */\n      0x00\n        /* \"contracts/MyToken.sol\":10945:10978  tAmount.sub(tFee).sub(tLiquidity) */\n      tag_724\n        /* \"contracts/MyToken.sol\":10858:10909  uint256 tLiquidity = calculateLiquidityFee(tAmount) */\n      dup3\n        /* \"contracts/MyToken.sol\":10945:10962  tAmount.sub(tFee) */\n      tag_662\n        /* \"contracts/MyToken.sol\":10945:10952  tAmount */\n      dup10\n        /* \"contracts/MyToken.sol\":10957:10961  tFee */\n      dup7\n        /* \"contracts/MyToken.sol\":10945:10956  tAmount.sub */\n      tag_413\n        /* \"contracts/MyToken.sol\":10945:10962  tAmount.sub(tFee) */\n      jump\t// in\n        /* \"contracts/MyToken.sol\":10945:10978  tAmount.sub(tFee).sub(tLiquidity) */\n    tag_724:\n        /* \"contracts/MyToken.sol\":10919:10978  uint256 tTransferAmount = tAmount.sub(tFee).sub(tLiquidity) */\n      swap8\n        /* \"contracts/MyToken.sol\":11013:11017  tFee */\n      swap3\n      swap7\n      pop\n        /* \"contracts/MyToken.sol\":11019:11029  tLiquidity */\n      swap1\n      swap5\n      pop\n        /* \"contracts/MyToken.sol\":10638:11037  function _getTValues(uint256 tAmount)... */\n      swap1\n      swap3\n      pop\n      pop\n      pop\n      jump\t// out\n        /* \"contracts/MyToken.sol\":11043:11578  function _getRValues(... */\n    tag_619:\n        /* \"contracts/MyToken.sol\":11233:11240  uint256 */\n      0x00\n      dup1\n      dup1\n      dup1\n        /* \"contracts/MyToken.sol\":11325:11349  tAmount.mul(currentRate) */\n      tag_727\n        /* \"contracts/MyToken.sol\":11325:11332  tAmount */\n      dup9\n        /* \"contracts/MyToken.sol\":11337:11348  currentRate */\n      dup7\n        /* \"contracts/MyToken.sol\":11325:11336  tAmount.mul */\n      tag_655\n        /* \"contracts/MyToken.sol\":11325:11349  tAmount.mul(currentRate) */\n      jump\t// in\n    tag_727:\n        /* \"contracts/MyToken.sol\":11307:11349  uint256 rAmount = tAmount.mul(currentRate) */\n      swap1\n      pop\n        /* \"contracts/MyToken.sol\":11359:11371  uint256 rFee */\n      0x00\n        /* \"contracts/MyToken.sol\":11374:11395  tFee.mul(currentRate) */\n      tag_728\n        /* \"contracts/MyToken.sol\":11374:11378  tFee */\n      dup9\n        /* \"contracts/MyToken.sol\":11383:11394  currentRate */\n      dup8\n        /* \"contracts/MyToken.sol\":11374:11382  tFee.mul */\n      tag_655\n        /* \"contracts/MyToken.sol\":11374:11395  tFee.mul(currentRate) */\n      jump\t// in\n    tag_728:\n        /* \"contracts/MyToken.sol\":11359:11395  uint256 rFee = tFee.mul(currentRate) */\n      swap1\n      pop\n        /* \"contracts/MyToken.sol\":11405:11423  uint256 rLiquidity */\n      0x00\n        /* \"contracts/MyToken.sol\":11426:11453  tLiquidity.mul(currentRate) */\n      tag_729\n        /* \"contracts/MyToken.sol\":11426:11436  tLiquidity */\n      dup9\n        /* \"contracts/MyToken.sol\":11441:11452  currentRate */\n      dup9\n        /* \"contracts/MyToken.sol\":11426:11440  tLiquidity.mul */\n      tag_655\n        /* \"contracts/MyToken.sol\":11426:11453  tLiquidity.mul(currentRate) */\n      jump\t// in\n    tag_729:\n        /* \"contracts/MyToken.sol\":11405:11453  uint256 rLiquidity = tLiquidity.mul(currentRate) */\n      swap1\n      pop\n        /* \"contracts/MyToken.sol\":11463:11486  uint256 rTransferAmount */\n      0x00\n        /* \"contracts/MyToken.sol\":11489:11522  rAmount.sub(rFee).sub(rLiquidity) */\n      tag_730\n        /* \"contracts/MyToken.sol\":11405:11453  uint256 rLiquidity = tLiquidity.mul(currentRate) */\n      dup3\n        /* \"contracts/MyToken.sol\":11489:11506  rAmount.sub(rFee) */\n      tag_662\n        /* \"contracts/MyToken.sol\":11489:11496  rAmount */\n      dup7\n        /* \"contracts/MyToken.sol\":11501:11505  rFee */\n      dup7\n        /* \"contracts/MyToken.sol\":11489:11500  rAmount.sub */\n      tag_413\n        /* \"contracts/MyToken.sol\":11489:11506  rAmount.sub(rFee) */\n      jump\t// in\n        /* \"contracts/MyToken.sol\":11489:11522  rAmount.sub(rFee).sub(rLiquidity) */\n    tag_730:\n        /* \"contracts/MyToken.sol\":11540:11547  rAmount */\n      swap4\n      swap12\n      swap4\n      swap11\n      pop\n        /* \"contracts/MyToken.sol\":11566:11570  rFee */\n      swap2\n      swap9\n      pop\n        /* \"contracts/MyToken.sol\":11043:11578  function _getRValues(... */\n      swap2\n      swap7\n      pop\n      pop\n      pop\n      pop\n      pop\n      pop\n      pop\n      jump\t// out\n        /* \"contracts/MyToken.sol\":17264:17837  function swapTokensForEth(uint256 tokenAmount) private {... */\n    tag_638:\n        /* \"contracts/MyToken.sol\":17412:17428  new address[](2) */\n      0x40\n      dup1\n      mload\n        /* \"contracts/MyToken.sol\":17426:17427  2 */\n      0x02\n        /* \"contracts/MyToken.sol\":17412:17428  new address[](2) */\n      dup1\n      dup3\n      mstore\n      0x60\n      dup3\n      add\n      dup4\n      mstore\n        /* \"contracts/MyToken.sol\":17388:17409  address[] memory path */\n      0x00\n      swap3\n        /* \"contracts/MyToken.sol\":17412:17428  new address[](2) */\n      0x20\n      dup4\n      add\n      swap1\n      dup1\n      calldatasize\n      dup4\n      calldatacopy\n      add\n      swap1\n      pop\n      pop\n        /* \"contracts/MyToken.sol\":17388:17428  address[] memory path = new address[](2) */\n      swap1\n      pop\n        /* \"contracts/MyToken.sol\":17456:17460  this */\n      address\n        /* \"contracts/MyToken.sol\":17438:17442  path */\n      dup2\n        /* \"contracts/MyToken.sol\":17443:17444  0 */\n      0x00\n        /* \"contracts/MyToken.sol\":17438:17445  path[0] */\n      dup2\n      mload\n      dup2\n      lt\n      tag_738\n      jumpi\n      tag_738\n      tag_382\n      jump\t// in\n    tag_738:\n      sub(shl(0xa0, 0x01), 0x01)\n        /* \"contracts/MyToken.sol\":17438:17461  path[0] = address(this) */\n      swap3\n      dup4\n      and\n        /* \"contracts/MyToken.sol\":17438:17445  path[0] */\n      0x20\n      swap2\n      dup3\n      mul\n      swap3\n      swap1\n      swap3\n      add\n      dup2\n      add\n        /* \"contracts/MyToken.sol\":17438:17461  path[0] = address(this) */\n      swap2\n      swap1\n      swap2\n      mstore\n        /* \"contracts/MyToken.sol\":17481:17496  pancakeV2Router */\n      sload(0x1e)\n        /* \"contracts/MyToken.sol\":17481:17503  pancakeV2Router.WETH() */\n      0x40\n      dup1\n      mload\n      shl(0xe3, 0x15ab88c9)\n      dup2\n      mstore\n      swap1\n      mload\n        /* \"contracts/MyToken.sol\":17481:17496  pancakeV2Router */\n      swap2\n      swap1\n      swap4\n      and\n      swap3\n        /* \"contracts/MyToken.sol\":17481:17501  pancakeV2Router.WETH */\n      0xad5c4648\n      swap3\n        /* \"contracts/MyToken.sol\":17481:17503  pancakeV2Router.WETH() */\n      0x04\n      dup1\n      dup4\n      add\n      swap4\n        /* \"contracts/MyToken.sol\":17438:17445  path[0] */\n      swap2\n      swap3\n        /* \"contracts/MyToken.sol\":17481:17503  pancakeV2Router.WETH() */\n      dup3\n      swap1\n      sub\n      add\n      dup2\n        /* \"contracts/MyToken.sol\":17481:17496  pancakeV2Router */\n      dup7\n        /* \"contracts/MyToken.sol\":17481:17503  pancakeV2Router.WETH() */\n      dup1\n      extcodesize\n      iszero\n      dup1\n      iszero\n      tag_739\n      jumpi\n      0x00\n      dup1\n      revert\n    tag_739:\n      pop\n      gas\n      staticcall\n      iszero\n      dup1\n      iszero\n      tag_741\n      jumpi\n      returndatasize\n      0x00\n      dup1\n      returndatacopy\n      revert(0x00, returndatasize)\n    tag_741:\n      pop\n      pop\n      pop\n      pop\n      mload(0x40)\n      returndatasize\n      not(0x1f)\n      0x1f\n      dup3\n      add\n      and\n      dup3\n      add\n      dup1\n      0x40\n      mstore\n      pop\n      dup2\n      add\n      swap1\n      tag_742\n      swap2\n      swap1\n      tag_743\n      jump\t// in\n    tag_742:\n        /* \"contracts/MyToken.sol\":17471:17475  path */\n      dup2\n        /* \"contracts/MyToken.sol\":17476:17477  1 */\n      0x01\n        /* \"contracts/MyToken.sol\":17471:17478  path[1] */\n      dup2\n      mload\n      dup2\n      lt\n      tag_745\n      jumpi\n      tag_745\n      tag_382\n      jump\t// in\n    tag_745:\n      sub(shl(0xa0, 0x01), 0x01)\n        /* \"contracts/MyToken.sol\":17471:17503  path[1] = pancakeV2Router.WETH() */\n      swap3\n      dup4\n      and\n        /* \"contracts/MyToken.sol\":17471:17478  path[1] */\n      0x20\n      swap2\n      dup3\n      mul\n      swap3\n      swap1\n      swap3\n      add\n      add\n        /* \"contracts/MyToken.sol\":17471:17503  path[1] = pancakeV2Router.WETH() */\n      mstore\n        /* \"contracts/MyToken.sol\":17546:17561  pancakeV2Router */\n      sload(0x1e)\n        /* \"contracts/MyToken.sol\":17514:17576  _approve(address(this), address(pancakeV2Router), tokenAmount) */\n      tag_746\n      swap2\n        /* \"contracts/MyToken.sol\":17531:17535  this */\n      address\n      swap2\n        /* \"contracts/MyToken.sol\":17546:17561  pancakeV2Router */\n      and\n        /* \"contracts/MyToken.sol\":17564:17575  tokenAmount */\n      dup5\n        /* \"contracts/MyToken.sol\":17514:17522  _approve */\n      tag_351\n        /* \"contracts/MyToken.sol\":17514:17576  _approve(address(this), address(pancakeV2Router), tokenAmount) */\n      jump\t// in\n    tag_746:\n        /* \"contracts/MyToken.sol\":17612:17627  pancakeV2Router */\n      sload(0x1e)\n        /* \"contracts/MyToken.sol\":17612:17830  pancakeV2Router.swapExactTokensForETHSupportingFeeOnTransferTokens(... */\n      mload(0x40)\n      shl(0xe0, 0x791ac947)\n      dup2\n      mstore\n      sub(shl(0xa0, 0x01), 0x01)\n        /* \"contracts/MyToken.sol\":17612:17627  pancakeV2Router */\n      swap1\n      swap2\n      and\n      swap1\n        /* \"contracts/MyToken.sol\":17612:17678  pancakeV2Router.swapExactTokensForETHSupportingFeeOnTransferTokens */\n      0x791ac947\n      swap1\n        /* \"contracts/MyToken.sol\":17612:17830  pancakeV2Router.swapExactTokensForETHSupportingFeeOnTransferTokens(... */\n      tag_747\n      swap1\n        /* \"contracts/MyToken.sol\":17692:17703  tokenAmount */\n      dup6\n      swap1\n        /* \"contracts/MyToken.sol\":17612:17627  pancakeV2Router */\n      0x00\n      swap1\n        /* \"contracts/MyToken.sol\":17760:17764  path */\n      dup7\n      swap1\n        /* \"contracts/MyToken.sol\":17786:17790  this */\n      address\n      swap1\n        /* \"contracts/MyToken.sol\":17805:17820  block.timestamp */\n      timestamp\n      swap1\n        /* \"contracts/MyToken.sol\":17612:17830  pancakeV2Router.swapExactTokensForETHSupportingFeeOnTransferTokens(... */\n      0x04\n      add\n      tag_748\n      jump\t// in\n    tag_747:\n      0x00\n      mload(0x40)\n      dup1\n      dup4\n      sub\n      dup2\n      0x00\n      dup8\n      dup1\n      extcodesize\n      iszero\n      dup1\n      iszero\n      tag_749\n      jumpi\n      0x00\n      dup1\n      revert\n    tag_749:\n      pop\n      gas\n      call\n      iszero\n      dup1\n      iszero\n      tag_599\n      jumpi\n      returndatasize\n      0x00\n      dup1\n      returndatacopy\n      revert(0x00, returndatasize)\n        /* \"contracts/MyToken.sol\":17843:18343  function addLiquidity(uint256 tokenAmount, uint256 ethAmount) private {... */\n    tag_641:\n        /* \"contracts/MyToken.sol\":18021:18036  pancakeV2Router */\n      sload(0x1e)\n        /* \"contracts/MyToken.sol\":17989:18051  _approve(address(this), address(pancakeV2Router), tokenAmount) */\n      tag_753\n      swap1\n        /* \"contracts/MyToken.sol\":18006:18010  this */\n      address\n      swap1\n      sub(shl(0xa0, 0x01), 0x01)\n        /* \"contracts/MyToken.sol\":18021:18036  pancakeV2Router */\n      and\n        /* \"contracts/MyToken.sol\":18039:18050  tokenAmount */\n      dup5\n        /* \"contracts/MyToken.sol\":17989:17997  _approve */\n      tag_351\n        /* \"contracts/MyToken.sol\":17989:18051  _approve(address(this), address(pancakeV2Router), tokenAmount) */\n      jump\t// in\n    tag_753:\n        /* \"contracts/MyToken.sol\":18091:18106  pancakeV2Router */\n      and(sub(shl(0xa0, 0x01), 0x01), sload(0x1e))\n        /* \"contracts/MyToken.sol\":18091:18122  pancakeV2Router.addLiquidityETH */\n      0xf305d719\n        /* \"contracts/MyToken.sol\":18130:18139  ethAmount */\n      dup3\n        /* \"contracts/MyToken.sol\":18162:18166  this */\n      address\n        /* \"contracts/MyToken.sol\":18181:18192  tokenAmount */\n      dup6\n        /* \"contracts/MyToken.sol\":18091:18106  pancakeV2Router */\n      0x00\n      dup1\n        /* \"contracts/MyToken.sol\":18290:18297  owner() */\n      tag_754\n        /* \"@openzeppelin/contracts/access/Ownable.sol\":1247:1254  address */\n      0x00\n        /* \"@openzeppelin/contracts/access/Ownable.sol\":1273:1279  _owner */\n      sload\n      sub(shl(0xa0, 0x01), 0x01)\n      and\n      swap1\n        /* \"@openzeppelin/contracts/access/Ownable.sol\":1201:1286  function owner() public view virtual returns (address) {... */\n      jump\n        /* \"contracts/MyToken.sol\":18290:18297  owner() */\n    tag_754:\n        /* \"contracts/MyToken.sol\":18091:18336  pancakeV2Router.addLiquidityETH{value: ethAmount}(... */\n      mload(0x40)\n      0xe0\n      dup9\n      swap1\n      shl\n      not(sub(shl(0xe0, 0x01), 0x01))\n      and\n      dup2\n      mstore\n      sub(shl(0xa0, 0x01), 0x01)\n        /* \"#utility.yul\":3823:3838   */\n      swap6\n      dup7\n      and\n        /* \"contracts/MyToken.sol\":18091:18336  pancakeV2Router.addLiquidityETH{value: ethAmount}(... */\n      0x04\n      dup3\n      add\n        /* \"#utility.yul\":3805:3839   */\n      mstore\n        /* \"#utility.yul\":3855:3873   */\n      0x24\n      dup2\n      add\n        /* \"#utility.yul\":3848:3882   */\n      swap5\n      swap1\n      swap5\n      mstore\n        /* \"#utility.yul\":3898:3916   */\n      0x44\n      dup5\n      add\n        /* \"#utility.yul\":3891:3925   */\n      swap3\n      swap1\n      swap3\n      mstore\n        /* \"#utility.yul\":3941:3959   */\n      0x64\n      dup4\n      add\n        /* \"#utility.yul\":3934:3968   */\n      mstore\n        /* \"#utility.yul\":4005:4020   */\n      swap1\n      swap2\n      and\n        /* \"#utility.yul\":3984:4003   */\n      0x84\n      dup3\n      add\n        /* \"#utility.yul\":3977:4021   */\n      mstore\n        /* \"contracts/MyToken.sol\":18311:18326  block.timestamp */\n      timestamp\n        /* \"#utility.yul\":4037:4056   */\n      0xa4\n      dup3\n      add\n        /* \"#utility.yul\":4030:4065   */\n      mstore\n        /* \"#utility.yul\":3739:3758   */\n      0xc4\n      add\n        /* \"contracts/MyToken.sol\":18091:18336  pancakeV2Router.addLiquidityETH{value: ethAmount}(... */\n      0x60\n      mload(0x40)\n      dup1\n      dup4\n      sub\n      dup2\n      dup6\n      dup9\n      dup1\n      extcodesize\n      iszero\n      dup1\n      iszero\n      tag_757\n      jumpi\n      0x00\n      dup1\n      revert\n    tag_757:\n      pop\n      gas\n      call\n      iszero\n      dup1\n      iszero\n      tag_759\n      jumpi\n      returndatasize\n      0x00\n      dup1\n      returndatacopy\n      revert(0x00, returndatasize)\n    tag_759:\n      pop\n      pop\n      pop\n      pop\n      pop\n      mload(0x40)\n      returndatasize\n      not(0x1f)\n      0x1f\n      dup3\n      add\n      and\n      dup3\n      add\n      dup1\n      0x40\n      mstore\n      pop\n      dup2\n      add\n      swap1\n      tag_588\n      swap2\n      swap1\n      tag_761\n      jump\t// in\n        /* \"contracts/MyToken.sol\":13319:13730  function removeAllFee() private {... */\n    tag_648:\n        /* \"contracts/MyToken.sol\":13365:13372  _taxFee */\n      sload(0x0d)\n        /* \"contracts/MyToken.sol\":13365:13377  _taxFee == 0 */\n      iszero\n        /* \"contracts/MyToken.sol\":13365:13399  _taxFee == 0 && _liquidityFee == 0 */\n      dup1\n      iszero\n      tag_763\n      jumpi\n      pop\n        /* \"contracts/MyToken.sol\":13381:13394  _liquidityFee */\n      sload(0x0f)\n        /* \"contracts/MyToken.sol\":13381:13399  _liquidityFee == 0 */\n      iszero\n        /* \"contracts/MyToken.sol\":13365:13399  _taxFee == 0 && _liquidityFee == 0 */\n    tag_763:\n        /* \"contracts/MyToken.sol\":13365:13421  _taxFee == 0 && _liquidityFee == 0 && _marketingFee == 0 */\n      dup1\n      iszero\n      tag_764\n      jumpi\n      pop\n        /* \"contracts/MyToken.sol\":13403:13416  _marketingFee */\n      sload(0x13)\n        /* \"contracts/MyToken.sol\":13403:13421  _marketingFee == 0 */\n      iszero\n        /* \"contracts/MyToken.sol\":13365:13421  _taxFee == 0 && _liquidityFee == 0 && _marketingFee == 0 */\n    tag_764:\n        /* \"contracts/MyToken.sol\":13365:13438  _taxFee == 0 && _liquidityFee == 0 && _marketingFee == 0 && _burnFee == 0 */\n      dup1\n      iszero\n      tag_765\n      jumpi\n      pop\n        /* \"contracts/MyToken.sol\":13425:13433  _burnFee */\n      sload(0x11)\n        /* \"contracts/MyToken.sol\":13425:13438  _burnFee == 0 */\n      iszero\n        /* \"contracts/MyToken.sol\":13365:13438  _taxFee == 0 && _liquidityFee == 0 && _marketingFee == 0 && _burnFee == 0 */\n    tag_765:\n        /* \"contracts/MyToken.sol\":13361:13459  if (_taxFee == 0 && _liquidityFee == 0 && _marketingFee == 0 && _burnFee == 0)... */\n      iszero\n      tag_766\n      jumpi\n        /* \"contracts/MyToken.sol\":13319:13730  function removeAllFee() private {... */\n      jump\t// out\n        /* \"contracts/MyToken.sol\":13361:13459  if (_taxFee == 0 && _liquidityFee == 0 && _marketingFee == 0 && _burnFee == 0)... */\n    tag_766:\n        /* \"contracts/MyToken.sol\":13487:13494  _taxFee */\n      0x0d\n      dup1\n      sload\n        /* \"contracts/MyToken.sol\":13469:13484  _previousTaxFee */\n      0x0e\n        /* \"contracts/MyToken.sol\":13469:13494  _previousTaxFee = _taxFee */\n      sstore\n        /* \"contracts/MyToken.sol\":13528:13541  _liquidityFee */\n      0x0f\n      dup1\n      sload\n        /* \"contracts/MyToken.sol\":13504:13525  _previousLiquidityFee */\n      0x10\n        /* \"contracts/MyToken.sol\":13504:13541  _previousLiquidityFee = _liquidityFee */\n      sstore\n        /* \"contracts/MyToken.sol\":13570:13578  _burnFee */\n      0x11\n      dup1\n      sload\n        /* \"contracts/MyToken.sol\":13551:13567  _previousBurnFee */\n      0x12\n        /* \"contracts/MyToken.sol\":13551:13578  _previousBurnFee = _burnFee */\n      sstore\n        /* \"contracts/MyToken.sol\":13612:13625  _marketingFee */\n      0x13\n      dup1\n      sload\n        /* \"contracts/MyToken.sol\":13588:13609  _previousMarketingFee */\n      0x15\n        /* \"contracts/MyToken.sol\":13588:13625  _previousMarketingFee = _marketingFee */\n      sstore\n      0x00\n        /* \"contracts/MyToken.sol\":13636:13647  _taxFee = 0 */\n      swap4\n      dup5\n      swap1\n      sstore\n        /* \"contracts/MyToken.sol\":13657:13674  _liquidityFee = 0 */\n      swap2\n      dup4\n      swap1\n      sstore\n        /* \"contracts/MyToken.sol\":13684:13701  _marketingFee = 0 */\n      swap1\n      dup3\n      swap1\n      sstore\n        /* \"contracts/MyToken.sol\":13711:13723  _burnFee = 0 */\n      sstore\n        /* \"contracts/MyToken.sol\":13319:13730  function removeAllFee() private {... */\n      jump\t// out\n        /* \"@openzeppelin/contracts/utils/math/SafeMath.sol\":3465:3561  function mul(uint256 a, uint256 b) internal pure returns (uint256) {... */\n    tag_655:\n        /* \"@openzeppelin/contracts/utils/math/SafeMath.sol\":3523:3530  uint256 */\n      0x00\n        /* \"@openzeppelin/contracts/utils/math/SafeMath.sol\":3549:3554  a * b */\n      tag_368\n        /* \"@openzeppelin/contracts/utils/math/SafeMath.sol\":3553:3554  b */\n      dup3\n        /* \"@openzeppelin/contracts/utils/math/SafeMath.sol\":3549:3550  a */\n      dup5\n        /* \"@openzeppelin/contracts/utils/math/SafeMath.sol\":3549:3554  a * b */\n      tag_590\n      jump\t// in\n        /* \"contracts/MyToken.sol\":21734:22401  function _transferFromExcluded(... */\n    tag_663:\n        /* \"contracts/MyToken.sol\":21879:21894  uint256 rAmount */\n      0x00\n        /* \"contracts/MyToken.sol\":21908:21931  uint256 rTransferAmount */\n      dup1\n        /* \"contracts/MyToken.sol\":21945:21957  uint256 rFee */\n      0x00\n        /* \"contracts/MyToken.sol\":21971:21994  uint256 tTransferAmount */\n      dup1\n        /* \"contracts/MyToken.sol\":22008:22020  uint256 tFee */\n      0x00\n        /* \"contracts/MyToken.sol\":22034:22052  uint256 tLiquidity */\n      dup1\n        /* \"contracts/MyToken.sol\":22065:22084  _getValues(tAmount) */\n      tag_771\n        /* \"contracts/MyToken.sol\":22076:22083  tAmount */\n      dup8\n        /* \"contracts/MyToken.sol\":22065:22075  _getValues */\n      tag_411\n        /* \"contracts/MyToken.sol\":22065:22084  _getValues(tAmount) */\n      jump\t// in\n    tag_771:\n      sub(shl(0xa0, 0x01), 0x01)\n        /* \"contracts/MyToken.sol\":22112:22127  _tOwned[sender] */\n      dup16\n      and\n      0x00\n      swap1\n      dup2\n      mstore\n        /* \"contracts/MyToken.sol\":22112:22119  _tOwned */\n      0x02\n        /* \"contracts/MyToken.sol\":22112:22127  _tOwned[sender] */\n      0x20\n      mstore\n      0x40\n      swap1\n      keccak256\n      sload\n        /* \"contracts/MyToken.sol\":21865:22084  (... */\n      swap6\n      swap12\n      pop\n      swap4\n      swap10\n      pop\n      swap2\n      swap8\n      pop\n      swap6\n      pop\n      swap4\n      pop\n      swap2\n      pop\n        /* \"contracts/MyToken.sol\":22112:22140  _tOwned[sender].sub(tAmount) */\n      tag_772\n      swap1\n        /* \"contracts/MyToken.sol\":22132:22139  tAmount */\n      dup9\n        /* \"contracts/MyToken.sol\":22112:22131  _tOwned[sender].sub */\n      tag_413\n        /* \"contracts/MyToken.sol\":22112:22140  _tOwned[sender].sub(tAmount) */\n      jump\t// in\n    tag_772:\n      sub(shl(0xa0, 0x01), 0x01)\n        /* \"contracts/MyToken.sol\":22094:22109  _tOwned[sender] */\n      dup11\n      and\n      0x00\n      swap1\n      dup2\n      mstore\n        /* \"contracts/MyToken.sol\":22094:22101  _tOwned */\n      0x02\n        /* \"contracts/MyToken.sol\":22094:22109  _tOwned[sender] */\n      0x20\n      swap1\n      dup2\n      mstore\n      0x40\n      dup1\n      dup4\n      keccak256\n        /* \"contracts/MyToken.sol\":22094:22140  _tOwned[sender] = _tOwned[sender].sub(tAmount) */\n      swap4\n      swap1\n      swap4\n      sstore\n        /* \"contracts/MyToken.sol\":22168:22175  _rOwned */\n      0x01\n        /* \"contracts/MyToken.sol\":22168:22183  _rOwned[sender] */\n      swap1\n      mstore\n      keccak256\n      sload\n        /* \"contracts/MyToken.sol\":22168:22196  _rOwned[sender].sub(rAmount) */\n      tag_773\n      swap1\n        /* \"contracts/MyToken.sol\":22188:22195  rAmount */\n      dup8\n        /* \"contracts/MyToken.sol\":22168:22187  _rOwned[sender].sub */\n      tag_413\n        /* \"contracts/MyToken.sol\":22168:22196  _rOwned[sender].sub(rAmount) */\n      jump\t// in\n    tag_773:\n      sub(shl(0xa0, 0x01), 0x01)\n        /* \"contracts/MyToken.sol\":22150:22165  _rOwned[sender] */\n      dup1\n      dup12\n      and\n      0x00\n      swap1\n      dup2\n      mstore\n        /* \"contracts/MyToken.sol\":22150:22157  _rOwned */\n      0x01\n        /* \"contracts/MyToken.sol\":22150:22165  _rOwned[sender] */\n      0x20\n      mstore\n      0x40\n      dup1\n      dup3\n      keccak256\n        /* \"contracts/MyToken.sol\":22150:22196  _rOwned[sender] = _rOwned[sender].sub(rAmount) */\n      swap4\n      swap1\n      swap4\n      sstore\n        /* \"contracts/MyToken.sol\":22227:22245  _rOwned[recipient] */\n      swap1\n      dup11\n      and\n      dup2\n      mstore\n      keccak256\n      sload\n        /* \"contracts/MyToken.sol\":22227:22266  _rOwned[recipient].add(rTransferAmount) */\n      tag_774\n      swap1\n        /* \"contracts/MyToken.sol\":22250:22265  rTransferAmount */\n      dup7\n        /* \"contracts/MyToken.sol\":22227:22249  _rOwned[recipient].add */\n      tag_404\n        /* \"contracts/MyToken.sol\":22227:22266  _rOwned[recipient].add(rTransferAmount) */\n      jump\t// in\n    tag_774:\n      sub(shl(0xa0, 0x01), 0x01)\n        /* \"contracts/MyToken.sol\":22206:22224  _rOwned[recipient] */\n      dup10\n      and\n      0x00\n      swap1\n      dup2\n      mstore\n        /* \"contracts/MyToken.sol\":22206:22213  _rOwned */\n      0x01\n        /* \"contracts/MyToken.sol\":22206:22224  _rOwned[recipient] */\n      0x20\n      mstore\n      0x40\n      swap1\n      keccak256\n        /* \"contracts/MyToken.sol\":22206:22266  _rOwned[recipient] = _rOwned[recipient].add(rTransferAmount) */\n      sstore\n        /* \"contracts/MyToken.sol\":22276:22302  _takeLiquidity(tLiquidity) */\n      tag_775\n        /* \"contracts/MyToken.sol\":22291:22301  tLiquidity */\n      dup2\n        /* \"contracts/MyToken.sol\":22276:22290  _takeLiquidity */\n      tag_776\n        /* \"contracts/MyToken.sol\":22276:22302  _takeLiquidity(tLiquidity) */\n      jump\t// in\n    tag_775:\n        /* \"contracts/MyToken.sol\":22312:22335  _reflectFee(rFee, tFee) */\n      tag_777\n        /* \"contracts/MyToken.sol\":22324:22328  rFee */\n      dup5\n        /* \"contracts/MyToken.sol\":22330:22334  tFee */\n      dup4\n        /* \"contracts/MyToken.sol\":22312:22323  _reflectFee */\n      tag_778\n        /* \"contracts/MyToken.sol\":22312:22335  _reflectFee(rFee, tFee) */\n      jump\t// in\n    tag_777:\n        /* \"contracts/MyToken.sol\":22367:22376  recipient */\n      dup8\n      sub(shl(0xa0, 0x01), 0x01)\n        /* \"contracts/MyToken.sol\":22350:22394  Transfer(sender, recipient, tTransferAmount) */\n      and\n        /* \"contracts/MyToken.sol\":22359:22365  sender */\n      dup10\n      sub(shl(0xa0, 0x01), 0x01)\n        /* \"contracts/MyToken.sol\":22350:22394  Transfer(sender, recipient, tTransferAmount) */\n      and\n      0xddf252ad1be2c89b69c2b068fc378daa952ba7f163c4a11628f55a4df523b3ef\n        /* \"contracts/MyToken.sol\":22378:22393  tTransferAmount */\n      dup6\n        /* \"contracts/MyToken.sol\":22350:22394  Transfer(sender, recipient, tTransferAmount) */\n      mload(0x40)\n      tag_779\n      swap2\n        /* \"#utility.yul\":15381:15406   */\n      dup2\n      mstore\n        /* \"#utility.yul\":15369:15371   */\n      0x20\n        /* \"#utility.yul\":15354:15372   */\n      add\n      swap1\n        /* \"#utility.yul\":15235:15412   */\n      jump\n        /* \"contracts/MyToken.sol\":22350:22394  Transfer(sender, recipient, tTransferAmount) */\n    tag_779:\n      mload(0x40)\n      dup1\n      swap2\n      sub\n      swap1\n      log3\n        /* \"contracts/MyToken.sol\":21855:22401  {... */\n      pop\n      pop\n      pop\n      pop\n      pop\n      pop\n        /* \"contracts/MyToken.sol\":21734:22401  function _transferFromExcluded(... */\n      pop\n      pop\n      pop\n      jump\t// out\n        /* \"contracts/MyToken.sol\":21049:21728  function _transferToExcluded(... */\n    tag_670:\n        /* \"contracts/MyToken.sol\":21192:21207  uint256 rAmount */\n      0x00\n        /* \"contracts/MyToken.sol\":21221:21244  uint256 rTransferAmount */\n      dup1\n        /* \"contracts/MyToken.sol\":21258:21270  uint256 rFee */\n      0x00\n        /* \"contracts/MyToken.sol\":21284:21307  uint256 tTransferAmount */\n      dup1\n        /* \"contracts/MyToken.sol\":21321:21333  uint256 tFee */\n      0x00\n        /* \"contracts/MyToken.sol\":21347:21365  uint256 tLiquidity */\n      dup1\n        /* \"contracts/MyToken.sol\":21378:21397  _getValues(tAmount) */\n      tag_781\n        /* \"contracts/MyToken.sol\":21389:21396  tAmount */\n      dup8\n        /* \"contracts/MyToken.sol\":21378:21388  _getValues */\n      tag_411\n        /* \"contracts/MyToken.sol\":21378:21397  _getValues(tAmount) */\n      jump\t// in\n    tag_781:\n      sub(shl(0xa0, 0x01), 0x01)\n        /* \"contracts/MyToken.sol\":21425:21440  _rOwned[sender] */\n      dup16\n      and\n      0x00\n      swap1\n      dup2\n      mstore\n        /* \"contracts/MyToken.sol\":21425:21432  _rOwned */\n      0x01\n        /* \"contracts/MyToken.sol\":21425:21440  _rOwned[sender] */\n      0x20\n      mstore\n      0x40\n      swap1\n      keccak256\n      sload\n        /* \"contracts/MyToken.sol\":21178:21397  (... */\n      swap6\n      swap12\n      pop\n      swap4\n      swap10\n      pop\n      swap2\n      swap8\n      pop\n      swap6\n      pop\n      swap4\n      pop\n      swap2\n      pop\n        /* \"contracts/MyToken.sol\":21425:21453  _rOwned[sender].sub(rAmount) */\n      tag_782\n      swap1\n        /* \"contracts/MyToken.sol\":21178:21397  (... */\n      dup8\n        /* \"contracts/MyToken.sol\":21425:21444  _rOwned[sender].sub */\n      tag_413\n        /* \"contracts/MyToken.sol\":21425:21453  _rOwned[sender].sub(rAmount) */\n      jump\t// in\n    tag_782:\n      sub(shl(0xa0, 0x01), 0x01)\n        /* \"contracts/MyToken.sol\":21407:21422  _rOwned[sender] */\n      dup1\n      dup12\n      and\n      0x00\n      swap1\n      dup2\n      mstore\n        /* \"contracts/MyToken.sol\":21407:21414  _rOwned */\n      0x01\n        /* \"contracts/MyToken.sol\":21407:21422  _rOwned[sender] */\n      0x20\n      swap1\n      dup2\n      mstore\n      0x40\n      dup1\n      dup4\n      keccak256\n        /* \"contracts/MyToken.sol\":21407:21453  _rOwned[sender] = _rOwned[sender].sub(rAmount) */\n      swap5\n      swap1\n      swap5\n      sstore\n        /* \"contracts/MyToken.sol\":21484:21502  _tOwned[recipient] */\n      swap2\n      dup12\n      and\n      dup2\n      mstore\n        /* \"contracts/MyToken.sol\":21484:21491  _tOwned */\n      0x02\n        /* \"contracts/MyToken.sol\":21484:21502  _tOwned[recipient] */\n      swap1\n      swap2\n      mstore\n      keccak256\n      sload\n        /* \"contracts/MyToken.sol\":21484:21523  _tOwned[recipient].add(tTransferAmount) */\n      tag_783\n      swap1\n        /* \"contracts/MyToken.sol\":21507:21522  tTransferAmount */\n      dup5\n        /* \"contracts/MyToken.sol\":21484:21506  _tOwned[recipient].add */\n      tag_404\n        /* \"contracts/MyToken.sol\":21484:21523  _tOwned[recipient].add(tTransferAmount) */\n      jump\t// in\n    tag_783:\n      sub(shl(0xa0, 0x01), 0x01)\n        /* \"contracts/MyToken.sol\":21463:21481  _tOwned[recipient] */\n      dup10\n      and\n      0x00\n      swap1\n      dup2\n      mstore\n        /* \"contracts/MyToken.sol\":21463:21470  _tOwned */\n      0x02\n        /* \"contracts/MyToken.sol\":21463:21481  _tOwned[recipient] */\n      0x20\n      swap1\n      dup2\n      mstore\n      0x40\n      dup1\n      dup4\n      keccak256\n        /* \"contracts/MyToken.sol\":21463:21523  _tOwned[recipient] = _tOwned[recipient].add(tTransferAmount) */\n      swap4\n      swap1\n      swap4\n      sstore\n        /* \"contracts/MyToken.sol\":21554:21561  _rOwned */\n      0x01\n        /* \"contracts/MyToken.sol\":21554:21572  _rOwned[recipient] */\n      swap1\n      mstore\n      keccak256\n      sload\n        /* \"contracts/MyToken.sol\":21554:21593  _rOwned[recipient].add(rTransferAmount) */\n      tag_774\n      swap1\n        /* \"contracts/MyToken.sol\":21577:21592  rTransferAmount */\n      dup7\n        /* \"contracts/MyToken.sol\":21554:21576  _rOwned[recipient].add */\n      tag_404\n        /* \"contracts/MyToken.sol\":21554:21593  _rOwned[recipient].add(rTransferAmount) */\n      jump\t// in\n        /* \"contracts/MyToken.sol\":20436:21043  function _transferStandard(... */\n    tag_677:\n        /* \"contracts/MyToken.sol\":20577:20592  uint256 rAmount */\n      0x00\n        /* \"contracts/MyToken.sol\":20606:20629  uint256 rTransferAmount */\n      dup1\n        /* \"contracts/MyToken.sol\":20643:20655  uint256 rFee */\n      0x00\n        /* \"contracts/MyToken.sol\":20669:20692  uint256 tTransferAmount */\n      dup1\n        /* \"contracts/MyToken.sol\":20706:20718  uint256 tFee */\n      0x00\n        /* \"contracts/MyToken.sol\":20732:20750  uint256 tLiquidity */\n      dup1\n        /* \"contracts/MyToken.sol\":20763:20782  _getValues(tAmount) */\n      tag_789\n        /* \"contracts/MyToken.sol\":20774:20781  tAmount */\n      dup8\n        /* \"contracts/MyToken.sol\":20763:20773  _getValues */\n      tag_411\n        /* \"contracts/MyToken.sol\":20763:20782  _getValues(tAmount) */\n      jump\t// in\n    tag_789:\n      sub(shl(0xa0, 0x01), 0x01)\n        /* \"contracts/MyToken.sol\":20810:20825  _rOwned[sender] */\n      dup16\n      and\n      0x00\n      swap1\n      dup2\n      mstore\n        /* \"contracts/MyToken.sol\":20810:20817  _rOwned */\n      0x01\n        /* \"contracts/MyToken.sol\":20810:20825  _rOwned[sender] */\n      0x20\n      mstore\n      0x40\n      swap1\n      keccak256\n      sload\n        /* \"contracts/MyToken.sol\":20563:20782  (... */\n      swap6\n      swap12\n      pop\n      swap4\n      swap10\n      pop\n      swap2\n      swap8\n      pop\n      swap6\n      pop\n      swap4\n      pop\n      swap2\n      pop\n        /* \"contracts/MyToken.sol\":20810:20838  _rOwned[sender].sub(rAmount) */\n      tag_773\n      swap1\n        /* \"contracts/MyToken.sol\":20563:20782  (... */\n      dup8\n        /* \"contracts/MyToken.sol\":20810:20829  _rOwned[sender].sub */\n      tag_413\n        /* \"contracts/MyToken.sol\":20810:20838  _rOwned[sender].sub(rAmount) */\n      jump\t// in\n        /* \"contracts/MyToken.sol\":9043:9780  function _transferBothExcluded(... */\n    tag_684:\n        /* \"contracts/MyToken.sol\":9188:9203  uint256 rAmount */\n      0x00\n        /* \"contracts/MyToken.sol\":9217:9240  uint256 rTransferAmount */\n      dup1\n        /* \"contracts/MyToken.sol\":9254:9266  uint256 rFee */\n      0x00\n        /* \"contracts/MyToken.sol\":9280:9303  uint256 tTransferAmount */\n      dup1\n        /* \"contracts/MyToken.sol\":9317:9329  uint256 tFee */\n      0x00\n        /* \"contracts/MyToken.sol\":9343:9361  uint256 tLiquidity */\n      dup1\n        /* \"contracts/MyToken.sol\":9374:9393  _getValues(tAmount) */\n      tag_796\n        /* \"contracts/MyToken.sol\":9385:9392  tAmount */\n      dup8\n        /* \"contracts/MyToken.sol\":9374:9384  _getValues */\n      tag_411\n        /* \"contracts/MyToken.sol\":9374:9393  _getValues(tAmount) */\n      jump\t// in\n    tag_796:\n      sub(shl(0xa0, 0x01), 0x01)\n        /* \"contracts/MyToken.sol\":9421:9436  _tOwned[sender] */\n      dup16\n      and\n      0x00\n      swap1\n      dup2\n      mstore\n        /* \"contracts/MyToken.sol\":9421:9428  _tOwned */\n      0x02\n        /* \"contracts/MyToken.sol\":9421:9436  _tOwned[sender] */\n      0x20\n      mstore\n      0x40\n      swap1\n      keccak256\n      sload\n        /* \"contracts/MyToken.sol\":9174:9393  (... */\n      swap6\n      swap12\n      pop\n      swap4\n      swap10\n      pop\n      swap2\n      swap8\n      pop\n      swap6\n      pop\n      swap4\n      pop\n      swap2\n      pop\n        /* \"contracts/MyToken.sol\":9421:9449  _tOwned[sender].sub(tAmount) */\n      tag_797\n      swap1\n        /* \"contracts/MyToken.sol\":9441:9448  tAmount */\n      dup9\n        /* \"contracts/MyToken.sol\":9421:9440  _tOwned[sender].sub */\n      tag_413\n        /* \"contracts/MyToken.sol\":9421:9449  _tOwned[sender].sub(tAmount) */\n      jump\t// in\n    tag_797:\n      sub(shl(0xa0, 0x01), 0x01)\n        /* \"contracts/MyToken.sol\":9403:9418  _tOwned[sender] */\n      dup11\n      and\n      0x00\n      swap1\n      dup2\n      mstore\n        /* \"contracts/MyToken.sol\":9403:9410  _tOwned */\n      0x02\n        /* \"contracts/MyToken.sol\":9403:9418  _tOwned[sender] */\n      0x20\n      swap1\n      dup2\n      mstore\n      0x40\n      dup1\n      dup4\n      keccak256\n        /* \"contracts/MyToken.sol\":9403:9449  _tOwned[sender] = _tOwned[sender].sub(tAmount) */\n      swap4\n      swap1\n      swap4\n      sstore\n        /* \"contracts/MyToken.sol\":9477:9484  _rOwned */\n      0x01\n        /* \"contracts/MyToken.sol\":9477:9492  _rOwned[sender] */\n      swap1\n      mstore\n      keccak256\n      sload\n        /* \"contracts/MyToken.sol\":9477:9505  _rOwned[sender].sub(rAmount) */\n      tag_782\n      swap1\n        /* \"contracts/MyToken.sol\":9497:9504  rAmount */\n      dup8\n        /* \"contracts/MyToken.sol\":9477:9496  _rOwned[sender].sub */\n      tag_413\n        /* \"contracts/MyToken.sol\":9477:9505  _rOwned[sender].sub(rAmount) */\n      jump\t// in\n        /* \"contracts/MyToken.sol\":12674:12802  function calculateTaxFee(uint256 _amount) private view returns (uint256) {... */\n    tag_721:\n        /* \"contracts/MyToken.sol\":12738:12745  uint256 */\n      0x00\n        /* \"contracts/MyToken.sol\":12764:12795  _amount.mul(_taxFee).div(10**2) */\n      tag_347\n        /* \"contracts/MyToken.sol\":12789:12794  10**2 */\n      0x64\n        /* \"contracts/MyToken.sol\":12764:12784  _amount.mul(_taxFee) */\n      tag_654\n        /* \"contracts/MyToken.sol\":12776:12783  _taxFee */\n      sload(0x0d)\n        /* \"contracts/MyToken.sol\":12764:12771  _amount */\n      dup6\n        /* \"contracts/MyToken.sol\":12764:12775  _amount.mul */\n      tag_655\n      swap1\n        /* \"contracts/MyToken.sol\":12764:12784  _amount.mul(_taxFee) */\n      swap2\n      swap1\n      0xffffffff\n      and\n      jump\t// in\n        /* \"contracts/MyToken.sol\":12808:12948  function calculateLiquidityFee(uint256 _amount) private view returns (uint256) {... */\n    tag_723:\n        /* \"contracts/MyToken.sol\":12878:12885  uint256 */\n      0x00\n        /* \"contracts/MyToken.sol\":12904:12941  _amount.mul(_liquidityFee).div(10**2) */\n      tag_347\n        /* \"contracts/MyToken.sol\":12935:12940  10**2 */\n      0x64\n        /* \"contracts/MyToken.sol\":12904:12930  _amount.mul(_liquidityFee) */\n      tag_654\n        /* \"contracts/MyToken.sol\":12916:12929  _liquidityFee */\n      sload(0x0f)\n        /* \"contracts/MyToken.sol\":12904:12911  _amount */\n      dup6\n        /* \"contracts/MyToken.sol\":12904:12915  _amount.mul */\n      tag_655\n      swap1\n        /* \"contracts/MyToken.sol\":12904:12930  _amount.mul(_liquidityFee) */\n      swap2\n      swap1\n      0xffffffff\n      and\n      jump\t// in\n        /* \"contracts/MyToken.sol\":12319:12668  function _takeLiquidity(uint256 tLiquidity) private {... */\n    tag_776:\n        /* \"contracts/MyToken.sol\":12381:12400  uint256 currentRate */\n      0x00\n        /* \"contracts/MyToken.sol\":12403:12413  _getRate() */\n      tag_812\n        /* \"contracts/MyToken.sol\":12403:12411  _getRate */\n      tag_367\n        /* \"contracts/MyToken.sol\":12403:12413  _getRate() */\n      jump\t// in\n    tag_812:\n        /* \"contracts/MyToken.sol\":12381:12413  uint256 currentRate = _getRate() */\n      swap1\n      pop\n        /* \"contracts/MyToken.sol\":12423:12441  uint256 rLiquidity */\n      0x00\n        /* \"contracts/MyToken.sol\":12444:12471  tLiquidity.mul(currentRate) */\n      tag_813\n        /* \"contracts/MyToken.sol\":12444:12454  tLiquidity */\n      dup4\n        /* \"contracts/MyToken.sol\":12381:12413  uint256 currentRate = _getRate() */\n      dup4\n        /* \"contracts/MyToken.sol\":12444:12458  tLiquidity.mul */\n      tag_655\n        /* \"contracts/MyToken.sol\":12444:12471  tLiquidity.mul(currentRate) */\n      jump\t// in\n    tag_813:\n        /* \"contracts/MyToken.sol\":12522:12526  this */\n      address\n        /* \"contracts/MyToken.sol\":12506:12528  _rOwned[address(this)] */\n      0x00\n      swap1\n      dup2\n      mstore\n        /* \"contracts/MyToken.sol\":12506:12513  _rOwned */\n      0x01\n        /* \"contracts/MyToken.sol\":12506:12528  _rOwned[address(this)] */\n      0x20\n      mstore\n      0x40\n      swap1\n      keccak256\n      sload\n        /* \"contracts/MyToken.sol\":12423:12471  uint256 rLiquidity = tLiquidity.mul(currentRate) */\n      swap1\n      swap2\n      pop\n        /* \"contracts/MyToken.sol\":12506:12544  _rOwned[address(this)].add(rLiquidity) */\n      tag_814\n      swap1\n        /* \"contracts/MyToken.sol\":12423:12471  uint256 rLiquidity = tLiquidity.mul(currentRate) */\n      dup3\n        /* \"contracts/MyToken.sol\":12506:12532  _rOwned[address(this)].add */\n      tag_404\n        /* \"contracts/MyToken.sol\":12506:12544  _rOwned[address(this)].add(rLiquidity) */\n      jump\t// in\n    tag_814:\n        /* \"contracts/MyToken.sol\":12497:12501  this */\n      address\n        /* \"contracts/MyToken.sol\":12481:12503  _rOwned[address(this)] */\n      0x00\n      swap1\n      dup2\n      mstore\n        /* \"contracts/MyToken.sol\":12481:12488  _rOwned */\n      0x01\n        /* \"contracts/MyToken.sol\":12481:12503  _rOwned[address(this)] */\n      0x20\n      swap1\n      dup2\n      mstore\n      0x40\n      dup1\n      dup4\n      keccak256\n        /* \"contracts/MyToken.sol\":12481:12544  _rOwned[address(this)] = _rOwned[address(this)].add(rLiquidity) */\n      swap4\n      swap1\n      swap4\n      sstore\n        /* \"contracts/MyToken.sol\":12558:12569  _isExcluded */\n      0x05\n        /* \"contracts/MyToken.sol\":12558:12584  _isExcluded[address(this)] */\n      swap1\n      mstore\n      keccak256\n      sload\n      0xff\n      and\n        /* \"contracts/MyToken.sol\":12554:12661  if (_isExcluded[address(this)])... */\n      iszero\n      tag_627\n      jumpi\n        /* \"contracts/MyToken.sol\":12639:12643  this */\n      address\n        /* \"contracts/MyToken.sol\":12623:12645  _tOwned[address(this)] */\n      0x00\n      swap1\n      dup2\n      mstore\n        /* \"contracts/MyToken.sol\":12623:12630  _tOwned */\n      0x02\n        /* \"contracts/MyToken.sol\":12623:12645  _tOwned[address(this)] */\n      0x20\n      mstore\n      0x40\n      swap1\n      keccak256\n      sload\n        /* \"contracts/MyToken.sol\":12623:12661  _tOwned[address(this)].add(tLiquidity) */\n      tag_816\n      swap1\n        /* \"contracts/MyToken.sol\":12650:12660  tLiquidity */\n      dup5\n        /* \"contracts/MyToken.sol\":12623:12649  _tOwned[address(this)].add */\n      tag_404\n        /* \"contracts/MyToken.sol\":12623:12661  _tOwned[address(this)].add(tLiquidity) */\n      jump\t// in\n    tag_816:\n        /* \"contracts/MyToken.sol\":12614:12618  this */\n      address\n        /* \"contracts/MyToken.sol\":12598:12620  _tOwned[address(this)] */\n      0x00\n      swap1\n      dup2\n      mstore\n        /* \"contracts/MyToken.sol\":12598:12605  _tOwned */\n      0x02\n        /* \"contracts/MyToken.sol\":12598:12620  _tOwned[address(this)] */\n      0x20\n      mstore\n      0x40\n      swap1\n      keccak256\n        /* \"contracts/MyToken.sol\":12598:12661  _tOwned[address(this)] = _tOwned[address(this)].add(tLiquidity) */\n      sstore\n        /* \"contracts/MyToken.sol\":12371:12668  {... */\n      pop\n      pop\n        /* \"contracts/MyToken.sol\":12319:12668  function _takeLiquidity(uint256 tLiquidity) private {... */\n      pop\n      jump\t// out\n        /* \"contracts/MyToken.sol\":9877:10021  function _reflectFee(uint256 rFee, uint256 tFee) private {... */\n    tag_778:\n        /* \"contracts/MyToken.sol\":9954:9961  _rTotal */\n      sload(0x08)\n        /* \"contracts/MyToken.sol\":9954:9971  _rTotal.sub(rFee) */\n      tag_818\n      swap1\n        /* \"contracts/MyToken.sol\":9966:9970  rFee */\n      dup4\n        /* \"contracts/MyToken.sol\":9954:9965  _rTotal.sub */\n      tag_413\n        /* \"contracts/MyToken.sol\":9954:9971  _rTotal.sub(rFee) */\n      jump\t// in\n    tag_818:\n        /* \"contracts/MyToken.sol\":9944:9951  _rTotal */\n      0x08\n        /* \"contracts/MyToken.sol\":9944:9971  _rTotal = _rTotal.sub(rFee) */\n      sstore\n        /* \"contracts/MyToken.sol\":9994:10004  _tFeeTotal */\n      sload(0x09)\n        /* \"contracts/MyToken.sol\":9994:10014  _tFeeTotal.add(tFee) */\n      tag_819\n      swap1\n        /* \"contracts/MyToken.sol\":10009:10013  tFee */\n      dup3\n        /* \"contracts/MyToken.sol\":9994:10008  _tFeeTotal.add */\n      tag_404\n        /* \"contracts/MyToken.sol\":9994:10014  _tFeeTotal.add(tFee) */\n      jump\t// in\n    tag_819:\n        /* \"contracts/MyToken.sol\":9981:9991  _tFeeTotal */\n      0x09\n        /* \"contracts/MyToken.sol\":9981:10014  _tFeeTotal = _tFeeTotal.add(tFee) */\n      sstore\n      pop\n      pop\n        /* \"contracts/MyToken.sol\":9877:10021  function _reflectFee(uint256 rFee, uint256 tFee) private {... */\n      jump\t// out\n        /* \"#utility.yul\":14:174   */\n    tag_821:\n        /* \"#utility.yul\":79:99   */\n      dup1\n      calldataload\n        /* \"#utility.yul\":135:148   */\n      dup1\n      iszero\n        /* \"#utility.yul\":128:149   */\n      iszero\n        /* \"#utility.yul\":118:150   */\n      dup2\n      eq\n        /* \"#utility.yul\":108:168   */\n      tag_823\n      jumpi\n        /* \"#utility.yul\":164:165   */\n      0x00\n        /* \"#utility.yul\":161:162   */\n      dup1\n        /* \"#utility.yul\":154:166   */\n      revert\n        /* \"#utility.yul\":108:168   */\n    tag_823:\n        /* \"#utility.yul\":14:174   */\n      swap2\n      swap1\n      pop\n      jump\t// out\n        /* \"#utility.yul\":179:426   */\n    tag_140:\n        /* \"#utility.yul\":238:244   */\n      0x00\n        /* \"#utility.yul\":291:293   */\n      0x20\n        /* \"#utility.yul\":279:288   */\n      dup3\n        /* \"#utility.yul\":270:277   */\n      dup5\n        /* \"#utility.yul\":266:289   */\n      sub\n        /* \"#utility.yul\":262:294   */\n      slt\n        /* \"#utility.yul\":259:311   */\n      iszero\n      tag_825\n      jumpi\n        /* \"#utility.yul\":307:308   */\n      0x00\n        /* \"#utility.yul\":304:305   */\n      dup1\n        /* \"#utility.yul\":297:309   */\n      revert\n        /* \"#utility.yul\":259:311   */\n    tag_825:\n        /* \"#utility.yul\":346:355   */\n      dup2\n        /* \"#utility.yul\":333:356   */\n      calldataload\n        /* \"#utility.yul\":365:396   */\n      tag_368\n        /* \"#utility.yul\":390:395   */\n      dup2\n        /* \"#utility.yul\":365:396   */\n      tag_827\n      jump\t// in\n        /* \"#utility.yul\":431:682   */\n    tag_743:\n        /* \"#utility.yul\":501:507   */\n      0x00\n        /* \"#utility.yul\":554:556   */\n      0x20\n        /* \"#utility.yul\":542:551   */\n      dup3\n        /* \"#utility.yul\":533:540   */\n      dup5\n        /* \"#utility.yul\":529:552   */\n      sub\n        /* \"#utility.yul\":525:557   */\n      slt\n        /* \"#utility.yul\":522:574   */\n      iszero\n      tag_829\n      jumpi\n        /* \"#utility.yul\":570:571   */\n      0x00\n        /* \"#utility.yul\":567:568   */\n      dup1\n        /* \"#utility.yul\":560:572   */\n      revert\n        /* \"#utility.yul\":522:574   */\n    tag_829:\n        /* \"#utility.yul\":602:611   */\n      dup2\n        /* \"#utility.yul\":596:612   */\n      mload\n        /* \"#utility.yul\":621:652   */\n      tag_368\n        /* \"#utility.yul\":646:651   */\n      dup2\n        /* \"#utility.yul\":621:652   */\n      tag_827\n      jump\t// in\n        /* \"#utility.yul\":687:1075   */\n    tag_314:\n        /* \"#utility.yul\":755:761   */\n      0x00\n        /* \"#utility.yul\":763:769   */\n      dup1\n        /* \"#utility.yul\":816:818   */\n      0x40\n        /* \"#utility.yul\":804:813   */\n      dup4\n        /* \"#utility.yul\":795:802   */\n      dup6\n        /* \"#utility.yul\":791:814   */\n      sub\n        /* \"#utility.yul\":787:819   */\n      slt\n        /* \"#utility.yul\":784:836   */\n      iszero\n      tag_832\n      jumpi\n        /* \"#utility.yul\":832:833   */\n      0x00\n        /* \"#utility.yul\":829:830   */\n      dup1\n        /* \"#utility.yul\":822:834   */\n      revert\n        /* \"#utility.yul\":784:836   */\n    tag_832:\n        /* \"#utility.yul\":871:880   */\n      dup3\n        /* \"#utility.yul\":858:881   */\n      calldataload\n        /* \"#utility.yul\":890:921   */\n      tag_833\n        /* \"#utility.yul\":915:920   */\n      dup2\n        /* \"#utility.yul\":890:921   */\n      tag_827\n      jump\t// in\n    tag_833:\n        /* \"#utility.yul\":940:945   */\n      swap2\n      pop\n        /* \"#utility.yul\":997:999   */\n      0x20\n        /* \"#utility.yul\":982:1000   */\n      dup4\n      add\n        /* \"#utility.yul\":969:1001   */\n      calldataload\n        /* \"#utility.yul\":1010:1043   */\n      tag_834\n        /* \"#utility.yul\":969:1001   */\n      dup2\n        /* \"#utility.yul\":1010:1043   */\n      tag_827\n      jump\t// in\n    tag_834:\n        /* \"#utility.yul\":1062:1069   */\n      dup1\n        /* \"#utility.yul\":1052:1069   */\n      swap2\n      pop\n      pop\n        /* \"#utility.yul\":687:1075   */\n      swap3\n      pop\n      swap3\n      swap1\n      pop\n      jump\t// out\n        /* \"#utility.yul\":1080:1536   */\n    tag_124:\n        /* \"#utility.yul\":1157:1163   */\n      0x00\n        /* \"#utility.yul\":1165:1171   */\n      dup1\n        /* \"#utility.yul\":1173:1179   */\n      0x00\n        /* \"#utility.yul\":1226:1228   */\n      0x60\n        /* \"#utility.yul\":1214:1223   */\n      dup5\n        /* \"#utility.yul\":1205:1212   */\n      dup7\n        /* \"#utility.yul\":1201:1224   */\n      sub\n        /* \"#utility.yul\":1197:1229   */\n      slt\n        /* \"#utility.yul\":1194:1246   */\n      iszero\n      tag_836\n      jumpi\n        /* \"#utility.yul\":1242:1243   */\n      0x00\n        /* \"#utility.yul\":1239:1240   */\n      dup1\n        /* \"#utility.yul\":1232:1244   */\n      revert\n        /* \"#utility.yul\":1194:1246   */\n    tag_836:\n        /* \"#utility.yul\":1281:1290   */\n      dup4\n        /* \"#utility.yul\":1268:1291   */\n      calldataload\n        /* \"#utility.yul\":1300:1331   */\n      tag_837\n        /* \"#utility.yul\":1325:1330   */\n      dup2\n        /* \"#utility.yul\":1300:1331   */\n      tag_827\n      jump\t// in\n    tag_837:\n        /* \"#utility.yul\":1350:1355   */\n      swap3\n      pop\n        /* \"#utility.yul\":1407:1409   */\n      0x20\n        /* \"#utility.yul\":1392:1410   */\n      dup5\n      add\n        /* \"#utility.yul\":1379:1411   */\n      calldataload\n        /* \"#utility.yul\":1420:1453   */\n      tag_838\n        /* \"#utility.yul\":1379:1411   */\n      dup2\n        /* \"#utility.yul\":1420:1453   */\n      tag_827\n      jump\t// in\n    tag_838:\n        /* \"#utility.yul\":1080:1536   */\n      swap3\n      swap6\n        /* \"#utility.yul\":1472:1479   */\n      swap3\n      swap5\n      pop\n      pop\n      pop\n        /* \"#utility.yul\":1526:1528   */\n      0x40\n        /* \"#utility.yul\":1511:1529   */\n      swap2\n      swap1\n      swap2\n      add\n        /* \"#utility.yul\":1498:1530   */\n      calldataload\n      swap1\n        /* \"#utility.yul\":1080:1536   */\n      jump\t// out\n        /* \"#utility.yul\":1541:1856   */\n    tag_91:\n        /* \"#utility.yul\":1609:1615   */\n      0x00\n        /* \"#utility.yul\":1617:1623   */\n      dup1\n        /* \"#utility.yul\":1670:1672   */\n      0x40\n        /* \"#utility.yul\":1658:1667   */\n      dup4\n        /* \"#utility.yul\":1649:1656   */\n      dup6\n        /* \"#utility.yul\":1645:1668   */\n      sub\n        /* \"#utility.yul\":1641:1673   */\n      slt\n        /* \"#utility.yul\":1638:1690   */\n      iszero\n      tag_840\n      jumpi\n        /* \"#utility.yul\":1686:1687   */\n      0x00\n        /* \"#utility.yul\":1683:1684   */\n      dup1\n        /* \"#utility.yul\":1676:1688   */\n      revert\n        /* \"#utility.yul\":1638:1690   */\n    tag_840:\n        /* \"#utility.yul\":1725:1734   */\n      dup3\n        /* \"#utility.yul\":1712:1735   */\n      calldataload\n        /* \"#utility.yul\":1744:1775   */\n      tag_841\n        /* \"#utility.yul\":1769:1774   */\n      dup2\n        /* \"#utility.yul\":1744:1775   */\n      tag_827\n      jump\t// in\n    tag_841:\n        /* \"#utility.yul\":1794:1799   */\n      swap5\n        /* \"#utility.yul\":1846:1848   */\n      0x20\n        /* \"#utility.yul\":1831:1849   */\n      swap4\n      swap1\n      swap4\n      add\n        /* \"#utility.yul\":1818:1850   */\n      calldataload\n      swap4\n      pop\n      pop\n      pop\n        /* \"#utility.yul\":1541:1856   */\n      jump\t// out\n        /* \"#utility.yul\":1861:2041   */\n    tag_172:\n        /* \"#utility.yul\":1917:1923   */\n      0x00\n        /* \"#utility.yul\":1970:1972   */\n      0x20\n        /* \"#utility.yul\":1958:1967   */\n      dup3\n        /* \"#utility.yul\":1949:1956   */\n      dup5\n        /* \"#utility.yul\":1945:1968   */\n      sub\n        /* \"#utility.yul\":1941:1973   */\n      slt\n        /* \"#utility.yul\":1938:1990   */\n      iszero\n      tag_843\n      jumpi\n        /* \"#utility.yul\":1986:1987   */\n      0x00\n        /* \"#utility.yul\":1983:1984   */\n      dup1\n        /* \"#utility.yul\":1976:1988   */\n      revert\n        /* \"#utility.yul\":1938:1990   */\n    tag_843:\n        /* \"#utility.yul\":2009:2035   */\n      tag_368\n        /* \"#utility.yul\":2025:2034   */\n      dup3\n        /* \"#utility.yul\":2009:2035   */\n      tag_821\n      jump\t// in\n        /* \"#utility.yul\":2046:2226   */\n    tag_81:\n        /* \"#utility.yul\":2105:2111   */\n      0x00\n        /* \"#utility.yul\":2158:2160   */\n      0x20\n        /* \"#utility.yul\":2146:2155   */\n      dup3\n        /* \"#utility.yul\":2137:2144   */\n      dup5\n        /* \"#utility.yul\":2133:2156   */\n      sub\n        /* \"#utility.yul\":2129:2161   */\n      slt\n        /* \"#utility.yul\":2126:2178   */\n      iszero\n      tag_846\n      jumpi\n        /* \"#utility.yul\":2174:2175   */\n      0x00\n        /* \"#utility.yul\":2171:2172   */\n      dup1\n        /* \"#utility.yul\":2164:2176   */\n      revert\n        /* \"#utility.yul\":2126:2178   */\n    tag_846:\n      pop\n        /* \"#utility.yul\":2197:2220   */\n      calldataload\n      swap2\n        /* \"#utility.yul\":2046:2226   */\n      swap1\n      pop\n      jump\t// out\n        /* \"#utility.yul\":2231:2479   */\n    tag_162:\n        /* \"#utility.yul\":2296:2302   */\n      0x00\n        /* \"#utility.yul\":2304:2310   */\n      dup1\n        /* \"#utility.yul\":2357:2359   */\n      0x40\n        /* \"#utility.yul\":2345:2354   */\n      dup4\n        /* \"#utility.yul\":2336:2343   */\n      dup6\n        /* \"#utility.yul\":2332:2355   */\n      sub\n        /* \"#utility.yul\":2328:2360   */\n      slt\n        /* \"#utility.yul\":2325:2377   */\n      iszero\n      tag_848\n      jumpi\n        /* \"#utility.yul\":2373:2374   */\n      0x00\n        /* \"#utility.yul\":2370:2371   */\n      dup1\n        /* \"#utility.yul\":2363:2375   */\n      revert\n        /* \"#utility.yul\":2325:2377   */\n    tag_848:\n        /* \"#utility.yul\":2409:2418   */\n      dup3\n        /* \"#utility.yul\":2396:2419   */\n      calldataload\n        /* \"#utility.yul\":2386:2419   */\n      swap2\n      pop\n        /* \"#utility.yul\":2438:2473   */\n      tag_849\n        /* \"#utility.yul\":2469:2471   */\n      0x20\n        /* \"#utility.yul\":2458:2467   */\n      dup5\n        /* \"#utility.yul\":2454:2472   */\n      add\n        /* \"#utility.yul\":2438:2473   */\n      tag_821\n      jump\t// in\n    tag_849:\n        /* \"#utility.yul\":2428:2473   */\n      swap1\n      pop\n        /* \"#utility.yul\":2231:2479   */\n      swap3\n      pop\n      swap3\n      swap1\n      pop\n      jump\t// out\n        /* \"#utility.yul\":2484:2790   */\n    tag_761:\n        /* \"#utility.yul\":2572:2578   */\n      0x00\n        /* \"#utility.yul\":2580:2586   */\n      dup1\n        /* \"#utility.yul\":2588:2594   */\n      0x00\n        /* \"#utility.yul\":2641:2643   */\n      0x60\n        /* \"#utility.yul\":2629:2638   */\n      dup5\n        /* \"#utility.yul\":2620:2627   */\n      dup7\n        /* \"#utility.yul\":2616:2639   */\n      sub\n        /* \"#utility.yul\":2612:2644   */\n      slt\n        /* \"#utility.yul\":2609:2661   */\n      iszero\n      tag_851\n      jumpi\n        /* \"#utility.yul\":2657:2658   */\n      0x00\n        /* \"#utility.yul\":2654:2655   */\n      dup1\n        /* \"#utility.yul\":2647:2659   */\n      revert\n        /* \"#utility.yul\":2609:2661   */\n    tag_851:\n        /* \"#utility.yul\":2686:2695   */\n      dup4\n        /* \"#utility.yul\":2680:2696   */\n      mload\n        /* \"#utility.yul\":2670:2696   */\n      swap3\n      pop\n        /* \"#utility.yul\":2736:2738   */\n      0x20\n        /* \"#utility.yul\":2725:2734   */\n      dup5\n        /* \"#utility.yul\":2721:2739   */\n      add\n        /* \"#utility.yul\":2715:2740   */\n      mload\n        /* \"#utility.yul\":2705:2740   */\n      swap2\n      pop\n        /* \"#utility.yul\":2780:2782   */\n      0x40\n        /* \"#utility.yul\":2769:2778   */\n      dup5\n        /* \"#utility.yul\":2765:2783   */\n      add\n        /* \"#utility.yul\":2759:2784   */\n      mload\n        /* \"#utility.yul\":2749:2784   */\n      swap1\n      pop\n        /* \"#utility.yul\":2484:2790   */\n      swap3\n      pop\n      swap3\n      pop\n      swap3\n      jump\t// out\n        /* \"#utility.yul\":4730:5327   */\n    tag_87:\n        /* \"#utility.yul\":4842:4846   */\n      0x00\n        /* \"#utility.yul\":4871:4873   */\n      0x20\n        /* \"#utility.yul\":4900:4902   */\n      dup1\n        /* \"#utility.yul\":4889:4898   */\n      dup4\n        /* \"#utility.yul\":4882:4903   */\n      mstore\n        /* \"#utility.yul\":4932:4938   */\n      dup4\n        /* \"#utility.yul\":4926:4939   */\n      mload\n        /* \"#utility.yul\":4975:4981   */\n      dup1\n        /* \"#utility.yul\":4970:4972   */\n      dup3\n        /* \"#utility.yul\":4959:4968   */\n      dup6\n        /* \"#utility.yul\":4955:4973   */\n      add\n        /* \"#utility.yul\":4948:4982   */\n      mstore\n        /* \"#utility.yul\":5000:5001   */\n      0x00\n        /* \"#utility.yul\":5010:5150   */\n    tag_859:\n        /* \"#utility.yul\":5024:5030   */\n      dup2\n        /* \"#utility.yul\":5021:5022   */\n      dup2\n        /* \"#utility.yul\":5018:5031   */\n      lt\n        /* \"#utility.yul\":5010:5150   */\n      iszero\n      tag_861\n      jumpi\n        /* \"#utility.yul\":5119:5133   */\n      dup6\n      dup2\n      add\n        /* \"#utility.yul\":5115:5138   */\n      dup4\n      add\n        /* \"#utility.yul\":5109:5139   */\n      mload\n        /* \"#utility.yul\":5085:5102   */\n      dup6\n      dup3\n      add\n        /* \"#utility.yul\":5104:5106   */\n      0x40\n        /* \"#utility.yul\":5081:5107   */\n      add\n        /* \"#utility.yul\":5074:5140   */\n      mstore\n        /* \"#utility.yul\":5039:5049   */\n      dup3\n      add\n        /* \"#utility.yul\":5010:5150   */\n      jump(tag_859)\n    tag_861:\n        /* \"#utility.yul\":5168:5174   */\n      dup2\n        /* \"#utility.yul\":5165:5166   */\n      dup2\n        /* \"#utility.yul\":5162:5175   */\n      gt\n        /* \"#utility.yul\":5159:5250   */\n      iszero\n      tag_862\n      jumpi\n        /* \"#utility.yul\":5238:5239   */\n      0x00\n        /* \"#utility.yul\":5233:5235   */\n      0x40\n        /* \"#utility.yul\":5224:5230   */\n      dup4\n        /* \"#utility.yul\":5213:5222   */\n      dup8\n        /* \"#utility.yul\":5209:5231   */\n      add\n        /* \"#utility.yul\":5205:5236   */\n      add\n        /* \"#utility.yul\":5198:5240   */\n      mstore\n        /* \"#utility.yul\":5159:5250   */\n    tag_862:\n      pop\n        /* \"#utility.yul\":5311:5313   */\n      0x1f\n        /* \"#utility.yul\":5290:5305   */\n      add\n      not(0x1f)\n        /* \"#utility.yul\":5286:5315   */\n      and\n        /* \"#utility.yul\":5271:5316   */\n      swap3\n      swap1\n      swap3\n      add\n        /* \"#utility.yul\":5318:5320   */\n      0x40\n        /* \"#utility.yul\":5267:5321   */\n      add\n      swap4\n        /* \"#utility.yul\":4730:5327   */\n      swap3\n      pop\n      pop\n      pop\n      jump\t// out\n        /* \"#utility.yul\":6098:6496   */\n    tag_438:\n        /* \"#utility.yul\":6300:6302   */\n      0x20\n        /* \"#utility.yul\":6282:6303   */\n      dup1\n      dup3\n      mstore\n        /* \"#utility.yul\":6339:6341   */\n      0x22\n        /* \"#utility.yul\":6319:6337   */\n      swap1\n      dup3\n      add\n        /* \"#utility.yul\":6312:6342   */\n      mstore\n        /* \"#utility.yul\":6378:6412   */\n      0x4f6e6c792061646d696e206f7220616e7469206d616e6167657220616c6c6f77\n        /* \"#utility.yul\":6373:6375   */\n      0x40\n        /* \"#utility.yul\":6358:6376   */\n      dup3\n      add\n        /* \"#utility.yul\":6351:6413   */\n      mstore\n      shl(0xf2, 0x1959)\n        /* \"#utility.yul\":6444:6446   */\n      0x60\n        /* \"#utility.yul\":6429:6447   */\n      dup3\n      add\n        /* \"#utility.yul\":6422:6454   */\n      mstore\n        /* \"#utility.yul\":6486:6489   */\n      0x80\n        /* \"#utility.yul\":6471:6490   */\n      add\n      swap1\n        /* \"#utility.yul\":6098:6496   */\n      jump\t// out\n        /* \"#utility.yul\":15417:16397   */\n    tag_748:\n        /* \"#utility.yul\":15679:15683   */\n      0x00\n        /* \"#utility.yul\":15727:15730   */\n      0xa0\n        /* \"#utility.yul\":15716:15725   */\n      dup3\n        /* \"#utility.yul\":15712:15731   */\n      add\n        /* \"#utility.yul\":15758:15764   */\n      dup8\n        /* \"#utility.yul\":15747:15756   */\n      dup4\n        /* \"#utility.yul\":15740:15765   */\n      mstore\n        /* \"#utility.yul\":15784:15786   */\n      0x20\n        /* \"#utility.yul\":15822:15828   */\n      dup8\n        /* \"#utility.yul\":15817:15819   */\n      dup2\n        /* \"#utility.yul\":15806:15815   */\n      dup6\n        /* \"#utility.yul\":15802:15820   */\n      add\n        /* \"#utility.yul\":15795:15829   */\n      mstore\n        /* \"#utility.yul\":15865:15868   */\n      0xa0\n        /* \"#utility.yul\":15860:15862   */\n      0x40\n        /* \"#utility.yul\":15849:15858   */\n      dup6\n        /* \"#utility.yul\":15845:15863   */\n      add\n        /* \"#utility.yul\":15838:15869   */\n      mstore\n        /* \"#utility.yul\":15889:15895   */\n      dup2\n        /* \"#utility.yul\":15924:15930   */\n      dup8\n        /* \"#utility.yul\":15918:15931   */\n      mload\n        /* \"#utility.yul\":15955:15961   */\n      dup1\n        /* \"#utility.yul\":15947:15953   */\n      dup5\n        /* \"#utility.yul\":15940:15962   */\n      mstore\n        /* \"#utility.yul\":15993:15996   */\n      0xc0\n        /* \"#utility.yul\":15982:15991   */\n      dup7\n        /* \"#utility.yul\":15978:15997   */\n      add\n        /* \"#utility.yul\":15971:15997   */\n      swap2\n      pop\n        /* \"#utility.yul\":16032:16034   */\n      dup3\n        /* \"#utility.yul\":16024:16030   */\n      dup10\n        /* \"#utility.yul\":16020:16035   */\n      add\n        /* \"#utility.yul\":16006:16035   */\n      swap4\n      pop\n        /* \"#utility.yul\":16053:16054   */\n      0x00\n        /* \"#utility.yul\":16063:16258   */\n    tag_890:\n        /* \"#utility.yul\":16077:16083   */\n      dup2\n        /* \"#utility.yul\":16074:16075   */\n      dup2\n        /* \"#utility.yul\":16071:16084   */\n      lt\n        /* \"#utility.yul\":16063:16258   */\n      iszero\n      tag_892\n      jumpi\n        /* \"#utility.yul\":16142:16155   */\n      dup5\n      mload\n      sub(shl(0xa0, 0x01), 0x01)\n        /* \"#utility.yul\":16138:16177   */\n      and\n        /* \"#utility.yul\":16126:16178   */\n      dup4\n      mstore\n        /* \"#utility.yul\":16233:16248   */\n      swap4\n      dup4\n      add\n      swap4\n        /* \"#utility.yul\":16198:16210   */\n      swap2\n      dup4\n      add\n      swap2\n        /* \"#utility.yul\":16174:16175   */\n      0x01\n        /* \"#utility.yul\":16092:16101   */\n      add\n        /* \"#utility.yul\":16063:16258   */\n      jump(tag_890)\n    tag_892:\n      pop\n      pop\n      sub(shl(0xa0, 0x01), 0x01)\n        /* \"#utility.yul\":16314:16346   */\n      swap7\n      swap1\n      swap7\n      and\n        /* \"#utility.yul\":16309:16311   */\n      0x60\n        /* \"#utility.yul\":16294:16312   */\n      dup6\n      add\n        /* \"#utility.yul\":16287:16347   */\n      mstore\n      pop\n      pop\n      pop\n        /* \"#utility.yul\":16378:16381   */\n      0x80\n        /* \"#utility.yul\":16363:16382   */\n      add\n        /* \"#utility.yul\":16356:16391   */\n      mstore\n        /* \"#utility.yul\":16275:16278   */\n      swap4\n        /* \"#utility.yul\":15417:16397   */\n      swap3\n      pop\n      pop\n      pop\n      jump\t// out\n        /* \"#utility.yul\":16915:17043   */\n    tag_613:\n        /* \"#utility.yul\":16955:16958   */\n      0x00\n        /* \"#utility.yul\":16986:16987   */\n      dup3\n        /* \"#utility.yul\":16982:16988   */\n      not\n        /* \"#utility.yul\":16979:16980   */\n      dup3\n        /* \"#utility.yul\":16976:16989   */\n      gt\n        /* \"#utility.yul\":16973:17012   */\n      iszero\n      tag_897\n      jumpi\n        /* \"#utility.yul\":16992:17010   */\n      tag_897\n      tag_898\n      jump\t// in\n    tag_897:\n      pop\n        /* \"#utility.yul\":17028:17037   */\n      add\n      swap1\n        /* \"#utility.yul\":16915:17043   */\n      jump\t// out\n        /* \"#utility.yul\":17048:17265   */\n    tag_592:\n        /* \"#utility.yul\":17088:17089   */\n      0x00\n        /* \"#utility.yul\":17114:17115   */\n      dup3\n        /* \"#utility.yul\":17104:17236   */\n      tag_900\n      jumpi\n        /* \"#utility.yul\":17158:17168   */\n      0x4e487b71\n        /* \"#utility.yul\":17153:17156   */\n      0xe0\n        /* \"#utility.yul\":17149:17169   */\n      shl\n        /* \"#utility.yul\":17146:17147   */\n      0x00\n        /* \"#utility.yul\":17139:17170   */\n      mstore\n        /* \"#utility.yul\":17193:17197   */\n      0x12\n        /* \"#utility.yul\":17190:17191   */\n      0x04\n        /* \"#utility.yul\":17183:17198   */\n      mstore\n        /* \"#utility.yul\":17221:17225   */\n      0x24\n        /* \"#utility.yul\":17218:17219   */\n      0x00\n        /* \"#utility.yul\":17211:17226   */\n      revert\n        /* \"#utility.yul\":17104:17236   */\n    tag_900:\n      pop\n        /* \"#utility.yul\":17250:17259   */\n      div\n      swap1\n        /* \"#utility.yul\":17048:17265   */\n      jump\t// out\n        /* \"#utility.yul\":17270:17438   */\n    tag_590:\n        /* \"#utility.yul\":17310:17317   */\n      0x00\n        /* \"#utility.yul\":17376:17377   */\n      dup2\n        /* \"#utility.yul\":17372:17373   */\n      0x00\n        /* \"#utility.yul\":17368:17374   */\n      not\n        /* \"#utility.yul\":17364:17378   */\n      div\n        /* \"#utility.yul\":17361:17362   */\n      dup4\n        /* \"#utility.yul\":17358:17379   */\n      gt\n        /* \"#utility.yul\":17353:17354   */\n      dup3\n        /* \"#utility.yul\":17346:17355   */\n      iszero\n        /* \"#utility.yul\":17339:17356   */\n      iszero\n        /* \"#utility.yul\":17335:17380   */\n      and\n        /* \"#utility.yul\":17332:17403   */\n      iszero\n      tag_903\n      jumpi\n        /* \"#utility.yul\":17383:17401   */\n      tag_903\n      tag_898\n      jump\t// in\n    tag_903:\n      pop\n        /* \"#utility.yul\":17423:17432   */\n      mul\n      swap1\n        /* \"#utility.yul\":17270:17438   */\n      jump\t// out\n        /* \"#utility.yul\":17443:17568   */\n    tag_386:\n        /* \"#utility.yul\":17483:17487   */\n      0x00\n        /* \"#utility.yul\":17511:17512   */\n      dup3\n        /* \"#utility.yul\":17508:17509   */\n      dup3\n        /* \"#utility.yul\":17505:17513   */\n      lt\n        /* \"#utility.yul\":17502:17536   */\n      iszero\n      tag_906\n      jumpi\n        /* \"#utility.yul\":17516:17534   */\n      tag_906\n      tag_898\n      jump\t// in\n    tag_906:\n      pop\n        /* \"#utility.yul\":17553:17562   */\n      sub\n      swap1\n        /* \"#utility.yul\":17443:17568   */\n      jump\t// out\n        /* \"#utility.yul\":17573:17953   */\n    tag_342:\n        /* \"#utility.yul\":17652:17653   */\n      0x01\n        /* \"#utility.yul\":17648:17660   */\n      dup2\n      dup2\n      shr\n      swap1\n        /* \"#utility.yul\":17695:17707   */\n      dup3\n      and\n      dup1\n        /* \"#utility.yul\":17716:17777   */\n      tag_908\n      jumpi\n        /* \"#utility.yul\":17770:17774   */\n      0x7f\n        /* \"#utility.yul\":17762:17768   */\n      dup3\n        /* \"#utility.yul\":17758:17775   */\n      and\n        /* \"#utility.yul\":17748:17775   */\n      swap2\n      pop\n        /* \"#utility.yul\":17716:17777   */\n    tag_908:\n        /* \"#utility.yul\":17823:17825   */\n      0x20\n        /* \"#utility.yul\":17815:17821   */\n      dup3\n        /* \"#utility.yul\":17812:17826   */\n      lt\n        /* \"#utility.yul\":17792:17810   */\n      dup2\n        /* \"#utility.yul\":17789:17827   */\n      eq\n        /* \"#utility.yul\":17786:17947   */\n      iszero\n      tag_909\n      jumpi\n        /* \"#utility.yul\":17869:17879   */\n      0x4e487b71\n        /* \"#utility.yul\":17864:17867   */\n      0xe0\n        /* \"#utility.yul\":17860:17880   */\n      shl\n        /* \"#utility.yul\":17857:17858   */\n      0x00\n        /* \"#utility.yul\":17850:17881   */\n      mstore\n        /* \"#utility.yul\":17904:17908   */\n      0x22\n        /* \"#utility.yul\":17901:17902   */\n      0x04\n        /* \"#utility.yul\":17894:17909   */\n      mstore\n        /* \"#utility.yul\":17932:17936   */\n      0x24\n        /* \"#utility.yul\":17929:17930   */\n      0x00\n        /* \"#utility.yul\":17922:17937   */\n      revert\n        /* \"#utility.yul\":17786:17947   */\n    tag_909:\n      pop\n        /* \"#utility.yul\":17573:17953   */\n      swap2\n      swap1\n      pop\n      jump\t// out\n        /* \"#utility.yul\":17958:18093   */\n    tag_398:\n        /* \"#utility.yul\":17997:18000   */\n      0x00\n      not(0x00)\n        /* \"#utility.yul\":18018:18035   */\n      dup3\n      eq\n        /* \"#utility.yul\":18015:18058   */\n      iszero\n      tag_912\n      jumpi\n        /* \"#utility.yul\":18038:18056   */\n      tag_912\n      tag_898\n      jump\t// in\n    tag_912:\n      pop\n        /* \"#utility.yul\":18085:18086   */\n      0x01\n        /* \"#utility.yul\":18074:18087   */\n      add\n      swap1\n        /* \"#utility.yul\":17958:18093   */\n      jump\t// out\n        /* \"#utility.yul\":18098:18225   */\n    tag_898:\n        /* \"#utility.yul\":18159:18169   */\n      0x4e487b71\n        /* \"#utility.yul\":18154:18157   */\n      0xe0\n        /* \"#utility.yul\":18150:18170   */\n      shl\n        /* \"#utility.yul\":18147:18148   */\n      0x00\n        /* \"#utility.yul\":18140:18171   */\n      mstore\n        /* \"#utility.yul\":18190:18194   */\n      0x11\n        /* \"#utility.yul\":18187:18188   */\n      0x04\n        /* \"#utility.yul\":18180:18195   */\n      mstore\n        /* \"#utility.yul\":18214:18218   */\n      0x24\n        /* \"#utility.yul\":18211:18212   */\n      0x00\n        /* \"#utility.yul\":18204:18219   */\n      revert\n        /* \"#utility.yul\":18230:18357   */\n    tag_395:\n        /* \"#utility.yul\":18291:18301   */\n      0x4e487b71\n        /* \"#utility.yul\":18286:18289   */\n      0xe0\n        /* \"#utility.yul\":18282:18302   */\n      shl\n        /* \"#utility.yul\":18279:18280   */\n      0x00\n        /* \"#utility.yul\":18272:18303   */\n      mstore\n        /* \"#utility.yul\":18322:18326   */\n      0x31\n        /* \"#utility.yul\":18319:18320   */\n      0x04\n        /* \"#utility.yul\":18312:18327   */\n      mstore\n        /* \"#utility.yul\":18346:18350   */\n      0x24\n        /* \"#utility.yul\":18343:18344   */\n      0x00\n        /* \"#utility.yul\":18336:18351   */\n      revert\n        /* \"#utility.yul\":18362:18489   */\n    tag_382:\n        /* \"#utility.yul\":18423:18433   */\n      0x4e487b71\n        /* \"#utility.yul\":18418:18421   */\n      0xe0\n        /* \"#utility.yul\":18414:18434   */\n      shl\n        /* \"#utility.yul\":18411:18412   */\n      0x00\n        /* \"#utility.yul\":18404:18435   */\n      mstore\n        /* \"#utility.yul\":18454:18458   */\n      0x32\n        /* \"#utility.yul\":18451:18452   */\n      0x04\n        /* \"#utility.yul\":18444:18459   */\n      mstore\n        /* \"#utility.yul\":18478:18482   */\n      0x24\n        /* \"#utility.yul\":18475:18476   */\n      0x00\n        /* \"#utility.yul\":18468:18483   */\n      revert\n        /* \"#utility.yul\":18626:18757   */\n    tag_827:\n      sub(shl(0xa0, 0x01), 0x01)\n        /* \"#utility.yul\":18701:18732   */\n      dup2\n      and\n        /* \"#utility.yul\":18691:18733   */\n      dup2\n      eq\n        /* \"#utility.yul\":18681:18751   */\n      tag_549\n      jumpi\n        /* \"#utility.yul\":18747:18748   */\n      0x00\n        /* \"#utility.yul\":18744:18745   */\n      dup1\n        /* \"#utility.yul\":18737:18749   */\n      revert\n    stop\n    data_4f3506f4ba71c79c3cbd442a3afeb30e9b27af2d84e116a4385b34e267d2287e 42455032303a207472616e7366657220616d6f756e74206578636565647320616c6c6f77616e6365\n    data_b7060b3538dcd3ddc8a941c91636a8115a1aa46914747fd9809d543bbb46cd22 42455032303a2064656372656173656420616c6c6f77616e63652062656c6f77207a65726f\n\n    auxdata: 0xa264697066735822122020955769f4dc6c0af072ba7026476cba804cfb8d88c7106ec059d4363187ea5764736f6c63430008070033\n}\n",
				"bytecode": {
					"linkReferences": {},
					"object": "60806040526b1921a082258a73bfc32400006007819055620000249060001962000766565b6200003290600019620006f1565b60085560408051808201909152600c8082526b26b2ba3096b837b5b2b6b7b760a11b60209092019182526200006a91600a9162000568565b50604080518082019091526007808252663837b5b2b6b7b760c91b60209092019182526200009b91600b9162000568565b50600c805460ff191660129081179091556002600d819055600e8190556001600f819055601081905560118290559181905560138190556015819055601681905560179190915560188190556019556005601a55601f805460ff60a81b1916905569d3c21bcecceda1000000602090815560408051610160810182526201008e81526201f81c9281019290925262040583908201526207f4476060820152620ffc196080820152621fd8f060a0820152623fffad60c0820152627ff82e60e0820152630101863b610100820152630200271a6101208201526304030d336101408201526200018e90602190600b620005f7565b503480156200019c57600080fd5b50604051620036e7380380620036e7833981016040819052620001bf916200067b565b620001ca3362000518565b601480546001600160a01b0319166001600160a01b0384811691909117909155601d8054610100600160a81b0319166101009284169290920291909117905560085460016000620002183390565b6001600160a01b03166001600160a01b0316815260200190815260200160002081905550826001600160a01b031663c45a01556040518163ffffffff1660e01b815260040160206040518083038186803b1580156200027657600080fd5b505afa1580156200028b573d6000803e3d6000fd5b505050506040513d601f19601f82011682018060405250810190620002b1919062000654565b6001600160a01b031663c9c6539630856001600160a01b031663ad5c46486040518163ffffffff1660e01b815260040160206040518083038186803b158015620002fa57600080fd5b505afa1580156200030f573d6000803e3d6000fd5b505050506040513d601f19601f8201168201806040525081019062000335919062000654565b6040516001600160e01b031960e085901b1681526001600160a01b03928316600482015291166024820152604401602060405180830381600087803b1580156200037e57600080fd5b505af115801562000393573d6000803e3d6000fd5b505050506040513d601f19601f82011682018060405250810190620003b9919062000654565b601f80546001600160a01b03199081166001600160a01b0393841617909155601e8054909116918516919091179055600160046000620004016000546001600160a01b031690565b6001600160a01b03908116825260208083019390935260409182016000908120805495151560ff19968716179055908516815260049092528082208054841660019081179091553083529082208054909316179091555b602154811015620004d3576001601c6000602184815481106200047f576200047f6200079f565b9060005260206000200154670de0b6b3a76400006200049f9190620006cf565b81526020810191909152604001600020805460ff191691151591909117905580620004ca8162000748565b91505062000458565b5060075460405190815233906000907fddf252ad1be2c89b69c2b068fc378daa952ba7f163c4a11628f55a4df523b3ef9060200160405180910390a3505050620007ce565b600080546001600160a01b038381166001600160a01b0319831681178455604051919092169283917f8be0079c531659141344cd1fd0a4f28419497f9722a3daafe3b4186f6b6457e09190a35050565b82805462000576906200070b565b90600052602060002090601f0160209004810192826200059a5760008555620005e5565b82601f10620005b557805160ff1916838001178555620005e5565b82800160010185558215620005e5579182015b82811115620005e5578251825591602001919060010190620005c8565b50620005f39291506200063d565b5090565b828054828255906000526020600020908101928215620005e5579160200282015b82811115620005e5578251829063ffffffff1690559160200191906001019062000618565b5b80821115620005f357600081556001016200063e565b6000602082840312156200066757600080fd5b81516200067481620007b5565b9392505050565b6000806000606084860312156200069157600080fd5b83516200069e81620007b5565b6020850151909350620006b181620007b5565b6040850151909250620006c481620007b5565b809150509250925092565b6000816000190483118215151615620006ec57620006ec62000789565b500290565b60008282101562000706576200070662000789565b500390565b600181811c908216806200072057607f821691505b602082108114156200074257634e487b7160e01b600052602260045260246000fd5b50919050565b60006000198214156200075f576200075f62000789565b5060010190565b6000826200078457634e487b7160e01b600052601260045260246000fd5b500690565b634e487b7160e01b600052601160045260246000fd5b634e487b7160e01b600052603260045260246000fd5b6001600160a01b0381168114620007cb57600080fd5b50565b612f0980620007de6000396000f3fe6080604052600436106103855760003560e01c80636bc87c3a116101d1578063a9059cbb11610102578063d0e03523116100a0578063e1e144de1161006f578063e1e144de14610a4b578063ea2f0b3714610a6c578063ebf7866314610a8c578063f2fde38b14610aac57600080fd5b8063d0e03523146109a6578063d5bde46c146109c6578063d8c6404b146109eb578063dd62ed3e14610a0557600080fd5b8063c2c7c03a116100dc578063c2c7c03a14610930578063c49b9a8014610950578063c860795214610970578063cea269581461098657600080fd5b8063a9059cbb146108da578063a928681c146108fa578063c0b0fda21461091a57600080fd5b806388790a681161016f5780638ee88c53116101495780638ee88c531461086557806395d89b41146108855780639655cab51461089a578063a457c2d7146108ba57600080fd5b806388790a68146107f857806388f820201461080e5780638da5cb5b1461084757600080fd5b806374fb20e1116101ab57806374fb20e11461078d57806375f0a874146107a25780637abdc1ca146107c2578063882cfb3f146107d857600080fd5b80636bc87c3a1461074257806370a0823114610758578063715018a61461077857600080fd5b80633b124fe7116102b657806352390c02116102545780635d098b38116102235780635d098b38146106cc578063611bf629146106ec578063632a6a351461070c57806364a06e801461072c57600080fd5b806352390c02146106395780635342acb41461065957806357d87f0d146106925780635876ccc5146106ac57600080fd5b80634549b039116102905780634549b039146105b8578063457c194c146105d85780634a5566bf146105f85780634a74bb021461061857600080fd5b80633b124fe7146105625780633bd5d17314610578578063437823ec1461059857600080fd5b8063200a692d116103235780632d838119116102fd5780632d838119146104e0578063313ce567146105005780633685d41914610522578063395093511461054257600080fd5b8063200a692d1461049457806322976e0d146104aa57806323b872dd146104c057600080fd5b80630a7d2d871161035f5780630a7d2d871461040e57806313114a9d1461043257806318160ddd146104475780631a4cd1b11461045c57600080fd5b8063061c82d01461039157806306fdde03146103b3578063095ea7b3146103de57600080fd5b3661038c57005b600080fd5b34801561039d57600080fd5b506103b16103ac366004612bee565b610acc565b005b3480156103bf57600080fd5b506103c8610b2f565b6040516103d59190612c61565b60405180910390f35b3480156103ea57600080fd5b506103fe6103f9366004612ba7565b610bc1565b60405190151581526020016103d5565b34801561041a57600080fd5b50610424601a5481565b6040519081526020016103d5565b34801561043e57600080fd5b50600954610424565b34801561045357600080fd5b50600754610424565b34801561046857600080fd5b50601e5461047c906001600160a01b031681565b6040516001600160a01b0390911681526020016103d5565b3480156104a057600080fd5b5061042460165481565b3480156104b657600080fd5b5061042460135481565b3480156104cc57600080fd5b506103fe6104db366004612b66565b610bd8565b3480156104ec57600080fd5b506104246104fb366004612bee565b610c41565b34801561050c57600080fd5b50600c5460405160ff90911681526020016103d5565b34801561052e57600080fd5b506103b161053d366004612af3565b610cc5565b34801561054e57600080fd5b506103fe61055d366004612ba7565b610e5a565b34801561056e57600080fd5b50610424600d5481565b34801561058457600080fd5b506103b1610593366004612bee565b610e90565b3480156105a457600080fd5b506103b16105b3366004612af3565b610f7a565b3480156105c457600080fd5b506104246105d3366004612c07565b610fa6565b3480156105e457600080fd5b506103b16105f3366004612bee565b611033565b34801561060457600080fd5b506103b1610613366004612bd3565b61109f565b34801561062457600080fd5b50601f546103fe90600160a81b900460ff1681565b34801561064557600080fd5b506103b1610654366004612af3565b6110f6565b34801561066557600080fd5b506103fe610674366004612af3565b6001600160a01b031660009081526004602052604090205460ff1690565b34801561069e57600080fd5b50601b546103fe9060ff1681565b3480156106b857600080fd5b506103b16106c7366004612bee565b611290565b3480156106d857600080fd5b506103b16106e7366004612af3565b611301565b3480156106f857600080fd5b506103b1610707366004612af3565b61132b565b34801561071857600080fd5b50601f5461047c906001600160a01b031681565b34801561073857600080fd5b506104246103e881565b34801561074e57600080fd5b50610424600f5481565b34801561076457600080fd5b50610424610773366004612af3565b611355565b34801561078457600080fd5b506103b16113b4565b34801561079957600080fd5b506103b16113c8565b3480156107ae57600080fd5b5060145461047c906001600160a01b031681565b3480156107ce57600080fd5b5061042460195481565b3480156107e457600080fd5b5060225461047c906001600160a01b031681565b34801561080457600080fd5b5061042460175481565b34801561081a57600080fd5b506103fe610829366004612af3565b6001600160a01b031660009081526005602052604090205460ff1690565b34801561085357600080fd5b506000546001600160a01b031661047c565b34801561087157600080fd5b506103b1610880366004612bee565b6113fc565b34801561089157600080fd5b506103c8611468565b3480156108a657600080fd5b506103b16108b5366004612bee565b611477565b3480156108c657600080fd5b506103fe6108d5366004612ba7565b611550565b3480156108e657600080fd5b506103fe6108f5366004612ba7565b61159f565b34801561090657600080fd5b506103b1610915366004612bee565b6115ac565b34801561092657600080fd5b5061042460115481565b34801561093c57600080fd5b506103b161094b366004612bd3565b61161d565b34801561095c57600080fd5b506103b161096b366004612bd3565b611674565b34801561097c57600080fd5b5061042460185481565b34801561099257600080fd5b506103b16109a1366004612bee565b6116d4565b3480156109b257600080fd5b506103b16109c1366004612bee565b611732565b3480156109d257600080fd5b50601d5461047c9061010090046001600160a01b031681565b3480156109f757600080fd5b50601d546103fe9060ff1681565b348015610a1157600080fd5b50610424610a20366004612b2d565b6001600160a01b03918216600090815260036020908152604080832093909416825291909152205490565b348015610a5757600080fd5b506022546103fe90600160a01b900460ff1681565b348015610a7857600080fd5b506103b1610a87366004612af3565b61179c565b348015610a9857600080fd5b506103b1610aa7366004612bee565b6117c5565b348015610ab857600080fd5b506103b1610ac7366004612af3565b611831565b610ad46118aa565b600a811115610b2a5760405162461bcd60e51b815260206004820152601f60248201527f546178206665652063616e6e6f74206265206d6f7265207468616e203130250060448201526064015b60405180910390fd5b600d55565b6060600a8054610b3e90612dd9565b80601f0160208091040260200160405190810160405280929190818152602001828054610b6a90612dd9565b8015610bb75780601f10610b8c57610100808354040283529160200191610bb7565b820191906000526020600020905b815481529060010190602001808311610b9a57829003601f168201915b5050505050905090565b6000610bce338484611904565b5060015b92915050565b6000610be5848484611a28565b610c378433610c3285604051806060016040528060288152602001612e87602891396001600160a01b038a1660009081526003602090815260408083203384529091529020549190611d10565b611904565b5060019392505050565b6000600854821115610ca85760405162461bcd60e51b815260206004820152602a60248201527f416d6f756e74206d757374206265206c657373207468616e20746f74616c207260448201526965666c656374696f6e7360b01b6064820152608401610b21565b6000610cb2611d3c565b9050610cbe8382611d5f565b9392505050565b610ccd6118aa565b6001600160a01b03811660009081526005602052604090205460ff16610d355760405162461bcd60e51b815260206004820152601b60248201527f4163636f756e7420697320616c7265616479206578636c7564656400000000006044820152606401610b21565b60005b600654811015610e5657816001600160a01b031660068281548110610d5f57610d5f612e5b565b6000918252602090912001546001600160a01b03161415610e445760068054610d8a90600190612dc2565b81548110610d9a57610d9a612e5b565b600091825260209091200154600680546001600160a01b039092169183908110610dc657610dc6612e5b565b600091825260208083209190910180546001600160a01b0319166001600160a01b039485161790559184168152600282526040808220829055600590925220805460ff191690556006805480610e1e57610e1e612e45565b600082815260209020810160001990810180546001600160a01b03191690550190555050565b80610e4e81612e14565b915050610d38565b5050565b3360008181526003602090815260408083206001600160a01b03871684529091528120549091610bce918590610c329086611d6b565b3360008181526005602052604090205460ff1615610f055760405162461bcd60e51b815260206004820152602c60248201527f4578636c75646564206164647265737365732063616e6e6f742063616c6c207460448201526b3434b990333ab731ba34b7b760a11b6064820152608401610b21565b6000610f1083611d77565b505050506001600160a01b038416600090815260016020526040902054919250610f3c91905082611dc6565b6001600160a01b038316600090815260016020526040902055600854610f629082611dc6565b600855600954610f729084611d6b565b600955505050565b610f826118aa565b6001600160a01b03166000908152600460205260409020805460ff19166001179055565b6000600754831115610ffa5760405162461bcd60e51b815260206004820152601f60248201527f416d6f756e74206d757374206265206c657373207468616e20737570706c79006044820152606401610b21565b8161101957600061100a84611d77565b50939550610bd2945050505050565b600061102484611d77565b50929550610bd2945050505050565b61103b6118aa565b600a81111561109a5760405162461bcd60e51b815260206004820152602560248201527f4d61726b6574696e67206665652063616e6e6f74206265206d6f7265207468616044820152646e2031302560d81b6064820152608401610b21565b601355565b6000546001600160a01b03163314806110c75750601d5461010090046001600160a01b031633145b6110e35760405162461bcd60e51b8152600401610b2190612cb6565b601b805460ff1916911515919091179055565b6110fe6118aa565b601e546001600160a01b03828116911614156111675760405162461bcd60e51b815260206004820152602260248201527f57652063616e206e6f74206578636c7564652050616e63616b6520726f757465604482015261391760f11b6064820152608401610b21565b6001600160a01b03811660009081526005602052604090205460ff16156111d05760405162461bcd60e51b815260206004820152601b60248201527f4163636f756e7420697320616c7265616479206578636c7564656400000000006044820152606401610b21565b6001600160a01b0381166000908152600160205260409020541561122a576001600160a01b03811660009081526001602052604090205461121090610c41565b6001600160a01b0382166000908152600260205260409020555b6001600160a01b03166000818152600560205260408120805460ff191660019081179091556006805491820181559091527ff652222313e28459528d920b65115c16c04f3efc82aaedc97be59f3f377c0d3f0180546001600160a01b0319169091179055565b6112986118aa565b600a8111156112fc5760405162461bcd60e51b815260206004820152602a60248201527f53656c6c206c6971756964697479206665652063616e6e6f74206265206d6f7260448201526965207468616e2031302560b01b6064820152608401610b21565b601755565b6113096118aa565b601480546001600160a01b0319166001600160a01b0392909216919091179055565b6113336118aa565b602280546001600160a01b0319166001600160a01b0392909216919091179055565b6001600160a01b03811660009081526005602052604081205460ff161561139257506001600160a01b031660009081526002602052604090205490565b6001600160a01b038216600090815260016020526040902054610bd290610c41565b6113bc6118aa565b6113c66000611dd2565b565b6113d06118aa565b602254600160a01b900460ff16156113e757600080fd5b6022805460ff60a01b1916600160a01b179055565b6114046118aa565b600a8111156114635760405162461bcd60e51b815260206004820152602560248201527f4c6971756964697479206665652063616e6e6f74206265206d6f7265207468616044820152646e2031302560d81b6064820152608401610b21565b600f55565b6060600b8054610b3e90612dd9565b61147f6118aa565b60018110156114e65760405162461bcd60e51b815260206004820152602d60248201527f4d617820686f6c64696e672070657263656e74732063616e6e6f74206265206c60448201526c657373207468616e20302e312560981b6064820152608401610b21565b601e81111561154b5760405162461bcd60e51b815260206004820152602b60248201527f4d617820686f6c64696e672070657263656e74732063616e6e6f74206265206d60448201526a6f7265207468616e20332560a81b6064820152608401610b21565b601a55565b6000610bce3384610c3285604051806060016040528060258152602001612eaf602591393360009081526003602090815260408083206001600160a01b038d1684529091529020549190611d10565b6000610bce338484611a28565b6115b46118aa565b600a8111156116185760405162461bcd60e51b815260206004820152602a60248201527f53656c6c206d61726b6574696e67206665652063616e6e6f74206265206d6f7260448201526965207468616e2031302560b01b6064820152608401610b21565b601855565b6000546001600160a01b03163314806116455750601d5461010090046001600160a01b031633145b6116615760405162461bcd60e51b8152600401610b2190612cb6565b601d805460ff1916911515919091179055565b61167c6118aa565b601f8054821515600160a81b0260ff60a81b199091161790556040517f53726dfcaf90650aa7eb35524f4d3220f07413c8d6cb404cc8c18bf5591bc159906116c990831515815260200190565b60405180910390a150565b6116dc6118aa565b600a81111561172d5760405162461bcd60e51b815260206004820181905260248201527f4275726e206665652063616e6e6f74206265206d6f7265207468616e203130256044820152606401610b21565b601155565b61173a6118aa565b600a8111156117975760405162461bcd60e51b8152602060048201526024808201527f53656c6c20746178206665652063616e6e6f74206265206d6f7265207468616e6044820152632031302560e01b6064820152608401610b21565b601655565b6117a46118aa565b6001600160a01b03166000908152600460205260409020805460ff19169055565b6117cd6118aa565b600a81111561182c5760405162461bcd60e51b815260206004820152602560248201527f53656c6c206275726e206665652063616e6e6f74206265206d6f7265207468616044820152646e2031302560d81b6064820152608401610b21565b601955565b6118396118aa565b6001600160a01b03811661189e5760405162461bcd60e51b815260206004820152602660248201527f4f776e61626c653a206e6577206f776e657220697320746865207a65726f206160448201526564647265737360d01b6064820152608401610b21565b6118a781611dd2565b50565b6000546001600160a01b031633146113c65760405162461bcd60e51b815260206004820181905260248201527f4f776e61626c653a2063616c6c6572206973206e6f7420746865206f776e65726044820152606401610b21565b6001600160a01b0383166119665760405162461bcd60e51b8152602060048201526024808201527f42455032303a20617070726f76652066726f6d20746865207a65726f206164646044820152637265737360e01b6064820152608401610b21565b6001600160a01b0382166119c75760405162461bcd60e51b815260206004820152602260248201527f42455032303a20617070726f766520746f20746865207a65726f206164647265604482015261737360f01b6064820152608401610b21565b6001600160a01b0383811660008181526003602090815260408083209487168084529482529182902085905590518481527f8c5be1e5ebec7d5bd14f71427d1e84f3dd0314c0f7b2291e5b200ac8c7c3b925910160405180910390a3505050565b6001600160a01b038316611a8c5760405162461bcd60e51b815260206004820152602560248201527f42455032303a207472616e736665722066726f6d20746865207a65726f206164604482015264647265737360d81b6064820152608401610b21565b60008111611aee5760405162461bcd60e51b815260206004820152602960248201527f5472616e7366657220616d6f756e74206d7573742062652067726561746572206044820152687468616e207a65726f60b81b6064820152608401610b21565b611af9838383611e22565b601d5460ff168015611b185750601f546001600160a01b038481169116145b15611b7b576000818152601c602052604090205460ff16611b7b5760405162461bcd60e51b815260206004820152601860248201527f4f6e6c7920616c6c6f7765642062757920616d6f756e747300000000000000006044820152606401610b21565b6000611b8630611355565b60205490915081108015908190611ba75750601f54600160a01b900460ff16155b8015611bc15750601f546001600160a01b03868116911614155b8015611bd65750601f54600160a81b900460ff165b15611be9576020549150611be982611eec565b611bf4858585611f93565b601b5460ff1615611d095760006103e8601a54600754611c149190612da3565b611c1e9190612d81565b601f549091506001600160a01b0386811691161415611ca35780841115611c9e5760405162461bcd60e51b815260206004820152602e60248201527f5472616e73616374656420616d6f756e742065786365656420746865206d617860448201526d20616c6c6f7765642076616c756560901b6064820152608401610b21565b611d07565b80611cad86611355565b1115611d075760405162461bcd60e51b8152602060048201526024808201527f57616c6c65742062616c616e6365206578636565647320746865206d6178206c6044820152631a5b5a5d60e21b6064820152608401610b21565b505b5050505050565b60008184841115611d345760405162461bcd60e51b8152600401610b219190612c61565b505050900390565b6000806000611d496122c0565b9092509050611d588282611d5f565b9250505090565b6000610cbe8284612d81565b6000610cbe8284612d69565b6000806000806000806000806000611d8e8a612442565b9250925092506000806000611dac8d8686611da7611d3c565b61247e565b919f909e50909c50959a5093985091965092945050505050565b6000610cbe8284612dc2565b600080546001600160a01b038381166001600160a01b0319831681178455604051919092169283917f8be0079c531659141344cd1fd0a4f28419497f9722a3daafe3b4186f6b6457e09190a35050565b6001600160a01b0383161580611e3f57506001600160a01b038216155b15611e4957505050565b602254600160a01b900460ff16158015611e6d57506022546001600160a01b031615155b15611ee757602254604051635d37a8dd60e01b81523360048201526001600160a01b03858116602483015284811660448301526064820184905290911690635d37a8dd90608401600060405180830381600087803b158015611ece57600080fd5b505af1158015611ee2573d6000803e3d6000fd5b505050505b505050565b601f805460ff60a01b1916600160a01b1790556000611f0c826002611d5f565b90506000611f1a8383611dc6565b905047611f26836124ce565b6000611f324783611dc6565b9050611f3e838261262f565b60408051858152602081018390529081018490527f17bbfb9a6069321b6ded73bd96327c9e6b7212a5cd51ff219cd61370acafb5619060600160405180910390a15050601f805460ff60a01b19169055505050565b6001600160a01b03831660009081526004602052604090205460ff1680611fd257506001600160a01b03821660009081526004602052604090205460ff165b15611fe457611fdf61270c565b612032565b601f546001600160a01b038381169116141561203257612032600d8054600e55600f805460105560118054601255601380546015556016549093556017549091556018549091556019549055565b6000612054606461204e6011548561276890919063ffffffff16565b90611d5f565b90506000612072606461204e6013548661276890919063ffffffff16565b6001600160a01b03861660009081526005602052604090205490915060ff1680156120b657506001600160a01b03841660009081526005602052604090205460ff16155b156120de576120d985856120d4846120ce8888611dc6565b90611dc6565b612774565b61220b565b6001600160a01b03851660009081526005602052604090205460ff1615801561211f57506001600160a01b03841660009081526005602052604090205460ff165b1561213c576120d98585612137846120ce8888611dc6565b61289a565b6001600160a01b03851660009081526005602052604090205460ff1615801561217e57506001600160a01b03841660009081526005602052604090205460ff16155b1561219b576120d98585612196846120ce8888611dc6565b612943565b6001600160a01b03851660009081526005602052604090205460ff1680156121db57506001600160a01b03841660009081526005602052604090205460ff165b156121f8576120d985856121f3846120ce8888611dc6565b612987565b61220b8585612196846120ce8888611dc6565b6000600d819055600f81905561222390869084612943565b60145461223b9086906001600160a01b031683612943565b600e54600d55601054600f556001600160a01b03851660009081526004602052604090205460ff168061228657506001600160a01b03841660009081526004602052604090205460ff165b8061229e5750601f546001600160a01b038581169116145b15611d0957611d09600e54600d55601054600f55601254601155601554601355565b6008546007546000918291825b600654811015612412578260016000600684815481106122ef576122ef612e5b565b60009182526020808320909101546001600160a01b03168352820192909252604001902054118061235a575081600260006006848154811061233357612333612e5b565b60009182526020808320909101546001600160a01b03168352820192909252604001902054115b1561237057600854600754945094505050509091565b6123b6600160006006848154811061238a5761238a612e5b565b60009182526020808320909101546001600160a01b031683528201929092526040019020548490611dc6565b92506123fe60026000600684815481106123d2576123d2612e5b565b60009182526020808320909101546001600160a01b031683528201929092526040019020548390611dc6565b91508061240a81612e14565b9150506122cd565b5060075460085461242291611d5f565b821015612439576008546007549350935050509091565b90939092509050565b600080600080612451856129fa565b9050600061245e86612a16565b90506000612470826120ce8986611dc6565b979296509094509092505050565b600080808061248d8886612768565b9050600061249b8887612768565b905060006124a98888612768565b905060006124bb826120ce8686611dc6565b939b939a50919850919650505050505050565b604080516002808252606082018352600092602083019080368337019050509050308160008151811061250357612503612e5b565b6001600160a01b03928316602091820292909201810191909152601e54604080516315ab88c960e31b81529051919093169263ad5c4648926004808301939192829003018186803b15801561255757600080fd5b505afa15801561256b573d6000803e3d6000fd5b505050506040513d601f19601f8201168201806040525081019061258f9190612b10565b816001815181106125a2576125a2612e5b565b6001600160a01b039283166020918202929092010152601e546125c89130911684611904565b601e5460405163791ac94760e01b81526001600160a01b039091169063791ac94790612601908590600090869030904290600401612cf8565b600060405180830381600087803b15801561261b57600080fd5b505af1158015611d07573d6000803e3d6000fd5b601e546126479030906001600160a01b031684611904565b601e546001600160a01b031663f305d7198230856000806126706000546001600160a01b031690565b60405160e088901b6001600160e01b03191681526001600160a01b03958616600482015260248101949094526044840192909252606483015290911660848201524260a482015260c4016060604051808303818588803b1580156126d357600080fd5b505af11580156126e7573d6000803e3d6000fd5b50505050506040513d601f19601f82011682018060405250810190611d099190612c33565b600d5415801561271c5750600f54155b80156127285750601354155b80156127345750601154155b1561273b57565b600d8054600e55600f80546010556011805460125560138054601555600093849055918390559082905555565b6000610cbe8284612da3565b60008060008060008061278687611d77565b6001600160a01b038f16600090815260026020526040902054959b509399509197509550935091506127b89088611dc6565b6001600160a01b038a166000908152600260209081526040808320939093556001905220546127e79087611dc6565b6001600160a01b03808b1660009081526001602052604080822093909355908a16815220546128169086611d6b565b6001600160a01b03891660009081526001602052604090205561283881612a32565b6128428483612aba565b876001600160a01b0316896001600160a01b03167fddf252ad1be2c89b69c2b068fc378daa952ba7f163c4a11628f55a4df523b3ef8560405161288791815260200190565b60405180910390a3505050505050505050565b6000806000806000806128ac87611d77565b6001600160a01b038f16600090815260016020526040902054959b509399509197509550935091506128de9087611dc6565b6001600160a01b03808b16600090815260016020908152604080832094909455918b168152600290915220546129149084611d6b565b6001600160a01b0389166000908152600260209081526040808320939093556001905220546128169086611d6b565b60008060008060008061295587611d77565b6001600160a01b038f16600090815260016020526040902054959b509399509197509550935091506127e79087611dc6565b60008060008060008061299987611d77565b6001600160a01b038f16600090815260026020526040902054959b509399509197509550935091506129cb9088611dc6565b6001600160a01b038a166000908152600260209081526040808320939093556001905220546128de9087611dc6565b6000610bd2606461204e600d548561276890919063ffffffff16565b6000610bd2606461204e600f548561276890919063ffffffff16565b6000612a3c611d3c565b90506000612a4a8383612768565b30600090815260016020526040902054909150612a679082611d6b565b3060009081526001602090815260408083209390935560059052205460ff1615611ee75730600090815260026020526040902054612aa59084611d6b565b30600090815260026020526040902055505050565b600854612ac79083611dc6565b600855600954612ad79082611d6b565b6009555050565b80358015158114612aee57600080fd5b919050565b600060208284031215612b0557600080fd5b8135610cbe81612e71565b600060208284031215612b2257600080fd5b8151610cbe81612e71565b60008060408385031215612b4057600080fd5b8235612b4b81612e71565b91506020830135612b5b81612e71565b809150509250929050565b600080600060608486031215612b7b57600080fd5b8335612b8681612e71565b92506020840135612b9681612e71565b929592945050506040919091013590565b60008060408385031215612bba57600080fd5b8235612bc581612e71565b946020939093013593505050565b600060208284031215612be557600080fd5b610cbe82612ade565b600060208284031215612c0057600080fd5b5035919050565b60008060408385031215612c1a57600080fd5b82359150612c2a60208401612ade565b90509250929050565b600080600060608486031215612c4857600080fd5b8351925060208401519150604084015190509250925092565b600060208083528351808285015260005b81811015612c8e57858101830151858201604001528201612c72565b81811115612ca0576000604083870101525b50601f01601f1916929092016040019392505050565b60208082526022908201527f4f6e6c792061646d696e206f7220616e7469206d616e6167657220616c6c6f77604082015261195960f21b606082015260800190565b600060a082018783526020878185015260a0604085015281875180845260c086019150828901935060005b81811015612d485784516001600160a01b031683529383019391830191600101612d23565b50506001600160a01b03969096166060850152505050608001529392505050565b60008219821115612d7c57612d7c612e2f565b500190565b600082612d9e57634e487b7160e01b600052601260045260246000fd5b500490565b6000816000190483118215151615612dbd57612dbd612e2f565b500290565b600082821015612dd457612dd4612e2f565b500390565b600181811c90821680612ded57607f821691505b60208210811415612e0e57634e487b7160e01b600052602260045260246000fd5b50919050565b6000600019821415612e2857612e28612e2f565b5060010190565b634e487b7160e01b600052601160045260246000fd5b634e487b7160e01b600052603160045260246000fd5b634e487b7160e01b600052603260045260246000fd5b6001600160a01b03811681146118a757600080fdfe42455032303a207472616e7366657220616d6f756e74206578636565647320616c6c6f77616e636542455032303a2064656372656173656420616c6c6f77616e63652062656c6f77207a65726fa264697066735822122020955769f4dc6c0af072ba7026476cba804cfb8d88c7106ec059d4363187ea5764736f6c63430008070033",
					"opcodes": "PUSH1 0x80 PUSH1 0x40 MSTORE PUSH12 0x1921A082258A73BFC3240000 PUSH1 0x7 DUP2 SWAP1 SSTORE PUSH3 0x24 SWAP1 PUSH1 0x0 NOT PUSH3 0x766 JUMP JUMPDEST PUSH3 0x32 SWAP1 PUSH1 0x0 NOT PUSH3 0x6F1 JUMP JUMPDEST PUSH1 0x8 SSTORE PUSH1 0x40 DUP1 MLOAD DUP1 DUP3 ADD SWAP1 SWAP2 MSTORE PUSH1 0xC DUP1 DUP3 MSTORE PUSH12 0x26B2BA3096B837B5B2B6B7B7 PUSH1 0xA1 SHL PUSH1 0x20 SWAP1 SWAP3 ADD SWAP2 DUP3 MSTORE PUSH3 0x6A SWAP2 PUSH1 0xA SWAP2 PUSH3 0x568 JUMP JUMPDEST POP PUSH1 0x40 DUP1 MLOAD DUP1 DUP3 ADD SWAP1 SWAP2 MSTORE PUSH1 0x7 DUP1 DUP3 MSTORE PUSH7 0x3837B5B2B6B7B7 PUSH1 0xC9 SHL PUSH1 0x20 SWAP1 SWAP3 ADD SWAP2 DUP3 MSTORE PUSH3 0x9B SWAP2 PUSH1 0xB SWAP2 PUSH3 0x568 JUMP JUMPDEST POP PUSH1 0xC DUP1 SLOAD PUSH1 0xFF NOT AND PUSH1 0x12 SWAP1 DUP2 OR SWAP1 SWAP2 SSTORE PUSH1 0x2 PUSH1 0xD DUP2 SWAP1 SSTORE PUSH1 0xE DUP2 SWAP1 SSTORE PUSH1 0x1 PUSH1 0xF DUP2 SWAP1 SSTORE PUSH1 0x10 DUP2 SWAP1 SSTORE PUSH1 0x11 DUP3 SWAP1 SSTORE SWAP2 DUP2 SWAP1 SSTORE PUSH1 0x13 DUP2 SWAP1 SSTORE PUSH1 0x15 DUP2 SWAP1 SSTORE PUSH1 0x16 DUP2 SWAP1 SSTORE PUSH1 0x17 SWAP2 SWAP1 SWAP2 SSTORE PUSH1 0x18 DUP2 SWAP1 SSTORE PUSH1 0x19 SSTORE PUSH1 0x5 PUSH1 0x1A SSTORE PUSH1 0x1F DUP1 SLOAD PUSH1 0xFF PUSH1 0xA8 SHL NOT AND SWAP1 SSTORE PUSH10 0xD3C21BCECCEDA1000000 PUSH1 0x20 SWAP1 DUP2 SSTORE PUSH1 0x40 DUP1 MLOAD PUSH2 0x160 DUP2 ADD DUP3 MSTORE PUSH3 0x1008E DUP2 MSTORE PUSH3 0x1F81C SWAP3 DUP2 ADD SWAP3 SWAP1 SWAP3 MSTORE PUSH3 0x40583 SWAP1 DUP3 ADD MSTORE PUSH3 0x7F447 PUSH1 0x60 DUP3 ADD MSTORE PUSH3 0xFFC19 PUSH1 0x80 DUP3 ADD MSTORE PUSH3 0x1FD8F0 PUSH1 0xA0 DUP3 ADD MSTORE PUSH3 0x3FFFAD PUSH1 0xC0 DUP3 ADD MSTORE PUSH3 0x7FF82E PUSH1 0xE0 DUP3 ADD MSTORE PUSH4 0x101863B PUSH2 0x100 DUP3 ADD MSTORE PUSH4 0x200271A PUSH2 0x120 DUP3 ADD MSTORE PUSH4 0x4030D33 PUSH2 0x140 DUP3 ADD MSTORE PUSH3 0x18E SWAP1 PUSH1 0x21 SWAP1 PUSH1 0xB PUSH3 0x5F7 JUMP JUMPDEST POP CALLVALUE DUP1 ISZERO PUSH3 0x19C JUMPI PUSH1 0x0 DUP1 REVERT JUMPDEST POP PUSH1 0x40 MLOAD PUSH3 0x36E7 CODESIZE SUB DUP1 PUSH3 0x36E7 DUP4 CODECOPY DUP2 ADD PUSH1 0x40 DUP2 SWAP1 MSTORE PUSH3 0x1BF SWAP2 PUSH3 0x67B JUMP JUMPDEST PUSH3 0x1CA CALLER PUSH3 0x518 JUMP JUMPDEST PUSH1 0x14 DUP1 SLOAD PUSH1 0x1 PUSH1 0x1 PUSH1 0xA0 SHL SUB NOT AND PUSH1 0x1 PUSH1 0x1 PUSH1 0xA0 SHL SUB DUP5 DUP2 AND SWAP2 SWAP1 SWAP2 OR SWAP1 SWAP2 SSTORE PUSH1 0x1D DUP1 SLOAD PUSH2 0x100 PUSH1 0x1 PUSH1 0xA8 SHL SUB NOT AND PUSH2 0x100 SWAP3 DUP5 AND SWAP3 SWAP1 SWAP3 MUL SWAP2 SWAP1 SWAP2 OR SWAP1 SSTORE PUSH1 0x8 SLOAD PUSH1 0x1 PUSH1 0x0 PUSH3 0x218 CALLER SWAP1 JUMP JUMPDEST PUSH1 0x1 PUSH1 0x1 PUSH1 0xA0 SHL SUB AND PUSH1 0x1 PUSH1 0x1 PUSH1 0xA0 SHL SUB AND DUP2 MSTORE PUSH1 0x20 ADD SWAP1 DUP2 MSTORE PUSH1 0x20 ADD PUSH1 0x0 KECCAK256 DUP2 SWAP1 SSTORE POP DUP3 PUSH1 0x1 PUSH1 0x1 PUSH1 0xA0 SHL SUB AND PUSH4 0xC45A0155 PUSH1 0x40 MLOAD DUP2 PUSH4 0xFFFFFFFF AND PUSH1 0xE0 SHL DUP2 MSTORE PUSH1 0x4 ADD PUSH1 0x20 PUSH1 0x40 MLOAD DUP1 DUP4 SUB DUP2 DUP7 DUP1 EXTCODESIZE ISZERO DUP1 ISZERO PUSH3 0x276 JUMPI PUSH1 0x0 DUP1 REVERT JUMPDEST POP GAS STATICCALL ISZERO DUP1 ISZERO PUSH3 0x28B JUMPI RETURNDATASIZE PUSH1 0x0 DUP1 RETURNDATACOPY RETURNDATASIZE PUSH1 0x0 REVERT JUMPDEST POP POP POP POP PUSH1 0x40 MLOAD RETURNDATASIZE PUSH1 0x1F NOT PUSH1 0x1F DUP3 ADD AND DUP3 ADD DUP1 PUSH1 0x40 MSTORE POP DUP2 ADD SWAP1 PUSH3 0x2B1 SWAP2 SWAP1 PUSH3 0x654 JUMP JUMPDEST PUSH1 0x1 PUSH1 0x1 PUSH1 0xA0 SHL SUB AND PUSH4 0xC9C65396 ADDRESS DUP6 PUSH1 0x1 PUSH1 0x1 PUSH1 0xA0 SHL SUB AND PUSH4 0xAD5C4648 PUSH1 0x40 MLOAD DUP2 PUSH4 0xFFFFFFFF AND PUSH1 0xE0 SHL DUP2 MSTORE PUSH1 0x4 ADD PUSH1 0x20 PUSH1 0x40 MLOAD DUP1 DUP4 SUB DUP2 DUP7 DUP1 EXTCODESIZE ISZERO DUP1 ISZERO PUSH3 0x2FA JUMPI PUSH1 0x0 DUP1 REVERT JUMPDEST POP GAS STATICCALL ISZERO DUP1 ISZERO PUSH3 0x30F JUMPI RETURNDATASIZE PUSH1 0x0 DUP1 RETURNDATACOPY RETURNDATASIZE PUSH1 0x0 REVERT JUMPDEST POP POP POP POP PUSH1 0x40 MLOAD RETURNDATASIZE PUSH1 0x1F NOT PUSH1 0x1F DUP3 ADD AND DUP3 ADD DUP1 PUSH1 0x40 MSTORE POP DUP2 ADD SWAP1 PUSH3 0x335 SWAP2 SWAP1 PUSH3 0x654 JUMP JUMPDEST PUSH1 0x40 MLOAD PUSH1 0x1 PUSH1 0x1 PUSH1 0xE0 SHL SUB NOT PUSH1 0xE0 DUP6 SWAP1 SHL AND DUP2 MSTORE PUSH1 0x1 PUSH1 0x1 PUSH1 0xA0 SHL SUB SWAP3 DUP4 AND PUSH1 0x4 DUP3 ADD MSTORE SWAP2 AND PUSH1 0x24 DUP3 ADD MSTORE PUSH1 0x44 ADD PUSH1 0x20 PUSH1 0x40 MLOAD DUP1 DUP4 SUB DUP2 PUSH1 0x0 DUP8 DUP1 EXTCODESIZE ISZERO DUP1 ISZERO PUSH3 0x37E JUMPI PUSH1 0x0 DUP1 REVERT JUMPDEST POP GAS CALL ISZERO DUP1 ISZERO PUSH3 0x393 JUMPI RETURNDATASIZE PUSH1 0x0 DUP1 RETURNDATACOPY RETURNDATASIZE PUSH1 0x0 REVERT JUMPDEST POP POP POP POP PUSH1 0x40 MLOAD RETURNDATASIZE PUSH1 0x1F NOT PUSH1 0x1F DUP3 ADD AND DUP3 ADD DUP1 PUSH1 0x40 MSTORE POP DUP2 ADD SWAP1 PUSH3 0x3B9 SWAP2 SWAP1 PUSH3 0x654 JUMP JUMPDEST PUSH1 0x1F DUP1 SLOAD PUSH1 0x1 PUSH1 0x1 PUSH1 0xA0 SHL SUB NOT SWAP1 DUP2 AND PUSH1 0x1 PUSH1 0x1 PUSH1 0xA0 SHL SUB SWAP4 DUP5 AND OR SWAP1 SWAP2 SSTORE PUSH1 0x1E DUP1 SLOAD SWAP1 SWAP2 AND SWAP2 DUP6 AND SWAP2 SWAP1 SWAP2 OR SWAP1 SSTORE PUSH1 0x1 PUSH1 0x4 PUSH1 0x0 PUSH3 0x401 PUSH1 0x0 SLOAD PUSH1 0x1 PUSH1 0x1 PUSH1 0xA0 SHL SUB AND SWAP1 JUMP JUMPDEST PUSH1 0x1 PUSH1 0x1 PUSH1 0xA0 SHL SUB SWAP1 DUP2 AND DUP3 MSTORE PUSH1 0x20 DUP1 DUP4 ADD SWAP4 SWAP1 SWAP4 MSTORE PUSH1 0x40 SWAP2 DUP3 ADD PUSH1 0x0 SWAP1 DUP2 KECCAK256 DUP1 SLOAD SWAP6 ISZERO ISZERO PUSH1 0xFF NOT SWAP7 DUP8 AND OR SWAP1 SSTORE SWAP1 DUP6 AND DUP2 MSTORE PUSH1 0x4 SWAP1 SWAP3 MSTORE DUP1 DUP3 KECCAK256 DUP1 SLOAD DUP5 AND PUSH1 0x1 SWAP1 DUP2 OR SWAP1 SWAP2 SSTORE ADDRESS DUP4 MSTORE SWAP1 DUP3 KECCAK256 DUP1 SLOAD SWAP1 SWAP4 AND OR SWAP1 SWAP2 SSTORE JUMPDEST PUSH1 0x21 SLOAD DUP2 LT ISZERO PUSH3 0x4D3 JUMPI PUSH1 0x1 PUSH1 0x1C PUSH1 0x0 PUSH1 0x21 DUP5 DUP2 SLOAD DUP2 LT PUSH3 0x47F JUMPI PUSH3 0x47F PUSH3 0x79F JUMP JUMPDEST SWAP1 PUSH1 0x0 MSTORE PUSH1 0x20 PUSH1 0x0 KECCAK256 ADD SLOAD PUSH8 0xDE0B6B3A7640000 PUSH3 0x49F SWAP2 SWAP1 PUSH3 0x6CF JUMP JUMPDEST DUP2 MSTORE PUSH1 0x20 DUP2 ADD SWAP2 SWAP1 SWAP2 MSTORE PUSH1 0x40 ADD PUSH1 0x0 KECCAK256 DUP1 SLOAD PUSH1 0xFF NOT AND SWAP2 ISZERO ISZERO SWAP2 SWAP1 SWAP2 OR SWAP1 SSTORE DUP1 PUSH3 0x4CA DUP2 PUSH3 0x748 JUMP JUMPDEST SWAP2 POP POP PUSH3 0x458 JUMP JUMPDEST POP PUSH1 0x7 SLOAD PUSH1 0x40 MLOAD SWAP1 DUP2 MSTORE CALLER SWAP1 PUSH1 0x0 SWAP1 PUSH32 0xDDF252AD1BE2C89B69C2B068FC378DAA952BA7F163C4A11628F55A4DF523B3EF SWAP1 PUSH1 0x20 ADD PUSH1 0x40 MLOAD DUP1 SWAP2 SUB SWAP1 LOG3 POP POP POP PUSH3 0x7CE JUMP JUMPDEST PUSH1 0x0 DUP1 SLOAD PUSH1 0x1 PUSH1 0x1 PUSH1 0xA0 SHL SUB DUP4 DUP2 AND PUSH1 0x1 PUSH1 0x1 PUSH1 0xA0 SHL SUB NOT DUP4 AND DUP2 OR DUP5 SSTORE PUSH1 0x40 MLOAD SWAP2 SWAP1 SWAP3 AND SWAP3 DUP4 SWAP2 PUSH32 0x8BE0079C531659141344CD1FD0A4F28419497F9722A3DAAFE3B4186F6B6457E0 SWAP2 SWAP1 LOG3 POP POP JUMP JUMPDEST DUP3 DUP1 SLOAD PUSH3 0x576 SWAP1 PUSH3 0x70B JUMP JUMPDEST SWAP1 PUSH1 0x0 MSTORE PUSH1 0x20 PUSH1 0x0 KECCAK256 SWAP1 PUSH1 0x1F ADD PUSH1 0x20 SWAP1 DIV DUP2 ADD SWAP3 DUP3 PUSH3 0x59A JUMPI PUSH1 0x0 DUP6 SSTORE PUSH3 0x5E5 JUMP JUMPDEST DUP3 PUSH1 0x1F LT PUSH3 0x5B5 JUMPI DUP1 MLOAD PUSH1 0xFF NOT AND DUP4 DUP1 ADD OR DUP6 SSTORE PUSH3 0x5E5 JUMP JUMPDEST DUP3 DUP1 ADD PUSH1 0x1 ADD DUP6 SSTORE DUP3 ISZERO PUSH3 0x5E5 JUMPI SWAP2 DUP3 ADD JUMPDEST DUP3 DUP2 GT ISZERO PUSH3 0x5E5 JUMPI DUP3 MLOAD DUP3 SSTORE SWAP2 PUSH1 0x20 ADD SWAP2 SWAP1 PUSH1 0x1 ADD SWAP1 PUSH3 0x5C8 JUMP JUMPDEST POP PUSH3 0x5F3 SWAP3 SWAP2 POP PUSH3 0x63D JUMP JUMPDEST POP SWAP1 JUMP JUMPDEST DUP3 DUP1 SLOAD DUP3 DUP3 SSTORE SWAP1 PUSH1 0x0 MSTORE PUSH1 0x20 PUSH1 0x0 KECCAK256 SWAP1 DUP2 ADD SWAP3 DUP3 ISZERO PUSH3 0x5E5 JUMPI SWAP2 PUSH1 0x20 MUL DUP3 ADD JUMPDEST DUP3 DUP2 GT ISZERO PUSH3 0x5E5 JUMPI DUP3 MLOAD DUP3 SWAP1 PUSH4 0xFFFFFFFF AND SWAP1 SSTORE SWAP2 PUSH1 0x20 ADD SWAP2 SWAP1 PUSH1 0x1 ADD SWAP1 PUSH3 0x618 JUMP JUMPDEST JUMPDEST DUP1 DUP3 GT ISZERO PUSH3 0x5F3 JUMPI PUSH1 0x0 DUP2 SSTORE PUSH1 0x1 ADD PUSH3 0x63E JUMP JUMPDEST PUSH1 0x0 PUSH1 0x20 DUP3 DUP5 SUB SLT ISZERO PUSH3 0x667 JUMPI PUSH1 0x0 DUP1 REVERT JUMPDEST DUP2 MLOAD PUSH3 0x674 DUP2 PUSH3 0x7B5 JUMP JUMPDEST SWAP4 SWAP3 POP POP POP JUMP JUMPDEST PUSH1 0x0 DUP1 PUSH1 0x0 PUSH1 0x60 DUP5 DUP7 SUB SLT ISZERO PUSH3 0x691 JUMPI PUSH1 0x0 DUP1 REVERT JUMPDEST DUP4 MLOAD PUSH3 0x69E DUP2 PUSH3 0x7B5 JUMP JUMPDEST PUSH1 0x20 DUP6 ADD MLOAD SWAP1 SWAP4 POP PUSH3 0x6B1 DUP2 PUSH3 0x7B5 JUMP JUMPDEST PUSH1 0x40 DUP6 ADD MLOAD SWAP1 SWAP3 POP PUSH3 0x6C4 DUP2 PUSH3 0x7B5 JUMP JUMPDEST DUP1 SWAP2 POP POP SWAP3 POP SWAP3 POP SWAP3 JUMP JUMPDEST PUSH1 0x0 DUP2 PUSH1 0x0 NOT DIV DUP4 GT DUP3 ISZERO ISZERO AND ISZERO PUSH3 0x6EC JUMPI PUSH3 0x6EC PUSH3 0x789 JUMP JUMPDEST POP MUL SWAP1 JUMP JUMPDEST PUSH1 0x0 DUP3 DUP3 LT ISZERO PUSH3 0x706 JUMPI PUSH3 0x706 PUSH3 0x789 JUMP JUMPDEST POP SUB SWAP1 JUMP JUMPDEST PUSH1 0x1 DUP2 DUP2 SHR SWAP1 DUP3 AND DUP1 PUSH3 0x720 JUMPI PUSH1 0x7F DUP3 AND SWAP2 POP JUMPDEST PUSH1 0x20 DUP3 LT DUP2 EQ ISZERO PUSH3 0x742 JUMPI PUSH4 0x4E487B71 PUSH1 0xE0 SHL PUSH1 0x0 MSTORE PUSH1 0x22 PUSH1 0x4 MSTORE PUSH1 0x24 PUSH1 0x0 REVERT JUMPDEST POP SWAP2 SWAP1 POP JUMP JUMPDEST PUSH1 0x0 PUSH1 0x0 NOT DUP3 EQ ISZERO PUSH3 0x75F JUMPI PUSH3 0x75F PUSH3 0x789 JUMP JUMPDEST POP PUSH1 0x1 ADD SWAP1 JUMP JUMPDEST PUSH1 0x0 DUP3 PUSH3 0x784 JUMPI PUSH4 0x4E487B71 PUSH1 0xE0 SHL PUSH1 0x0 MSTORE PUSH1 0x12 PUSH1 0x4 MSTORE PUSH1 0x24 PUSH1 0x0 REVERT JUMPDEST POP MOD SWAP1 JUMP JUMPDEST PUSH4 0x4E487B71 PUSH1 0xE0 SHL PUSH1 0x0 MSTORE PUSH1 0x11 PUSH1 0x4 MSTORE PUSH1 0x24 PUSH1 0x0 REVERT JUMPDEST PUSH4 0x4E487B71 PUSH1 0xE0 SHL PUSH1 0x0 MSTORE PUSH1 0x32 PUSH1 0x4 MSTORE PUSH1 0x24 PUSH1 0x0 REVERT JUMPDEST PUSH1 0x1 PUSH1 0x1 PUSH1 0xA0 SHL SUB DUP2 AND DUP2 EQ PUSH3 0x7CB JUMPI PUSH1 0x0 DUP1 REVERT JUMPDEST POP JUMP JUMPDEST PUSH2 0x2F09 DUP1 PUSH3 0x7DE PUSH1 0x0 CODECOPY PUSH1 0x0 RETURN INVALID PUSH1 0x80 PUSH1 0x40 MSTORE PUSH1 0x4 CALLDATASIZE LT PUSH2 0x385 JUMPI PUSH1 0x0 CALLDATALOAD PUSH1 0xE0 SHR DUP1 PUSH4 0x6BC87C3A GT PUSH2 0x1D1 JUMPI DUP1 PUSH4 0xA9059CBB GT PUSH2 0x102 JUMPI DUP1 PUSH4 0xD0E03523 GT PUSH2 0xA0 JUMPI DUP1 PUSH4 0xE1E144DE GT PUSH2 0x6F JUMPI DUP1 PUSH4 0xE1E144DE EQ PUSH2 0xA4B JUMPI DUP1 PUSH4 0xEA2F0B37 EQ PUSH2 0xA6C JUMPI DUP1 PUSH4 0xEBF78663 EQ PUSH2 0xA8C JUMPI DUP1 PUSH4 0xF2FDE38B EQ PUSH2 0xAAC JUMPI PUSH1 0x0 DUP1 REVERT JUMPDEST DUP1 PUSH4 0xD0E03523 EQ PUSH2 0x9A6 JUMPI DUP1 PUSH4 0xD5BDE46C EQ PUSH2 0x9C6 JUMPI DUP1 PUSH4 0xD8C6404B EQ PUSH2 0x9EB JUMPI DUP1 PUSH4 0xDD62ED3E EQ PUSH2 0xA05 JUMPI PUSH1 0x0 DUP1 REVERT JUMPDEST DUP1 PUSH4 0xC2C7C03A GT PUSH2 0xDC JUMPI DUP1 PUSH4 0xC2C7C03A EQ PUSH2 0x930 JUMPI DUP1 PUSH4 0xC49B9A80 EQ PUSH2 0x950 JUMPI DUP1 PUSH4 0xC8607952 EQ PUSH2 0x970 JUMPI DUP1 PUSH4 0xCEA26958 EQ PUSH2 0x986 JUMPI PUSH1 0x0 DUP1 REVERT JUMPDEST DUP1 PUSH4 0xA9059CBB EQ PUSH2 0x8DA JUMPI DUP1 PUSH4 0xA928681C EQ PUSH2 0x8FA JUMPI DUP1 PUSH4 0xC0B0FDA2 EQ PUSH2 0x91A JUMPI PUSH1 0x0 DUP1 REVERT JUMPDEST DUP1 PUSH4 0x88790A68 GT PUSH2 0x16F JUMPI DUP1 PUSH4 0x8EE88C53 GT PUSH2 0x149 JUMPI DUP1 PUSH4 0x8EE88C53 EQ PUSH2 0x865 JUMPI DUP1 PUSH4 0x95D89B41 EQ PUSH2 0x885 JUMPI DUP1 PUSH4 0x9655CAB5 EQ PUSH2 0x89A JUMPI DUP1 PUSH4 0xA457C2D7 EQ PUSH2 0x8BA JUMPI PUSH1 0x0 DUP1 REVERT JUMPDEST DUP1 PUSH4 0x88790A68 EQ PUSH2 0x7F8 JUMPI DUP1 PUSH4 0x88F82020 EQ PUSH2 0x80E JUMPI DUP1 PUSH4 0x8DA5CB5B EQ PUSH2 0x847 JUMPI PUSH1 0x0 DUP1 REVERT JUMPDEST DUP1 PUSH4 0x74FB20E1 GT PUSH2 0x1AB JUMPI DUP1 PUSH4 0x74FB20E1 EQ PUSH2 0x78D JUMPI DUP1 PUSH4 0x75F0A874 EQ PUSH2 0x7A2 JUMPI DUP1 PUSH4 0x7ABDC1CA EQ PUSH2 0x7C2 JUMPI DUP1 PUSH4 0x882CFB3F EQ PUSH2 0x7D8 JUMPI PUSH1 0x0 DUP1 REVERT JUMPDEST DUP1 PUSH4 0x6BC87C3A EQ PUSH2 0x742 JUMPI DUP1 PUSH4 0x70A08231 EQ PUSH2 0x758 JUMPI DUP1 PUSH4 0x715018A6 EQ PUSH2 0x778 JUMPI PUSH1 0x0 DUP1 REVERT JUMPDEST DUP1 PUSH4 0x3B124FE7 GT PUSH2 0x2B6 JUMPI DUP1 PUSH4 0x52390C02 GT PUSH2 0x254 JUMPI DUP1 PUSH4 0x5D098B38 GT PUSH2 0x223 JUMPI DUP1 PUSH4 0x5D098B38 EQ PUSH2 0x6CC JUMPI DUP1 PUSH4 0x611BF629 EQ PUSH2 0x6EC JUMPI DUP1 PUSH4 0x632A6A35 EQ PUSH2 0x70C JUMPI DUP1 PUSH4 0x64A06E80 EQ PUSH2 0x72C JUMPI PUSH1 0x0 DUP1 REVERT JUMPDEST DUP1 PUSH4 0x52390C02 EQ PUSH2 0x639 JUMPI DUP1 PUSH4 0x5342ACB4 EQ PUSH2 0x659 JUMPI DUP1 PUSH4 0x57D87F0D EQ PUSH2 0x692 JUMPI DUP1 PUSH4 0x5876CCC5 EQ PUSH2 0x6AC JUMPI PUSH1 0x0 DUP1 REVERT JUMPDEST DUP1 PUSH4 0x4549B039 GT PUSH2 0x290 JUMPI DUP1 PUSH4 0x4549B039 EQ PUSH2 0x5B8 JUMPI DUP1 PUSH4 0x457C194C EQ PUSH2 0x5D8 JUMPI DUP1 PUSH4 0x4A5566BF EQ PUSH2 0x5F8 JUMPI DUP1 PUSH4 0x4A74BB02 EQ PUSH2 0x618 JUMPI PUSH1 0x0 DUP1 REVERT JUMPDEST DUP1 PUSH4 0x3B124FE7 EQ PUSH2 0x562 JUMPI DUP1 PUSH4 0x3BD5D173 EQ PUSH2 0x578 JUMPI DUP1 PUSH4 0x437823EC EQ PUSH2 0x598 JUMPI PUSH1 0x0 DUP1 REVERT JUMPDEST DUP1 PUSH4 0x200A692D GT PUSH2 0x323 JUMPI DUP1 PUSH4 0x2D838119 GT PUSH2 0x2FD JUMPI DUP1 PUSH4 0x2D838119 EQ PUSH2 0x4E0 JUMPI DUP1 PUSH4 0x313CE567 EQ PUSH2 0x500 JUMPI DUP1 PUSH4 0x3685D419 EQ PUSH2 0x522 JUMPI DUP1 PUSH4 0x39509351 EQ PUSH2 0x542 JUMPI PUSH1 0x0 DUP1 REVERT JUMPDEST DUP1 PUSH4 0x200A692D EQ PUSH2 0x494 JUMPI DUP1 PUSH4 0x22976E0D EQ PUSH2 0x4AA JUMPI DUP1 PUSH4 0x23B872DD EQ PUSH2 0x4C0 JUMPI PUSH1 0x0 DUP1 REVERT JUMPDEST DUP1 PUSH4 0xA7D2D87 GT PUSH2 0x35F JUMPI DUP1 PUSH4 0xA7D2D87 EQ PUSH2 0x40E JUMPI DUP1 PUSH4 0x13114A9D EQ PUSH2 0x432 JUMPI DUP1 PUSH4 0x18160DDD EQ PUSH2 0x447 JUMPI DUP1 PUSH4 0x1A4CD1B1 EQ PUSH2 0x45C JUMPI PUSH1 0x0 DUP1 REVERT JUMPDEST DUP1 PUSH4 0x61C82D0 EQ PUSH2 0x391 JUMPI DUP1 PUSH4 0x6FDDE03 EQ PUSH2 0x3B3 JUMPI DUP1 PUSH4 0x95EA7B3 EQ PUSH2 0x3DE JUMPI PUSH1 0x0 DUP1 REVERT JUMPDEST CALLDATASIZE PUSH2 0x38C JUMPI STOP JUMPDEST PUSH1 0x0 DUP1 REVERT JUMPDEST CALLVALUE DUP1 ISZERO PUSH2 0x39D JUMPI PUSH1 0x0 DUP1 REVERT JUMPDEST POP PUSH2 0x3B1 PUSH2 0x3AC CALLDATASIZE PUSH1 0x4 PUSH2 0x2BEE JUMP JUMPDEST PUSH2 0xACC JUMP JUMPDEST STOP JUMPDEST CALLVALUE DUP1 ISZERO PUSH2 0x3BF JUMPI PUSH1 0x0 DUP1 REVERT JUMPDEST POP PUSH2 0x3C8 PUSH2 0xB2F JUMP JUMPDEST PUSH1 0x40 MLOAD PUSH2 0x3D5 SWAP2 SWAP1 PUSH2 0x2C61 JUMP JUMPDEST PUSH1 0x40 MLOAD DUP1 SWAP2 SUB SWAP1 RETURN JUMPDEST CALLVALUE DUP1 ISZERO PUSH2 0x3EA JUMPI PUSH1 0x0 DUP1 REVERT JUMPDEST POP PUSH2 0x3FE PUSH2 0x3F9 CALLDATASIZE PUSH1 0x4 PUSH2 0x2BA7 JUMP JUMPDEST PUSH2 0xBC1 JUMP JUMPDEST PUSH1 0x40 MLOAD SWAP1 ISZERO ISZERO DUP2 MSTORE PUSH1 0x20 ADD PUSH2 0x3D5 JUMP JUMPDEST CALLVALUE DUP1 ISZERO PUSH2 0x41A JUMPI PUSH1 0x0 DUP1 REVERT JUMPDEST POP PUSH2 0x424 PUSH1 0x1A SLOAD DUP2 JUMP JUMPDEST PUSH1 0x40 MLOAD SWAP1 DUP2 MSTORE PUSH1 0x20 ADD PUSH2 0x3D5 JUMP JUMPDEST CALLVALUE DUP1 ISZERO PUSH2 0x43E JUMPI PUSH1 0x0 DUP1 REVERT JUMPDEST POP PUSH1 0x9 SLOAD PUSH2 0x424 JUMP JUMPDEST CALLVALUE DUP1 ISZERO PUSH2 0x453 JUMPI PUSH1 0x0 DUP1 REVERT JUMPDEST POP PUSH1 0x7 SLOAD PUSH2 0x424 JUMP JUMPDEST CALLVALUE DUP1 ISZERO PUSH2 0x468 JUMPI PUSH1 0x0 DUP1 REVERT JUMPDEST POP PUSH1 0x1E SLOAD PUSH2 0x47C SWAP1 PUSH1 0x1 PUSH1 0x1 PUSH1 0xA0 SHL SUB AND DUP2 JUMP JUMPDEST PUSH1 0x40 MLOAD PUSH1 0x1 PUSH1 0x1 PUSH1 0xA0 SHL SUB SWAP1 SWAP2 AND DUP2 MSTORE PUSH1 0x20 ADD PUSH2 0x3D5 JUMP JUMPDEST CALLVALUE DUP1 ISZERO PUSH2 0x4A0 JUMPI PUSH1 0x0 DUP1 REVERT JUMPDEST POP PUSH2 0x424 PUSH1 0x16 SLOAD DUP2 JUMP JUMPDEST CALLVALUE DUP1 ISZERO PUSH2 0x4B6 JUMPI PUSH1 0x0 DUP1 REVERT JUMPDEST POP PUSH2 0x424 PUSH1 0x13 SLOAD DUP2 JUMP JUMPDEST CALLVALUE DUP1 ISZERO PUSH2 0x4CC JUMPI PUSH1 0x0 DUP1 REVERT JUMPDEST POP PUSH2 0x3FE PUSH2 0x4DB CALLDATASIZE PUSH1 0x4 PUSH2 0x2B66 JUMP JUMPDEST PUSH2 0xBD8 JUMP JUMPDEST CALLVALUE DUP1 ISZERO PUSH2 0x4EC JUMPI PUSH1 0x0 DUP1 REVERT JUMPDEST POP PUSH2 0x424 PUSH2 0x4FB CALLDATASIZE PUSH1 0x4 PUSH2 0x2BEE JUMP JUMPDEST PUSH2 0xC41 JUMP JUMPDEST CALLVALUE DUP1 ISZERO PUSH2 0x50C JUMPI PUSH1 0x0 DUP1 REVERT JUMPDEST POP PUSH1 0xC SLOAD PUSH1 0x40 MLOAD PUSH1 0xFF SWAP1 SWAP2 AND DUP2 MSTORE PUSH1 0x20 ADD PUSH2 0x3D5 JUMP JUMPDEST CALLVALUE DUP1 ISZERO PUSH2 0x52E JUMPI PUSH1 0x0 DUP1 REVERT JUMPDEST POP PUSH2 0x3B1 PUSH2 0x53D CALLDATASIZE PUSH1 0x4 PUSH2 0x2AF3 JUMP JUMPDEST PUSH2 0xCC5 JUMP JUMPDEST CALLVALUE DUP1 ISZERO PUSH2 0x54E JUMPI PUSH1 0x0 DUP1 REVERT JUMPDEST POP PUSH2 0x3FE PUSH2 0x55D CALLDATASIZE PUSH1 0x4 PUSH2 0x2BA7 JUMP JUMPDEST PUSH2 0xE5A JUMP JUMPDEST CALLVALUE DUP1 ISZERO PUSH2 0x56E JUMPI PUSH1 0x0 DUP1 REVERT JUMPDEST POP PUSH2 0x424 PUSH1 0xD SLOAD DUP2 JUMP JUMPDEST CALLVALUE DUP1 ISZERO PUSH2 0x584 JUMPI PUSH1 0x0 DUP1 REVERT JUMPDEST POP PUSH2 0x3B1 PUSH2 0x593 CALLDATASIZE PUSH1 0x4 PUSH2 0x2BEE JUMP JUMPDEST PUSH2 0xE90 JUMP JUMPDEST CALLVALUE DUP1 ISZERO PUSH2 0x5A4 JUMPI PUSH1 0x0 DUP1 REVERT JUMPDEST POP PUSH2 0x3B1 PUSH2 0x5B3 CALLDATASIZE PUSH1 0x4 PUSH2 0x2AF3 JUMP JUMPDEST PUSH2 0xF7A JUMP JUMPDEST CALLVALUE DUP1 ISZERO PUSH2 0x5C4 JUMPI PUSH1 0x0 DUP1 REVERT JUMPDEST POP PUSH2 0x424 PUSH2 0x5D3 CALLDATASIZE PUSH1 0x4 PUSH2 0x2C07 JUMP JUMPDEST PUSH2 0xFA6 JUMP JUMPDEST CALLVALUE DUP1 ISZERO PUSH2 0x5E4 JUMPI PUSH1 0x0 DUP1 REVERT JUMPDEST POP PUSH2 0x3B1 PUSH2 0x5F3 CALLDATASIZE PUSH1 0x4 PUSH2 0x2BEE JUMP JUMPDEST PUSH2 0x1033 JUMP JUMPDEST CALLVALUE DUP1 ISZERO PUSH2 0x604 JUMPI PUSH1 0x0 DUP1 REVERT JUMPDEST POP PUSH2 0x3B1 PUSH2 0x613 CALLDATASIZE PUSH1 0x4 PUSH2 0x2BD3 JUMP JUMPDEST PUSH2 0x109F JUMP JUMPDEST CALLVALUE DUP1 ISZERO PUSH2 0x624 JUMPI PUSH1 0x0 DUP1 REVERT JUMPDEST POP PUSH1 0x1F SLOAD PUSH2 0x3FE SWAP1 PUSH1 0x1 PUSH1 0xA8 SHL SWAP1 DIV PUSH1 0xFF AND DUP2 JUMP JUMPDEST CALLVALUE DUP1 ISZERO PUSH2 0x645 JUMPI PUSH1 0x0 DUP1 REVERT JUMPDEST POP PUSH2 0x3B1 PUSH2 0x654 CALLDATASIZE PUSH1 0x4 PUSH2 0x2AF3 JUMP JUMPDEST PUSH2 0x10F6 JUMP JUMPDEST CALLVALUE DUP1 ISZERO PUSH2 0x665 JUMPI PUSH1 0x0 DUP1 REVERT JUMPDEST POP PUSH2 0x3FE PUSH2 0x674 CALLDATASIZE PUSH1 0x4 PUSH2 0x2AF3 JUMP JUMPDEST PUSH1 0x1 PUSH1 0x1 PUSH1 0xA0 SHL SUB AND PUSH1 0x0 SWAP1 DUP2 MSTORE PUSH1 0x4 PUSH1 0x20 MSTORE PUSH1 0x40 SWAP1 KECCAK256 SLOAD PUSH1 0xFF AND SWAP1 JUMP JUMPDEST CALLVALUE DUP1 ISZERO PUSH2 0x69E JUMPI PUSH1 0x0 DUP1 REVERT JUMPDEST POP PUSH1 0x1B SLOAD PUSH2 0x3FE SWAP1 PUSH1 0xFF AND DUP2 JUMP JUMPDEST CALLVALUE DUP1 ISZERO PUSH2 0x6B8 JUMPI PUSH1 0x0 DUP1 REVERT JUMPDEST POP PUSH2 0x3B1 PUSH2 0x6C7 CALLDATASIZE PUSH1 0x4 PUSH2 0x2BEE JUMP JUMPDEST PUSH2 0x1290 JUMP JUMPDEST CALLVALUE DUP1 ISZERO PUSH2 0x6D8 JUMPI PUSH1 0x0 DUP1 REVERT JUMPDEST POP PUSH2 0x3B1 PUSH2 0x6E7 CALLDATASIZE PUSH1 0x4 PUSH2 0x2AF3 JUMP JUMPDEST PUSH2 0x1301 JUMP JUMPDEST CALLVALUE DUP1 ISZERO PUSH2 0x6F8 JUMPI PUSH1 0x0 DUP1 REVERT JUMPDEST POP PUSH2 0x3B1 PUSH2 0x707 CALLDATASIZE PUSH1 0x4 PUSH2 0x2AF3 JUMP JUMPDEST PUSH2 0x132B JUMP JUMPDEST CALLVALUE DUP1 ISZERO PUSH2 0x718 JUMPI PUSH1 0x0 DUP1 REVERT JUMPDEST POP PUSH1 0x1F SLOAD PUSH2 0x47C SWAP1 PUSH1 0x1 PUSH1 0x1 PUSH1 0xA0 SHL SUB AND DUP2 JUMP JUMPDEST CALLVALUE DUP1 ISZERO PUSH2 0x738 JUMPI PUSH1 0x0 DUP1 REVERT JUMPDEST POP PUSH2 0x424 PUSH2 0x3E8 DUP2 JUMP JUMPDEST CALLVALUE DUP1 ISZERO PUSH2 0x74E JUMPI PUSH1 0x0 DUP1 REVERT JUMPDEST POP PUSH2 0x424 PUSH1 0xF SLOAD DUP2 JUMP JUMPDEST CALLVALUE DUP1 ISZERO PUSH2 0x764 JUMPI PUSH1 0x0 DUP1 REVERT JUMPDEST POP PUSH2 0x424 PUSH2 0x773 CALLDATASIZE PUSH1 0x4 PUSH2 0x2AF3 JUMP JUMPDEST PUSH2 0x1355 JUMP JUMPDEST CALLVALUE DUP1 ISZERO PUSH2 0x784 JUMPI PUSH1 0x0 DUP1 REVERT JUMPDEST POP PUSH2 0x3B1 PUSH2 0x13B4 JUMP JUMPDEST CALLVALUE DUP1 ISZERO PUSH2 0x799 JUMPI PUSH1 0x0 DUP1 REVERT JUMPDEST POP PUSH2 0x3B1 PUSH2 0x13C8 JUMP JUMPDEST CALLVALUE DUP1 ISZERO PUSH2 0x7AE JUMPI PUSH1 0x0 DUP1 REVERT JUMPDEST POP PUSH1 0x14 SLOAD PUSH2 0x47C SWAP1 PUSH1 0x1 PUSH1 0x1 PUSH1 0xA0 SHL SUB AND DUP2 JUMP JUMPDEST CALLVALUE DUP1 ISZERO PUSH2 0x7CE JUMPI PUSH1 0x0 DUP1 REVERT JUMPDEST POP PUSH2 0x424 PUSH1 0x19 SLOAD DUP2 JUMP JUMPDEST CALLVALUE DUP1 ISZERO PUSH2 0x7E4 JUMPI PUSH1 0x0 DUP1 REVERT JUMPDEST POP PUSH1 0x22 SLOAD PUSH2 0x47C SWAP1 PUSH1 0x1 PUSH1 0x1 PUSH1 0xA0 SHL SUB AND DUP2 JUMP JUMPDEST CALLVALUE DUP1 ISZERO PUSH2 0x804 JUMPI PUSH1 0x0 DUP1 REVERT JUMPDEST POP PUSH2 0x424 PUSH1 0x17 SLOAD DUP2 JUMP JUMPDEST CALLVALUE DUP1 ISZERO PUSH2 0x81A JUMPI PUSH1 0x0 DUP1 REVERT JUMPDEST POP PUSH2 0x3FE PUSH2 0x829 CALLDATASIZE PUSH1 0x4 PUSH2 0x2AF3 JUMP JUMPDEST PUSH1 0x1 PUSH1 0x1 PUSH1 0xA0 SHL SUB AND PUSH1 0x0 SWAP1 DUP2 MSTORE PUSH1 0x5 PUSH1 0x20 MSTORE PUSH1 0x40 SWAP1 KECCAK256 SLOAD PUSH1 0xFF AND SWAP1 JUMP JUMPDEST CALLVALUE DUP1 ISZERO PUSH2 0x853 JUMPI PUSH1 0x0 DUP1 REVERT JUMPDEST POP PUSH1 0x0 SLOAD PUSH1 0x1 PUSH1 0x1 PUSH1 0xA0 SHL SUB AND PUSH2 0x47C JUMP JUMPDEST CALLVALUE DUP1 ISZERO PUSH2 0x871 JUMPI PUSH1 0x0 DUP1 REVERT JUMPDEST POP PUSH2 0x3B1 PUSH2 0x880 CALLDATASIZE PUSH1 0x4 PUSH2 0x2BEE JUMP JUMPDEST PUSH2 0x13FC JUMP JUMPDEST CALLVALUE DUP1 ISZERO PUSH2 0x891 JUMPI PUSH1 0x0 DUP1 REVERT JUMPDEST POP PUSH2 0x3C8 PUSH2 0x1468 JUMP JUMPDEST CALLVALUE DUP1 ISZERO PUSH2 0x8A6 JUMPI PUSH1 0x0 DUP1 REVERT JUMPDEST POP PUSH2 0x3B1 PUSH2 0x8B5 CALLDATASIZE PUSH1 0x4 PUSH2 0x2BEE JUMP JUMPDEST PUSH2 0x1477 JUMP JUMPDEST CALLVALUE DUP1 ISZERO PUSH2 0x8C6 JUMPI PUSH1 0x0 DUP1 REVERT JUMPDEST POP PUSH2 0x3FE PUSH2 0x8D5 CALLDATASIZE PUSH1 0x4 PUSH2 0x2BA7 JUMP JUMPDEST PUSH2 0x1550 JUMP JUMPDEST CALLVALUE DUP1 ISZERO PUSH2 0x8E6 JUMPI PUSH1 0x0 DUP1 REVERT JUMPDEST POP PUSH2 0x3FE PUSH2 0x8F5 CALLDATASIZE PUSH1 0x4 PUSH2 0x2BA7 JUMP JUMPDEST PUSH2 0x159F JUMP JUMPDEST CALLVALUE DUP1 ISZERO PUSH2 0x906 JUMPI PUSH1 0x0 DUP1 REVERT JUMPDEST POP PUSH2 0x3B1 PUSH2 0x915 CALLDATASIZE PUSH1 0x4 PUSH2 0x2BEE JUMP JUMPDEST PUSH2 0x15AC JUMP JUMPDEST CALLVALUE DUP1 ISZERO PUSH2 0x926 JUMPI PUSH1 0x0 DUP1 REVERT JUMPDEST POP PUSH2 0x424 PUSH1 0x11 SLOAD DUP2 JUMP JUMPDEST CALLVALUE DUP1 ISZERO PUSH2 0x93C JUMPI PUSH1 0x0 DUP1 REVERT JUMPDEST POP PUSH2 0x3B1 PUSH2 0x94B CALLDATASIZE PUSH1 0x4 PUSH2 0x2BD3 JUMP JUMPDEST PUSH2 0x161D JUMP JUMPDEST CALLVALUE DUP1 ISZERO PUSH2 0x95C JUMPI PUSH1 0x0 DUP1 REVERT JUMPDEST POP PUSH2 0x3B1 PUSH2 0x96B CALLDATASIZE PUSH1 0x4 PUSH2 0x2BD3 JUMP JUMPDEST PUSH2 0x1674 JUMP JUMPDEST CALLVALUE DUP1 ISZERO PUSH2 0x97C JUMPI PUSH1 0x0 DUP1 REVERT JUMPDEST POP PUSH2 0x424 PUSH1 0x18 SLOAD DUP2 JUMP JUMPDEST CALLVALUE DUP1 ISZERO PUSH2 0x992 JUMPI PUSH1 0x0 DUP1 REVERT JUMPDEST POP PUSH2 0x3B1 PUSH2 0x9A1 CALLDATASIZE PUSH1 0x4 PUSH2 0x2BEE JUMP JUMPDEST PUSH2 0x16D4 JUMP JUMPDEST CALLVALUE DUP1 ISZERO PUSH2 0x9B2 JUMPI PUSH1 0x0 DUP1 REVERT JUMPDEST POP PUSH2 0x3B1 PUSH2 0x9C1 CALLDATASIZE PUSH1 0x4 PUSH2 0x2BEE JUMP JUMPDEST PUSH2 0x1732 JUMP JUMPDEST CALLVALUE DUP1 ISZERO PUSH2 0x9D2 JUMPI PUSH1 0x0 DUP1 REVERT JUMPDEST POP PUSH1 0x1D SLOAD PUSH2 0x47C SWAP1 PUSH2 0x100 SWAP1 DIV PUSH1 0x1 PUSH1 0x1 PUSH1 0xA0 SHL SUB AND DUP2 JUMP JUMPDEST CALLVALUE DUP1 ISZERO PUSH2 0x9F7 JUMPI PUSH1 0x0 DUP1 REVERT JUMPDEST POP PUSH1 0x1D SLOAD PUSH2 0x3FE SWAP1 PUSH1 0xFF AND DUP2 JUMP JUMPDEST CALLVALUE DUP1 ISZERO PUSH2 0xA11 JUMPI PUSH1 0x0 DUP1 REVERT JUMPDEST POP PUSH2 0x424 PUSH2 0xA20 CALLDATASIZE PUSH1 0x4 PUSH2 0x2B2D JUMP JUMPDEST PUSH1 0x1 PUSH1 0x1 PUSH1 0xA0 SHL SUB SWAP2 DUP3 AND PUSH1 0x0 SWAP1 DUP2 MSTORE PUSH1 0x3 PUSH1 0x20 SWAP1 DUP2 MSTORE PUSH1 0x40 DUP1 DUP4 KECCAK256 SWAP4 SWAP1 SWAP5 AND DUP3 MSTORE SWAP2 SWAP1 SWAP2 MSTORE KECCAK256 SLOAD SWAP1 JUMP JUMPDEST CALLVALUE DUP1 ISZERO PUSH2 0xA57 JUMPI PUSH1 0x0 DUP1 REVERT JUMPDEST POP PUSH1 0x22 SLOAD PUSH2 0x3FE SWAP1 PUSH1 0x1 PUSH1 0xA0 SHL SWAP1 DIV PUSH1 0xFF AND DUP2 JUMP JUMPDEST CALLVALUE DUP1 ISZERO PUSH2 0xA78 JUMPI PUSH1 0x0 DUP1 REVERT JUMPDEST POP PUSH2 0x3B1 PUSH2 0xA87 CALLDATASIZE PUSH1 0x4 PUSH2 0x2AF3 JUMP JUMPDEST PUSH2 0x179C JUMP JUMPDEST CALLVALUE DUP1 ISZERO PUSH2 0xA98 JUMPI PUSH1 0x0 DUP1 REVERT JUMPDEST POP PUSH2 0x3B1 PUSH2 0xAA7 CALLDATASIZE PUSH1 0x4 PUSH2 0x2BEE JUMP JUMPDEST PUSH2 0x17C5 JUMP JUMPDEST CALLVALUE DUP1 ISZERO PUSH2 0xAB8 JUMPI PUSH1 0x0 DUP1 REVERT JUMPDEST POP PUSH2 0x3B1 PUSH2 0xAC7 CALLDATASIZE PUSH1 0x4 PUSH2 0x2AF3 JUMP JUMPDEST PUSH2 0x1831 JUMP JUMPDEST PUSH2 0xAD4 PUSH2 0x18AA JUMP JUMPDEST PUSH1 0xA DUP2 GT ISZERO PUSH2 0xB2A JUMPI PUSH1 0x40 MLOAD PUSH3 0x461BCD PUSH1 0xE5 SHL DUP2 MSTORE PUSH1 0x20 PUSH1 0x4 DUP3 ADD MSTORE PUSH1 0x1F PUSH1 0x24 DUP3 ADD MSTORE PUSH32 0x546178206665652063616E6E6F74206265206D6F7265207468616E2031302500 PUSH1 0x44 DUP3 ADD MSTORE PUSH1 0x64 ADD JUMPDEST PUSH1 0x40 MLOAD DUP1 SWAP2 SUB SWAP1 REVERT JUMPDEST PUSH1 0xD SSTORE JUMP JUMPDEST PUSH1 0x60 PUSH1 0xA DUP1 SLOAD PUSH2 0xB3E SWAP1 PUSH2 0x2DD9 JUMP JUMPDEST DUP1 PUSH1 0x1F ADD PUSH1 0x20 DUP1 SWAP2 DIV MUL PUSH1 0x20 ADD PUSH1 0x40 MLOAD SWAP1 DUP2 ADD PUSH1 0x40 MSTORE DUP1 SWAP3 SWAP2 SWAP1 DUP2 DUP2 MSTORE PUSH1 0x20 ADD DUP3 DUP1 SLOAD PUSH2 0xB6A SWAP1 PUSH2 0x2DD9 JUMP JUMPDEST DUP1 ISZERO PUSH2 0xBB7 JUMPI DUP1 PUSH1 0x1F LT PUSH2 0xB8C JUMPI PUSH2 0x100 DUP1 DUP4 SLOAD DIV MUL DUP4 MSTORE SWAP2 PUSH1 0x20 ADD SWAP2 PUSH2 0xBB7 JUMP JUMPDEST DUP3 ADD SWAP2 SWAP1 PUSH1 0x0 MSTORE PUSH1 0x20 PUSH1 0x0 KECCAK256 SWAP1 JUMPDEST DUP2 SLOAD DUP2 MSTORE SWAP1 PUSH1 0x1 ADD SWAP1 PUSH1 0x20 ADD DUP1 DUP4 GT PUSH2 0xB9A JUMPI DUP3 SWAP1 SUB PUSH1 0x1F AND DUP3 ADD SWAP2 JUMPDEST POP POP POP POP POP SWAP1 POP SWAP1 JUMP JUMPDEST PUSH1 0x0 PUSH2 0xBCE CALLER DUP5 DUP5 PUSH2 0x1904 JUMP JUMPDEST POP PUSH1 0x1 JUMPDEST SWAP3 SWAP2 POP POP JUMP JUMPDEST PUSH1 0x0 PUSH2 0xBE5 DUP5 DUP5 DUP5 PUSH2 0x1A28 JUMP JUMPDEST PUSH2 0xC37 DUP5 CALLER PUSH2 0xC32 DUP6 PUSH1 0x40 MLOAD DUP1 PUSH1 0x60 ADD PUSH1 0x40 MSTORE DUP1 PUSH1 0x28 DUP2 MSTORE PUSH1 0x20 ADD PUSH2 0x2E87 PUSH1 0x28 SWAP2 CODECOPY PUSH1 0x1 PUSH1 0x1 PUSH1 0xA0 SHL SUB DUP11 AND PUSH1 0x0 SWAP1 DUP2 MSTORE PUSH1 0x3 PUSH1 0x20 SWAP1 DUP2 MSTORE PUSH1 0x40 DUP1 DUP4 KECCAK256 CALLER DUP5 MSTORE SWAP1 SWAP2 MSTORE SWAP1 KECCAK256 SLOAD SWAP2 SWAP1 PUSH2 0x1D10 JUMP JUMPDEST PUSH2 0x1904 JUMP JUMPDEST POP PUSH1 0x1 SWAP4 SWAP3 POP POP POP JUMP JUMPDEST PUSH1 0x0 PUSH1 0x8 SLOAD DUP3 GT ISZERO PUSH2 0xCA8 JUMPI PUSH1 0x40 MLOAD PUSH3 0x461BCD PUSH1 0xE5 SHL DUP2 MSTORE PUSH1 0x20 PUSH1 0x4 DUP3 ADD MSTORE PUSH1 0x2A PUSH1 0x24 DUP3 ADD MSTORE PUSH32 0x416D6F756E74206D757374206265206C657373207468616E20746F74616C2072 PUSH1 0x44 DUP3 ADD MSTORE PUSH10 0x65666C656374696F6E73 PUSH1 0xB0 SHL PUSH1 0x64 DUP3 ADD MSTORE PUSH1 0x84 ADD PUSH2 0xB21 JUMP JUMPDEST PUSH1 0x0 PUSH2 0xCB2 PUSH2 0x1D3C JUMP JUMPDEST SWAP1 POP PUSH2 0xCBE DUP4 DUP3 PUSH2 0x1D5F JUMP JUMPDEST SWAP4 SWAP3 POP POP POP JUMP JUMPDEST PUSH2 0xCCD PUSH2 0x18AA JUMP JUMPDEST PUSH1 0x1 PUSH1 0x1 PUSH1 0xA0 SHL SUB DUP2 AND PUSH1 0x0 SWAP1 DUP2 MSTORE PUSH1 0x5 PUSH1 0x20 MSTORE PUSH1 0x40 SWAP1 KECCAK256 SLOAD PUSH1 0xFF AND PUSH2 0xD35 JUMPI PUSH1 0x40 MLOAD PUSH3 0x461BCD PUSH1 0xE5 SHL DUP2 MSTORE PUSH1 0x20 PUSH1 0x4 DUP3 ADD MSTORE PUSH1 0x1B PUSH1 0x24 DUP3 ADD MSTORE PUSH32 0x4163636F756E7420697320616C7265616479206578636C756465640000000000 PUSH1 0x44 DUP3 ADD MSTORE PUSH1 0x64 ADD PUSH2 0xB21 JUMP JUMPDEST PUSH1 0x0 JUMPDEST PUSH1 0x6 SLOAD DUP2 LT ISZERO PUSH2 0xE56 JUMPI DUP2 PUSH1 0x1 PUSH1 0x1 PUSH1 0xA0 SHL SUB AND PUSH1 0x6 DUP3 DUP2 SLOAD DUP2 LT PUSH2 0xD5F JUMPI PUSH2 0xD5F PUSH2 0x2E5B JUMP JUMPDEST PUSH1 0x0 SWAP2 DUP3 MSTORE PUSH1 0x20 SWAP1 SWAP2 KECCAK256 ADD SLOAD PUSH1 0x1 PUSH1 0x1 PUSH1 0xA0 SHL SUB AND EQ ISZERO PUSH2 0xE44 JUMPI PUSH1 0x6 DUP1 SLOAD PUSH2 0xD8A SWAP1 PUSH1 0x1 SWAP1 PUSH2 0x2DC2 JUMP JUMPDEST DUP2 SLOAD DUP2 LT PUSH2 0xD9A JUMPI PUSH2 0xD9A PUSH2 0x2E5B JUMP JUMPDEST PUSH1 0x0 SWAP2 DUP3 MSTORE PUSH1 0x20 SWAP1 SWAP2 KECCAK256 ADD SLOAD PUSH1 0x6 DUP1 SLOAD PUSH1 0x1 PUSH1 0x1 PUSH1 0xA0 SHL SUB SWAP1 SWAP3 AND SWAP2 DUP4 SWAP1 DUP2 LT PUSH2 0xDC6 JUMPI PUSH2 0xDC6 PUSH2 0x2E5B JUMP JUMPDEST PUSH1 0x0 SWAP2 DUP3 MSTORE PUSH1 0x20 DUP1 DUP4 KECCAK256 SWAP2 SWAP1 SWAP2 ADD DUP1 SLOAD PUSH1 0x1 PUSH1 0x1 PUSH1 0xA0 SHL SUB NOT AND PUSH1 0x1 PUSH1 0x1 PUSH1 0xA0 SHL SUB SWAP5 DUP6 AND OR SWAP1 SSTORE SWAP2 DUP5 AND DUP2 MSTORE PUSH1 0x2 DUP3 MSTORE PUSH1 0x40 DUP1 DUP3 KECCAK256 DUP3 SWAP1 SSTORE PUSH1 0x5 SWAP1 SWAP3 MSTORE KECCAK256 DUP1 SLOAD PUSH1 0xFF NOT AND SWAP1 SSTORE PUSH1 0x6 DUP1 SLOAD DUP1 PUSH2 0xE1E JUMPI PUSH2 0xE1E PUSH2 0x2E45 JUMP JUMPDEST PUSH1 0x0 DUP3 DUP2 MSTORE PUSH1 0x20 SWAP1 KECCAK256 DUP2 ADD PUSH1 0x0 NOT SWAP1 DUP2 ADD DUP1 SLOAD PUSH1 0x1 PUSH1 0x1 PUSH1 0xA0 SHL SUB NOT AND SWAP1 SSTORE ADD SWAP1 SSTORE POP POP JUMP JUMPDEST DUP1 PUSH2 0xE4E DUP2 PUSH2 0x2E14 JUMP JUMPDEST SWAP2 POP POP PUSH2 0xD38 JUMP JUMPDEST POP POP JUMP JUMPDEST CALLER PUSH1 0x0 DUP2 DUP2 MSTORE PUSH1 0x3 PUSH1 0x20 SWAP1 DUP2 MSTORE PUSH1 0x40 DUP1 DUP4 KECCAK256 PUSH1 0x1 PUSH1 0x1 PUSH1 0xA0 SHL SUB DUP8 AND DUP5 MSTORE SWAP1 SWAP2 MSTORE DUP2 KECCAK256 SLOAD SWAP1 SWAP2 PUSH2 0xBCE SWAP2 DUP6 SWAP1 PUSH2 0xC32 SWAP1 DUP7 PUSH2 0x1D6B JUMP JUMPDEST CALLER PUSH1 0x0 DUP2 DUP2 MSTORE PUSH1 0x5 PUSH1 0x20 MSTORE PUSH1 0x40 SWAP1 KECCAK256 SLOAD PUSH1 0xFF AND ISZERO PUSH2 0xF05 JUMPI PUSH1 0x40 MLOAD PUSH3 0x461BCD PUSH1 0xE5 SHL DUP2 MSTORE PUSH1 0x20 PUSH1 0x4 DUP3 ADD MSTORE PUSH1 0x2C PUSH1 0x24 DUP3 ADD MSTORE PUSH32 0x4578636C75646564206164647265737365732063616E6E6F742063616C6C2074 PUSH1 0x44 DUP3 ADD MSTORE PUSH12 0x3434B990333AB731BA34B7B7 PUSH1 0xA1 SHL PUSH1 0x64 DUP3 ADD MSTORE PUSH1 0x84 ADD PUSH2 0xB21 JUMP JUMPDEST PUSH1 0x0 PUSH2 0xF10 DUP4 PUSH2 0x1D77 JUMP JUMPDEST POP POP POP POP PUSH1 0x1 PUSH1 0x1 PUSH1 0xA0 SHL SUB DUP5 AND PUSH1 0x0 SWAP1 DUP2 MSTORE PUSH1 0x1 PUSH1 0x20 MSTORE PUSH1 0x40 SWAP1 KECCAK256 SLOAD SWAP2 SWAP3 POP PUSH2 0xF3C SWAP2 SWAP1 POP DUP3 PUSH2 0x1DC6 JUMP JUMPDEST PUSH1 0x1 PUSH1 0x1 PUSH1 0xA0 SHL SUB DUP4 AND PUSH1 0x0 SWAP1 DUP2 MSTORE PUSH1 0x1 PUSH1 0x20 MSTORE PUSH1 0x40 SWAP1 KECCAK256 SSTORE PUSH1 0x8 SLOAD PUSH2 0xF62 SWAP1 DUP3 PUSH2 0x1DC6 JUMP JUMPDEST PUSH1 0x8 SSTORE PUSH1 0x9 SLOAD PUSH2 0xF72 SWAP1 DUP5 PUSH2 0x1D6B JUMP JUMPDEST PUSH1 0x9 SSTORE POP POP POP JUMP JUMPDEST PUSH2 0xF82 PUSH2 0x18AA JUMP JUMPDEST PUSH1 0x1 PUSH1 0x1 PUSH1 0xA0 SHL SUB AND PUSH1 0x0 SWAP1 DUP2 MSTORE PUSH1 0x4 PUSH1 0x20 MSTORE PUSH1 0x40 SWAP1 KECCAK256 DUP1 SLOAD PUSH1 0xFF NOT AND PUSH1 0x1 OR SWAP1 SSTORE JUMP JUMPDEST PUSH1 0x0 PUSH1 0x7 SLOAD DUP4 GT ISZERO PUSH2 0xFFA JUMPI PUSH1 0x40 MLOAD PUSH3 0x461BCD PUSH1 0xE5 SHL DUP2 MSTORE PUSH1 0x20 PUSH1 0x4 DUP3 ADD MSTORE PUSH1 0x1F PUSH1 0x24 DUP3 ADD MSTORE PUSH32 0x416D6F756E74206D757374206265206C657373207468616E20737570706C7900 PUSH1 0x44 DUP3 ADD MSTORE PUSH1 0x64 ADD PUSH2 0xB21 JUMP JUMPDEST DUP2 PUSH2 0x1019 JUMPI PUSH1 0x0 PUSH2 0x100A DUP5 PUSH2 0x1D77 JUMP JUMPDEST POP SWAP4 SWAP6 POP PUSH2 0xBD2 SWAP5 POP POP POP POP POP JUMP JUMPDEST PUSH1 0x0 PUSH2 0x1024 DUP5 PUSH2 0x1D77 JUMP JUMPDEST POP SWAP3 SWAP6 POP PUSH2 0xBD2 SWAP5 POP POP POP POP POP JUMP JUMPDEST PUSH2 0x103B PUSH2 0x18AA JUMP JUMPDEST PUSH1 0xA DUP2 GT ISZERO PUSH2 0x109A JUMPI PUSH1 0x40 MLOAD PUSH3 0x461BCD PUSH1 0xE5 SHL DUP2 MSTORE PUSH1 0x20 PUSH1 0x4 DUP3 ADD MSTORE PUSH1 0x25 PUSH1 0x24 DUP3 ADD MSTORE PUSH32 0x4D61726B6574696E67206665652063616E6E6F74206265206D6F726520746861 PUSH1 0x44 DUP3 ADD MSTORE PUSH5 0x6E20313025 PUSH1 0xD8 SHL PUSH1 0x64 DUP3 ADD MSTORE PUSH1 0x84 ADD PUSH2 0xB21 JUMP JUMPDEST PUSH1 0x13 SSTORE JUMP JUMPDEST PUSH1 0x0 SLOAD PUSH1 0x1 PUSH1 0x1 PUSH1 0xA0 SHL SUB AND CALLER EQ DUP1 PUSH2 0x10C7 JUMPI POP PUSH1 0x1D SLOAD PUSH2 0x100 SWAP1 DIV PUSH1 0x1 PUSH1 0x1 PUSH1 0xA0 SHL SUB AND CALLER EQ JUMPDEST PUSH2 0x10E3 JUMPI PUSH1 0x40 MLOAD PUSH3 0x461BCD PUSH1 0xE5 SHL DUP2 MSTORE PUSH1 0x4 ADD PUSH2 0xB21 SWAP1 PUSH2 0x2CB6 JUMP JUMPDEST PUSH1 0x1B DUP1 SLOAD PUSH1 0xFF NOT AND SWAP2 ISZERO ISZERO SWAP2 SWAP1 SWAP2 OR SWAP1 SSTORE JUMP JUMPDEST PUSH2 0x10FE PUSH2 0x18AA JUMP JUMPDEST PUSH1 0x1E SLOAD PUSH1 0x1 PUSH1 0x1 PUSH1 0xA0 SHL SUB DUP3 DUP2 AND SWAP2 AND EQ ISZERO PUSH2 0x1167 JUMPI PUSH1 0x40 MLOAD PUSH3 0x461BCD PUSH1 0xE5 SHL DUP2 MSTORE PUSH1 0x20 PUSH1 0x4 DUP3 ADD MSTORE PUSH1 0x22 PUSH1 0x24 DUP3 ADD MSTORE PUSH32 0x57652063616E206E6F74206578636C7564652050616E63616B6520726F757465 PUSH1 0x44 DUP3 ADD MSTORE PUSH2 0x3917 PUSH1 0xF1 SHL PUSH1 0x64 DUP3 ADD MSTORE PUSH1 0x84 ADD PUSH2 0xB21 JUMP JUMPDEST PUSH1 0x1 PUSH1 0x1 PUSH1 0xA0 SHL SUB DUP2 AND PUSH1 0x0 SWAP1 DUP2 MSTORE PUSH1 0x5 PUSH1 0x20 MSTORE PUSH1 0x40 SWAP1 KECCAK256 SLOAD PUSH1 0xFF AND ISZERO PUSH2 0x11D0 JUMPI PUSH1 0x40 MLOAD PUSH3 0x461BCD PUSH1 0xE5 SHL DUP2 MSTORE PUSH1 0x20 PUSH1 0x4 DUP3 ADD MSTORE PUSH1 0x1B PUSH1 0x24 DUP3 ADD MSTORE PUSH32 0x4163636F756E7420697320616C7265616479206578636C756465640000000000 PUSH1 0x44 DUP3 ADD MSTORE PUSH1 0x64 ADD PUSH2 0xB21 JUMP JUMPDEST PUSH1 0x1 PUSH1 0x1 PUSH1 0xA0 SHL SUB DUP2 AND PUSH1 0x0 SWAP1 DUP2 MSTORE PUSH1 0x1 PUSH1 0x20 MSTORE PUSH1 0x40 SWAP1 KECCAK256 SLOAD ISZERO PUSH2 0x122A JUMPI PUSH1 0x1 PUSH1 0x1 PUSH1 0xA0 SHL SUB DUP2 AND PUSH1 0x0 SWAP1 DUP2 MSTORE PUSH1 0x1 PUSH1 0x20 MSTORE PUSH1 0x40 SWAP1 KECCAK256 SLOAD PUSH2 0x1210 SWAP1 PUSH2 0xC41 JUMP JUMPDEST PUSH1 0x1 PUSH1 0x1 PUSH1 0xA0 SHL SUB DUP3 AND PUSH1 0x0 SWAP1 DUP2 MSTORE PUSH1 0x2 PUSH1 0x20 MSTORE PUSH1 0x40 SWAP1 KECCAK256 SSTORE JUMPDEST PUSH1 0x1 PUSH1 0x1 PUSH1 0xA0 SHL SUB AND PUSH1 0x0 DUP2 DUP2 MSTORE PUSH1 0x5 PUSH1 0x20 MSTORE PUSH1 0x40 DUP2 KECCAK256 DUP1 SLOAD PUSH1 0xFF NOT AND PUSH1 0x1 SWAP1 DUP2 OR SWAP1 SWAP2 SSTORE PUSH1 0x6 DUP1 SLOAD SWAP2 DUP3 ADD DUP2 SSTORE SWAP1 SWAP2 MSTORE PUSH32 0xF652222313E28459528D920B65115C16C04F3EFC82AAEDC97BE59F3F377C0D3F ADD DUP1 SLOAD PUSH1 0x1 PUSH1 0x1 PUSH1 0xA0 SHL SUB NOT AND SWAP1 SWAP2 OR SWAP1 SSTORE JUMP JUMPDEST PUSH2 0x1298 PUSH2 0x18AA JUMP JUMPDEST PUSH1 0xA DUP2 GT ISZERO PUSH2 0x12FC JUMPI PUSH1 0x40 MLOAD PUSH3 0x461BCD PUSH1 0xE5 SHL DUP2 MSTORE PUSH1 0x20 PUSH1 0x4 DUP3 ADD MSTORE PUSH1 0x2A PUSH1 0x24 DUP3 ADD MSTORE PUSH32 0x53656C6C206C6971756964697479206665652063616E6E6F74206265206D6F72 PUSH1 0x44 DUP3 ADD MSTORE PUSH10 0x65207468616E20313025 PUSH1 0xB0 SHL PUSH1 0x64 DUP3 ADD MSTORE PUSH1 0x84 ADD PUSH2 0xB21 JUMP JUMPDEST PUSH1 0x17 SSTORE JUMP JUMPDEST PUSH2 0x1309 PUSH2 0x18AA JUMP JUMPDEST PUSH1 0x14 DUP1 SLOAD PUSH1 0x1 PUSH1 0x1 PUSH1 0xA0 SHL SUB NOT AND PUSH1 0x1 PUSH1 0x1 PUSH1 0xA0 SHL SUB SWAP3 SWAP1 SWAP3 AND SWAP2 SWAP1 SWAP2 OR SWAP1 SSTORE JUMP JUMPDEST PUSH2 0x1333 PUSH2 0x18AA JUMP JUMPDEST PUSH1 0x22 DUP1 SLOAD PUSH1 0x1 PUSH1 0x1 PUSH1 0xA0 SHL SUB NOT AND PUSH1 0x1 PUSH1 0x1 PUSH1 0xA0 SHL SUB SWAP3 SWAP1 SWAP3 AND SWAP2 SWAP1 SWAP2 OR SWAP1 SSTORE JUMP JUMPDEST PUSH1 0x1 PUSH1 0x1 PUSH1 0xA0 SHL SUB DUP2 AND PUSH1 0x0 SWAP1 DUP2 MSTORE PUSH1 0x5 PUSH1 0x20 MSTORE PUSH1 0x40 DUP2 KECCAK256 SLOAD PUSH1 0xFF AND ISZERO PUSH2 0x1392 JUMPI POP PUSH1 0x1 PUSH1 0x1 PUSH1 0xA0 SHL SUB AND PUSH1 0x0 SWAP1 DUP2 MSTORE PUSH1 0x2 PUSH1 0x20 MSTORE PUSH1 0x40 SWAP1 KECCAK256 SLOAD SWAP1 JUMP JUMPDEST PUSH1 0x1 PUSH1 0x1 PUSH1 0xA0 SHL SUB DUP3 AND PUSH1 0x0 SWAP1 DUP2 MSTORE PUSH1 0x1 PUSH1 0x20 MSTORE PUSH1 0x40 SWAP1 KECCAK256 SLOAD PUSH2 0xBD2 SWAP1 PUSH2 0xC41 JUMP JUMPDEST PUSH2 0x13BC PUSH2 0x18AA JUMP JUMPDEST PUSH2 0x13C6 PUSH1 0x0 PUSH2 0x1DD2 JUMP JUMPDEST JUMP JUMPDEST PUSH2 0x13D0 PUSH2 0x18AA JUMP JUMPDEST PUSH1 0x22 SLOAD PUSH1 0x1 PUSH1 0xA0 SHL SWAP1 DIV PUSH1 0xFF AND ISZERO PUSH2 0x13E7 JUMPI PUSH1 0x0 DUP1 REVERT JUMPDEST PUSH1 0x22 DUP1 SLOAD PUSH1 0xFF PUSH1 0xA0 SHL NOT AND PUSH1 0x1 PUSH1 0xA0 SHL OR SWAP1 SSTORE JUMP JUMPDEST PUSH2 0x1404 PUSH2 0x18AA JUMP JUMPDEST PUSH1 0xA DUP2 GT ISZERO PUSH2 0x1463 JUMPI PUSH1 0x40 MLOAD PUSH3 0x461BCD PUSH1 0xE5 SHL DUP2 MSTORE PUSH1 0x20 PUSH1 0x4 DUP3 ADD MSTORE PUSH1 0x25 PUSH1 0x24 DUP3 ADD MSTORE PUSH32 0x4C6971756964697479206665652063616E6E6F74206265206D6F726520746861 PUSH1 0x44 DUP3 ADD MSTORE PUSH5 0x6E20313025 PUSH1 0xD8 SHL PUSH1 0x64 DUP3 ADD MSTORE PUSH1 0x84 ADD PUSH2 0xB21 JUMP JUMPDEST PUSH1 0xF SSTORE JUMP JUMPDEST PUSH1 0x60 PUSH1 0xB DUP1 SLOAD PUSH2 0xB3E SWAP1 PUSH2 0x2DD9 JUMP JUMPDEST PUSH2 0x147F PUSH2 0x18AA JUMP JUMPDEST PUSH1 0x1 DUP2 LT ISZERO PUSH2 0x14E6 JUMPI PUSH1 0x40 MLOAD PUSH3 0x461BCD PUSH1 0xE5 SHL DUP2 MSTORE PUSH1 0x20 PUSH1 0x4 DUP3 ADD MSTORE PUSH1 0x2D PUSH1 0x24 DUP3 ADD MSTORE PUSH32 0x4D617820686F6C64696E672070657263656E74732063616E6E6F74206265206C PUSH1 0x44 DUP3 ADD MSTORE PUSH13 0x657373207468616E20302E3125 PUSH1 0x98 SHL PUSH1 0x64 DUP3 ADD MSTORE PUSH1 0x84 ADD PUSH2 0xB21 JUMP JUMPDEST PUSH1 0x1E DUP2 GT ISZERO PUSH2 0x154B JUMPI PUSH1 0x40 MLOAD PUSH3 0x461BCD PUSH1 0xE5 SHL DUP2 MSTORE PUSH1 0x20 PUSH1 0x4 DUP3 ADD MSTORE PUSH1 0x2B PUSH1 0x24 DUP3 ADD MSTORE PUSH32 0x4D617820686F6C64696E672070657263656E74732063616E6E6F74206265206D PUSH1 0x44 DUP3 ADD MSTORE PUSH11 0x6F7265207468616E203325 PUSH1 0xA8 SHL PUSH1 0x64 DUP3 ADD MSTORE PUSH1 0x84 ADD PUSH2 0xB21 JUMP JUMPDEST PUSH1 0x1A SSTORE JUMP JUMPDEST PUSH1 0x0 PUSH2 0xBCE CALLER DUP5 PUSH2 0xC32 DUP6 PUSH1 0x40 MLOAD DUP1 PUSH1 0x60 ADD PUSH1 0x40 MSTORE DUP1 PUSH1 0x25 DUP2 MSTORE PUSH1 0x20 ADD PUSH2 0x2EAF PUSH1 0x25 SWAP2 CODECOPY CALLER PUSH1 0x0 SWAP1 DUP2 MSTORE PUSH1 0x3 PUSH1 0x20 SWAP1 DUP2 MSTORE PUSH1 0x40 DUP1 DUP4 KECCAK256 PUSH1 0x1 PUSH1 0x1 PUSH1 0xA0 SHL SUB DUP14 AND DUP5 MSTORE SWAP1 SWAP2 MSTORE SWAP1 KECCAK256 SLOAD SWAP2 SWAP1 PUSH2 0x1D10 JUMP JUMPDEST PUSH1 0x0 PUSH2 0xBCE CALLER DUP5 DUP5 PUSH2 0x1A28 JUMP JUMPDEST PUSH2 0x15B4 PUSH2 0x18AA JUMP JUMPDEST PUSH1 0xA DUP2 GT ISZERO PUSH2 0x1618 JUMPI PUSH1 0x40 MLOAD PUSH3 0x461BCD PUSH1 0xE5 SHL DUP2 MSTORE PUSH1 0x20 PUSH1 0x4 DUP3 ADD MSTORE PUSH1 0x2A PUSH1 0x24 DUP3 ADD MSTORE PUSH32 0x53656C6C206D61726B6574696E67206665652063616E6E6F74206265206D6F72 PUSH1 0x44 DUP3 ADD MSTORE PUSH10 0x65207468616E20313025 PUSH1 0xB0 SHL PUSH1 0x64 DUP3 ADD MSTORE PUSH1 0x84 ADD PUSH2 0xB21 JUMP JUMPDEST PUSH1 0x18 SSTORE JUMP JUMPDEST PUSH1 0x0 SLOAD PUSH1 0x1 PUSH1 0x1 PUSH1 0xA0 SHL SUB AND CALLER EQ DUP1 PUSH2 0x1645 JUMPI POP PUSH1 0x1D SLOAD PUSH2 0x100 SWAP1 DIV PUSH1 0x1 PUSH1 0x1 PUSH1 0xA0 SHL SUB AND CALLER EQ JUMPDEST PUSH2 0x1661 JUMPI PUSH1 0x40 MLOAD PUSH3 0x461BCD PUSH1 0xE5 SHL DUP2 MSTORE PUSH1 0x4 ADD PUSH2 0xB21 SWAP1 PUSH2 0x2CB6 JUMP JUMPDEST PUSH1 0x1D DUP1 SLOAD PUSH1 0xFF NOT AND SWAP2 ISZERO ISZERO SWAP2 SWAP1 SWAP2 OR SWAP1 SSTORE JUMP JUMPDEST PUSH2 0x167C PUSH2 0x18AA JUMP JUMPDEST PUSH1 0x1F DUP1 SLOAD DUP3 ISZERO ISZERO PUSH1 0x1 PUSH1 0xA8 SHL MUL PUSH1 0xFF PUSH1 0xA8 SHL NOT SWAP1 SWAP2 AND OR SWAP1 SSTORE PUSH1 0x40 MLOAD PUSH32 0x53726DFCAF90650AA7EB35524F4D3220F07413C8D6CB404CC8C18BF5591BC159 SWAP1 PUSH2 0x16C9 SWAP1 DUP4 ISZERO ISZERO DUP2 MSTORE PUSH1 0x20 ADD SWAP1 JUMP JUMPDEST PUSH1 0x40 MLOAD DUP1 SWAP2 SUB SWAP1 LOG1 POP JUMP JUMPDEST PUSH2 0x16DC PUSH2 0x18AA JUMP JUMPDEST PUSH1 0xA DUP2 GT ISZERO PUSH2 0x172D JUMPI PUSH1 0x40 MLOAD PUSH3 0x461BCD PUSH1 0xE5 SHL DUP2 MSTORE PUSH1 0x20 PUSH1 0x4 DUP3 ADD DUP2 SWAP1 MSTORE PUSH1 0x24 DUP3 ADD MSTORE PUSH32 0x4275726E206665652063616E6E6F74206265206D6F7265207468616E20313025 PUSH1 0x44 DUP3 ADD MSTORE PUSH1 0x64 ADD PUSH2 0xB21 JUMP JUMPDEST PUSH1 0x11 SSTORE JUMP JUMPDEST PUSH2 0x173A PUSH2 0x18AA JUMP JUMPDEST PUSH1 0xA DUP2 GT ISZERO PUSH2 0x1797 JUMPI PUSH1 0x40 MLOAD PUSH3 0x461BCD PUSH1 0xE5 SHL DUP2 MSTORE PUSH1 0x20 PUSH1 0x4 DUP3 ADD MSTORE PUSH1 0x24 DUP1 DUP3 ADD MSTORE PUSH32 0x53656C6C20746178206665652063616E6E6F74206265206D6F7265207468616E PUSH1 0x44 DUP3 ADD MSTORE PUSH4 0x20313025 PUSH1 0xE0 SHL PUSH1 0x64 DUP3 ADD MSTORE PUSH1 0x84 ADD PUSH2 0xB21 JUMP JUMPDEST PUSH1 0x16 SSTORE JUMP JUMPDEST PUSH2 0x17A4 PUSH2 0x18AA JUMP JUMPDEST PUSH1 0x1 PUSH1 0x1 PUSH1 0xA0 SHL SUB AND PUSH1 0x0 SWAP1 DUP2 MSTORE PUSH1 0x4 PUSH1 0x20 MSTORE PUSH1 0x40 SWAP1 KECCAK256 DUP1 SLOAD PUSH1 0xFF NOT AND SWAP1 SSTORE JUMP JUMPDEST PUSH2 0x17CD PUSH2 0x18AA JUMP JUMPDEST PUSH1 0xA DUP2 GT ISZERO PUSH2 0x182C JUMPI PUSH1 0x40 MLOAD PUSH3 0x461BCD PUSH1 0xE5 SHL DUP2 MSTORE PUSH1 0x20 PUSH1 0x4 DUP3 ADD MSTORE PUSH1 0x25 PUSH1 0x24 DUP3 ADD MSTORE PUSH32 0x53656C6C206275726E206665652063616E6E6F74206265206D6F726520746861 PUSH1 0x44 DUP3 ADD MSTORE PUSH5 0x6E20313025 PUSH1 0xD8 SHL PUSH1 0x64 DUP3 ADD MSTORE PUSH1 0x84 ADD PUSH2 0xB21 JUMP JUMPDEST PUSH1 0x19 SSTORE JUMP JUMPDEST PUSH2 0x1839 PUSH2 0x18AA JUMP JUMPDEST PUSH1 0x1 PUSH1 0x1 PUSH1 0xA0 SHL SUB DUP2 AND PUSH2 0x189E JUMPI PUSH1 0x40 MLOAD PUSH3 0x461BCD PUSH1 0xE5 SHL DUP2 MSTORE PUSH1 0x20 PUSH1 0x4 DUP3 ADD MSTORE PUSH1 0x26 PUSH1 0x24 DUP3 ADD MSTORE PUSH32 0x4F776E61626C653A206E6577206F776E657220697320746865207A65726F2061 PUSH1 0x44 DUP3 ADD MSTORE PUSH6 0x646472657373 PUSH1 0xD0 SHL PUSH1 0x64 DUP3 ADD MSTORE PUSH1 0x84 ADD PUSH2 0xB21 JUMP JUMPDEST PUSH2 0x18A7 DUP2 PUSH2 0x1DD2 JUMP JUMPDEST POP JUMP JUMPDEST PUSH1 0x0 SLOAD PUSH1 0x1 PUSH1 0x1 PUSH1 0xA0 SHL SUB AND CALLER EQ PUSH2 0x13C6 JUMPI PUSH1 0x40 MLOAD PUSH3 0x461BCD PUSH1 0xE5 SHL DUP2 MSTORE PUSH1 0x20 PUSH1 0x4 DUP3 ADD DUP2 SWAP1 MSTORE PUSH1 0x24 DUP3 ADD MSTORE PUSH32 0x4F776E61626C653A2063616C6C6572206973206E6F7420746865206F776E6572 PUSH1 0x44 DUP3 ADD MSTORE PUSH1 0x64 ADD PUSH2 0xB21 JUMP JUMPDEST PUSH1 0x1 PUSH1 0x1 PUSH1 0xA0 SHL SUB DUP4 AND PUSH2 0x1966 JUMPI PUSH1 0x40 MLOAD PUSH3 0x461BCD PUSH1 0xE5 SHL DUP2 MSTORE PUSH1 0x20 PUSH1 0x4 DUP3 ADD MSTORE PUSH1 0x24 DUP1 DUP3 ADD MSTORE PUSH32 0x42455032303A20617070726F76652066726F6D20746865207A65726F20616464 PUSH1 0x44 DUP3 ADD MSTORE PUSH4 0x72657373 PUSH1 0xE0 SHL PUSH1 0x64 DUP3 ADD MSTORE PUSH1 0x84 ADD PUSH2 0xB21 JUMP JUMPDEST PUSH1 0x1 PUSH1 0x1 PUSH1 0xA0 SHL SUB DUP3 AND PUSH2 0x19C7 JUMPI PUSH1 0x40 MLOAD PUSH3 0x461BCD PUSH1 0xE5 SHL DUP2 MSTORE PUSH1 0x20 PUSH1 0x4 DUP3 ADD MSTORE PUSH1 0x22 PUSH1 0x24 DUP3 ADD MSTORE PUSH32 0x42455032303A20617070726F766520746F20746865207A65726F206164647265 PUSH1 0x44 DUP3 ADD MSTORE PUSH2 0x7373 PUSH1 0xF0 SHL PUSH1 0x64 DUP3 ADD MSTORE PUSH1 0x84 ADD PUSH2 0xB21 JUMP JUMPDEST PUSH1 0x1 PUSH1 0x1 PUSH1 0xA0 SHL SUB DUP4 DUP2 AND PUSH1 0x0 DUP2 DUP2 MSTORE PUSH1 0x3 PUSH1 0x20 SWAP1 DUP2 MSTORE PUSH1 0x40 DUP1 DUP4 KECCAK256 SWAP5 DUP8 AND DUP1 DUP5 MSTORE SWAP5 DUP3 MSTORE SWAP2 DUP3 SWAP1 KECCAK256 DUP6 SWAP1 SSTORE SWAP1 MLOAD DUP5 DUP2 MSTORE PUSH32 0x8C5BE1E5EBEC7D5BD14F71427D1E84F3DD0314C0F7B2291E5B200AC8C7C3B925 SWAP2 ADD PUSH1 0x40 MLOAD DUP1 SWAP2 SUB SWAP1 LOG3 POP POP POP JUMP JUMPDEST PUSH1 0x1 PUSH1 0x1 PUSH1 0xA0 SHL SUB DUP4 AND PUSH2 0x1A8C JUMPI PUSH1 0x40 MLOAD PUSH3 0x461BCD PUSH1 0xE5 SHL DUP2 MSTORE PUSH1 0x20 PUSH1 0x4 DUP3 ADD MSTORE PUSH1 0x25 PUSH1 0x24 DUP3 ADD MSTORE PUSH32 0x42455032303A207472616E736665722066726F6D20746865207A65726F206164 PUSH1 0x44 DUP3 ADD MSTORE PUSH5 0x6472657373 PUSH1 0xD8 SHL PUSH1 0x64 DUP3 ADD MSTORE PUSH1 0x84 ADD PUSH2 0xB21 JUMP JUMPDEST PUSH1 0x0 DUP2 GT PUSH2 0x1AEE JUMPI PUSH1 0x40 MLOAD PUSH3 0x461BCD PUSH1 0xE5 SHL DUP2 MSTORE PUSH1 0x20 PUSH1 0x4 DUP3 ADD MSTORE PUSH1 0x29 PUSH1 0x24 DUP3 ADD MSTORE PUSH32 0x5472616E7366657220616D6F756E74206D757374206265206772656174657220 PUSH1 0x44 DUP3 ADD MSTORE PUSH9 0x7468616E207A65726F PUSH1 0xB8 SHL PUSH1 0x64 DUP3 ADD MSTORE PUSH1 0x84 ADD PUSH2 0xB21 JUMP JUMPDEST PUSH2 0x1AF9 DUP4 DUP4 DUP4 PUSH2 0x1E22 JUMP JUMPDEST PUSH1 0x1D SLOAD PUSH1 0xFF AND DUP1 ISZERO PUSH2 0x1B18 JUMPI POP PUSH1 0x1F SLOAD PUSH1 0x1 PUSH1 0x1 PUSH1 0xA0 SHL SUB DUP5 DUP2 AND SWAP2 AND EQ JUMPDEST ISZERO PUSH2 0x1B7B JUMPI PUSH1 0x0 DUP2 DUP2 MSTORE PUSH1 0x1C PUSH1 0x20 MSTORE PUSH1 0x40 SWAP1 KECCAK256 SLOAD PUSH1 0xFF AND PUSH2 0x1B7B JUMPI PUSH1 0x40 MLOAD PUSH3 0x461BCD PUSH1 0xE5 SHL DUP2 MSTORE PUSH1 0x20 PUSH1 0x4 DUP3 ADD MSTORE PUSH1 0x18 PUSH1 0x24 DUP3 ADD MSTORE PUSH32 0x4F6E6C7920616C6C6F7765642062757920616D6F756E74730000000000000000 PUSH1 0x44 DUP3 ADD MSTORE PUSH1 0x64 ADD PUSH2 0xB21 JUMP JUMPDEST PUSH1 0x0 PUSH2 0x1B86 ADDRESS PUSH2 0x1355 JUMP JUMPDEST PUSH1 0x20 SLOAD SWAP1 SWAP2 POP DUP2 LT DUP1 ISZERO SWAP1 DUP2 SWAP1 PUSH2 0x1BA7 JUMPI POP PUSH1 0x1F SLOAD PUSH1 0x1 PUSH1 0xA0 SHL SWAP1 DIV PUSH1 0xFF AND ISZERO JUMPDEST DUP1 ISZERO PUSH2 0x1BC1 JUMPI POP PUSH1 0x1F SLOAD PUSH1 0x1 PUSH1 0x1 PUSH1 0xA0 SHL SUB DUP7 DUP2 AND SWAP2 AND EQ ISZERO JUMPDEST DUP1 ISZERO PUSH2 0x1BD6 JUMPI POP PUSH1 0x1F SLOAD PUSH1 0x1 PUSH1 0xA8 SHL SWAP1 DIV PUSH1 0xFF AND JUMPDEST ISZERO PUSH2 0x1BE9 JUMPI PUSH1 0x20 SLOAD SWAP2 POP PUSH2 0x1BE9 DUP3 PUSH2 0x1EEC JUMP JUMPDEST PUSH2 0x1BF4 DUP6 DUP6 DUP6 PUSH2 0x1F93 JUMP JUMPDEST PUSH1 0x1B SLOAD PUSH1 0xFF AND ISZERO PUSH2 0x1D09 JUMPI PUSH1 0x0 PUSH2 0x3E8 PUSH1 0x1A SLOAD PUSH1 0x7 SLOAD PUSH2 0x1C14 SWAP2 SWAP1 PUSH2 0x2DA3 JUMP JUMPDEST PUSH2 0x1C1E SWAP2 SWAP1 PUSH2 0x2D81 JUMP JUMPDEST PUSH1 0x1F SLOAD SWAP1 SWAP2 POP PUSH1 0x1 PUSH1 0x1 PUSH1 0xA0 SHL SUB DUP7 DUP2 AND SWAP2 AND EQ ISZERO PUSH2 0x1CA3 JUMPI DUP1 DUP5 GT ISZERO PUSH2 0x1C9E JUMPI PUSH1 0x40 MLOAD PUSH3 0x461BCD PUSH1 0xE5 SHL DUP2 MSTORE PUSH1 0x20 PUSH1 0x4 DUP3 ADD MSTORE PUSH1 0x2E PUSH1 0x24 DUP3 ADD MSTORE PUSH32 0x5472616E73616374656420616D6F756E742065786365656420746865206D6178 PUSH1 0x44 DUP3 ADD MSTORE PUSH14 0x20616C6C6F7765642076616C7565 PUSH1 0x90 SHL PUSH1 0x64 DUP3 ADD MSTORE PUSH1 0x84 ADD PUSH2 0xB21 JUMP JUMPDEST PUSH2 0x1D07 JUMP JUMPDEST DUP1 PUSH2 0x1CAD DUP7 PUSH2 0x1355 JUMP JUMPDEST GT ISZERO PUSH2 0x1D07 JUMPI PUSH1 0x40 MLOAD PUSH3 0x461BCD PUSH1 0xE5 SHL DUP2 MSTORE PUSH1 0x20 PUSH1 0x4 DUP3 ADD MSTORE PUSH1 0x24 DUP1 DUP3 ADD MSTORE PUSH32 0x57616C6C65742062616C616E6365206578636565647320746865206D6178206C PUSH1 0x44 DUP3 ADD MSTORE PUSH4 0x1A5B5A5D PUSH1 0xE2 SHL PUSH1 0x64 DUP3 ADD MSTORE PUSH1 0x84 ADD PUSH2 0xB21 JUMP JUMPDEST POP JUMPDEST POP POP POP POP POP JUMP JUMPDEST PUSH1 0x0 DUP2 DUP5 DUP5 GT ISZERO PUSH2 0x1D34 JUMPI PUSH1 0x40 MLOAD PUSH3 0x461BCD PUSH1 0xE5 SHL DUP2 MSTORE PUSH1 0x4 ADD PUSH2 0xB21 SWAP2 SWAP1 PUSH2 0x2C61 JUMP JUMPDEST POP POP POP SWAP1 SUB SWAP1 JUMP JUMPDEST PUSH1 0x0 DUP1 PUSH1 0x0 PUSH2 0x1D49 PUSH2 0x22C0 JUMP JUMPDEST SWAP1 SWAP3 POP SWAP1 POP PUSH2 0x1D58 DUP3 DUP3 PUSH2 0x1D5F JUMP JUMPDEST SWAP3 POP POP POP SWAP1 JUMP JUMPDEST PUSH1 0x0 PUSH2 0xCBE DUP3 DUP5 PUSH2 0x2D81 JUMP JUMPDEST PUSH1 0x0 PUSH2 0xCBE DUP3 DUP5 PUSH2 0x2D69 JUMP JUMPDEST PUSH1 0x0 DUP1 PUSH1 0x0 DUP1 PUSH1 0x0 DUP1 PUSH1 0x0 DUP1 PUSH1 0x0 PUSH2 0x1D8E DUP11 PUSH2 0x2442 JUMP JUMPDEST SWAP3 POP SWAP3 POP SWAP3 POP PUSH1 0x0 DUP1 PUSH1 0x0 PUSH2 0x1DAC DUP14 DUP7 DUP7 PUSH2 0x1DA7 PUSH2 0x1D3C JUMP JUMPDEST PUSH2 0x247E JUMP JUMPDEST SWAP2 SWAP16 SWAP1 SWAP15 POP SWAP1 SWAP13 POP SWAP6 SWAP11 POP SWAP4 SWAP9 POP SWAP2 SWAP7 POP SWAP3 SWAP5 POP POP POP POP POP JUMP JUMPDEST PUSH1 0x0 PUSH2 0xCBE DUP3 DUP5 PUSH2 0x2DC2 JUMP JUMPDEST PUSH1 0x0 DUP1 SLOAD PUSH1 0x1 PUSH1 0x1 PUSH1 0xA0 SHL SUB DUP4 DUP2 AND PUSH1 0x1 PUSH1 0x1 PUSH1 0xA0 SHL SUB NOT DUP4 AND DUP2 OR DUP5 SSTORE PUSH1 0x40 MLOAD SWAP2 SWAP1 SWAP3 AND SWAP3 DUP4 SWAP2 PUSH32 0x8BE0079C531659141344CD1FD0A4F28419497F9722A3DAAFE3B4186F6B6457E0 SWAP2 SWAP1 LOG3 POP POP JUMP JUMPDEST PUSH1 0x1 PUSH1 0x1 PUSH1 0xA0 SHL SUB DUP4 AND ISZERO DUP1 PUSH2 0x1E3F JUMPI POP PUSH1 0x1 PUSH1 0x1 PUSH1 0xA0 SHL SUB DUP3 AND ISZERO JUMPDEST ISZERO PUSH2 0x1E49 JUMPI POP POP POP JUMP JUMPDEST PUSH1 0x22 SLOAD PUSH1 0x1 PUSH1 0xA0 SHL SWAP1 DIV PUSH1 0xFF AND ISZERO DUP1 ISZERO PUSH2 0x1E6D JUMPI POP PUSH1 0x22 SLOAD PUSH1 0x1 PUSH1 0x1 PUSH1 0xA0 SHL SUB AND ISZERO ISZERO JUMPDEST ISZERO PUSH2 0x1EE7 JUMPI PUSH1 0x22 SLOAD PUSH1 0x40 MLOAD PUSH4 0x5D37A8DD PUSH1 0xE0 SHL DUP2 MSTORE CALLER PUSH1 0x4 DUP3 ADD MSTORE PUSH1 0x1 PUSH1 0x1 PUSH1 0xA0 SHL SUB DUP6 DUP2 AND PUSH1 0x24 DUP4 ADD MSTORE DUP5 DUP2 AND PUSH1 0x44 DUP4 ADD MSTORE PUSH1 0x64 DUP3 ADD DUP5 SWAP1 MSTORE SWAP1 SWAP2 AND SWAP1 PUSH4 0x5D37A8DD SWAP1 PUSH1 0x84 ADD PUSH1 0x0 PUSH1 0x40 MLOAD DUP1 DUP4 SUB DUP2 PUSH1 0x0 DUP8 DUP1 EXTCODESIZE ISZERO DUP1 ISZERO PUSH2 0x1ECE JUMPI PUSH1 0x0 DUP1 REVERT JUMPDEST POP GAS CALL ISZERO DUP1 ISZERO PUSH2 0x1EE2 JUMPI RETURNDATASIZE PUSH1 0x0 DUP1 RETURNDATACOPY RETURNDATASIZE PUSH1 0x0 REVERT JUMPDEST POP POP POP POP JUMPDEST POP POP POP JUMP JUMPDEST PUSH1 0x1F DUP1 SLOAD PUSH1 0xFF PUSH1 0xA0 SHL NOT AND PUSH1 0x1 PUSH1 0xA0 SHL OR SWAP1 SSTORE PUSH1 0x0 PUSH2 0x1F0C DUP3 PUSH1 0x2 PUSH2 0x1D5F JUMP JUMPDEST SWAP1 POP PUSH1 0x0 PUSH2 0x1F1A DUP4 DUP4 PUSH2 0x1DC6 JUMP JUMPDEST SWAP1 POP SELFBALANCE PUSH2 0x1F26 DUP4 PUSH2 0x24CE JUMP JUMPDEST PUSH1 0x0 PUSH2 0x1F32 SELFBALANCE DUP4 PUSH2 0x1DC6 JUMP JUMPDEST SWAP1 POP PUSH2 0x1F3E DUP4 DUP3 PUSH2 0x262F JUMP JUMPDEST PUSH1 0x40 DUP1 MLOAD DUP6 DUP2 MSTORE PUSH1 0x20 DUP2 ADD DUP4 SWAP1 MSTORE SWAP1 DUP2 ADD DUP5 SWAP1 MSTORE PUSH32 0x17BBFB9A6069321B6DED73BD96327C9E6B7212A5CD51FF219CD61370ACAFB561 SWAP1 PUSH1 0x60 ADD PUSH1 0x40 MLOAD DUP1 SWAP2 SUB SWAP1 LOG1 POP POP PUSH1 0x1F DUP1 SLOAD PUSH1 0xFF PUSH1 0xA0 SHL NOT AND SWAP1 SSTORE POP POP POP JUMP JUMPDEST PUSH1 0x1 PUSH1 0x1 PUSH1 0xA0 SHL SUB DUP4 AND PUSH1 0x0 SWAP1 DUP2 MSTORE PUSH1 0x4 PUSH1 0x20 MSTORE PUSH1 0x40 SWAP1 KECCAK256 SLOAD PUSH1 0xFF AND DUP1 PUSH2 0x1FD2 JUMPI POP PUSH1 0x1 PUSH1 0x1 PUSH1 0xA0 SHL SUB DUP3 AND PUSH1 0x0 SWAP1 DUP2 MSTORE PUSH1 0x4 PUSH1 0x20 MSTORE PUSH1 0x40 SWAP1 KECCAK256 SLOAD PUSH1 0xFF AND JUMPDEST ISZERO PUSH2 0x1FE4 JUMPI PUSH2 0x1FDF PUSH2 0x270C JUMP JUMPDEST PUSH2 0x2032 JUMP JUMPDEST PUSH1 0x1F SLOAD PUSH1 0x1 PUSH1 0x1 PUSH1 0xA0 SHL SUB DUP4 DUP2 AND SWAP2 AND EQ ISZERO PUSH2 0x2032 JUMPI PUSH2 0x2032 PUSH1 0xD DUP1 SLOAD PUSH1 0xE SSTORE PUSH1 0xF DUP1 SLOAD PUSH1 0x10 SSTORE PUSH1 0x11 DUP1 SLOAD PUSH1 0x12 SSTORE PUSH1 0x13 DUP1 SLOAD PUSH1 0x15 SSTORE PUSH1 0x16 SLOAD SWAP1 SWAP4 SSTORE PUSH1 0x17 SLOAD SWAP1 SWAP2 SSTORE PUSH1 0x18 SLOAD SWAP1 SWAP2 SSTORE PUSH1 0x19 SLOAD SWAP1 SSTORE JUMP JUMPDEST PUSH1 0x0 PUSH2 0x2054 PUSH1 0x64 PUSH2 0x204E PUSH1 0x11 SLOAD DUP6 PUSH2 0x2768 SWAP1 SWAP2 SWAP1 PUSH4 0xFFFFFFFF AND JUMP JUMPDEST SWAP1 PUSH2 0x1D5F JUMP JUMPDEST SWAP1 POP PUSH1 0x0 PUSH2 0x2072 PUSH1 0x64 PUSH2 0x204E PUSH1 0x13 SLOAD DUP7 PUSH2 0x2768 SWAP1 SWAP2 SWAP1 PUSH4 0xFFFFFFFF AND JUMP JUMPDEST PUSH1 0x1 PUSH1 0x1 PUSH1 0xA0 SHL SUB DUP7 AND PUSH1 0x0 SWAP1 DUP2 MSTORE PUSH1 0x5 PUSH1 0x20 MSTORE PUSH1 0x40 SWAP1 KECCAK256 SLOAD SWAP1 SWAP2 POP PUSH1 0xFF AND DUP1 ISZERO PUSH2 0x20B6 JUMPI POP PUSH1 0x1 PUSH1 0x1 PUSH1 0xA0 SHL SUB DUP5 AND PUSH1 0x0 SWAP1 DUP2 MSTORE PUSH1 0x5 PUSH1 0x20 MSTORE PUSH1 0x40 SWAP1 KECCAK256 SLOAD PUSH1 0xFF AND ISZERO JUMPDEST ISZERO PUSH2 0x20DE JUMPI PUSH2 0x20D9 DUP6 DUP6 PUSH2 0x20D4 DUP5 PUSH2 0x20CE DUP9 DUP9 PUSH2 0x1DC6 JUMP JUMPDEST SWAP1 PUSH2 0x1DC6 JUMP JUMPDEST PUSH2 0x2774 JUMP JUMPDEST PUSH2 0x220B JUMP JUMPDEST PUSH1 0x1 PUSH1 0x1 PUSH1 0xA0 SHL SUB DUP6 AND PUSH1 0x0 SWAP1 DUP2 MSTORE PUSH1 0x5 PUSH1 0x20 MSTORE PUSH1 0x40 SWAP1 KECCAK256 SLOAD PUSH1 0xFF AND ISZERO DUP1 ISZERO PUSH2 0x211F JUMPI POP PUSH1 0x1 PUSH1 0x1 PUSH1 0xA0 SHL SUB DUP5 AND PUSH1 0x0 SWAP1 DUP2 MSTORE PUSH1 0x5 PUSH1 0x20 MSTORE PUSH1 0x40 SWAP1 KECCAK256 SLOAD PUSH1 0xFF AND JUMPDEST ISZERO PUSH2 0x213C JUMPI PUSH2 0x20D9 DUP6 DUP6 PUSH2 0x2137 DUP5 PUSH2 0x20CE DUP9 DUP9 PUSH2 0x1DC6 JUMP JUMPDEST PUSH2 0x289A JUMP JUMPDEST PUSH1 0x1 PUSH1 0x1 PUSH1 0xA0 SHL SUB DUP6 AND PUSH1 0x0 SWAP1 DUP2 MSTORE PUSH1 0x5 PUSH1 0x20 MSTORE PUSH1 0x40 SWAP1 KECCAK256 SLOAD PUSH1 0xFF AND ISZERO DUP1 ISZERO PUSH2 0x217E JUMPI POP PUSH1 0x1 PUSH1 0x1 PUSH1 0xA0 SHL SUB DUP5 AND PUSH1 0x0 SWAP1 DUP2 MSTORE PUSH1 0x5 PUSH1 0x20 MSTORE PUSH1 0x40 SWAP1 KECCAK256 SLOAD PUSH1 0xFF AND ISZERO JUMPDEST ISZERO PUSH2 0x219B JUMPI PUSH2 0x20D9 DUP6 DUP6 PUSH2 0x2196 DUP5 PUSH2 0x20CE DUP9 DUP9 PUSH2 0x1DC6 JUMP JUMPDEST PUSH2 0x2943 JUMP JUMPDEST PUSH1 0x1 PUSH1 0x1 PUSH1 0xA0 SHL SUB DUP6 AND PUSH1 0x0 SWAP1 DUP2 MSTORE PUSH1 0x5 PUSH1 0x20 MSTORE PUSH1 0x40 SWAP1 KECCAK256 SLOAD PUSH1 0xFF AND DUP1 ISZERO PUSH2 0x21DB JUMPI POP PUSH1 0x1 PUSH1 0x1 PUSH1 0xA0 SHL SUB DUP5 AND PUSH1 0x0 SWAP1 DUP2 MSTORE PUSH1 0x5 PUSH1 0x20 MSTORE PUSH1 0x40 SWAP1 KECCAK256 SLOAD PUSH1 0xFF AND JUMPDEST ISZERO PUSH2 0x21F8 JUMPI PUSH2 0x20D9 DUP6 DUP6 PUSH2 0x21F3 DUP5 PUSH2 0x20CE DUP9 DUP9 PUSH2 0x1DC6 JUMP JUMPDEST PUSH2 0x2987 JUMP JUMPDEST PUSH2 0x220B DUP6 DUP6 PUSH2 0x2196 DUP5 PUSH2 0x20CE DUP9 DUP9 PUSH2 0x1DC6 JUMP JUMPDEST PUSH1 0x0 PUSH1 0xD DUP2 SWAP1 SSTORE PUSH1 0xF DUP2 SWAP1 SSTORE PUSH2 0x2223 SWAP1 DUP7 SWAP1 DUP5 PUSH2 0x2943 JUMP JUMPDEST PUSH1 0x14 SLOAD PUSH2 0x223B SWAP1 DUP7 SWAP1 PUSH1 0x1 PUSH1 0x1 PUSH1 0xA0 SHL SUB AND DUP4 PUSH2 0x2943 JUMP JUMPDEST PUSH1 0xE SLOAD PUSH1 0xD SSTORE PUSH1 0x10 SLOAD PUSH1 0xF SSTORE PUSH1 0x1 PUSH1 0x1 PUSH1 0xA0 SHL SUB DUP6 AND PUSH1 0x0 SWAP1 DUP2 MSTORE PUSH1 0x4 PUSH1 0x20 MSTORE PUSH1 0x40 SWAP1 KECCAK256 SLOAD PUSH1 0xFF AND DUP1 PUSH2 0x2286 JUMPI POP PUSH1 0x1 PUSH1 0x1 PUSH1 0xA0 SHL SUB DUP5 AND PUSH1 0x0 SWAP1 DUP2 MSTORE PUSH1 0x4 PUSH1 0x20 MSTORE PUSH1 0x40 SWAP1 KECCAK256 SLOAD PUSH1 0xFF AND JUMPDEST DUP1 PUSH2 0x229E JUMPI POP PUSH1 0x1F SLOAD PUSH1 0x1 PUSH1 0x1 PUSH1 0xA0 SHL SUB DUP6 DUP2 AND SWAP2 AND EQ JUMPDEST ISZERO PUSH2 0x1D09 JUMPI PUSH2 0x1D09 PUSH1 0xE SLOAD PUSH1 0xD SSTORE PUSH1 0x10 SLOAD PUSH1 0xF SSTORE PUSH1 0x12 SLOAD PUSH1 0x11 SSTORE PUSH1 0x15 SLOAD PUSH1 0x13 SSTORE JUMP JUMPDEST PUSH1 0x8 SLOAD PUSH1 0x7 SLOAD PUSH1 0x0 SWAP2 DUP3 SWAP2 DUP3 JUMPDEST PUSH1 0x6 SLOAD DUP2 LT ISZERO PUSH2 0x2412 JUMPI DUP3 PUSH1 0x1 PUSH1 0x0 PUSH1 0x6 DUP5 DUP2 SLOAD DUP2 LT PUSH2 0x22EF JUMPI PUSH2 0x22EF PUSH2 0x2E5B JUMP JUMPDEST PUSH1 0x0 SWAP2 DUP3 MSTORE PUSH1 0x20 DUP1 DUP4 KECCAK256 SWAP1 SWAP2 ADD SLOAD PUSH1 0x1 PUSH1 0x1 PUSH1 0xA0 SHL SUB AND DUP4 MSTORE DUP3 ADD SWAP3 SWAP1 SWAP3 MSTORE PUSH1 0x40 ADD SWAP1 KECCAK256 SLOAD GT DUP1 PUSH2 0x235A JUMPI POP DUP2 PUSH1 0x2 PUSH1 0x0 PUSH1 0x6 DUP5 DUP2 SLOAD DUP2 LT PUSH2 0x2333 JUMPI PUSH2 0x2333 PUSH2 0x2E5B JUMP JUMPDEST PUSH1 0x0 SWAP2 DUP3 MSTORE PUSH1 0x20 DUP1 DUP4 KECCAK256 SWAP1 SWAP2 ADD SLOAD PUSH1 0x1 PUSH1 0x1 PUSH1 0xA0 SHL SUB AND DUP4 MSTORE DUP3 ADD SWAP3 SWAP1 SWAP3 MSTORE PUSH1 0x40 ADD SWAP1 KECCAK256 SLOAD GT JUMPDEST ISZERO PUSH2 0x2370 JUMPI PUSH1 0x8 SLOAD PUSH1 0x7 SLOAD SWAP5 POP SWAP5 POP POP POP POP SWAP1 SWAP2 JUMP JUMPDEST PUSH2 0x23B6 PUSH1 0x1 PUSH1 0x0 PUSH1 0x6 DUP5 DUP2 SLOAD DUP2 LT PUSH2 0x238A JUMPI PUSH2 0x238A PUSH2 0x2E5B JUMP JUMPDEST PUSH1 0x0 SWAP2 DUP3 MSTORE PUSH1 0x20 DUP1 DUP4 KECCAK256 SWAP1 SWAP2 ADD SLOAD PUSH1 0x1 PUSH1 0x1 PUSH1 0xA0 SHL SUB AND DUP4 MSTORE DUP3 ADD SWAP3 SWAP1 SWAP3 MSTORE PUSH1 0x40 ADD SWAP1 KECCAK256 SLOAD DUP5 SWAP1 PUSH2 0x1DC6 JUMP JUMPDEST SWAP3 POP PUSH2 0x23FE PUSH1 0x2 PUSH1 0x0 PUSH1 0x6 DUP5 DUP2 SLOAD DUP2 LT PUSH2 0x23D2 JUMPI PUSH2 0x23D2 PUSH2 0x2E5B JUMP JUMPDEST PUSH1 0x0 SWAP2 DUP3 MSTORE PUSH1 0x20 DUP1 DUP4 KECCAK256 SWAP1 SWAP2 ADD SLOAD PUSH1 0x1 PUSH1 0x1 PUSH1 0xA0 SHL SUB AND DUP4 MSTORE DUP3 ADD SWAP3 SWAP1 SWAP3 MSTORE PUSH1 0x40 ADD SWAP1 KECCAK256 SLOAD DUP4 SWAP1 PUSH2 0x1DC6 JUMP JUMPDEST SWAP2 POP DUP1 PUSH2 0x240A DUP2 PUSH2 0x2E14 JUMP JUMPDEST SWAP2 POP POP PUSH2 0x22CD JUMP JUMPDEST POP PUSH1 0x7 SLOAD PUSH1 0x8 SLOAD PUSH2 0x2422 SWAP2 PUSH2 0x1D5F JUMP JUMPDEST DUP3 LT ISZERO PUSH2 0x2439 JUMPI PUSH1 0x8 SLOAD PUSH1 0x7 SLOAD SWAP4 POP SWAP4 POP POP POP SWAP1 SWAP2 JUMP JUMPDEST SWAP1 SWAP4 SWAP1 SWAP3 POP SWAP1 POP JUMP JUMPDEST PUSH1 0x0 DUP1 PUSH1 0x0 DUP1 PUSH2 0x2451 DUP6 PUSH2 0x29FA JUMP JUMPDEST SWAP1 POP PUSH1 0x0 PUSH2 0x245E DUP7 PUSH2 0x2A16 JUMP JUMPDEST SWAP1 POP PUSH1 0x0 PUSH2 0x2470 DUP3 PUSH2 0x20CE DUP10 DUP7 PUSH2 0x1DC6 JUMP JUMPDEST SWAP8 SWAP3 SWAP7 POP SWAP1 SWAP5 POP SWAP1 SWAP3 POP POP POP JUMP JUMPDEST PUSH1 0x0 DUP1 DUP1 DUP1 PUSH2 0x248D DUP9 DUP7 PUSH2 0x2768 JUMP JUMPDEST SWAP1 POP PUSH1 0x0 PUSH2 0x249B DUP9 DUP8 PUSH2 0x2768 JUMP JUMPDEST SWAP1 POP PUSH1 0x0 PUSH2 0x24A9 DUP9 DUP9 PUSH2 0x2768 JUMP JUMPDEST SWAP1 POP PUSH1 0x0 PUSH2 0x24BB DUP3 PUSH2 0x20CE DUP7 DUP7 PUSH2 0x1DC6 JUMP JUMPDEST SWAP4 SWAP12 SWAP4 SWAP11 POP SWAP2 SWAP9 POP SWAP2 SWAP7 POP POP POP POP POP POP POP JUMP JUMPDEST PUSH1 0x40 DUP1 MLOAD PUSH1 0x2 DUP1 DUP3 MSTORE PUSH1 0x60 DUP3 ADD DUP4 MSTORE PUSH1 0x0 SWAP3 PUSH1 0x20 DUP4 ADD SWAP1 DUP1 CALLDATASIZE DUP4 CALLDATACOPY ADD SWAP1 POP POP SWAP1 POP ADDRESS DUP2 PUSH1 0x0 DUP2 MLOAD DUP2 LT PUSH2 0x2503 JUMPI PUSH2 0x2503 PUSH2 0x2E5B JUMP JUMPDEST PUSH1 0x1 PUSH1 0x1 PUSH1 0xA0 SHL SUB SWAP3 DUP4 AND PUSH1 0x20 SWAP2 DUP3 MUL SWAP3 SWAP1 SWAP3 ADD DUP2 ADD SWAP2 SWAP1 SWAP2 MSTORE PUSH1 0x1E SLOAD PUSH1 0x40 DUP1 MLOAD PUSH4 0x15AB88C9 PUSH1 0xE3 SHL DUP2 MSTORE SWAP1 MLOAD SWAP2 SWAP1 SWAP4 AND SWAP3 PUSH4 0xAD5C4648 SWAP3 PUSH1 0x4 DUP1 DUP4 ADD SWAP4 SWAP2 SWAP3 DUP3 SWAP1 SUB ADD DUP2 DUP7 DUP1 EXTCODESIZE ISZERO DUP1 ISZERO PUSH2 0x2557 JUMPI PUSH1 0x0 DUP1 REVERT JUMPDEST POP GAS STATICCALL ISZERO DUP1 ISZERO PUSH2 0x256B JUMPI RETURNDATASIZE PUSH1 0x0 DUP1 RETURNDATACOPY RETURNDATASIZE PUSH1 0x0 REVERT JUMPDEST POP POP POP POP PUSH1 0x40 MLOAD RETURNDATASIZE PUSH1 0x1F NOT PUSH1 0x1F DUP3 ADD AND DUP3 ADD DUP1 PUSH1 0x40 MSTORE POP DUP2 ADD SWAP1 PUSH2 0x258F SWAP2 SWAP1 PUSH2 0x2B10 JUMP JUMPDEST DUP2 PUSH1 0x1 DUP2 MLOAD DUP2 LT PUSH2 0x25A2 JUMPI PUSH2 0x25A2 PUSH2 0x2E5B JUMP JUMPDEST PUSH1 0x1 PUSH1 0x1 PUSH1 0xA0 SHL SUB SWAP3 DUP4 AND PUSH1 0x20 SWAP2 DUP3 MUL SWAP3 SWAP1 SWAP3 ADD ADD MSTORE PUSH1 0x1E SLOAD PUSH2 0x25C8 SWAP2 ADDRESS SWAP2 AND DUP5 PUSH2 0x1904 JUMP JUMPDEST PUSH1 0x1E SLOAD PUSH1 0x40 MLOAD PUSH4 0x791AC947 PUSH1 0xE0 SHL DUP2 MSTORE PUSH1 0x1 PUSH1 0x1 PUSH1 0xA0 SHL SUB SWAP1 SWAP2 AND SWAP1 PUSH4 0x791AC947 SWAP1 PUSH2 0x2601 SWAP1 DUP6 SWAP1 PUSH1 0x0 SWAP1 DUP7 SWAP1 ADDRESS SWAP1 TIMESTAMP SWAP1 PUSH1 0x4 ADD PUSH2 0x2CF8 JUMP JUMPDEST PUSH1 0x0 PUSH1 0x40 MLOAD DUP1 DUP4 SUB DUP2 PUSH1 0x0 DUP8 DUP1 EXTCODESIZE ISZERO DUP1 ISZERO PUSH2 0x261B JUMPI PUSH1 0x0 DUP1 REVERT JUMPDEST POP GAS CALL ISZERO DUP1 ISZERO PUSH2 0x1D07 JUMPI RETURNDATASIZE PUSH1 0x0 DUP1 RETURNDATACOPY RETURNDATASIZE PUSH1 0x0 REVERT JUMPDEST PUSH1 0x1E SLOAD PUSH2 0x2647 SWAP1 ADDRESS SWAP1 PUSH1 0x1 PUSH1 0x1 PUSH1 0xA0 SHL SUB AND DUP5 PUSH2 0x1904 JUMP JUMPDEST PUSH1 0x1E SLOAD PUSH1 0x1 PUSH1 0x1 PUSH1 0xA0 SHL SUB AND PUSH4 0xF305D719 DUP3 ADDRESS DUP6 PUSH1 0x0 DUP1 PUSH2 0x2670 PUSH1 0x0 SLOAD PUSH1 0x1 PUSH1 0x1 PUSH1 0xA0 SHL SUB AND SWAP1 JUMP JUMPDEST PUSH1 0x40 MLOAD PUSH1 0xE0 DUP9 SWAP1 SHL PUSH1 0x1 PUSH1 0x1 PUSH1 0xE0 SHL SUB NOT AND DUP2 MSTORE PUSH1 0x1 PUSH1 0x1 PUSH1 0xA0 SHL SUB SWAP6 DUP7 AND PUSH1 0x4 DUP3 ADD MSTORE PUSH1 0x24 DUP2 ADD SWAP5 SWAP1 SWAP5 MSTORE PUSH1 0x44 DUP5 ADD SWAP3 SWAP1 SWAP3 MSTORE PUSH1 0x64 DUP4 ADD MSTORE SWAP1 SWAP2 AND PUSH1 0x84 DUP3 ADD MSTORE TIMESTAMP PUSH1 0xA4 DUP3 ADD MSTORE PUSH1 0xC4 ADD PUSH1 0x60 PUSH1 0x40 MLOAD DUP1 DUP4 SUB DUP2 DUP6 DUP9 DUP1 EXTCODESIZE ISZERO DUP1 ISZERO PUSH2 0x26D3 JUMPI PUSH1 0x0 DUP1 REVERT JUMPDEST POP GAS CALL ISZERO DUP1 ISZERO PUSH2 0x26E7 JUMPI RETURNDATASIZE PUSH1 0x0 DUP1 RETURNDATACOPY RETURNDATASIZE PUSH1 0x0 REVERT JUMPDEST POP POP POP POP POP PUSH1 0x40 MLOAD RETURNDATASIZE PUSH1 0x1F NOT PUSH1 0x1F DUP3 ADD AND DUP3 ADD DUP1 PUSH1 0x40 MSTORE POP DUP2 ADD SWAP1 PUSH2 0x1D09 SWAP2 SWAP1 PUSH2 0x2C33 JUMP JUMPDEST PUSH1 0xD SLOAD ISZERO DUP1 ISZERO PUSH2 0x271C JUMPI POP PUSH1 0xF SLOAD ISZERO JUMPDEST DUP1 ISZERO PUSH2 0x2728 JUMPI POP PUSH1 0x13 SLOAD ISZERO JUMPDEST DUP1 ISZERO PUSH2 0x2734 JUMPI POP PUSH1 0x11 SLOAD ISZERO JUMPDEST ISZERO PUSH2 0x273B JUMPI JUMP JUMPDEST PUSH1 0xD DUP1 SLOAD PUSH1 0xE SSTORE PUSH1 0xF DUP1 SLOAD PUSH1 0x10 SSTORE PUSH1 0x11 DUP1 SLOAD PUSH1 0x12 SSTORE PUSH1 0x13 DUP1 SLOAD PUSH1 0x15 SSTORE PUSH1 0x0 SWAP4 DUP5 SWAP1 SSTORE SWAP2 DUP4 SWAP1 SSTORE SWAP1 DUP3 SWAP1 SSTORE SSTORE JUMP JUMPDEST PUSH1 0x0 PUSH2 0xCBE DUP3 DUP5 PUSH2 0x2DA3 JUMP JUMPDEST PUSH1 0x0 DUP1 PUSH1 0x0 DUP1 PUSH1 0x0 DUP1 PUSH2 0x2786 DUP8 PUSH2 0x1D77 JUMP JUMPDEST PUSH1 0x1 PUSH1 0x1 PUSH1 0xA0 SHL SUB DUP16 AND PUSH1 0x0 SWAP1 DUP2 MSTORE PUSH1 0x2 PUSH1 0x20 MSTORE PUSH1 0x40 SWAP1 KECCAK256 SLOAD SWAP6 SWAP12 POP SWAP4 SWAP10 POP SWAP2 SWAP8 POP SWAP6 POP SWAP4 POP SWAP2 POP PUSH2 0x27B8 SWAP1 DUP9 PUSH2 0x1DC6 JUMP JUMPDEST PUSH1 0x1 PUSH1 0x1 PUSH1 0xA0 SHL SUB DUP11 AND PUSH1 0x0 SWAP1 DUP2 MSTORE PUSH1 0x2 PUSH1 0x20 SWAP1 DUP2 MSTORE PUSH1 0x40 DUP1 DUP4 KECCAK256 SWAP4 SWAP1 SWAP4 SSTORE PUSH1 0x1 SWAP1 MSTORE KECCAK256 SLOAD PUSH2 0x27E7 SWAP1 DUP8 PUSH2 0x1DC6 JUMP JUMPDEST PUSH1 0x1 PUSH1 0x1 PUSH1 0xA0 SHL SUB DUP1 DUP12 AND PUSH1 0x0 SWAP1 DUP2 MSTORE PUSH1 0x1 PUSH1 0x20 MSTORE PUSH1 0x40 DUP1 DUP3 KECCAK256 SWAP4 SWAP1 SWAP4 SSTORE SWAP1 DUP11 AND DUP2 MSTORE KECCAK256 SLOAD PUSH2 0x2816 SWAP1 DUP7 PUSH2 0x1D6B JUMP JUMPDEST PUSH1 0x1 PUSH1 0x1 PUSH1 0xA0 SHL SUB DUP10 AND PUSH1 0x0 SWAP1 DUP2 MSTORE PUSH1 0x1 PUSH1 0x20 MSTORE PUSH1 0x40 SWAP1 KECCAK256 SSTORE PUSH2 0x2838 DUP2 PUSH2 0x2A32 JUMP JUMPDEST PUSH2 0x2842 DUP5 DUP4 PUSH2 0x2ABA JUMP JUMPDEST DUP8 PUSH1 0x1 PUSH1 0x1 PUSH1 0xA0 SHL SUB AND DUP10 PUSH1 0x1 PUSH1 0x1 PUSH1 0xA0 SHL SUB AND PUSH32 0xDDF252AD1BE2C89B69C2B068FC378DAA952BA7F163C4A11628F55A4DF523B3EF DUP6 PUSH1 0x40 MLOAD PUSH2 0x2887 SWAP2 DUP2 MSTORE PUSH1 0x20 ADD SWAP1 JUMP JUMPDEST PUSH1 0x40 MLOAD DUP1 SWAP2 SUB SWAP1 LOG3 POP POP POP POP POP POP POP POP POP JUMP JUMPDEST PUSH1 0x0 DUP1 PUSH1 0x0 DUP1 PUSH1 0x0 DUP1 PUSH2 0x28AC DUP8 PUSH2 0x1D77 JUMP JUMPDEST PUSH1 0x1 PUSH1 0x1 PUSH1 0xA0 SHL SUB DUP16 AND PUSH1 0x0 SWAP1 DUP2 MSTORE PUSH1 0x1 PUSH1 0x20 MSTORE PUSH1 0x40 SWAP1 KECCAK256 SLOAD SWAP6 SWAP12 POP SWAP4 SWAP10 POP SWAP2 SWAP8 POP SWAP6 POP SWAP4 POP SWAP2 POP PUSH2 0x28DE SWAP1 DUP8 PUSH2 0x1DC6 JUMP JUMPDEST PUSH1 0x1 PUSH1 0x1 PUSH1 0xA0 SHL SUB DUP1 DUP12 AND PUSH1 0x0 SWAP1 DUP2 MSTORE PUSH1 0x1 PUSH1 0x20 SWAP1 DUP2 MSTORE PUSH1 0x40 DUP1 DUP4 KECCAK256 SWAP5 SWAP1 SWAP5 SSTORE SWAP2 DUP12 AND DUP2 MSTORE PUSH1 0x2 SWAP1 SWAP2 MSTORE KECCAK256 SLOAD PUSH2 0x2914 SWAP1 DUP5 PUSH2 0x1D6B JUMP JUMPDEST PUSH1 0x1 PUSH1 0x1 PUSH1 0xA0 SHL SUB DUP10 AND PUSH1 0x0 SWAP1 DUP2 MSTORE PUSH1 0x2 PUSH1 0x20 SWAP1 DUP2 MSTORE PUSH1 0x40 DUP1 DUP4 KECCAK256 SWAP4 SWAP1 SWAP4 SSTORE PUSH1 0x1 SWAP1 MSTORE KECCAK256 SLOAD PUSH2 0x2816 SWAP1 DUP7 PUSH2 0x1D6B JUMP JUMPDEST PUSH1 0x0 DUP1 PUSH1 0x0 DUP1 PUSH1 0x0 DUP1 PUSH2 0x2955 DUP8 PUSH2 0x1D77 JUMP JUMPDEST PUSH1 0x1 PUSH1 0x1 PUSH1 0xA0 SHL SUB DUP16 AND PUSH1 0x0 SWAP1 DUP2 MSTORE PUSH1 0x1 PUSH1 0x20 MSTORE PUSH1 0x40 SWAP1 KECCAK256 SLOAD SWAP6 SWAP12 POP SWAP4 SWAP10 POP SWAP2 SWAP8 POP SWAP6 POP SWAP4 POP SWAP2 POP PUSH2 0x27E7 SWAP1 DUP8 PUSH2 0x1DC6 JUMP JUMPDEST PUSH1 0x0 DUP1 PUSH1 0x0 DUP1 PUSH1 0x0 DUP1 PUSH2 0x2999 DUP8 PUSH2 0x1D77 JUMP JUMPDEST PUSH1 0x1 PUSH1 0x1 PUSH1 0xA0 SHL SUB DUP16 AND PUSH1 0x0 SWAP1 DUP2 MSTORE PUSH1 0x2 PUSH1 0x20 MSTORE PUSH1 0x40 SWAP1 KECCAK256 SLOAD SWAP6 SWAP12 POP SWAP4 SWAP10 POP SWAP2 SWAP8 POP SWAP6 POP SWAP4 POP SWAP2 POP PUSH2 0x29CB SWAP1 DUP9 PUSH2 0x1DC6 JUMP JUMPDEST PUSH1 0x1 PUSH1 0x1 PUSH1 0xA0 SHL SUB DUP11 AND PUSH1 0x0 SWAP1 DUP2 MSTORE PUSH1 0x2 PUSH1 0x20 SWAP1 DUP2 MSTORE PUSH1 0x40 DUP1 DUP4 KECCAK256 SWAP4 SWAP1 SWAP4 SSTORE PUSH1 0x1 SWAP1 MSTORE KECCAK256 SLOAD PUSH2 0x28DE SWAP1 DUP8 PUSH2 0x1DC6 JUMP JUMPDEST PUSH1 0x0 PUSH2 0xBD2 PUSH1 0x64 PUSH2 0x204E PUSH1 0xD SLOAD DUP6 PUSH2 0x2768 SWAP1 SWAP2 SWAP1 PUSH4 0xFFFFFFFF AND JUMP JUMPDEST PUSH1 0x0 PUSH2 0xBD2 PUSH1 0x64 PUSH2 0x204E PUSH1 0xF SLOAD DUP6 PUSH2 0x2768 SWAP1 SWAP2 SWAP1 PUSH4 0xFFFFFFFF AND JUMP JUMPDEST PUSH1 0x0 PUSH2 0x2A3C PUSH2 0x1D3C JUMP JUMPDEST SWAP1 POP PUSH1 0x0 PUSH2 0x2A4A DUP4 DUP4 PUSH2 0x2768 JUMP JUMPDEST ADDRESS PUSH1 0x0 SWAP1 DUP2 MSTORE PUSH1 0x1 PUSH1 0x20 MSTORE PUSH1 0x40 SWAP1 KECCAK256 SLOAD SWAP1 SWAP2 POP PUSH2 0x2A67 SWAP1 DUP3 PUSH2 0x1D6B JUMP JUMPDEST ADDRESS PUSH1 0x0 SWAP1 DUP2 MSTORE PUSH1 0x1 PUSH1 0x20 SWAP1 DUP2 MSTORE PUSH1 0x40 DUP1 DUP4 KECCAK256 SWAP4 SWAP1 SWAP4 SSTORE PUSH1 0x5 SWAP1 MSTORE KECCAK256 SLOAD PUSH1 0xFF AND ISZERO PUSH2 0x1EE7 JUMPI ADDRESS PUSH1 0x0 SWAP1 DUP2 MSTORE PUSH1 0x2 PUSH1 0x20 MSTORE PUSH1 0x40 SWAP1 KECCAK256 SLOAD PUSH2 0x2AA5 SWAP1 DUP5 PUSH2 0x1D6B JUMP JUMPDEST ADDRESS PUSH1 0x0 SWAP1 DUP2 MSTORE PUSH1 0x2 PUSH1 0x20 MSTORE PUSH1 0x40 SWAP1 KECCAK256 SSTORE POP POP POP JUMP JUMPDEST PUSH1 0x8 SLOAD PUSH2 0x2AC7 SWAP1 DUP4 PUSH2 0x1DC6 JUMP JUMPDEST PUSH1 0x8 SSTORE PUSH1 0x9 SLOAD PUSH2 0x2AD7 SWAP1 DUP3 PUSH2 0x1D6B JUMP JUMPDEST PUSH1 0x9 SSTORE POP POP JUMP JUMPDEST DUP1 CALLDATALOAD DUP1 ISZERO ISZERO DUP2 EQ PUSH2 0x2AEE JUMPI PUSH1 0x0 DUP1 REVERT JUMPDEST SWAP2 SWAP1 POP JUMP JUMPDEST PUSH1 0x0 PUSH1 0x20 DUP3 DUP5 SUB SLT ISZERO PUSH2 0x2B05 JUMPI PUSH1 0x0 DUP1 REVERT JUMPDEST DUP2 CALLDATALOAD PUSH2 0xCBE DUP2 PUSH2 0x2E71 JUMP JUMPDEST PUSH1 0x0 PUSH1 0x20 DUP3 DUP5 SUB SLT ISZERO PUSH2 0x2B22 JUMPI PUSH1 0x0 DUP1 REVERT JUMPDEST DUP2 MLOAD PUSH2 0xCBE DUP2 PUSH2 0x2E71 JUMP JUMPDEST PUSH1 0x0 DUP1 PUSH1 0x40 DUP4 DUP6 SUB SLT ISZERO PUSH2 0x2B40 JUMPI PUSH1 0x0 DUP1 REVERT JUMPDEST DUP3 CALLDATALOAD PUSH2 0x2B4B DUP2 PUSH2 0x2E71 JUMP JUMPDEST SWAP2 POP PUSH1 0x20 DUP4 ADD CALLDATALOAD PUSH2 0x2B5B DUP2 PUSH2 0x2E71 JUMP JUMPDEST DUP1 SWAP2 POP POP SWAP3 POP SWAP3 SWAP1 POP JUMP JUMPDEST PUSH1 0x0 DUP1 PUSH1 0x0 PUSH1 0x60 DUP5 DUP7 SUB SLT ISZERO PUSH2 0x2B7B JUMPI PUSH1 0x0 DUP1 REVERT JUMPDEST DUP4 CALLDATALOAD PUSH2 0x2B86 DUP2 PUSH2 0x2E71 JUMP JUMPDEST SWAP3 POP PUSH1 0x20 DUP5 ADD CALLDATALOAD PUSH2 0x2B96 DUP2 PUSH2 0x2E71 JUMP JUMPDEST SWAP3 SWAP6 SWAP3 SWAP5 POP POP POP PUSH1 0x40 SWAP2 SWAP1 SWAP2 ADD CALLDATALOAD SWAP1 JUMP JUMPDEST PUSH1 0x0 DUP1 PUSH1 0x40 DUP4 DUP6 SUB SLT ISZERO PUSH2 0x2BBA JUMPI PUSH1 0x0 DUP1 REVERT JUMPDEST DUP3 CALLDATALOAD PUSH2 0x2BC5 DUP2 PUSH2 0x2E71 JUMP JUMPDEST SWAP5 PUSH1 0x20 SWAP4 SWAP1 SWAP4 ADD CALLDATALOAD SWAP4 POP POP POP JUMP JUMPDEST PUSH1 0x0 PUSH1 0x20 DUP3 DUP5 SUB SLT ISZERO PUSH2 0x2BE5 JUMPI PUSH1 0x0 DUP1 REVERT JUMPDEST PUSH2 0xCBE DUP3 PUSH2 0x2ADE JUMP JUMPDEST PUSH1 0x0 PUSH1 0x20 DUP3 DUP5 SUB SLT ISZERO PUSH2 0x2C00 JUMPI PUSH1 0x0 DUP1 REVERT JUMPDEST POP CALLDATALOAD SWAP2 SWAP1 POP JUMP JUMPDEST PUSH1 0x0 DUP1 PUSH1 0x40 DUP4 DUP6 SUB SLT ISZERO PUSH2 0x2C1A JUMPI PUSH1 0x0 DUP1 REVERT JUMPDEST DUP3 CALLDATALOAD SWAP2 POP PUSH2 0x2C2A PUSH1 0x20 DUP5 ADD PUSH2 0x2ADE JUMP JUMPDEST SWAP1 POP SWAP3 POP SWAP3 SWAP1 POP JUMP JUMPDEST PUSH1 0x0 DUP1 PUSH1 0x0 PUSH1 0x60 DUP5 DUP7 SUB SLT ISZERO PUSH2 0x2C48 JUMPI PUSH1 0x0 DUP1 REVERT JUMPDEST DUP4 MLOAD SWAP3 POP PUSH1 0x20 DUP5 ADD MLOAD SWAP2 POP PUSH1 0x40 DUP5 ADD MLOAD SWAP1 POP SWAP3 POP SWAP3 POP SWAP3 JUMP JUMPDEST PUSH1 0x0 PUSH1 0x20 DUP1 DUP4 MSTORE DUP4 MLOAD DUP1 DUP3 DUP6 ADD MSTORE PUSH1 0x0 JUMPDEST DUP2 DUP2 LT ISZERO PUSH2 0x2C8E JUMPI DUP6 DUP2 ADD DUP4 ADD MLOAD DUP6 DUP3 ADD PUSH1 0x40 ADD MSTORE DUP3 ADD PUSH2 0x2C72 JUMP JUMPDEST DUP2 DUP2 GT ISZERO PUSH2 0x2CA0 JUMPI PUSH1 0x0 PUSH1 0x40 DUP4 DUP8 ADD ADD MSTORE JUMPDEST POP PUSH1 0x1F ADD PUSH1 0x1F NOT AND SWAP3 SWAP1 SWAP3 ADD PUSH1 0x40 ADD SWAP4 SWAP3 POP POP POP JUMP JUMPDEST PUSH1 0x20 DUP1 DUP3 MSTORE PUSH1 0x22 SWAP1 DUP3 ADD MSTORE PUSH32 0x4F6E6C792061646D696E206F7220616E7469206D616E6167657220616C6C6F77 PUSH1 0x40 DUP3 ADD MSTORE PUSH2 0x1959 PUSH1 0xF2 SHL PUSH1 0x60 DUP3 ADD MSTORE PUSH1 0x80 ADD SWAP1 JUMP JUMPDEST PUSH1 0x0 PUSH1 0xA0 DUP3 ADD DUP8 DUP4 MSTORE PUSH1 0x20 DUP8 DUP2 DUP6 ADD MSTORE PUSH1 0xA0 PUSH1 0x40 DUP6 ADD MSTORE DUP2 DUP8 MLOAD DUP1 DUP5 MSTORE PUSH1 0xC0 DUP7 ADD SWAP2 POP DUP3 DUP10 ADD SWAP4 POP PUSH1 0x0 JUMPDEST DUP2 DUP2 LT ISZERO PUSH2 0x2D48 JUMPI DUP5 MLOAD PUSH1 0x1 PUSH1 0x1 PUSH1 0xA0 SHL SUB AND DUP4 MSTORE SWAP4 DUP4 ADD SWAP4 SWAP2 DUP4 ADD SWAP2 PUSH1 0x1 ADD PUSH2 0x2D23 JUMP JUMPDEST POP POP PUSH1 0x1 PUSH1 0x1 PUSH1 0xA0 SHL SUB SWAP7 SWAP1 SWAP7 AND PUSH1 0x60 DUP6 ADD MSTORE POP POP POP PUSH1 0x80 ADD MSTORE SWAP4 SWAP3 POP POP POP JUMP JUMPDEST PUSH1 0x0 DUP3 NOT DUP3 GT ISZERO PUSH2 0x2D7C JUMPI PUSH2 0x2D7C PUSH2 0x2E2F JUMP JUMPDEST POP ADD SWAP1 JUMP JUMPDEST PUSH1 0x0 DUP3 PUSH2 0x2D9E JUMPI PUSH4 0x4E487B71 PUSH1 0xE0 SHL PUSH1 0x0 MSTORE PUSH1 0x12 PUSH1 0x4 MSTORE PUSH1 0x24 PUSH1 0x0 REVERT JUMPDEST POP DIV SWAP1 JUMP JUMPDEST PUSH1 0x0 DUP2 PUSH1 0x0 NOT DIV DUP4 GT DUP3 ISZERO ISZERO AND ISZERO PUSH2 0x2DBD JUMPI PUSH2 0x2DBD PUSH2 0x2E2F JUMP JUMPDEST POP MUL SWAP1 JUMP JUMPDEST PUSH1 0x0 DUP3 DUP3 LT ISZERO PUSH2 0x2DD4 JUMPI PUSH2 0x2DD4 PUSH2 0x2E2F JUMP JUMPDEST POP SUB SWAP1 JUMP JUMPDEST PUSH1 0x1 DUP2 DUP2 SHR SWAP1 DUP3 AND DUP1 PUSH2 0x2DED JUMPI PUSH1 0x7F DUP3 AND SWAP2 POP JUMPDEST PUSH1 0x20 DUP3 LT DUP2 EQ ISZERO PUSH2 0x2E0E JUMPI PUSH4 0x4E487B71 PUSH1 0xE0 SHL PUSH1 0x0 MSTORE PUSH1 0x22 PUSH1 0x4 MSTORE PUSH1 0x24 PUSH1 0x0 REVERT JUMPDEST POP SWAP2 SWAP1 POP JUMP JUMPDEST PUSH1 0x0 PUSH1 0x0 NOT DUP3 EQ ISZERO PUSH2 0x2E28 JUMPI PUSH2 0x2E28 PUSH2 0x2E2F JUMP JUMPDEST POP PUSH1 0x1 ADD SWAP1 JUMP JUMPDEST PUSH4 0x4E487B71 PUSH1 0xE0 SHL PUSH1 0x0 MSTORE PUSH1 0x11 PUSH1 0x4 MSTORE PUSH1 0x24 PUSH1 0x0 REVERT JUMPDEST PUSH4 0x4E487B71 PUSH1 0xE0 SHL PUSH1 0x0 MSTORE PUSH1 0x31 PUSH1 0x4 MSTORE PUSH1 0x24 PUSH1 0x0 REVERT JUMPDEST PUSH4 0x4E487B71 PUSH1 0xE0 SHL PUSH1 0x0 MSTORE PUSH1 0x32 PUSH1 0x4 MSTORE PUSH1 0x24 PUSH1 0x0 REVERT JUMPDEST PUSH1 0x1 PUSH1 0x1 PUSH1 0xA0 SHL SUB DUP2 AND DUP2 EQ PUSH2 0x18A7 JUMPI PUSH1 0x0 DUP1 REVERT INVALID TIMESTAMP GASLIMIT POP ORIGIN ADDRESS GASPRICE KECCAK256 PUSH21 0x72616E7366657220616D6F756E7420657863656564 PUSH20 0x20616C6C6F77616E636542455032303A20646563 PUSH19 0x656173656420616C6C6F77616E63652062656C PUSH16 0x77207A65726FA2646970667358221220 KECCAK256 SWAP6 JUMPI PUSH10 0xF4DC6C0AF072BA702647 PUSH13 0xBA804CFB8D88C7106EC059D436 BALANCE DUP8 0xEA JUMPI PUSH5 0x736F6C6343 STOP ADDMOD SMOD STOP CALLER "
				},
				"gasEstimates": {
					"creation": {
						"codeDepositCost": "2408200",
						"executionCost": "infinite",
						"totalCost": "infinite"
					},
					"external": {
						"MAX_HOLDING_PERCENTS_DIVISOR()": "328",
						"_burnFee()": "2407",
						"_liquidityFee()": "2364",
						"_marketingFee()": "2386",
						"_maxHoldingPercents()": "2364",
						"_sellBurnFee()": "2407",
						"_sellLiquidityFee()": "2363",
						"_sellMarketingFee()": "2406",
						"_sellTaxFee()": "2364",
						"_taxFee()": "2364",
						"allowance(address,address)": "infinite",
						"antiBotEnabled()": "2421",
						"antiManager()": "2437",
						"antiWhaleEnabled()": "2422",
						"antisnipe()": "2471",
						"antisnipeDisable()": "2393",
						"approve(address,uint256)": "24705",
						"balanceOf(address)": "infinite",
						"decimals()": "2379",
						"decreaseAllowance(address,uint256)": "infinite",
						"deliver(uint256)": "infinite",
						"excludeFromFee(address)": "26881",
						"excludeFromReward(address)": "infinite",
						"includeInFee(address)": "26850",
						"includeInReward(address)": "infinite",
						"increaseAllowance(address,uint256)": "27105",
						"isExcludedFromFee(address)": "2633",
						"isExcludedFromReward(address)": "2633",
						"marketingWallet()": "2427",
						"name()": "infinite",
						"owner()": "2443",
						"pancakeV2Pair()": "2448",
						"pancakeV2Router()": "2472",
						"reflectionFromToken(uint256,bool)": "infinite",
						"renounceOwnership()": "infinite",
						"setAntiBot(bool)": "28892",
						"setAntiWhale(bool)": "28937",
						"setAntisnipeAddress(address)": "26818",
						"setAntisnipeDisable()": "28755",
						"setBurnFeePercent(uint256)": "24647",
						"setLiquidityFeePercent(uint256)": "24581",
						"setMarketingFeePercent(uint256)": "24604",
						"setMarketingWallet(address)": "26796",
						"setMaxHoldingPercents(uint256)": "24651",
						"setSellBurnFeePercent(uint256)": "24624",
						"setSellLiquidityFeePercent(uint256)": "24648",
						"setSellMarketingFeePercent(uint256)": "24604",
						"setSellTaxFeePercent(uint256)": "24581",
						"setSwapAndLiquifyEnabled(bool)": "27882",
						"setTaxFeePercent(uint256)": "24584",
						"swapAndLiquifyEnabled()": "2461",
						"symbol()": "infinite",
						"tokenFromReflection(uint256)": "infinite",
						"totalFees()": "2383",
						"totalSupply()": "2405",
						"transfer(address,uint256)": "infinite",
						"transferFrom(address,address,uint256)": "infinite",
						"transferOwnership(address)": "infinite"
					},
					"internal": {
						"_approve(address,address,uint256)": "infinite",
						"_beforeTokenTransfer(address,address,uint256)": "infinite",
						"_getCurrentSupply()": "infinite",
						"_getRValues(uint256,uint256,uint256,uint256)": "infinite",
						"_getRate()": "infinite",
						"_getTValues(uint256)": "infinite",
						"_getValues(uint256)": "infinite",
						"_reflectFee(uint256,uint256)": "infinite",
						"_takeLiquidity(uint256)": "infinite",
						"_tokenTransfer(address,address,uint256)": "infinite",
						"_transfer(address,address,uint256)": "infinite",
						"_transferBothExcluded(address,address,uint256)": "infinite",
						"_transferFromExcluded(address,address,uint256)": "infinite",
						"_transferStandard(address,address,uint256)": "infinite",
						"_transferToExcluded(address,address,uint256)": "infinite",
						"activateSellFee()": "infinite",
						"addLiquidity(uint256,uint256)": "infinite",
						"calculateLiquidityFee(uint256)": "infinite",
						"calculateTaxFee(uint256)": "infinite",
						"removeAllFee()": "125382",
						"restoreAllFee()": "infinite",
						"swapAndLiquify(uint256)": "infinite",
						"swapTokensForEth(uint256)": "infinite"
					}
				},
				"methodIdentifiers": {
					"MAX_HOLDING_PERCENTS_DIVISOR()": "64a06e80",
					"_burnFee()": "c0b0fda2",
					"_liquidityFee()": "6bc87c3a",
					"_marketingFee()": "22976e0d",
					"_maxHoldingPercents()": "0a7d2d87",
					"_sellBurnFee()": "7abdc1ca",
					"_sellLiquidityFee()": "88790a68",
					"_sellMarketingFee()": "c8607952",
					"_sellTaxFee()": "200a692d",
					"_taxFee()": "3b124fe7",
					"allowance(address,address)": "dd62ed3e",
					"antiBotEnabled()": "d8c6404b",
					"antiManager()": "d5bde46c",
					"antiWhaleEnabled()": "57d87f0d",
					"antisnipe()": "882cfb3f",
					"antisnipeDisable()": "e1e144de",
					"approve(address,uint256)": "095ea7b3",
					"balanceOf(address)": "70a08231",
					"decimals()": "313ce567",
					"decreaseAllowance(address,uint256)": "a457c2d7",
					"deliver(uint256)": "3bd5d173",
					"excludeFromFee(address)": "437823ec",
					"excludeFromReward(address)": "52390c02",
					"includeInFee(address)": "ea2f0b37",
					"includeInReward(address)": "3685d419",
					"increaseAllowance(address,uint256)": "39509351",
					"isExcludedFromFee(address)": "5342acb4",
					"isExcludedFromReward(address)": "88f82020",
					"marketingWallet()": "75f0a874",
					"name()": "06fdde03",
					"owner()": "8da5cb5b",
					"pancakeV2Pair()": "632a6a35",
					"pancakeV2Router()": "1a4cd1b1",
					"reflectionFromToken(uint256,bool)": "4549b039",
					"renounceOwnership()": "715018a6",
					"setAntiBot(bool)": "c2c7c03a",
					"setAntiWhale(bool)": "4a5566bf",
					"setAntisnipeAddress(address)": "611bf629",
					"setAntisnipeDisable()": "74fb20e1",
					"setBurnFeePercent(uint256)": "cea26958",
					"setLiquidityFeePercent(uint256)": "8ee88c53",
					"setMarketingFeePercent(uint256)": "457c194c",
					"setMarketingWallet(address)": "5d098b38",
					"setMaxHoldingPercents(uint256)": "9655cab5",
					"setSellBurnFeePercent(uint256)": "ebf78663",
					"setSellLiquidityFeePercent(uint256)": "5876ccc5",
					"setSellMarketingFeePercent(uint256)": "a928681c",
					"setSellTaxFeePercent(uint256)": "d0e03523",
					"setSwapAndLiquifyEnabled(bool)": "c49b9a80",
					"setTaxFeePercent(uint256)": "061c82d0",
					"swapAndLiquifyEnabled()": "4a74bb02",
					"symbol()": "95d89b41",
					"tokenFromReflection(uint256)": "2d838119",
					"totalFees()": "13114a9d",
					"totalSupply()": "18160ddd",
					"transfer(address,uint256)": "a9059cbb",
					"transferFrom(address,address,uint256)": "23b872dd",
					"transferOwnership(address)": "f2fde38b"
				}
			},
			"storageLayout": {
				"storage": [
					{
						"astId": 7,
						"contract": "contracts/MyToken.sol:Pokemon",
						"label": "_owner",
						"offset": 0,
						"slot": "0",
						"type": "t_address"
					},
					{
						"astId": 1592,
						"contract": "contracts/MyToken.sol:Pokemon",
						"label": "_rOwned",
						"offset": 0,
						"slot": "1",
						"type": "t_mapping(t_address,t_uint256)"
					},
					{
						"astId": 1596,
						"contract": "contracts/MyToken.sol:Pokemon",
						"label": "_tOwned",
						"offset": 0,
						"slot": "2",
						"type": "t_mapping(t_address,t_uint256)"
					},
					{
						"astId": 1602,
						"contract": "contracts/MyToken.sol:Pokemon",
						"label": "_allowances",
						"offset": 0,
						"slot": "3",
						"type": "t_mapping(t_address,t_mapping(t_address,t_uint256))"
					},
					{
						"astId": 1606,
						"contract": "contracts/MyToken.sol:Pokemon",
						"label": "_isExcludedFromFee",
						"offset": 0,
						"slot": "4",
						"type": "t_mapping(t_address,t_bool)"
					},
					{
						"astId": 1610,
						"contract": "contracts/MyToken.sol:Pokemon",
						"label": "_isExcluded",
						"offset": 0,
						"slot": "5",
						"type": "t_mapping(t_address,t_bool)"
					},
					{
						"astId": 1613,
						"contract": "contracts/MyToken.sol:Pokemon",
						"label": "_excluded",
						"offset": 0,
						"slot": "6",
						"type": "t_array(t_address)dyn_storage"
					},
					{
						"astId": 1627,
						"contract": "contracts/MyToken.sol:Pokemon",
						"label": "_tTotal",
						"offset": 0,
						"slot": "7",
						"type": "t_uint256"
					},
					{
						"astId": 1636,
						"contract": "contracts/MyToken.sol:Pokemon",
						"label": "_rTotal",
						"offset": 0,
						"slot": "8",
						"type": "t_uint256"
					},
					{
						"astId": 1638,
						"contract": "contracts/MyToken.sol:Pokemon",
						"label": "_tFeeTotal",
						"offset": 0,
						"slot": "9",
						"type": "t_uint256"
					},
					{
						"astId": 1641,
						"contract": "contracts/MyToken.sol:Pokemon",
						"label": "_name",
						"offset": 0,
						"slot": "10",
						"type": "t_string_storage"
					},
					{
						"astId": 1644,
						"contract": "contracts/MyToken.sol:Pokemon",
						"label": "_symbol",
						"offset": 0,
						"slot": "11",
						"type": "t_string_storage"
					},
					{
						"astId": 1647,
						"contract": "contracts/MyToken.sol:Pokemon",
						"label": "_decimals",
						"offset": 0,
						"slot": "12",
						"type": "t_uint8"
					},
					{
						"astId": 1650,
						"contract": "contracts/MyToken.sol:Pokemon",
						"label": "_taxFee",
						"offset": 0,
						"slot": "13",
						"type": "t_uint256"
					},
					{
						"astId": 1653,
						"contract": "contracts/MyToken.sol:Pokemon",
						"label": "_previousTaxFee",
						"offset": 0,
						"slot": "14",
						"type": "t_uint256"
					},
					{
						"astId": 1656,
						"contract": "contracts/MyToken.sol:Pokemon",
						"label": "_liquidityFee",
						"offset": 0,
						"slot": "15",
						"type": "t_uint256"
					},
					{
						"astId": 1659,
						"contract": "contracts/MyToken.sol:Pokemon",
						"label": "_previousLiquidityFee",
						"offset": 0,
						"slot": "16",
						"type": "t_uint256"
					},
					{
						"astId": 1662,
						"contract": "contracts/MyToken.sol:Pokemon",
						"label": "_burnFee",
						"offset": 0,
						"slot": "17",
						"type": "t_uint256"
					},
					{
						"astId": 1665,
						"contract": "contracts/MyToken.sol:Pokemon",
						"label": "_previousBurnFee",
						"offset": 0,
						"slot": "18",
						"type": "t_uint256"
					},
					{
						"astId": 1668,
						"contract": "contracts/MyToken.sol:Pokemon",
						"label": "_marketingFee",
						"offset": 0,
						"slot": "19",
						"type": "t_uint256"
					},
					{
						"astId": 1670,
						"contract": "contracts/MyToken.sol:Pokemon",
						"label": "marketingWallet",
						"offset": 0,
						"slot": "20",
						"type": "t_address"
					},
					{
						"astId": 1673,
						"contract": "contracts/MyToken.sol:Pokemon",
						"label": "_previousMarketingFee",
						"offset": 0,
						"slot": "21",
						"type": "t_uint256"
					},
					{
						"astId": 1676,
						"contract": "contracts/MyToken.sol:Pokemon",
						"label": "_sellTaxFee",
						"offset": 0,
						"slot": "22",
						"type": "t_uint256"
					},
					{
						"astId": 1679,
						"contract": "contracts/MyToken.sol:Pokemon",
						"label": "_sellLiquidityFee",
						"offset": 0,
						"slot": "23",
						"type": "t_uint256"
					},
					{
						"astId": 1682,
						"contract": "contracts/MyToken.sol:Pokemon",
						"label": "_sellMarketingFee",
						"offset": 0,
						"slot": "24",
						"type": "t_uint256"
					},
					{
						"astId": 1685,
						"contract": "contracts/MyToken.sol:Pokemon",
						"label": "_sellBurnFee",
						"offset": 0,
						"slot": "25",
						"type": "t_uint256"
					},
					{
						"astId": 1691,
						"contract": "contracts/MyToken.sol:Pokemon",
						"label": "_maxHoldingPercents",
						"offset": 0,
						"slot": "26",
						"type": "t_uint256"
					},
					{
						"astId": 1693,
						"contract": "contracts/MyToken.sol:Pokemon",
						"label": "antiWhaleEnabled",
						"offset": 0,
						"slot": "27",
						"type": "t_bool"
					},
					{
						"astId": 1697,
						"contract": "contracts/MyToken.sol:Pokemon",
						"label": "allowedBuyAmount",
						"offset": 0,
						"slot": "28",
						"type": "t_mapping(t_uint256,t_bool)"
					},
					{
						"astId": 1699,
						"contract": "contracts/MyToken.sol:Pokemon",
						"label": "antiBotEnabled",
						"offset": 0,
						"slot": "29",
						"type": "t_bool"
					},
					{
						"astId": 1701,
						"contract": "contracts/MyToken.sol:Pokemon",
						"label": "antiManager",
						"offset": 1,
						"slot": "29",
						"type": "t_address"
					},
					{
						"astId": 1704,
						"contract": "contracts/MyToken.sol:Pokemon",
						"label": "pancakeV2Router",
						"offset": 0,
						"slot": "30",
						"type": "t_contract(IPancakeV2Router02)1555"
					},
					{
						"astId": 1706,
						"contract": "contracts/MyToken.sol:Pokemon",
						"label": "pancakeV2Pair",
						"offset": 0,
						"slot": "31",
						"type": "t_address"
					},
					{
						"astId": 1708,
						"contract": "contracts/MyToken.sol:Pokemon",
						"label": "inSwapAndLiquify",
						"offset": 20,
						"slot": "31",
						"type": "t_bool"
					},
					{
						"astId": 1711,
						"contract": "contracts/MyToken.sol:Pokemon",
						"label": "swapAndLiquifyEnabled",
						"offset": 21,
						"slot": "31",
						"type": "t_bool"
					},
					{
						"astId": 1718,
						"contract": "contracts/MyToken.sol:Pokemon",
						"label": "numTokensSellToAddToLiquidity",
						"offset": 0,
						"slot": "32",
						"type": "t_uint256"
					},
					{
						"astId": 1733,
						"contract": "contracts/MyToken.sol:Pokemon",
						"label": "_allowedBuyAmount",
						"offset": 0,
						"slot": "33",
						"type": "t_array(t_uint256)dyn_storage"
					},
					{
						"astId": 1864,
						"contract": "contracts/MyToken.sol:Pokemon",
						"label": "antisnipe",
						"offset": 0,
						"slot": "34",
						"type": "t_contract(IAntisnipe)1576"
					},
					{
						"astId": 1866,
						"contract": "contracts/MyToken.sol:Pokemon",
						"label": "antisnipeDisable",
						"offset": 20,
						"slot": "34",
						"type": "t_bool"
					}
				],
				"types": {
					"t_address": {
						"encoding": "inplace",
						"label": "address",
						"numberOfBytes": "20"
					},
					"t_array(t_address)dyn_storage": {
						"base": "t_address",
						"encoding": "dynamic_array",
						"label": "address[]",
						"numberOfBytes": "32"
					},
					"t_array(t_uint256)dyn_storage": {
						"base": "t_uint256",
						"encoding": "dynamic_array",
						"label": "uint256[]",
						"numberOfBytes": "32"
					},
					"t_bool": {
						"encoding": "inplace",
						"label": "bool",
						"numberOfBytes": "1"
					},
					"t_contract(IAntisnipe)1576": {
						"encoding": "inplace",
						"label": "contract IAntisnipe",
						"numberOfBytes": "20"
					},
					"t_contract(IPancakeV2Router02)1555": {
						"encoding": "inplace",
						"label": "contract IPancakeV2Router02",
						"numberOfBytes": "20"
					},
					"t_mapping(t_address,t_bool)": {
						"encoding": "mapping",
						"key": "t_address",
						"label": "mapping(address => bool)",
						"numberOfBytes": "32",
						"value": "t_bool"
					},
					"t_mapping(t_address,t_mapping(t_address,t_uint256))": {
						"encoding": "mapping",
						"key": "t_address",
						"label": "mapping(address => mapping(address => uint256))",
						"numberOfBytes": "32",
						"value": "t_mapping(t_address,t_uint256)"
					},
					"t_mapping(t_address,t_uint256)": {
						"encoding": "mapping",
						"key": "t_address",
						"label": "mapping(address => uint256)",
						"numberOfBytes": "32",
						"value": "t_uint256"
					},
					"t_mapping(t_uint256,t_bool)": {
						"encoding": "mapping",
						"key": "t_uint256",
						"label": "mapping(uint256 => bool)",
						"numberOfBytes": "32",
						"value": "t_bool"
					},
					"t_string_storage": {
						"encoding": "bytes",
						"label": "string",
						"numberOfBytes": "32"
					},
					"t_uint256": {
						"encoding": "inplace",
						"label": "uint256",
						"numberOfBytes": "32"
					},
					"t_uint8": {
						"encoding": "inplace",
						"label": "uint8",
						"numberOfBytes": "1"
					}
				}
			},
			"userdoc": {
				"kind": "user",
				"methods": {},
				"version": 1
			}
		}
	}
}