{
	"data": {
		"bytecode": {
			"linkReferences": {},
			"object": "60806040526b1921a082258a73bfc32400006007819055620000249060001962000766565b6200003290600019620006f1565b60085560408051808201909152600c8082526b26b2ba3096b837b5b2b6b7b760a11b60209092019182526200006a91600a9162000568565b50604080518082019091526007808252663837b5b2b6b7b760c91b60209092019182526200009b91600b9162000568565b50600c805460ff191660129081179091556002600d819055600e8190556001600f819055601081905560118290559181905560138190556015819055601681905560179190915560188190556019556005601a55601f805460ff60a81b1916905569d3c21bcecceda1000000602090815560408051610160810182526201008e81526201f81c9281019290925262040583908201526207f4476060820152620ffc196080820152621fd8f060a0820152623fffad60c0820152627ff82e60e0820152630101863b610100820152630200271a6101208201526304030d336101408201526200018e90602190600b620005f7565b503480156200019c57600080fd5b50604051620036e7380380620036e7833981016040819052620001bf916200067b565b620001ca3362000518565b601480546001600160a01b0319166001600160a01b0384811691909117909155601d8054610100600160a81b0319166101009284169290920291909117905560085460016000620002183390565b6001600160a01b03166001600160a01b0316815260200190815260200160002081905550826001600160a01b031663c45a01556040518163ffffffff1660e01b815260040160206040518083038186803b1580156200027657600080fd5b505afa1580156200028b573d6000803e3d6000fd5b505050506040513d601f19601f82011682018060405250810190620002b1919062000654565b6001600160a01b031663c9c6539630856001600160a01b031663ad5c46486040518163ffffffff1660e01b815260040160206040518083038186803b158015620002fa57600080fd5b505afa1580156200030f573d6000803e3d6000fd5b505050506040513d601f19601f8201168201806040525081019062000335919062000654565b6040516001600160e01b031960e085901b1681526001600160a01b03928316600482015291166024820152604401602060405180830381600087803b1580156200037e57600080fd5b505af115801562000393573d6000803e3d6000fd5b505050506040513d601f19601f82011682018060405250810190620003b9919062000654565b601f80546001600160a01b03199081166001600160a01b0393841617909155601e8054909116918516919091179055600160046000620004016000546001600160a01b031690565b6001600160a01b03908116825260208083019390935260409182016000908120805495151560ff19968716179055908516815260049092528082208054841660019081179091553083529082208054909316179091555b602154811015620004d3576001601c6000602184815481106200047f576200047f6200079f565b9060005260206000200154670de0b6b3a76400006200049f9190620006cf565b81526020810191909152604001600020805460ff191691151591909117905580620004ca8162000748565b91505062000458565b5060075460405190815233906000907fddf252ad1be2c89b69c2b068fc378daa952ba7f163c4a11628f55a4df523b3ef9060200160405180910390a3505050620007ce565b600080546001600160a01b038381166001600160a01b0319831681178455604051919092169283917f8be0079c531659141344cd1fd0a4f28419497f9722a3daafe3b4186f6b6457e09190a35050565b82805462000576906200070b565b90600052602060002090601f0160209004810192826200059a5760008555620005e5565b82601f10620005b557805160ff1916838001178555620005e5565b82800160010185558215620005e5579182015b82811115620005e5578251825591602001919060010190620005c8565b50620005f39291506200063d565b5090565b828054828255906000526020600020908101928215620005e5579160200282015b82811115620005e5578251829063ffffffff1690559160200191906001019062000618565b5b80821115620005f357600081556001016200063e565b6000602082840312156200066757600080fd5b81516200067481620007b5565b9392505050565b6000806000606084860312156200069157600080fd5b83516200069e81620007b5565b6020850151909350620006b181620007b5565b6040850151909250620006c481620007b5565b809150509250925092565b6000816000190483118215151615620006ec57620006ec62000789565b500290565b60008282101562000706576200070662000789565b500390565b600181811c908216806200072057607f821691505b602082108114156200074257634e487b7160e01b600052602260045260246000fd5b50919050565b60006000198214156200075f576200075f62000789565b5060010190565b6000826200078457634e487b7160e01b600052601260045260246000fd5b500690565b634e487b7160e01b600052601160045260246000fd5b634e487b7160e01b600052603260045260246000fd5b6001600160a01b0381168114620007cb57600080fd5b50565b612f0980620007de6000396000f3fe6080604052600436106103855760003560e01c80636bc87c3a116101d1578063a9059cbb11610102578063d0e03523116100a0578063e1e144de1161006f578063e1e144de14610a4b578063ea2f0b3714610a6c578063ebf7866314610a8c578063f2fde38b14610aac57600080fd5b8063d0e03523146109a6578063d5bde46c146109c6578063d8c6404b146109eb578063dd62ed3e14610a0557600080fd5b8063c2c7c03a116100dc578063c2c7c03a14610930578063c49b9a8014610950578063c860795214610970578063cea269581461098657600080fd5b8063a9059cbb146108da578063a928681c146108fa578063c0b0fda21461091a57600080fd5b806388790a681161016f5780638ee88c53116101495780638ee88c531461086557806395d89b41146108855780639655cab51461089a578063a457c2d7146108ba57600080fd5b806388790a68146107f857806388f820201461080e5780638da5cb5b1461084757600080fd5b806374fb20e1116101ab57806374fb20e11461078d57806375f0a874146107a25780637abdc1ca146107c2578063882cfb3f146107d857600080fd5b80636bc87c3a1461074257806370a0823114610758578063715018a61461077857600080fd5b80633b124fe7116102b657806352390c02116102545780635d098b38116102235780635d098b38146106cc578063611bf629146106ec578063632a6a351461070c57806364a06e801461072c57600080fd5b806352390c02146106395780635342acb41461065957806357d87f0d146106925780635876ccc5146106ac57600080fd5b80634549b039116102905780634549b039146105b8578063457c194c146105d85780634a5566bf146105f85780634a74bb021461061857600080fd5b80633b124fe7146105625780633bd5d17314610578578063437823ec1461059857600080fd5b8063200a692d116103235780632d838119116102fd5780632d838119146104e0578063313ce567146105005780633685d41914610522578063395093511461054257600080fd5b8063200a692d1461049457806322976e0d146104aa57806323b872dd146104c057600080fd5b80630a7d2d871161035f5780630a7d2d871461040e57806313114a9d1461043257806318160ddd146104475780631a4cd1b11461045c57600080fd5b8063061c82d01461039157806306fdde03146103b3578063095ea7b3146103de57600080fd5b3661038c57005b600080fd5b34801561039d57600080fd5b506103b16103ac366004612bee565b610acc565b005b3480156103bf57600080fd5b506103c8610b2f565b6040516103d59190612c61565b60405180910390f35b3480156103ea57600080fd5b506103fe6103f9366004612ba7565b610bc1565b60405190151581526020016103d5565b34801561041a57600080fd5b50610424601a5481565b6040519081526020016103d5565b34801561043e57600080fd5b50600954610424565b34801561045357600080fd5b50600754610424565b34801561046857600080fd5b50601e5461047c906001600160a01b031681565b6040516001600160a01b0390911681526020016103d5565b3480156104a057600080fd5b5061042460165481565b3480156104b657600080fd5b5061042460135481565b3480156104cc57600080fd5b506103fe6104db366004612b66565b610bd8565b3480156104ec57600080fd5b506104246104fb366004612bee565b610c41565b34801561050c57600080fd5b50600c5460405160ff90911681526020016103d5565b34801561052e57600080fd5b506103b161053d366004612af3565b610cc5565b34801561054e57600080fd5b506103fe61055d366004612ba7565b610e5a565b34801561056e57600080fd5b50610424600d5481565b34801561058457600080fd5b506103b1610593366004612bee565b610e90565b3480156105a457600080fd5b506103b16105b3366004612af3565b610f7a565b3480156105c457600080fd5b506104246105d3366004612c07565b610fa6565b3480156105e457600080fd5b506103b16105f3366004612bee565b611033565b34801561060457600080fd5b506103b1610613366004612bd3565b61109f565b34801561062457600080fd5b50601f546103fe90600160a81b900460ff1681565b34801561064557600080fd5b506103b1610654366004612af3565b6110f6565b34801561066557600080fd5b506103fe610674366004612af3565b6001600160a01b031660009081526004602052604090205460ff1690565b34801561069e57600080fd5b50601b546103fe9060ff1681565b3480156106b857600080fd5b506103b16106c7366004612bee565b611290565b3480156106d857600080fd5b506103b16106e7366004612af3565b611301565b3480156106f857600080fd5b506103b1610707366004612af3565b61132b565b34801561071857600080fd5b50601f5461047c906001600160a01b031681565b34801561073857600080fd5b506104246103e881565b34801561074e57600080fd5b50610424600f5481565b34801561076457600080fd5b50610424610773366004612af3565b611355565b34801561078457600080fd5b506103b16113b4565b34801561079957600080fd5b506103b16113c8565b3480156107ae57600080fd5b5060145461047c906001600160a01b031681565b3480156107ce57600080fd5b5061042460195481565b3480156107e457600080fd5b5060225461047c906001600160a01b031681565b34801561080457600080fd5b5061042460175481565b34801561081a57600080fd5b506103fe610829366004612af3565b6001600160a01b031660009081526005602052604090205460ff1690565b34801561085357600080fd5b506000546001600160a01b031661047c565b34801561087157600080fd5b506103b1610880366004612bee565b6113fc565b34801561089157600080fd5b506103c8611468565b3480156108a657600080fd5b506103b16108b5366004612bee565b611477565b3480156108c657600080fd5b506103fe6108d5366004612ba7565b611550565b3480156108e657600080fd5b506103fe6108f5366004612ba7565b61159f565b34801561090657600080fd5b506103b1610915366004612bee565b6115ac565b34801561092657600080fd5b5061042460115481565b34801561093c57600080fd5b506103b161094b366004612bd3565b61161d565b34801561095c57600080fd5b506103b161096b366004612bd3565b611674565b34801561097c57600080fd5b5061042460185481565b34801561099257600080fd5b506103b16109a1366004612bee565b6116d4565b3480156109b257600080fd5b506103b16109c1366004612bee565b611732565b3480156109d257600080fd5b50601d5461047c9061010090046001600160a01b031681565b3480156109f757600080fd5b50601d546103fe9060ff1681565b348015610a1157600080fd5b50610424610a20366004612b2d565b6001600160a01b03918216600090815260036020908152604080832093909416825291909152205490565b348015610a5757600080fd5b506022546103fe90600160a01b900460ff1681565b348015610a7857600080fd5b506103b1610a87366004612af3565b61179c565b348015610a9857600080fd5b506103b1610aa7366004612bee565b6117c5565b348015610ab857600080fd5b506103b1610ac7366004612af3565b611831565b610ad46118aa565b600a811115610b2a5760405162461bcd60e51b815260206004820152601f60248201527f546178206665652063616e6e6f74206265206d6f7265207468616e203130250060448201526064015b60405180910390fd5b600d55565b6060600a8054610b3e90612dd9565b80601f0160208091040260200160405190810160405280929190818152602001828054610b6a90612dd9565b8015610bb75780601f10610b8c57610100808354040283529160200191610bb7565b820191906000526020600020905b815481529060010190602001808311610b9a57829003601f168201915b5050505050905090565b6000610bce338484611904565b5060015b92915050565b6000610be5848484611a28565b610c378433610c3285604051806060016040528060288152602001612e87602891396001600160a01b038a1660009081526003602090815260408083203384529091529020549190611d10565b611904565b5060019392505050565b6000600854821115610ca85760405162461bcd60e51b815260206004820152602a60248201527f416d6f756e74206d757374206265206c657373207468616e20746f74616c207260448201526965666c656374696f6e7360b01b6064820152608401610b21565b6000610cb2611d3c565b9050610cbe8382611d5f565b9392505050565b610ccd6118aa565b6001600160a01b03811660009081526005602052604090205460ff16610d355760405162461bcd60e51b815260206004820152601b60248201527f4163636f756e7420697320616c7265616479206578636c7564656400000000006044820152606401610b21565b60005b600654811015610e5657816001600160a01b031660068281548110610d5f57610d5f612e5b565b6000918252602090912001546001600160a01b03161415610e445760068054610d8a90600190612dc2565b81548110610d9a57610d9a612e5b565b600091825260209091200154600680546001600160a01b039092169183908110610dc657610dc6612e5b565b600091825260208083209190910180546001600160a01b0319166001600160a01b039485161790559184168152600282526040808220829055600590925220805460ff191690556006805480610e1e57610e1e612e45565b600082815260209020810160001990810180546001600160a01b03191690550190555050565b80610e4e81612e14565b915050610d38565b5050565b3360008181526003602090815260408083206001600160a01b03871684529091528120549091610bce918590610c329086611d6b565b3360008181526005602052604090205460ff1615610f055760405162461bcd60e51b815260206004820152602c60248201527f4578636c75646564206164647265737365732063616e6e6f742063616c6c207460448201526b3434b990333ab731ba34b7b760a11b6064820152608401610b21565b6000610f1083611d77565b505050506001600160a01b038416600090815260016020526040902054919250610f3c91905082611dc6565b6001600160a01b038316600090815260016020526040902055600854610f629082611dc6565b600855600954610f729084611d6b565b600955505050565b610f826118aa565b6001600160a01b03166000908152600460205260409020805460ff19166001179055565b6000600754831115610ffa5760405162461bcd60e51b815260206004820152601f60248201527f416d6f756e74206d757374206265206c657373207468616e20737570706c79006044820152606401610b21565b8161101957600061100a84611d77565b50939550610bd2945050505050565b600061102484611d77565b50929550610bd2945050505050565b61103b6118aa565b600a81111561109a5760405162461bcd60e51b815260206004820152602560248201527f4d61726b6574696e67206665652063616e6e6f74206265206d6f7265207468616044820152646e2031302560d81b6064820152608401610b21565b601355565b6000546001600160a01b03163314806110c75750601d5461010090046001600160a01b031633145b6110e35760405162461bcd60e51b8152600401610b2190612cb6565b601b805460ff1916911515919091179055565b6110fe6118aa565b601e546001600160a01b03828116911614156111675760405162461bcd60e51b815260206004820152602260248201527f57652063616e206e6f74206578636c7564652050616e63616b6520726f757465604482015261391760f11b6064820152608401610b21565b6001600160a01b03811660009081526005602052604090205460ff16156111d05760405162461bcd60e51b815260206004820152601b60248201527f4163636f756e7420697320616c7265616479206578636c7564656400000000006044820152606401610b21565b6001600160a01b0381166000908152600160205260409020541561122a576001600160a01b03811660009081526001602052604090205461121090610c41565b6001600160a01b0382166000908152600260205260409020555b6001600160a01b03166000818152600560205260408120805460ff191660019081179091556006805491820181559091527ff652222313e28459528d920b65115c16c04f3efc82aaedc97be59f3f377c0d3f0180546001600160a01b0319169091179055565b6112986118aa565b600a8111156112fc5760405162461bcd60e51b815260206004820152602a60248201527f53656c6c206c6971756964697479206665652063616e6e6f74206265206d6f7260448201526965207468616e2031302560b01b6064820152608401610b21565b601755565b6113096118aa565b601480546001600160a01b0319166001600160a01b0392909216919091179055565b6113336118aa565b602280546001600160a01b0319166001600160a01b0392909216919091179055565b6001600160a01b03811660009081526005602052604081205460ff161561139257506001600160a01b031660009081526002602052604090205490565b6001600160a01b038216600090815260016020526040902054610bd290610c41565b6113bc6118aa565b6113c66000611dd2565b565b6113d06118aa565b602254600160a01b900460ff16156113e757600080fd5b6022805460ff60a01b1916600160a01b179055565b6114046118aa565b600a8111156114635760405162461bcd60e51b815260206004820152602560248201527f4c6971756964697479206665652063616e6e6f74206265206d6f7265207468616044820152646e2031302560d81b6064820152608401610b21565b600f55565b6060600b8054610b3e90612dd9565b61147f6118aa565b60018110156114e65760405162461bcd60e51b815260206004820152602d60248201527f4d617820686f6c64696e672070657263656e74732063616e6e6f74206265206c60448201526c657373207468616e20302e312560981b6064820152608401610b21565b601e81111561154b5760405162461bcd60e51b815260206004820152602b60248201527f4d617820686f6c64696e672070657263656e74732063616e6e6f74206265206d60448201526a6f7265207468616e20332560a81b6064820152608401610b21565b601a55565b6000610bce3384610c3285604051806060016040528060258152602001612eaf602591393360009081526003602090815260408083206001600160a01b038d1684529091529020549190611d10565b6000610bce338484611a28565b6115b46118aa565b600a8111156116185760405162461bcd60e51b815260206004820152602a60248201527f53656c6c206d61726b6574696e67206665652063616e6e6f74206265206d6f7260448201526965207468616e2031302560b01b6064820152608401610b21565b601855565b6000546001600160a01b03163314806116455750601d5461010090046001600160a01b031633145b6116615760405162461bcd60e51b8152600401610b2190612cb6565b601d805460ff1916911515919091179055565b61167c6118aa565b601f8054821515600160a81b0260ff60a81b199091161790556040517f53726dfcaf90650aa7eb35524f4d3220f07413c8d6cb404cc8c18bf5591bc159906116c990831515815260200190565b60405180910390a150565b6116dc6118aa565b600a81111561172d5760405162461bcd60e51b815260206004820181905260248201527f4275726e206665652063616e6e6f74206265206d6f7265207468616e203130256044820152606401610b21565b601155565b61173a6118aa565b600a8111156117975760405162461bcd60e51b8152602060048201526024808201527f53656c6c20746178206665652063616e6e6f74206265206d6f7265207468616e6044820152632031302560e01b6064820152608401610b21565b601655565b6117a46118aa565b6001600160a01b03166000908152600460205260409020805460ff19169055565b6117cd6118aa565b600a81111561182c5760405162461bcd60e51b815260206004820152602560248201527f53656c6c206275726e206665652063616e6e6f74206265206d6f7265207468616044820152646e2031302560d81b6064820152608401610b21565b601955565b6118396118aa565b6001600160a01b03811661189e5760405162461bcd60e51b815260206004820152602660248201527f4f776e61626c653a206e6577206f776e657220697320746865207a65726f206160448201526564647265737360d01b6064820152608401610b21565b6118a781611dd2565b50565b6000546001600160a01b031633146113c65760405162461bcd60e51b815260206004820181905260248201527f4f776e61626c653a2063616c6c6572206973206e6f7420746865206f776e65726044820152606401610b21565b6001600160a01b0383166119665760405162461bcd60e51b8152602060048201526024808201527f42455032303a20617070726f76652066726f6d20746865207a65726f206164646044820152637265737360e01b6064820152608401610b21565b6001600160a01b0382166119c75760405162461bcd60e51b815260206004820152602260248201527f42455032303a20617070726f766520746f20746865207a65726f206164647265604482015261737360f01b6064820152608401610b21565b6001600160a01b0383811660008181526003602090815260408083209487168084529482529182902085905590518481527f8c5be1e5ebec7d5bd14f71427d1e84f3dd0314c0f7b2291e5b200ac8c7c3b925910160405180910390a3505050565b6001600160a01b038316611a8c5760405162461bcd60e51b815260206004820152602560248201527f42455032303a207472616e736665722066726f6d20746865207a65726f206164604482015264647265737360d81b6064820152608401610b21565b60008111611aee5760405162461bcd60e51b815260206004820152602960248201527f5472616e7366657220616d6f756e74206d7573742062652067726561746572206044820152687468616e207a65726f60b81b6064820152608401610b21565b611af9838383611e22565b601d5460ff168015611b185750601f546001600160a01b038481169116145b15611b7b576000818152601c602052604090205460ff16611b7b5760405162461bcd60e51b815260206004820152601860248201527f4f6e6c7920616c6c6f7765642062757920616d6f756e747300000000000000006044820152606401610b21565b6000611b8630611355565b60205490915081108015908190611ba75750601f54600160a01b900460ff16155b8015611bc15750601f546001600160a01b03868116911614155b8015611bd65750601f54600160a81b900460ff165b15611be9576020549150611be982611eec565b611bf4858585611f93565b601b5460ff1615611d095760006103e8601a54600754611c149190612da3565b611c1e9190612d81565b601f549091506001600160a01b0386811691161415611ca35780841115611c9e5760405162461bcd60e51b815260206004820152602e60248201527f5472616e73616374656420616d6f756e742065786365656420746865206d617860448201526d20616c6c6f7765642076616c756560901b6064820152608401610b21565b611d07565b80611cad86611355565b1115611d075760405162461bcd60e51b8152602060048201526024808201527f57616c6c65742062616c616e6365206578636565647320746865206d6178206c6044820152631a5b5a5d60e21b6064820152608401610b21565b505b5050505050565b60008184841115611d345760405162461bcd60e51b8152600401610b219190612c61565b505050900390565b6000806000611d496122c0565b9092509050611d588282611d5f565b9250505090565b6000610cbe8284612d81565b6000610cbe8284612d69565b6000806000806000806000806000611d8e8a612442565b9250925092506000806000611dac8d8686611da7611d3c565b61247e565b919f909e50909c50959a5093985091965092945050505050565b6000610cbe8284612dc2565b600080546001600160a01b038381166001600160a01b0319831681178455604051919092169283917f8be0079c531659141344cd1fd0a4f28419497f9722a3daafe3b4186f6b6457e09190a35050565b6001600160a01b0383161580611e3f57506001600160a01b038216155b15611e4957505050565b602254600160a01b900460ff16158015611e6d57506022546001600160a01b031615155b15611ee757602254604051635d37a8dd60e01b81523360048201526001600160a01b03858116602483015284811660448301526064820184905290911690635d37a8dd90608401600060405180830381600087803b158015611ece57600080fd5b505af1158015611ee2573d6000803e3d6000fd5b505050505b505050565b601f805460ff60a01b1916600160a01b1790556000611f0c826002611d5f565b90506000611f1a8383611dc6565b905047611f26836124ce565b6000611f324783611dc6565b9050611f3e838261262f565b60408051858152602081018390529081018490527f17bbfb9a6069321b6ded73bd96327c9e6b7212a5cd51ff219cd61370acafb5619060600160405180910390a15050601f805460ff60a01b19169055505050565b6001600160a01b03831660009081526004602052604090205460ff1680611fd257506001600160a01b03821660009081526004602052604090205460ff165b15611fe457611fdf61270c565b612032565b601f546001600160a01b038381169116141561203257612032600d8054600e55600f805460105560118054601255601380546015556016549093556017549091556018549091556019549055565b6000612054606461204e6011548561276890919063ffffffff16565b90611d5f565b90506000612072606461204e6013548661276890919063ffffffff16565b6001600160a01b03861660009081526005602052604090205490915060ff1680156120b657506001600160a01b03841660009081526005602052604090205460ff16155b156120de576120d985856120d4846120ce8888611dc6565b90611dc6565b612774565b61220b565b6001600160a01b03851660009081526005602052604090205460ff1615801561211f57506001600160a01b03841660009081526005602052604090205460ff165b1561213c576120d98585612137846120ce8888611dc6565b61289a565b6001600160a01b03851660009081526005602052604090205460ff1615801561217e57506001600160a01b03841660009081526005602052604090205460ff16155b1561219b576120d98585612196846120ce8888611dc6565b612943565b6001600160a01b03851660009081526005602052604090205460ff1680156121db57506001600160a01b03841660009081526005602052604090205460ff165b156121f8576120d985856121f3846120ce8888611dc6565b612987565b61220b8585612196846120ce8888611dc6565b6000600d819055600f81905561222390869084612943565b60145461223b9086906001600160a01b031683612943565b600e54600d55601054600f556001600160a01b03851660009081526004602052604090205460ff168061228657506001600160a01b03841660009081526004602052604090205460ff165b8061229e5750601f546001600160a01b038581169116145b15611d0957611d09600e54600d55601054600f55601254601155601554601355565b6008546007546000918291825b600654811015612412578260016000600684815481106122ef576122ef612e5b565b60009182526020808320909101546001600160a01b03168352820192909252604001902054118061235a575081600260006006848154811061233357612333612e5b565b60009182526020808320909101546001600160a01b03168352820192909252604001902054115b1561237057600854600754945094505050509091565b6123b6600160006006848154811061238a5761238a612e5b565b60009182526020808320909101546001600160a01b031683528201929092526040019020548490611dc6565b92506123fe60026000600684815481106123d2576123d2612e5b565b60009182526020808320909101546001600160a01b031683528201929092526040019020548390611dc6565b91508061240a81612e14565b9150506122cd565b5060075460085461242291611d5f565b821015612439576008546007549350935050509091565b90939092509050565b600080600080612451856129fa565b9050600061245e86612a16565b90506000612470826120ce8986611dc6565b979296509094509092505050565b600080808061248d8886612768565b9050600061249b8887612768565b905060006124a98888612768565b905060006124bb826120ce8686611dc6565b939b939a50919850919650505050505050565b604080516002808252606082018352600092602083019080368337019050509050308160008151811061250357612503612e5b565b6001600160a01b03928316602091820292909201810191909152601e54604080516315ab88c960e31b81529051919093169263ad5c4648926004808301939192829003018186803b15801561255757600080fd5b505afa15801561256b573d6000803e3d6000fd5b505050506040513d601f19601f8201168201806040525081019061258f9190612b10565b816001815181106125a2576125a2612e5b565b6001600160a01b039283166020918202929092010152601e546125c89130911684611904565b601e5460405163791ac94760e01b81526001600160a01b039091169063791ac94790612601908590600090869030904290600401612cf8565b600060405180830381600087803b15801561261b57600080fd5b505af1158015611d07573d6000803e3d6000fd5b601e546126479030906001600160a01b031684611904565b601e546001600160a01b031663f305d7198230856000806126706000546001600160a01b031690565b60405160e088901b6001600160e01b03191681526001600160a01b03958616600482015260248101949094526044840192909252606483015290911660848201524260a482015260c4016060604051808303818588803b1580156126d357600080fd5b505af11580156126e7573d6000803e3d6000fd5b50505050506040513d601f19601f82011682018060405250810190611d099190612c33565b600d5415801561271c5750600f54155b80156127285750601354155b80156127345750601154155b1561273b57565b600d8054600e55600f80546010556011805460125560138054601555600093849055918390559082905555565b6000610cbe8284612da3565b60008060008060008061278687611d77565b6001600160a01b038f16600090815260026020526040902054959b509399509197509550935091506127b89088611dc6565b6001600160a01b038a166000908152600260209081526040808320939093556001905220546127e79087611dc6565b6001600160a01b03808b1660009081526001602052604080822093909355908a16815220546128169086611d6b565b6001600160a01b03891660009081526001602052604090205561283881612a32565b6128428483612aba565b876001600160a01b0316896001600160a01b03167fddf252ad1be2c89b69c2b068fc378daa952ba7f163c4a11628f55a4df523b3ef8560405161288791815260200190565b60405180910390a3505050505050505050565b6000806000806000806128ac87611d77565b6001600160a01b038f16600090815260016020526040902054959b509399509197509550935091506128de9087611dc6565b6001600160a01b03808b16600090815260016020908152604080832094909455918b168152600290915220546129149084611d6b565b6001600160a01b0389166000908152600260209081526040808320939093556001905220546128169086611d6b565b60008060008060008061295587611d77565b6001600160a01b038f16600090815260016020526040902054959b509399509197509550935091506127e79087611dc6565b60008060008060008061299987611d77565b6001600160a01b038f16600090815260026020526040902054959b509399509197509550935091506129cb9088611dc6565b6001600160a01b038a166000908152600260209081526040808320939093556001905220546128de9087611dc6565b6000610bd2606461204e600d548561276890919063ffffffff16565b6000610bd2606461204e600f548561276890919063ffffffff16565b6000612a3c611d3c565b90506000612a4a8383612768565b30600090815260016020526040902054909150612a679082611d6b565b3060009081526001602090815260408083209390935560059052205460ff1615611ee75730600090815260026020526040902054612aa59084611d6b565b30600090815260026020526040902055505050565b600854612ac79083611dc6565b600855600954612ad79082611d6b565b6009555050565b80358015158114612aee57600080fd5b919050565b600060208284031215612b0557600080fd5b8135610cbe81612e71565b600060208284031215612b2257600080fd5b8151610cbe81612e71565b60008060408385031215612b4057600080fd5b8235612b4b81612e71565b91506020830135612b5b81612e71565b809150509250929050565b600080600060608486031215612b7b57600080fd5b8335612b8681612e71565b92506020840135612b9681612e71565b929592945050506040919091013590565b60008060408385031215612bba57600080fd5b8235612bc581612e71565b946020939093013593505050565b600060208284031215612be557600080fd5b610cbe82612ade565b600060208284031215612c0057600080fd5b5035919050565b60008060408385031215612c1a57600080fd5b82359150612c2a60208401612ade565b90509250929050565b600080600060608486031215612c4857600080fd5b8351925060208401519150604084015190509250925092565b600060208083528351808285015260005b81811015612c8e57858101830151858201604001528201612c72565b81811115612ca0576000604083870101525b50601f01601f1916929092016040019392505050565b60208082526022908201527f4f6e6c792061646d696e206f7220616e7469206d616e6167657220616c6c6f77604082015261195960f21b606082015260800190565b600060a082018783526020878185015260a0604085015281875180845260c086019150828901935060005b81811015612d485784516001600160a01b031683529383019391830191600101612d23565b50506001600160a01b03969096166060850152505050608001529392505050565b60008219821115612d7c57612d7c612e2f565b500190565b600082612d9e57634e487b7160e01b600052601260045260246000fd5b500490565b6000816000190483118215151615612dbd57612dbd612e2f565b500290565b600082821015612dd457612dd4612e2f565b500390565b600181811c90821680612ded57607f821691505b60208210811415612e0e57634e487b7160e01b600052602260045260246000fd5b50919050565b6000600019821415612e2857612e28612e2f565b5060010190565b634e487b7160e01b600052601160045260246000fd5b634e487b7160e01b600052603160045260246000fd5b634e487b7160e01b600052603260045260246000fd5b6001600160a01b03811681146118a757600080fdfe42455032303a207472616e7366657220616d6f756e74206578636565647320616c6c6f77616e636542455032303a2064656372656173656420616c6c6f77616e63652062656c6f77207a65726fa264697066735822122020955769f4dc6c0af072ba7026476cba804cfb8d88c7106ec059d4363187ea5764736f6c63430008070033",
			"opcodes": "PUSH1 0x80 PUSH1 0x40 MSTORE PUSH12 0x1921A082258A73BFC3240000 PUSH1 0x7 DUP2 SWAP1 SSTORE PUSH3 0x24 SWAP1 PUSH1 0x0 NOT PUSH3 0x766 JUMP JUMPDEST PUSH3 0x32 SWAP1 PUSH1 0x0 NOT PUSH3 0x6F1 JUMP JUMPDEST PUSH1 0x8 SSTORE PUSH1 0x40 DUP1 MLOAD DUP1 DUP3 ADD SWAP1 SWAP2 MSTORE PUSH1 0xC DUP1 DUP3 MSTORE PUSH12 0x26B2BA3096B837B5B2B6B7B7 PUSH1 0xA1 SHL PUSH1 0x20 SWAP1 SWAP3 ADD SWAP2 DUP3 MSTORE PUSH3 0x6A SWAP2 PUSH1 0xA SWAP2 PUSH3 0x568 JUMP JUMPDEST POP PUSH1 0x40 DUP1 MLOAD DUP1 DUP3 ADD SWAP1 SWAP2 MSTORE PUSH1 0x7 DUP1 DUP3 MSTORE PUSH7 0x3837B5B2B6B7B7 PUSH1 0xC9 SHL PUSH1 0x20 SWAP1 SWAP3 ADD SWAP2 DUP3 MSTORE PUSH3 0x9B SWAP2 PUSH1 0xB SWAP2 PUSH3 0x568 JUMP JUMPDEST POP PUSH1 0xC DUP1 SLOAD PUSH1 0xFF NOT AND PUSH1 0x12 SWAP1 DUP2 OR SWAP1 SWAP2 SSTORE PUSH1 0x2 PUSH1 0xD DUP2 SWAP1 SSTORE PUSH1 0xE DUP2 SWAP1 SSTORE PUSH1 0x1 PUSH1 0xF DUP2 SWAP1 SSTORE PUSH1 0x10 DUP2 SWAP1 SSTORE PUSH1 0x11 DUP3 SWAP1 SSTORE SWAP2 DUP2 SWAP1 SSTORE PUSH1 0x13 DUP2 SWAP1 SSTORE PUSH1 0x15 DUP2 SWAP1 SSTORE PUSH1 0x16 DUP2 SWAP1 SSTORE PUSH1 0x17 SWAP2 SWAP1 SWAP2 SSTORE PUSH1 0x18 DUP2 SWAP1 SSTORE PUSH1 0x19 SSTORE PUSH1 0x5 PUSH1 0x1A SSTORE PUSH1 0x1F DUP1 SLOAD PUSH1 0xFF PUSH1 0xA8 SHL NOT AND SWAP1 SSTORE PUSH10 0xD3C21BCECCEDA1000000 PUSH1 0x20 SWAP1 DUP2 SSTORE PUSH1 0x40 DUP1 MLOAD PUSH2 0x160 DUP2 ADD DUP3 MSTORE PUSH3 0x1008E DUP2 MSTORE PUSH3 0x1F81C SWAP3 DUP2 ADD SWAP3 SWAP1 SWAP3 MSTORE PUSH3 0x40583 SWAP1 DUP3 ADD MSTORE PUSH3 0x7F447 PUSH1 0x60 DUP3 ADD MSTORE PUSH3 0xFFC19 PUSH1 0x80 DUP3 ADD MSTORE PUSH3 0x1FD8F0 PUSH1 0xA0 DUP3 ADD MSTORE PUSH3 0x3FFFAD PUSH1 0xC0 DUP3 ADD MSTORE PUSH3 0x7FF82E PUSH1 0xE0 DUP3 ADD MSTORE PUSH4 0x101863B PUSH2 0x100 DUP3 ADD MSTORE PUSH4 0x200271A PUSH2 0x120 DUP3 ADD MSTORE PUSH4 0x4030D33 PUSH2 0x140 DUP3 ADD MSTORE PUSH3 0x18E SWAP1 PUSH1 0x21 SWAP1 PUSH1 0xB PUSH3 0x5F7 JUMP JUMPDEST POP CALLVALUE DUP1 ISZERO PUSH3 0x19C JUMPI PUSH1 0x0 DUP1 REVERT JUMPDEST POP PUSH1 0x40 MLOAD PUSH3 0x36E7 CODESIZE SUB DUP1 PUSH3 0x36E7 DUP4 CODECOPY DUP2 ADD PUSH1 0x40 DUP2 SWAP1 MSTORE PUSH3 0x1BF SWAP2 PUSH3 0x67B JUMP JUMPDEST PUSH3 0x1CA CALLER PUSH3 0x518 JUMP JUMPDEST PUSH1 0x14 DUP1 SLOAD PUSH1 0x1 PUSH1 0x1 PUSH1 0xA0 SHL SUB NOT AND PUSH1 0x1 PUSH1 0x1 PUSH1 0xA0 SHL SUB DUP5 DUP2 AND SWAP2 SWAP1 SWAP2 OR SWAP1 SWAP2 SSTORE PUSH1 0x1D DUP1 SLOAD PUSH2 0x100 PUSH1 0x1 PUSH1 0xA8 SHL SUB NOT AND PUSH2 0x100 SWAP3 DUP5 AND SWAP3 SWAP1 SWAP3 MUL SWAP2 SWAP1 SWAP2 OR SWAP1 SSTORE PUSH1 0x8 SLOAD PUSH1 0x1 PUSH1 0x0 PUSH3 0x218 CALLER SWAP1 JUMP JUMPDEST PUSH1 0x1 PUSH1 0x1 PUSH1 0xA0 SHL SUB AND PUSH1 0x1 PUSH1 0x1 PUSH1 0xA0 SHL SUB AND DUP2 MSTORE PUSH1 0x20 ADD SWAP1 DUP2 MSTORE PUSH1 0x20 ADD PUSH1 0x0 KECCAK256 DUP2 SWAP1 SSTORE POP DUP3 PUSH1 0x1 PUSH1 0x1 PUSH1 0xA0 SHL SUB AND PUSH4 0xC45A0155 PUSH1 0x40 MLOAD DUP2 PUSH4 0xFFFFFFFF AND PUSH1 0xE0 SHL DUP2 MSTORE PUSH1 0x4 ADD PUSH1 0x20 PUSH1 0x40 MLOAD DUP1 DUP4 SUB DUP2 DUP7 DUP1 EXTCODESIZE ISZERO DUP1 ISZERO PUSH3 0x276 JUMPI PUSH1 0x0 DUP1 REVERT JUMPDEST POP GAS STATICCALL ISZERO DUP1 ISZERO PUSH3 0x28B JUMPI RETURNDATASIZE PUSH1 0x0 DUP1 RETURNDATACOPY RETURNDATASIZE PUSH1 0x0 REVERT JUMPDEST POP POP POP POP PUSH1 0x40 MLOAD RETURNDATASIZE PUSH1 0x1F NOT PUSH1 0x1F DUP3 ADD AND DUP3 ADD DUP1 PUSH1 0x40 MSTORE POP DUP2 ADD SWAP1 PUSH3 0x2B1 SWAP2 SWAP1 PUSH3 0x654 JUMP JUMPDEST PUSH1 0x1 PUSH1 0x1 PUSH1 0xA0 SHL SUB AND PUSH4 0xC9C65396 ADDRESS DUP6 PUSH1 0x1 PUSH1 0x1 PUSH1 0xA0 SHL SUB AND PUSH4 0xAD5C4648 PUSH1 0x40 MLOAD DUP2 PUSH4 0xFFFFFFFF AND PUSH1 0xE0 SHL DUP2 MSTORE PUSH1 0x4 ADD PUSH1 0x20 PUSH1 0x40 MLOAD DUP1 DUP4 SUB DUP2 DUP7 DUP1 EXTCODESIZE ISZERO DUP1 ISZERO PUSH3 0x2FA JUMPI PUSH1 0x0 DUP1 REVERT JUMPDEST POP GAS STATICCALL ISZERO DUP1 ISZERO PUSH3 0x30F JUMPI RETURNDATASIZE PUSH1 0x0 DUP1 RETURNDATACOPY RETURNDATASIZE PUSH1 0x0 REVERT JUMPDEST POP POP POP POP PUSH1 0x40 MLOAD RETURNDATASIZE PUSH1 0x1F NOT PUSH1 0x1F DUP3 ADD AND DUP3 ADD DUP1 PUSH1 0x40 MSTORE POP DUP2 ADD SWAP1 PUSH3 0x335 SWAP2 SWAP1 PUSH3 0x654 JUMP JUMPDEST PUSH1 0x40 MLOAD PUSH1 0x1 PUSH1 0x1 PUSH1 0xE0 SHL SUB NOT PUSH1 0xE0 DUP6 SWAP1 SHL AND DUP2 MSTORE PUSH1 0x1 PUSH1 0x1 PUSH1 0xA0 SHL SUB SWAP3 DUP4 AND PUSH1 0x4 DUP3 ADD MSTORE SWAP2 AND PUSH1 0x24 DUP3 ADD MSTORE PUSH1 0x44 ADD PUSH1 0x20 PUSH1 0x40 MLOAD DUP1 DUP4 SUB DUP2 PUSH1 0x0 DUP8 DUP1 EXTCODESIZE ISZERO DUP1 ISZERO PUSH3 0x37E JUMPI PUSH1 0x0 DUP1 REVERT JUMPDEST POP GAS CALL ISZERO DUP1 ISZERO PUSH3 0x393 JUMPI RETURNDATASIZE PUSH1 0x0 DUP1 RETURNDATACOPY RETURNDATASIZE PUSH1 0x0 REVERT JUMPDEST POP POP POP POP PUSH1 0x40 MLOAD RETURNDATASIZE PUSH1 0x1F NOT PUSH1 0x1F DUP3 ADD AND DUP3 ADD DUP1 PUSH1 0x40 MSTORE POP DUP2 ADD SWAP1 PUSH3 0x3B9 SWAP2 SWAP1 PUSH3 0x654 JUMP JUMPDEST PUSH1 0x1F DUP1 SLOAD PUSH1 0x1 PUSH1 0x1 PUSH1 0xA0 SHL SUB NOT SWAP1 DUP2 AND PUSH1 0x1 PUSH1 0x1 PUSH1 0xA0 SHL SUB SWAP4 DUP5 AND OR SWAP1 SWAP2 SSTORE PUSH1 0x1E DUP1 SLOAD SWAP1 SWAP2 AND SWAP2 DUP6 AND SWAP2 SWAP1 SWAP2 OR SWAP1 SSTORE PUSH1 0x1 PUSH1 0x4 PUSH1 0x0 PUSH3 0x401 PUSH1 0x0 SLOAD PUSH1 0x1 PUSH1 0x1 PUSH1 0xA0 SHL SUB AND SWAP1 JUMP JUMPDEST PUSH1 0x1 PUSH1 0x1 PUSH1 0xA0 SHL SUB SWAP1 DUP2 AND DUP3 MSTORE PUSH1 0x20 DUP1 DUP4 ADD SWAP4 SWAP1 SWAP4 MSTORE PUSH1 0x40 SWAP2 DUP3 ADD PUSH1 0x0 SWAP1 DUP2 KECCAK256 DUP1 SLOAD SWAP6 ISZERO ISZERO PUSH1 0xFF NOT SWAP7 DUP8 AND OR SWAP1 SSTORE SWAP1 DUP6 AND DUP2 MSTORE PUSH1 0x4 SWAP1 SWAP3 MSTORE DUP1 DUP3 KECCAK256 DUP1 SLOAD DUP5 AND PUSH1 0x1 SWAP1 DUP2 OR SWAP1 SWAP2 SSTORE ADDRESS DUP4 MSTORE SWAP1 DUP3 KECCAK256 DUP1 SLOAD SWAP1 SWAP4 AND OR SWAP1 SWAP2 SSTORE JUMPDEST PUSH1 0x21 SLOAD DUP2 LT ISZERO PUSH3 0x4D3 JUMPI PUSH1 0x1 PUSH1 0x1C PUSH1 0x0 PUSH1 0x21 DUP5 DUP2 SLOAD DUP2 LT PUSH3 0x47F JUMPI PUSH3 0x47F PUSH3 0x79F JUMP JUMPDEST SWAP1 PUSH1 0x0 MSTORE PUSH1 0x20 PUSH1 0x0 KECCAK256 ADD SLOAD PUSH8 0xDE0B6B3A7640000 PUSH3 0x49F SWAP2 SWAP1 PUSH3 0x6CF JUMP JUMPDEST DUP2 MSTORE PUSH1 0x20 DUP2 ADD SWAP2 SWAP1 SWAP2 MSTORE PUSH1 0x40 ADD PUSH1 0x0 KECCAK256 DUP1 SLOAD PUSH1 0xFF NOT AND SWAP2 ISZERO ISZERO SWAP2 SWAP1 SWAP2 OR SWAP1 SSTORE DUP1 PUSH3 0x4CA DUP2 PUSH3 0x748 JUMP JUMPDEST SWAP2 POP POP PUSH3 0x458 JUMP JUMPDEST POP PUSH1 0x7 SLOAD PUSH1 0x40 MLOAD SWAP1 DUP2 MSTORE CALLER SWAP1 PUSH1 0x0 SWAP1 PUSH32 0xDDF252AD1BE2C89B69C2B068FC378DAA952BA7F163C4A11628F55A4DF523B3EF SWAP1 PUSH1 0x20 ADD PUSH1 0x40 MLOAD DUP1 SWAP2 SUB SWAP1 LOG3 POP POP POP PUSH3 0x7CE JUMP JUMPDEST PUSH1 0x0 DUP1 SLOAD PUSH1 0x1 PUSH1 0x1 PUSH1 0xA0 SHL SUB DUP4 DUP2 AND PUSH1 0x1 PUSH1 0x1 PUSH1 0xA0 SHL SUB NOT DUP4 AND DUP2 OR DUP5 SSTORE PUSH1 0x40 MLOAD SWAP2 SWAP1 SWAP3 AND SWAP3 DUP4 SWAP2 PUSH32 0x8BE0079C531659141344CD1FD0A4F28419497F9722A3DAAFE3B4186F6B6457E0 SWAP2 SWAP1 LOG3 POP POP JUMP JUMPDEST DUP3 DUP1 SLOAD PUSH3 0x576 SWAP1 PUSH3 0x70B JUMP JUMPDEST SWAP1 PUSH1 0x0 MSTORE PUSH1 0x20 PUSH1 0x0 KECCAK256 SWAP1 PUSH1 0x1F ADD PUSH1 0x20 SWAP1 DIV DUP2 ADD SWAP3 DUP3 PUSH3 0x59A JUMPI PUSH1 0x0 DUP6 SSTORE PUSH3 0x5E5 JUMP JUMPDEST DUP3 PUSH1 0x1F LT PUSH3 0x5B5 JUMPI DUP1 MLOAD PUSH1 0xFF NOT AND DUP4 DUP1 ADD OR DUP6 SSTORE PUSH3 0x5E5 JUMP JUMPDEST DUP3 DUP1 ADD PUSH1 0x1 ADD DUP6 SSTORE DUP3 ISZERO PUSH3 0x5E5 JUMPI SWAP2 DUP3 ADD JUMPDEST DUP3 DUP2 GT ISZERO PUSH3 0x5E5 JUMPI DUP3 MLOAD DUP3 SSTORE SWAP2 PUSH1 0x20 ADD SWAP2 SWAP1 PUSH1 0x1 ADD SWAP1 PUSH3 0x5C8 JUMP JUMPDEST POP PUSH3 0x5F3 SWAP3 SWAP2 POP PUSH3 0x63D JUMP JUMPDEST POP SWAP1 JUMP JUMPDEST DUP3 DUP1 SLOAD DUP3 DUP3 SSTORE SWAP1 PUSH1 0x0 MSTORE PUSH1 0x20 PUSH1 0x0 KECCAK256 SWAP1 DUP2 ADD SWAP3 DUP3 ISZERO PUSH3 0x5E5 JUMPI SWAP2 PUSH1 0x20 MUL DUP3 ADD JUMPDEST DUP3 DUP2 GT ISZERO PUSH3 0x5E5 JUMPI DUP3 MLOAD DUP3 SWAP1 PUSH4 0xFFFFFFFF AND SWAP1 SSTORE SWAP2 PUSH1 0x20 ADD SWAP2 SWAP1 PUSH1 0x1 ADD SWAP1 PUSH3 0x618 JUMP JUMPDEST JUMPDEST DUP1 DUP3 GT ISZERO PUSH3 0x5F3 JUMPI PUSH1 0x0 DUP2 SSTORE PUSH1 0x1 ADD PUSH3 0x63E JUMP JUMPDEST PUSH1 0x0 PUSH1 0x20 DUP3 DUP5 SUB SLT ISZERO PUSH3 0x667 JUMPI PUSH1 0x0 DUP1 REVERT JUMPDEST DUP2 MLOAD PUSH3 0x674 DUP2 PUSH3 0x7B5 JUMP JUMPDEST SWAP4 SWAP3 POP POP POP JUMP JUMPDEST PUSH1 0x0 DUP1 PUSH1 0x0 PUSH1 0x60 DUP5 DUP7 SUB SLT ISZERO PUSH3 0x691 JUMPI PUSH1 0x0 DUP1 REVERT JUMPDEST DUP4 MLOAD PUSH3 0x69E DUP2 PUSH3 0x7B5 JUMP JUMPDEST PUSH1 0x20 DUP6 ADD MLOAD SWAP1 SWAP4 POP PUSH3 0x6B1 DUP2 PUSH3 0x7B5 JUMP JUMPDEST PUSH1 0x40 DUP6 ADD MLOAD SWAP1 SWAP3 POP PUSH3 0x6C4 DUP2 PUSH3 0x7B5 JUMP JUMPDEST DUP1 SWAP2 POP POP SWAP3 POP SWAP3 POP SWAP3 JUMP JUMPDEST PUSH1 0x0 DUP2 PUSH1 0x0 NOT DIV DUP4 GT DUP3 ISZERO ISZERO AND ISZERO PUSH3 0x6EC JUMPI PUSH3 0x6EC PUSH3 0x789 JUMP JUMPDEST POP MUL SWAP1 JUMP JUMPDEST PUSH1 0x0 DUP3 DUP3 LT ISZERO PUSH3 0x706 JUMPI PUSH3 0x706 PUSH3 0x789 JUMP JUMPDEST POP SUB SWAP1 JUMP JUMPDEST PUSH1 0x1 DUP2 DUP2 SHR SWAP1 DUP3 AND DUP1 PUSH3 0x720 JUMPI PUSH1 0x7F DUP3 AND SWAP2 POP JUMPDEST PUSH1 0x20 DUP3 LT DUP2 EQ ISZERO PUSH3 0x742 JUMPI PUSH4 0x4E487B71 PUSH1 0xE0 SHL PUSH1 0x0 MSTORE PUSH1 0x22 PUSH1 0x4 MSTORE PUSH1 0x24 PUSH1 0x0 REVERT JUMPDEST POP SWAP2 SWAP1 POP JUMP JUMPDEST PUSH1 0x0 PUSH1 0x0 NOT DUP3 EQ ISZERO PUSH3 0x75F JUMPI PUSH3 0x75F PUSH3 0x789 JUMP JUMPDEST POP PUSH1 0x1 ADD SWAP1 JUMP JUMPDEST PUSH1 0x0 DUP3 PUSH3 0x784 JUMPI PUSH4 0x4E487B71 PUSH1 0xE0 SHL PUSH1 0x0 MSTORE PUSH1 0x12 PUSH1 0x4 MSTORE PUSH1 0x24 PUSH1 0x0 REVERT JUMPDEST POP MOD SWAP1 JUMP JUMPDEST PUSH4 0x4E487B71 PUSH1 0xE0 SHL PUSH1 0x0 MSTORE PUSH1 0x11 PUSH1 0x4 MSTORE PUSH1 0x24 PUSH1 0x0 REVERT JUMPDEST PUSH4 0x4E487B71 PUSH1 0xE0 SHL PUSH1 0x0 MSTORE PUSH1 0x32 PUSH1 0x4 MSTORE PUSH1 0x24 PUSH1 0x0 REVERT JUMPDEST PUSH1 0x1 PUSH1 0x1 PUSH1 0xA0 SHL SUB DUP2 AND DUP2 EQ PUSH3 0x7CB JUMPI PUSH1 0x0 DUP1 REVERT JUMPDEST POP JUMP JUMPDEST PUSH2 0x2F09 DUP1 PUSH3 0x7DE PUSH1 0x0 CODECOPY PUSH1 0x0 RETURN INVALID PUSH1 0x80 PUSH1 0x40 MSTORE PUSH1 0x4 CALLDATASIZE LT PUSH2 0x385 JUMPI PUSH1 0x0 CALLDATALOAD PUSH1 0xE0 SHR DUP1 PUSH4 0x6BC87C3A GT PUSH2 0x1D1 JUMPI DUP1 PUSH4 0xA9059CBB GT PUSH2 0x102 JUMPI DUP1 PUSH4 0xD0E03523 GT PUSH2 0xA0 JUMPI DUP1 PUSH4 0xE1E144DE GT PUSH2 0x6F JUMPI DUP1 PUSH4 0xE1E144DE EQ PUSH2 0xA4B JUMPI DUP1 PUSH4 0xEA2F0B37 EQ PUSH2 0xA6C JUMPI DUP1 PUSH4 0xEBF78663 EQ PUSH2 0xA8C JUMPI DUP1 PUSH4 0xF2FDE38B EQ PUSH2 0xAAC JUMPI PUSH1 0x0 DUP1 REVERT JUMPDEST DUP1 PUSH4 0xD0E03523 EQ PUSH2 0x9A6 JUMPI DUP1 PUSH4 0xD5BDE46C EQ PUSH2 0x9C6 JUMPI DUP1 PUSH4 0xD8C6404B EQ PUSH2 0x9EB JUMPI DUP1 PUSH4 0xDD62ED3E EQ PUSH2 0xA05 JUMPI PUSH1 0x0 DUP1 REVERT JUMPDEST DUP1 PUSH4 0xC2C7C03A GT PUSH2 0xDC JUMPI DUP1 PUSH4 0xC2C7C03A EQ PUSH2 0x930 JUMPI DUP1 PUSH4 0xC49B9A80 EQ PUSH2 0x950 JUMPI DUP1 PUSH4 0xC8607952 EQ PUSH2 0x970 JUMPI DUP1 PUSH4 0xCEA26958 EQ PUSH2 0x986 JUMPI PUSH1 0x0 DUP1 REVERT JUMPDEST DUP1 PUSH4 0xA9059CBB EQ PUSH2 0x8DA JUMPI DUP1 PUSH4 0xA928681C EQ PUSH2 0x8FA JUMPI DUP1 PUSH4 0xC0B0FDA2 EQ PUSH2 0x91A JUMPI PUSH1 0x0 DUP1 REVERT JUMPDEST DUP1 PUSH4 0x88790A68 GT PUSH2 0x16F JUMPI DUP1 PUSH4 0x8EE88C53 GT PUSH2 0x149 JUMPI DUP1 PUSH4 0x8EE88C53 EQ PUSH2 0x865 JUMPI DUP1 PUSH4 0x95D89B41 EQ PUSH2 0x885 JUMPI DUP1 PUSH4 0x9655CAB5 EQ PUSH2 0x89A JUMPI DUP1 PUSH4 0xA457C2D7 EQ PUSH2 0x8BA JUMPI PUSH1 0x0 DUP1 REVERT JUMPDEST DUP1 PUSH4 0x88790A68 EQ PUSH2 0x7F8 JUMPI DUP1 PUSH4 0x88F82020 EQ PUSH2 0x80E JUMPI DUP1 PUSH4 0x8DA5CB5B EQ PUSH2 0x847 JUMPI PUSH1 0x0 DUP1 REVERT JUMPDEST DUP1 PUSH4 0x74FB20E1 GT PUSH2 0x1AB JUMPI DUP1 PUSH4 0x74FB20E1 EQ PUSH2 0x78D JUMPI DUP1 PUSH4 0x75F0A874 EQ PUSH2 0x7A2 JUMPI DUP1 PUSH4 0x7ABDC1CA EQ PUSH2 0x7C2 JUMPI DUP1 PUSH4 0x882CFB3F EQ PUSH2 0x7D8 JUMPI PUSH1 0x0 DUP1 REVERT JUMPDEST DUP1 PUSH4 0x6BC87C3A EQ PUSH2 0x742 JUMPI DUP1 PUSH4 0x70A08231 EQ PUSH2 0x758 JUMPI DUP1 PUSH4 0x715018A6 EQ PUSH2 0x778 JUMPI PUSH1 0x0 DUP1 REVERT JUMPDEST DUP1 PUSH4 0x3B124FE7 GT PUSH2 0x2B6 JUMPI DUP1 PUSH4 0x52390C02 GT PUSH2 0x254 JUMPI DUP1 PUSH4 0x5D098B38 GT PUSH2 0x223 JUMPI DUP1 PUSH4 0x5D098B38 EQ PUSH2 0x6CC JUMPI DUP1 PUSH4 0x611BF629 EQ PUSH2 0x6EC JUMPI DUP1 PUSH4 0x632A6A35 EQ PUSH2 0x70C JUMPI DUP1 PUSH4 0x64A06E80 EQ PUSH2 0x72C JUMPI PUSH1 0x0 DUP1 REVERT JUMPDEST DUP1 PUSH4 0x52390C02 EQ PUSH2 0x639 JUMPI DUP1 PUSH4 0x5342ACB4 EQ PUSH2 0x659 JUMPI DUP1 PUSH4 0x57D87F0D EQ PUSH2 0x692 JUMPI DUP1 PUSH4 0x5876CCC5 EQ PUSH2 0x6AC JUMPI PUSH1 0x0 DUP1 REVERT JUMPDEST DUP1 PUSH4 0x4549B039 GT PUSH2 0x290 JUMPI DUP1 PUSH4 0x4549B039 EQ PUSH2 0x5B8 JUMPI DUP1 PUSH4 0x457C194C EQ PUSH2 0x5D8 JUMPI DUP1 PUSH4 0x4A5566BF EQ PUSH2 0x5F8 JUMPI DUP1 PUSH4 0x4A74BB02 EQ PUSH2 0x618 JUMPI PUSH1 0x0 DUP1 REVERT JUMPDEST DUP1 PUSH4 0x3B124FE7 EQ PUSH2 0x562 JUMPI DUP1 PUSH4 0x3BD5D173 EQ PUSH2 0x578 JUMPI DUP1 PUSH4 0x437823EC EQ PUSH2 0x598 JUMPI PUSH1 0x0 DUP1 REVERT JUMPDEST DUP1 PUSH4 0x200A692D GT PUSH2 0x323 JUMPI DUP1 PUSH4 0x2D838119 GT PUSH2 0x2FD JUMPI DUP1 PUSH4 0x2D838119 EQ PUSH2 0x4E0 JUMPI DUP1 PUSH4 0x313CE567 EQ PUSH2 0x500 JUMPI DUP1 PUSH4 0x3685D419 EQ PUSH2 0x522 JUMPI DUP1 PUSH4 0x39509351 EQ PUSH2 0x542 JUMPI PUSH1 0x0 DUP1 REVERT JUMPDEST DUP1 PUSH4 0x200A692D EQ PUSH2 0x494 JUMPI DUP1 PUSH4 0x22976E0D EQ PUSH2 0x4AA JUMPI DUP1 PUSH4 0x23B872DD EQ PUSH2 0x4C0 JUMPI PUSH1 0x0 DUP1 REVERT JUMPDEST DUP1 PUSH4 0xA7D2D87 GT PUSH2 0x35F JUMPI DUP1 PUSH4 0xA7D2D87 EQ PUSH2 0x40E JUMPI DUP1 PUSH4 0x13114A9D EQ PUSH2 0x432 JUMPI DUP1 PUSH4 0x18160DDD EQ PUSH2 0x447 JUMPI DUP1 PUSH4 0x1A4CD1B1 EQ PUSH2 0x45C JUMPI PUSH1 0x0 DUP1 REVERT JUMPDEST DUP1 PUSH4 0x61C82D0 EQ PUSH2 0x391 JUMPI DUP1 PUSH4 0x6FDDE03 EQ PUSH2 0x3B3 JUMPI DUP1 PUSH4 0x95EA7B3 EQ PUSH2 0x3DE JUMPI PUSH1 0x0 DUP1 REVERT JUMPDEST CALLDATASIZE PUSH2 0x38C JUMPI STOP JUMPDEST PUSH1 0x0 DUP1 REVERT JUMPDEST CALLVALUE DUP1 ISZERO PUSH2 0x39D JUMPI PUSH1 0x0 DUP1 REVERT JUMPDEST POP PUSH2 0x3B1 PUSH2 0x3AC CALLDATASIZE PUSH1 0x4 PUSH2 0x2BEE JUMP JUMPDEST PUSH2 0xACC JUMP JUMPDEST STOP JUMPDEST CALLVALUE DUP1 ISZERO PUSH2 0x3BF JUMPI PUSH1 0x0 DUP1 REVERT JUMPDEST POP PUSH2 0x3C8 PUSH2 0xB2F JUMP JUMPDEST PUSH1 0x40 MLOAD PUSH2 0x3D5 SWAP2 SWAP1 PUSH2 0x2C61 JUMP JUMPDEST PUSH1 0x40 MLOAD DUP1 SWAP2 SUB SWAP1 RETURN JUMPDEST CALLVALUE DUP1 ISZERO PUSH2 0x3EA JUMPI PUSH1 0x0 DUP1 REVERT JUMPDEST POP PUSH2 0x3FE PUSH2 0x3F9 CALLDATASIZE PUSH1 0x4 PUSH2 0x2BA7 JUMP JUMPDEST PUSH2 0xBC1 JUMP JUMPDEST PUSH1 0x40 MLOAD SWAP1 ISZERO ISZERO DUP2 MSTORE PUSH1 0x20 ADD PUSH2 0x3D5 JUMP JUMPDEST CALLVALUE DUP1 ISZERO PUSH2 0x41A JUMPI PUSH1 0x0 DUP1 REVERT JUMPDEST POP PUSH2 0x424 PUSH1 0x1A SLOAD DUP2 JUMP JUMPDEST PUSH1 0x40 MLOAD SWAP1 DUP2 MSTORE PUSH1 0x20 ADD PUSH2 0x3D5 JUMP JUMPDEST CALLVALUE DUP1 ISZERO PUSH2 0x43E JUMPI PUSH1 0x0 DUP1 REVERT JUMPDEST POP PUSH1 0x9 SLOAD PUSH2 0x424 JUMP JUMPDEST CALLVALUE DUP1 ISZERO PUSH2 0x453 JUMPI PUSH1 0x0 DUP1 REVERT JUMPDEST POP PUSH1 0x7 SLOAD PUSH2 0x424 JUMP JUMPDEST CALLVALUE DUP1 ISZERO PUSH2 0x468 JUMPI PUSH1 0x0 DUP1 REVERT JUMPDEST POP PUSH1 0x1E SLOAD PUSH2 0x47C SWAP1 PUSH1 0x1 PUSH1 0x1 PUSH1 0xA0 SHL SUB AND DUP2 JUMP JUMPDEST PUSH1 0x40 MLOAD PUSH1 0x1 PUSH1 0x1 PUSH1 0xA0 SHL SUB SWAP1 SWAP2 AND DUP2 MSTORE PUSH1 0x20 ADD PUSH2 0x3D5 JUMP JUMPDEST CALLVALUE DUP1 ISZERO PUSH2 0x4A0 JUMPI PUSH1 0x0 DUP1 REVERT JUMPDEST POP PUSH2 0x424 PUSH1 0x16 SLOAD DUP2 JUMP JUMPDEST CALLVALUE DUP1 ISZERO PUSH2 0x4B6 JUMPI PUSH1 0x0 DUP1 REVERT JUMPDEST POP PUSH2 0x424 PUSH1 0x13 SLOAD DUP2 JUMP JUMPDEST CALLVALUE DUP1 ISZERO PUSH2 0x4CC JUMPI PUSH1 0x0 DUP1 REVERT JUMPDEST POP PUSH2 0x3FE PUSH2 0x4DB CALLDATASIZE PUSH1 0x4 PUSH2 0x2B66 JUMP JUMPDEST PUSH2 0xBD8 JUMP JUMPDEST CALLVALUE DUP1 ISZERO PUSH2 0x4EC JUMPI PUSH1 0x0 DUP1 REVERT JUMPDEST POP PUSH2 0x424 PUSH2 0x4FB CALLDATASIZE PUSH1 0x4 PUSH2 0x2BEE JUMP JUMPDEST PUSH2 0xC41 JUMP JUMPDEST CALLVALUE DUP1 ISZERO PUSH2 0x50C JUMPI PUSH1 0x0 DUP1 REVERT JUMPDEST POP PUSH1 0xC SLOAD PUSH1 0x40 MLOAD PUSH1 0xFF SWAP1 SWAP2 AND DUP2 MSTORE PUSH1 0x20 ADD PUSH2 0x3D5 JUMP JUMPDEST CALLVALUE DUP1 ISZERO PUSH2 0x52E JUMPI PUSH1 0x0 DUP1 REVERT JUMPDEST POP PUSH2 0x3B1 PUSH2 0x53D CALLDATASIZE PUSH1 0x4 PUSH2 0x2AF3 JUMP JUMPDEST PUSH2 0xCC5 JUMP JUMPDEST CALLVALUE DUP1 ISZERO PUSH2 0x54E JUMPI PUSH1 0x0 DUP1 REVERT JUMPDEST POP PUSH2 0x3FE PUSH2 0x55D CALLDATASIZE PUSH1 0x4 PUSH2 0x2BA7 JUMP JUMPDEST PUSH2 0xE5A JUMP JUMPDEST CALLVALUE DUP1 ISZERO PUSH2 0x56E JUMPI PUSH1 0x0 DUP1 REVERT JUMPDEST POP PUSH2 0x424 PUSH1 0xD SLOAD DUP2 JUMP JUMPDEST CALLVALUE DUP1 ISZERO PUSH2 0x584 JUMPI PUSH1 0x0 DUP1 REVERT JUMPDEST POP PUSH2 0x3B1 PUSH2 0x593 CALLDATASIZE PUSH1 0x4 PUSH2 0x2BEE JUMP JUMPDEST PUSH2 0xE90 JUMP JUMPDEST CALLVALUE DUP1 ISZERO PUSH2 0x5A4 JUMPI PUSH1 0x0 DUP1 REVERT JUMPDEST POP PUSH2 0x3B1 PUSH2 0x5B3 CALLDATASIZE PUSH1 0x4 PUSH2 0x2AF3 JUMP JUMPDEST PUSH2 0xF7A JUMP JUMPDEST CALLVALUE DUP1 ISZERO PUSH2 0x5C4 JUMPI PUSH1 0x0 DUP1 REVERT JUMPDEST POP PUSH2 0x424 PUSH2 0x5D3 CALLDATASIZE PUSH1 0x4 PUSH2 0x2C07 JUMP JUMPDEST PUSH2 0xFA6 JUMP JUMPDEST CALLVALUE DUP1 ISZERO PUSH2 0x5E4 JUMPI PUSH1 0x0 DUP1 REVERT JUMPDEST POP PUSH2 0x3B1 PUSH2 0x5F3 CALLDATASIZE PUSH1 0x4 PUSH2 0x2BEE JUMP JUMPDEST PUSH2 0x1033 JUMP JUMPDEST CALLVALUE DUP1 ISZERO PUSH2 0x604 JUMPI PUSH1 0x0 DUP1 REVERT JUMPDEST POP PUSH2 0x3B1 PUSH2 0x613 CALLDATASIZE PUSH1 0x4 PUSH2 0x2BD3 JUMP JUMPDEST PUSH2 0x109F JUMP JUMPDEST CALLVALUE DUP1 ISZERO PUSH2 0x624 JUMPI PUSH1 0x0 DUP1 REVERT JUMPDEST POP PUSH1 0x1F SLOAD PUSH2 0x3FE SWAP1 PUSH1 0x1 PUSH1 0xA8 SHL SWAP1 DIV PUSH1 0xFF AND DUP2 JUMP JUMPDEST CALLVALUE DUP1 ISZERO PUSH2 0x645 JUMPI PUSH1 0x0 DUP1 REVERT JUMPDEST POP PUSH2 0x3B1 PUSH2 0x654 CALLDATASIZE PUSH1 0x4 PUSH2 0x2AF3 JUMP JUMPDEST PUSH2 0x10F6 JUMP JUMPDEST CALLVALUE DUP1 ISZERO PUSH2 0x665 JUMPI PUSH1 0x0 DUP1 REVERT JUMPDEST POP PUSH2 0x3FE PUSH2 0x674 CALLDATASIZE PUSH1 0x4 PUSH2 0x2AF3 JUMP JUMPDEST PUSH1 0x1 PUSH1 0x1 PUSH1 0xA0 SHL SUB AND PUSH1 0x0 SWAP1 DUP2 MSTORE PUSH1 0x4 PUSH1 0x20 MSTORE PUSH1 0x40 SWAP1 KECCAK256 SLOAD PUSH1 0xFF AND SWAP1 JUMP JUMPDEST CALLVALUE DUP1 ISZERO PUSH2 0x69E JUMPI PUSH1 0x0 DUP1 REVERT JUMPDEST POP PUSH1 0x1B SLOAD PUSH2 0x3FE SWAP1 PUSH1 0xFF AND DUP2 JUMP JUMPDEST CALLVALUE DUP1 ISZERO PUSH2 0x6B8 JUMPI PUSH1 0x0 DUP1 REVERT JUMPDEST POP PUSH2 0x3B1 PUSH2 0x6C7 CALLDATASIZE PUSH1 0x4 PUSH2 0x2BEE JUMP JUMPDEST PUSH2 0x1290 JUMP JUMPDEST CALLVALUE DUP1 ISZERO PUSH2 0x6D8 JUMPI PUSH1 0x0 DUP1 REVERT JUMPDEST POP PUSH2 0x3B1 PUSH2 0x6E7 CALLDATASIZE PUSH1 0x4 PUSH2 0x2AF3 JUMP JUMPDEST PUSH2 0x1301 JUMP JUMPDEST CALLVALUE DUP1 ISZERO PUSH2 0x6F8 JUMPI PUSH1 0x0 DUP1 REVERT JUMPDEST POP PUSH2 0x3B1 PUSH2 0x707 CALLDATASIZE PUSH1 0x4 PUSH2 0x2AF3 JUMP JUMPDEST PUSH2 0x132B JUMP JUMPDEST CALLVALUE DUP1 ISZERO PUSH2 0x718 JUMPI PUSH1 0x0 DUP1 REVERT JUMPDEST POP PUSH1 0x1F SLOAD PUSH2 0x47C SWAP1 PUSH1 0x1 PUSH1 0x1 PUSH1 0xA0 SHL SUB AND DUP2 JUMP JUMPDEST CALLVALUE DUP1 ISZERO PUSH2 0x738 JUMPI PUSH1 0x0 DUP1 REVERT JUMPDEST POP PUSH2 0x424 PUSH2 0x3E8 DUP2 JUMP JUMPDEST CALLVALUE DUP1 ISZERO PUSH2 0x74E JUMPI PUSH1 0x0 DUP1 REVERT JUMPDEST POP PUSH2 0x424 PUSH1 0xF SLOAD DUP2 JUMP JUMPDEST CALLVALUE DUP1 ISZERO PUSH2 0x764 JUMPI PUSH1 0x0 DUP1 REVERT JUMPDEST POP PUSH2 0x424 PUSH2 0x773 CALLDATASIZE PUSH1 0x4 PUSH2 0x2AF3 JUMP JUMPDEST PUSH2 0x1355 JUMP JUMPDEST CALLVALUE DUP1 ISZERO PUSH2 0x784 JUMPI PUSH1 0x0 DUP1 REVERT JUMPDEST POP PUSH2 0x3B1 PUSH2 0x13B4 JUMP JUMPDEST CALLVALUE DUP1 ISZERO PUSH2 0x799 JUMPI PUSH1 0x0 DUP1 REVERT JUMPDEST POP PUSH2 0x3B1 PUSH2 0x13C8 JUMP JUMPDEST CALLVALUE DUP1 ISZERO PUSH2 0x7AE JUMPI PUSH1 0x0 DUP1 REVERT JUMPDEST POP PUSH1 0x14 SLOAD PUSH2 0x47C SWAP1 PUSH1 0x1 PUSH1 0x1 PUSH1 0xA0 SHL SUB AND DUP2 JUMP JUMPDEST CALLVALUE DUP1 ISZERO PUSH2 0x7CE JUMPI PUSH1 0x0 DUP1 REVERT JUMPDEST POP PUSH2 0x424 PUSH1 0x19 SLOAD DUP2 JUMP JUMPDEST CALLVALUE DUP1 ISZERO PUSH2 0x7E4 JUMPI PUSH1 0x0 DUP1 REVERT JUMPDEST POP PUSH1 0x22 SLOAD PUSH2 0x47C SWAP1 PUSH1 0x1 PUSH1 0x1 PUSH1 0xA0 SHL SUB AND DUP2 JUMP JUMPDEST CALLVALUE DUP1 ISZERO PUSH2 0x804 JUMPI PUSH1 0x0 DUP1 REVERT JUMPDEST POP PUSH2 0x424 PUSH1 0x17 SLOAD DUP2 JUMP JUMPDEST CALLVALUE DUP1 ISZERO PUSH2 0x81A JUMPI PUSH1 0x0 DUP1 REVERT JUMPDEST POP PUSH2 0x3FE PUSH2 0x829 CALLDATASIZE PUSH1 0x4 PUSH2 0x2AF3 JUMP JUMPDEST PUSH1 0x1 PUSH1 0x1 PUSH1 0xA0 SHL SUB AND PUSH1 0x0 SWAP1 DUP2 MSTORE PUSH1 0x5 PUSH1 0x20 MSTORE PUSH1 0x40 SWAP1 KECCAK256 SLOAD PUSH1 0xFF AND SWAP1 JUMP JUMPDEST CALLVALUE DUP1 ISZERO PUSH2 0x853 JUMPI PUSH1 0x0 DUP1 REVERT JUMPDEST POP PUSH1 0x0 SLOAD PUSH1 0x1 PUSH1 0x1 PUSH1 0xA0 SHL SUB AND PUSH2 0x47C JUMP JUMPDEST CALLVALUE DUP1 ISZERO PUSH2 0x871 JUMPI PUSH1 0x0 DUP1 REVERT JUMPDEST POP PUSH2 0x3B1 PUSH2 0x880 CALLDATASIZE PUSH1 0x4 PUSH2 0x2BEE JUMP JUMPDEST PUSH2 0x13FC JUMP JUMPDEST CALLVALUE DUP1 ISZERO PUSH2 0x891 JUMPI PUSH1 0x0 DUP1 REVERT JUMPDEST POP PUSH2 0x3C8 PUSH2 0x1468 JUMP JUMPDEST CALLVALUE DUP1 ISZERO PUSH2 0x8A6 JUMPI PUSH1 0x0 DUP1 REVERT JUMPDEST POP PUSH2 0x3B1 PUSH2 0x8B5 CALLDATASIZE PUSH1 0x4 PUSH2 0x2BEE JUMP JUMPDEST PUSH2 0x1477 JUMP JUMPDEST CALLVALUE DUP1 ISZERO PUSH2 0x8C6 JUMPI PUSH1 0x0 DUP1 REVERT JUMPDEST POP PUSH2 0x3FE PUSH2 0x8D5 CALLDATASIZE PUSH1 0x4 PUSH2 0x2BA7 JUMP JUMPDEST PUSH2 0x1550 JUMP JUMPDEST CALLVALUE DUP1 ISZERO PUSH2 0x8E6 JUMPI PUSH1 0x0 DUP1 REVERT JUMPDEST POP PUSH2 0x3FE PUSH2 0x8F5 CALLDATASIZE PUSH1 0x4 PUSH2 0x2BA7 JUMP JUMPDEST PUSH2 0x159F JUMP JUMPDEST CALLVALUE DUP1 ISZERO PUSH2 0x906 JUMPI PUSH1 0x0 DUP1 REVERT JUMPDEST POP PUSH2 0x3B1 PUSH2 0x915 CALLDATASIZE PUSH1 0x4 PUSH2 0x2BEE JUMP JUMPDEST PUSH2 0x15AC JUMP JUMPDEST CALLVALUE DUP1 ISZERO PUSH2 0x926 JUMPI PUSH1 0x0 DUP1 REVERT JUMPDEST POP PUSH2 0x424 PUSH1 0x11 SLOAD DUP2 JUMP JUMPDEST CALLVALUE DUP1 ISZERO PUSH2 0x93C JUMPI PUSH1 0x0 DUP1 REVERT JUMPDEST POP PUSH2 0x3B1 PUSH2 0x94B CALLDATASIZE PUSH1 0x4 PUSH2 0x2BD3 JUMP JUMPDEST PUSH2 0x161D JUMP JUMPDEST CALLVALUE DUP1 ISZERO PUSH2 0x95C JUMPI PUSH1 0x0 DUP1 REVERT JUMPDEST POP PUSH2 0x3B1 PUSH2 0x96B CALLDATASIZE PUSH1 0x4 PUSH2 0x2BD3 JUMP JUMPDEST PUSH2 0x1674 JUMP JUMPDEST CALLVALUE DUP1 ISZERO PUSH2 0x97C JUMPI PUSH1 0x0 DUP1 REVERT JUMPDEST POP PUSH2 0x424 PUSH1 0x18 SLOAD DUP2 JUMP JUMPDEST CALLVALUE DUP1 ISZERO PUSH2 0x992 JUMPI PUSH1 0x0 DUP1 REVERT JUMPDEST POP PUSH2 0x3B1 PUSH2 0x9A1 CALLDATASIZE PUSH1 0x4 PUSH2 0x2BEE JUMP JUMPDEST PUSH2 0x16D4 JUMP JUMPDEST CALLVALUE DUP1 ISZERO PUSH2 0x9B2 JUMPI PUSH1 0x0 DUP1 REVERT JUMPDEST POP PUSH2 0x3B1 PUSH2 0x9C1 CALLDATASIZE PUSH1 0x4 PUSH2 0x2BEE JUMP JUMPDEST PUSH2 0x1732 JUMP JUMPDEST CALLVALUE DUP1 ISZERO PUSH2 0x9D2 JUMPI PUSH1 0x0 DUP1 REVERT JUMPDEST POP PUSH1 0x1D SLOAD PUSH2 0x47C SWAP1 PUSH2 0x100 SWAP1 DIV PUSH1 0x1 PUSH1 0x1 PUSH1 0xA0 SHL SUB AND DUP2 JUMP JUMPDEST CALLVALUE DUP1 ISZERO PUSH2 0x9F7 JUMPI PUSH1 0x0 DUP1 REVERT JUMPDEST POP PUSH1 0x1D SLOAD PUSH2 0x3FE SWAP1 PUSH1 0xFF AND DUP2 JUMP JUMPDEST CALLVALUE DUP1 ISZERO PUSH2 0xA11 JUMPI PUSH1 0x0 DUP1 REVERT JUMPDEST POP PUSH2 0x424 PUSH2 0xA20 CALLDATASIZE PUSH1 0x4 PUSH2 0x2B2D JUMP JUMPDEST PUSH1 0x1 PUSH1 0x1 PUSH1 0xA0 SHL SUB SWAP2 DUP3 AND PUSH1 0x0 SWAP1 DUP2 MSTORE PUSH1 0x3 PUSH1 0x20 SWAP1 DUP2 MSTORE PUSH1 0x40 DUP1 DUP4 KECCAK256 SWAP4 SWAP1 SWAP5 AND DUP3 MSTORE SWAP2 SWAP1 SWAP2 MSTORE KECCAK256 SLOAD SWAP1 JUMP JUMPDEST CALLVALUE DUP1 ISZERO PUSH2 0xA57 JUMPI PUSH1 0x0 DUP1 REVERT JUMPDEST POP PUSH1 0x22 SLOAD PUSH2 0x3FE SWAP1 PUSH1 0x1 PUSH1 0xA0 SHL SWAP1 DIV PUSH1 0xFF AND DUP2 JUMP JUMPDEST CALLVALUE DUP1 ISZERO PUSH2 0xA78 JUMPI PUSH1 0x0 DUP1 REVERT JUMPDEST POP PUSH2 0x3B1 PUSH2 0xA87 CALLDATASIZE PUSH1 0x4 PUSH2 0x2AF3 JUMP JUMPDEST PUSH2 0x179C JUMP JUMPDEST CALLVALUE DUP1 ISZERO PUSH2 0xA98 JUMPI PUSH1 0x0 DUP1 REVERT JUMPDEST POP PUSH2 0x3B1 PUSH2 0xAA7 CALLDATASIZE PUSH1 0x4 PUSH2 0x2BEE JUMP JUMPDEST PUSH2 0x17C5 JUMP JUMPDEST CALLVALUE DUP1 ISZERO PUSH2 0xAB8 JUMPI PUSH1 0x0 DUP1 REVERT JUMPDEST POP PUSH2 0x3B1 PUSH2 0xAC7 CALLDATASIZE PUSH1 0x4 PUSH2 0x2AF3 JUMP JUMPDEST PUSH2 0x1831 JUMP JUMPDEST PUSH2 0xAD4 PUSH2 0x18AA JUMP JUMPDEST PUSH1 0xA DUP2 GT ISZERO PUSH2 0xB2A JUMPI PUSH1 0x40 MLOAD PUSH3 0x461BCD PUSH1 0xE5 SHL DUP2 MSTORE PUSH1 0x20 PUSH1 0x4 DUP3 ADD MSTORE PUSH1 0x1F PUSH1 0x24 DUP3 ADD MSTORE PUSH32 0x546178206665652063616E6E6F74206265206D6F7265207468616E2031302500 PUSH1 0x44 DUP3 ADD MSTORE PUSH1 0x64 ADD JUMPDEST PUSH1 0x40 MLOAD DUP1 SWAP2 SUB SWAP1 REVERT JUMPDEST PUSH1 0xD SSTORE JUMP JUMPDEST PUSH1 0x60 PUSH1 0xA DUP1 SLOAD PUSH2 0xB3E SWAP1 PUSH2 0x2DD9 JUMP JUMPDEST DUP1 PUSH1 0x1F ADD PUSH1 0x20 DUP1 SWAP2 DIV MUL PUSH1 0x20 ADD PUSH1 0x40 MLOAD SWAP1 DUP2 ADD PUSH1 0x40 MSTORE DUP1 SWAP3 SWAP2 SWAP1 DUP2 DUP2 MSTORE PUSH1 0x20 ADD DUP3 DUP1 SLOAD PUSH2 0xB6A SWAP1 PUSH2 0x2DD9 JUMP JUMPDEST DUP1 ISZERO PUSH2 0xBB7 JUMPI DUP1 PUSH1 0x1F LT PUSH2 0xB8C JUMPI PUSH2 0x100 DUP1 DUP4 SLOAD DIV MUL DUP4 MSTORE SWAP2 PUSH1 0x20 ADD SWAP2 PUSH2 0xBB7 JUMP JUMPDEST DUP3 ADD SWAP2 SWAP1 PUSH1 0x0 MSTORE PUSH1 0x20 PUSH1 0x0 KECCAK256 SWAP1 JUMPDEST DUP2 SLOAD DUP2 MSTORE SWAP1 PUSH1 0x1 ADD SWAP1 PUSH1 0x20 ADD DUP1 DUP4 GT PUSH2 0xB9A JUMPI DUP3 SWAP1 SUB PUSH1 0x1F AND DUP3 ADD SWAP2 JUMPDEST POP POP POP POP POP SWAP1 POP SWAP1 JUMP JUMPDEST PUSH1 0x0 PUSH2 0xBCE CALLER DUP5 DUP5 PUSH2 0x1904 JUMP JUMPDEST POP PUSH1 0x1 JUMPDEST SWAP3 SWAP2 POP POP JUMP JUMPDEST PUSH1 0x0 PUSH2 0xBE5 DUP5 DUP5 DUP5 PUSH2 0x1A28 JUMP JUMPDEST PUSH2 0xC37 DUP5 CALLER PUSH2 0xC32 DUP6 PUSH1 0x40 MLOAD DUP1 PUSH1 0x60 ADD PUSH1 0x40 MSTORE DUP1 PUSH1 0x28 DUP2 MSTORE PUSH1 0x20 ADD PUSH2 0x2E87 PUSH1 0x28 SWAP2 CODECOPY PUSH1 0x1 PUSH1 0x1 PUSH1 0xA0 SHL SUB DUP11 AND PUSH1 0x0 SWAP1 DUP2 MSTORE PUSH1 0x3 PUSH1 0x20 SWAP1 DUP2 MSTORE PUSH1 0x40 DUP1 DUP4 KECCAK256 CALLER DUP5 MSTORE SWAP1 SWAP2 MSTORE SWAP1 KECCAK256 SLOAD SWAP2 SWAP1 PUSH2 0x1D10 JUMP JUMPDEST PUSH2 0x1904 JUMP JUMPDEST POP PUSH1 0x1 SWAP4 SWAP3 POP POP POP JUMP JUMPDEST PUSH1 0x0 PUSH1 0x8 SLOAD DUP3 GT ISZERO PUSH2 0xCA8 JUMPI PUSH1 0x40 MLOAD PUSH3 0x461BCD PUSH1 0xE5 SHL DUP2 MSTORE PUSH1 0x20 PUSH1 0x4 DUP3 ADD MSTORE PUSH1 0x2A PUSH1 0x24 DUP3 ADD MSTORE PUSH32 0x416D6F756E74206D757374206265206C657373207468616E20746F74616C2072 PUSH1 0x44 DUP3 ADD MSTORE PUSH10 0x65666C656374696F6E73 PUSH1 0xB0 SHL PUSH1 0x64 DUP3 ADD MSTORE PUSH1 0x84 ADD PUSH2 0xB21 JUMP JUMPDEST PUSH1 0x0 PUSH2 0xCB2 PUSH2 0x1D3C JUMP JUMPDEST SWAP1 POP PUSH2 0xCBE DUP4 DUP3 PUSH2 0x1D5F JUMP JUMPDEST SWAP4 SWAP3 POP POP POP JUMP JUMPDEST PUSH2 0xCCD PUSH2 0x18AA JUMP JUMPDEST PUSH1 0x1 PUSH1 0x1 PUSH1 0xA0 SHL SUB DUP2 AND PUSH1 0x0 SWAP1 DUP2 MSTORE PUSH1 0x5 PUSH1 0x20 MSTORE PUSH1 0x40 SWAP1 KECCAK256 SLOAD PUSH1 0xFF AND PUSH2 0xD35 JUMPI PUSH1 0x40 MLOAD PUSH3 0x461BCD PUSH1 0xE5 SHL DUP2 MSTORE PUSH1 0x20 PUSH1 0x4 DUP3 ADD MSTORE PUSH1 0x1B PUSH1 0x24 DUP3 ADD MSTORE PUSH32 0x4163636F756E7420697320616C7265616479206578636C756465640000000000 PUSH1 0x44 DUP3 ADD MSTORE PUSH1 0x64 ADD PUSH2 0xB21 JUMP JUMPDEST PUSH1 0x0 JUMPDEST PUSH1 0x6 SLOAD DUP2 LT ISZERO PUSH2 0xE56 JUMPI DUP2 PUSH1 0x1 PUSH1 0x1 PUSH1 0xA0 SHL SUB AND PUSH1 0x6 DUP3 DUP2 SLOAD DUP2 LT PUSH2 0xD5F JUMPI PUSH2 0xD5F PUSH2 0x2E5B JUMP JUMPDEST PUSH1 0x0 SWAP2 DUP3 MSTORE PUSH1 0x20 SWAP1 SWAP2 KECCAK256 ADD SLOAD PUSH1 0x1 PUSH1 0x1 PUSH1 0xA0 SHL SUB AND EQ ISZERO PUSH2 0xE44 JUMPI PUSH1 0x6 DUP1 SLOAD PUSH2 0xD8A SWAP1 PUSH1 0x1 SWAP1 PUSH2 0x2DC2 JUMP JUMPDEST DUP2 SLOAD DUP2 LT PUSH2 0xD9A JUMPI PUSH2 0xD9A PUSH2 0x2E5B JUMP JUMPDEST PUSH1 0x0 SWAP2 DUP3 MSTORE PUSH1 0x20 SWAP1 SWAP2 KECCAK256 ADD SLOAD PUSH1 0x6 DUP1 SLOAD PUSH1 0x1 PUSH1 0x1 PUSH1 0xA0 SHL SUB SWAP1 SWAP3 AND SWAP2 DUP4 SWAP1 DUP2 LT PUSH2 0xDC6 JUMPI PUSH2 0xDC6 PUSH2 0x2E5B JUMP JUMPDEST PUSH1 0x0 SWAP2 DUP3 MSTORE PUSH1 0x20 DUP1 DUP4 KECCAK256 SWAP2 SWAP1 SWAP2 ADD DUP1 SLOAD PUSH1 0x1 PUSH1 0x1 PUSH1 0xA0 SHL SUB NOT AND PUSH1 0x1 PUSH1 0x1 PUSH1 0xA0 SHL SUB SWAP5 DUP6 AND OR SWAP1 SSTORE SWAP2 DUP5 AND DUP2 MSTORE PUSH1 0x2 DUP3 MSTORE PUSH1 0x40 DUP1 DUP3 KECCAK256 DUP3 SWAP1 SSTORE PUSH1 0x5 SWAP1 SWAP3 MSTORE KECCAK256 DUP1 SLOAD PUSH1 0xFF NOT AND SWAP1 SSTORE PUSH1 0x6 DUP1 SLOAD DUP1 PUSH2 0xE1E JUMPI PUSH2 0xE1E PUSH2 0x2E45 JUMP JUMPDEST PUSH1 0x0 DUP3 DUP2 MSTORE PUSH1 0x20 SWAP1 KECCAK256 DUP2 ADD PUSH1 0x0 NOT SWAP1 DUP2 ADD DUP1 SLOAD PUSH1 0x1 PUSH1 0x1 PUSH1 0xA0 SHL SUB NOT AND SWAP1 SSTORE ADD SWAP1 SSTORE POP POP JUMP JUMPDEST DUP1 PUSH2 0xE4E DUP2 PUSH2 0x2E14 JUMP JUMPDEST SWAP2 POP POP PUSH2 0xD38 JUMP JUMPDEST POP POP JUMP JUMPDEST CALLER PUSH1 0x0 DUP2 DUP2 MSTORE PUSH1 0x3 PUSH1 0x20 SWAP1 DUP2 MSTORE PUSH1 0x40 DUP1 DUP4 KECCAK256 PUSH1 0x1 PUSH1 0x1 PUSH1 0xA0 SHL SUB DUP8 AND DUP5 MSTORE SWAP1 SWAP2 MSTORE DUP2 KECCAK256 SLOAD SWAP1 SWAP2 PUSH2 0xBCE SWAP2 DUP6 SWAP1 PUSH2 0xC32 SWAP1 DUP7 PUSH2 0x1D6B JUMP JUMPDEST CALLER PUSH1 0x0 DUP2 DUP2 MSTORE PUSH1 0x5 PUSH1 0x20 MSTORE PUSH1 0x40 SWAP1 KECCAK256 SLOAD PUSH1 0xFF AND ISZERO PUSH2 0xF05 JUMPI PUSH1 0x40 MLOAD PUSH3 0x461BCD PUSH1 0xE5 SHL DUP2 MSTORE PUSH1 0x20 PUSH1 0x4 DUP3 ADD MSTORE PUSH1 0x2C PUSH1 0x24 DUP3 ADD MSTORE PUSH32 0x4578636C75646564206164647265737365732063616E6E6F742063616C6C2074 PUSH1 0x44 DUP3 ADD MSTORE PUSH12 0x3434B990333AB731BA34B7B7 PUSH1 0xA1 SHL PUSH1 0x64 DUP3 ADD MSTORE PUSH1 0x84 ADD PUSH2 0xB21 JUMP JUMPDEST PUSH1 0x0 PUSH2 0xF10 DUP4 PUSH2 0x1D77 JUMP JUMPDEST POP POP POP POP PUSH1 0x1 PUSH1 0x1 PUSH1 0xA0 SHL SUB DUP5 AND PUSH1 0x0 SWAP1 DUP2 MSTORE PUSH1 0x1 PUSH1 0x20 MSTORE PUSH1 0x40 SWAP1 KECCAK256 SLOAD SWAP2 SWAP3 POP PUSH2 0xF3C SWAP2 SWAP1 POP DUP3 PUSH2 0x1DC6 JUMP JUMPDEST PUSH1 0x1 PUSH1 0x1 PUSH1 0xA0 SHL SUB DUP4 AND PUSH1 0x0 SWAP1 DUP2 MSTORE PUSH1 0x1 PUSH1 0x20 MSTORE PUSH1 0x40 SWAP1 KECCAK256 SSTORE PUSH1 0x8 SLOAD PUSH2 0xF62 SWAP1 DUP3 PUSH2 0x1DC6 JUMP JUMPDEST PUSH1 0x8 SSTORE PUSH1 0x9 SLOAD PUSH2 0xF72 SWAP1 DUP5 PUSH2 0x1D6B JUMP JUMPDEST PUSH1 0x9 SSTORE POP POP POP JUMP JUMPDEST PUSH2 0xF82 PUSH2 0x18AA JUMP JUMPDEST PUSH1 0x1 PUSH1 0x1 PUSH1 0xA0 SHL SUB AND PUSH1 0x0 SWAP1 DUP2 MSTORE PUSH1 0x4 PUSH1 0x20 MSTORE PUSH1 0x40 SWAP1 KECCAK256 DUP1 SLOAD PUSH1 0xFF NOT AND PUSH1 0x1 OR SWAP1 SSTORE JUMP JUMPDEST PUSH1 0x0 PUSH1 0x7 SLOAD DUP4 GT ISZERO PUSH2 0xFFA JUMPI PUSH1 0x40 MLOAD PUSH3 0x461BCD PUSH1 0xE5 SHL DUP2 MSTORE PUSH1 0x20 PUSH1 0x4 DUP3 ADD MSTORE PUSH1 0x1F PUSH1 0x24 DUP3 ADD MSTORE PUSH32 0x416D6F756E74206D757374206265206C657373207468616E20737570706C7900 PUSH1 0x44 DUP3 ADD MSTORE PUSH1 0x64 ADD PUSH2 0xB21 JUMP JUMPDEST DUP2 PUSH2 0x1019 JUMPI PUSH1 0x0 PUSH2 0x100A DUP5 PUSH2 0x1D77 JUMP JUMPDEST POP SWAP4 SWAP6 POP PUSH2 0xBD2 SWAP5 POP POP POP POP POP JUMP JUMPDEST PUSH1 0x0 PUSH2 0x1024 DUP5 PUSH2 0x1D77 JUMP JUMPDEST POP SWAP3 SWAP6 POP PUSH2 0xBD2 SWAP5 POP POP POP POP POP JUMP JUMPDEST PUSH2 0x103B PUSH2 0x18AA JUMP JUMPDEST PUSH1 0xA DUP2 GT ISZERO PUSH2 0x109A JUMPI PUSH1 0x40 MLOAD PUSH3 0x461BCD PUSH1 0xE5 SHL DUP2 MSTORE PUSH1 0x20 PUSH1 0x4 DUP3 ADD MSTORE PUSH1 0x25 PUSH1 0x24 DUP3 ADD MSTORE PUSH32 0x4D61726B6574696E67206665652063616E6E6F74206265206D6F726520746861 PUSH1 0x44 DUP3 ADD MSTORE PUSH5 0x6E20313025 PUSH1 0xD8 SHL PUSH1 0x64 DUP3 ADD MSTORE PUSH1 0x84 ADD PUSH2 0xB21 JUMP JUMPDEST PUSH1 0x13 SSTORE JUMP JUMPDEST PUSH1 0x0 SLOAD PUSH1 0x1 PUSH1 0x1 PUSH1 0xA0 SHL SUB AND CALLER EQ DUP1 PUSH2 0x10C7 JUMPI POP PUSH1 0x1D SLOAD PUSH2 0x100 SWAP1 DIV PUSH1 0x1 PUSH1 0x1 PUSH1 0xA0 SHL SUB AND CALLER EQ JUMPDEST PUSH2 0x10E3 JUMPI PUSH1 0x40 MLOAD PUSH3 0x461BCD PUSH1 0xE5 SHL DUP2 MSTORE PUSH1 0x4 ADD PUSH2 0xB21 SWAP1 PUSH2 0x2CB6 JUMP JUMPDEST PUSH1 0x1B DUP1 SLOAD PUSH1 0xFF NOT AND SWAP2 ISZERO ISZERO SWAP2 SWAP1 SWAP2 OR SWAP1 SSTORE JUMP JUMPDEST PUSH2 0x10FE PUSH2 0x18AA JUMP JUMPDEST PUSH1 0x1E SLOAD PUSH1 0x1 PUSH1 0x1 PUSH1 0xA0 SHL SUB DUP3 DUP2 AND SWAP2 AND EQ ISZERO PUSH2 0x1167 JUMPI PUSH1 0x40 MLOAD PUSH3 0x461BCD PUSH1 0xE5 SHL DUP2 MSTORE PUSH1 0x20 PUSH1 0x4 DUP3 ADD MSTORE PUSH1 0x22 PUSH1 0x24 DUP3 ADD MSTORE PUSH32 0x57652063616E206E6F74206578636C7564652050616E63616B6520726F757465 PUSH1 0x44 DUP3 ADD MSTORE PUSH2 0x3917 PUSH1 0xF1 SHL PUSH1 0x64 DUP3 ADD MSTORE PUSH1 0x84 ADD PUSH2 0xB21 JUMP JUMPDEST PUSH1 0x1 PUSH1 0x1 PUSH1 0xA0 SHL SUB DUP2 AND PUSH1 0x0 SWAP1 DUP2 MSTORE PUSH1 0x5 PUSH1 0x20 MSTORE PUSH1 0x40 SWAP1 KECCAK256 SLOAD PUSH1 0xFF AND ISZERO PUSH2 0x11D0 JUMPI PUSH1 0x40 MLOAD PUSH3 0x461BCD PUSH1 0xE5 SHL DUP2 MSTORE PUSH1 0x20 PUSH1 0x4 DUP3 ADD MSTORE PUSH1 0x1B PUSH1 0x24 DUP3 ADD MSTORE PUSH32 0x4163636F756E7420697320616C7265616479206578636C756465640000000000 PUSH1 0x44 DUP3 ADD MSTORE PUSH1 0x64 ADD PUSH2 0xB21 JUMP JUMPDEST PUSH1 0x1 PUSH1 0x1 PUSH1 0xA0 SHL SUB DUP2 AND PUSH1 0x0 SWAP1 DUP2 MSTORE PUSH1 0x1 PUSH1 0x20 MSTORE PUSH1 0x40 SWAP1 KECCAK256 SLOAD ISZERO PUSH2 0x122A JUMPI PUSH1 0x1 PUSH1 0x1 PUSH1 0xA0 SHL SUB DUP2 AND PUSH1 0x0 SWAP1 DUP2 MSTORE PUSH1 0x1 PUSH1 0x20 MSTORE PUSH1 0x40 SWAP1 KECCAK256 SLOAD PUSH2 0x1210 SWAP1 PUSH2 0xC41 JUMP JUMPDEST PUSH1 0x1 PUSH1 0x1 PUSH1 0xA0 SHL SUB DUP3 AND PUSH1 0x0 SWAP1 DUP2 MSTORE PUSH1 0x2 PUSH1 0x20 MSTORE PUSH1 0x40 SWAP1 KECCAK256 SSTORE JUMPDEST PUSH1 0x1 PUSH1 0x1 PUSH1 0xA0 SHL SUB AND PUSH1 0x0 DUP2 DUP2 MSTORE PUSH1 0x5 PUSH1 0x20 MSTORE PUSH1 0x40 DUP2 KECCAK256 DUP1 SLOAD PUSH1 0xFF NOT AND PUSH1 0x1 SWAP1 DUP2 OR SWAP1 SWAP2 SSTORE PUSH1 0x6 DUP1 SLOAD SWAP2 DUP3 ADD DUP2 SSTORE SWAP1 SWAP2 MSTORE PUSH32 0xF652222313E28459528D920B65115C16C04F3EFC82AAEDC97BE59F3F377C0D3F ADD DUP1 SLOAD PUSH1 0x1 PUSH1 0x1 PUSH1 0xA0 SHL SUB NOT AND SWAP1 SWAP2 OR SWAP1 SSTORE JUMP JUMPDEST PUSH2 0x1298 PUSH2 0x18AA JUMP JUMPDEST PUSH1 0xA DUP2 GT ISZERO PUSH2 0x12FC JUMPI PUSH1 0x40 MLOAD PUSH3 0x461BCD PUSH1 0xE5 SHL DUP2 MSTORE PUSH1 0x20 PUSH1 0x4 DUP3 ADD MSTORE PUSH1 0x2A PUSH1 0x24 DUP3 ADD MSTORE PUSH32 0x53656C6C206C6971756964697479206665652063616E6E6F74206265206D6F72 PUSH1 0x44 DUP3 ADD MSTORE PUSH10 0x65207468616E20313025 PUSH1 0xB0 SHL PUSH1 0x64 DUP3 ADD MSTORE PUSH1 0x84 ADD PUSH2 0xB21 JUMP JUMPDEST PUSH1 0x17 SSTORE JUMP JUMPDEST PUSH2 0x1309 PUSH2 0x18AA JUMP JUMPDEST PUSH1 0x14 DUP1 SLOAD PUSH1 0x1 PUSH1 0x1 PUSH1 0xA0 SHL SUB NOT AND PUSH1 0x1 PUSH1 0x1 PUSH1 0xA0 SHL SUB SWAP3 SWAP1 SWAP3 AND SWAP2 SWAP1 SWAP2 OR SWAP1 SSTORE JUMP JUMPDEST PUSH2 0x1333 PUSH2 0x18AA JUMP JUMPDEST PUSH1 0x22 DUP1 SLOAD PUSH1 0x1 PUSH1 0x1 PUSH1 0xA0 SHL SUB NOT AND PUSH1 0x1 PUSH1 0x1 PUSH1 0xA0 SHL SUB SWAP3 SWAP1 SWAP3 AND SWAP2 SWAP1 SWAP2 OR SWAP1 SSTORE JUMP JUMPDEST PUSH1 0x1 PUSH1 0x1 PUSH1 0xA0 SHL SUB DUP2 AND PUSH1 0x0 SWAP1 DUP2 MSTORE PUSH1 0x5 PUSH1 0x20 MSTORE PUSH1 0x40 DUP2 KECCAK256 SLOAD PUSH1 0xFF AND ISZERO PUSH2 0x1392 JUMPI POP PUSH1 0x1 PUSH1 0x1 PUSH1 0xA0 SHL SUB AND PUSH1 0x0 SWAP1 DUP2 MSTORE PUSH1 0x2 PUSH1 0x20 MSTORE PUSH1 0x40 SWAP1 KECCAK256 SLOAD SWAP1 JUMP JUMPDEST PUSH1 0x1 PUSH1 0x1 PUSH1 0xA0 SHL SUB DUP3 AND PUSH1 0x0 SWAP1 DUP2 MSTORE PUSH1 0x1 PUSH1 0x20 MSTORE PUSH1 0x40 SWAP1 KECCAK256 SLOAD PUSH2 0xBD2 SWAP1 PUSH2 0xC41 JUMP JUMPDEST PUSH2 0x13BC PUSH2 0x18AA JUMP JUMPDEST PUSH2 0x13C6 PUSH1 0x0 PUSH2 0x1DD2 JUMP JUMPDEST JUMP JUMPDEST PUSH2 0x13D0 PUSH2 0x18AA JUMP JUMPDEST PUSH1 0x22 SLOAD PUSH1 0x1 PUSH1 0xA0 SHL SWAP1 DIV PUSH1 0xFF AND ISZERO PUSH2 0x13E7 JUMPI PUSH1 0x0 DUP1 REVERT JUMPDEST PUSH1 0x22 DUP1 SLOAD PUSH1 0xFF PUSH1 0xA0 SHL NOT AND PUSH1 0x1 PUSH1 0xA0 SHL OR SWAP1 SSTORE JUMP JUMPDEST PUSH2 0x1404 PUSH2 0x18AA JUMP JUMPDEST PUSH1 0xA DUP2 GT ISZERO PUSH2 0x1463 JUMPI PUSH1 0x40 MLOAD PUSH3 0x461BCD PUSH1 0xE5 SHL DUP2 MSTORE PUSH1 0x20 PUSH1 0x4 DUP3 ADD MSTORE PUSH1 0x25 PUSH1 0x24 DUP3 ADD MSTORE PUSH32 0x4C6971756964697479206665652063616E6E6F74206265206D6F726520746861 PUSH1 0x44 DUP3 ADD MSTORE PUSH5 0x6E20313025 PUSH1 0xD8 SHL PUSH1 0x64 DUP3 ADD MSTORE PUSH1 0x84 ADD PUSH2 0xB21 JUMP JUMPDEST PUSH1 0xF SSTORE JUMP JUMPDEST PUSH1 0x60 PUSH1 0xB DUP1 SLOAD PUSH2 0xB3E SWAP1 PUSH2 0x2DD9 JUMP JUMPDEST PUSH2 0x147F PUSH2 0x18AA JUMP JUMPDEST PUSH1 0x1 DUP2 LT ISZERO PUSH2 0x14E6 JUMPI PUSH1 0x40 MLOAD PUSH3 0x461BCD PUSH1 0xE5 SHL DUP2 MSTORE PUSH1 0x20 PUSH1 0x4 DUP3 ADD MSTORE PUSH1 0x2D PUSH1 0x24 DUP3 ADD MSTORE PUSH32 0x4D617820686F6C64696E672070657263656E74732063616E6E6F74206265206C PUSH1 0x44 DUP3 ADD MSTORE PUSH13 0x657373207468616E20302E3125 PUSH1 0x98 SHL PUSH1 0x64 DUP3 ADD MSTORE PUSH1 0x84 ADD PUSH2 0xB21 JUMP JUMPDEST PUSH1 0x1E DUP2 GT ISZERO PUSH2 0x154B JUMPI PUSH1 0x40 MLOAD PUSH3 0x461BCD PUSH1 0xE5 SHL DUP2 MSTORE PUSH1 0x20 PUSH1 0x4 DUP3 ADD MSTORE PUSH1 0x2B PUSH1 0x24 DUP3 ADD MSTORE PUSH32 0x4D617820686F6C64696E672070657263656E74732063616E6E6F74206265206D PUSH1 0x44 DUP3 ADD MSTORE PUSH11 0x6F7265207468616E203325 PUSH1 0xA8 SHL PUSH1 0x64 DUP3 ADD MSTORE PUSH1 0x84 ADD PUSH2 0xB21 JUMP JUMPDEST PUSH1 0x1A SSTORE JUMP JUMPDEST PUSH1 0x0 PUSH2 0xBCE CALLER DUP5 PUSH2 0xC32 DUP6 PUSH1 0x40 MLOAD DUP1 PUSH1 0x60 ADD PUSH1 0x40 MSTORE DUP1 PUSH1 0x25 DUP2 MSTORE PUSH1 0x20 ADD PUSH2 0x2EAF PUSH1 0x25 SWAP2 CODECOPY CALLER PUSH1 0x0 SWAP1 DUP2 MSTORE PUSH1 0x3 PUSH1 0x20 SWAP1 DUP2 MSTORE PUSH1 0x40 DUP1 DUP4 KECCAK256 PUSH1 0x1 PUSH1 0x1 PUSH1 0xA0 SHL SUB DUP14 AND DUP5 MSTORE SWAP1 SWAP2 MSTORE SWAP1 KECCAK256 SLOAD SWAP2 SWAP1 PUSH2 0x1D10 JUMP JUMPDEST PUSH1 0x0 PUSH2 0xBCE CALLER DUP5 DUP5 PUSH2 0x1A28 JUMP JUMPDEST PUSH2 0x15B4 PUSH2 0x18AA JUMP JUMPDEST PUSH1 0xA DUP2 GT ISZERO PUSH2 0x1618 JUMPI PUSH1 0x40 MLOAD PUSH3 0x461BCD PUSH1 0xE5 SHL DUP2 MSTORE PUSH1 0x20 PUSH1 0x4 DUP3 ADD MSTORE PUSH1 0x2A PUSH1 0x24 DUP3 ADD MSTORE PUSH32 0x53656C6C206D61726B6574696E67206665652063616E6E6F74206265206D6F72 PUSH1 0x44 DUP3 ADD MSTORE PUSH10 0x65207468616E20313025 PUSH1 0xB0 SHL PUSH1 0x64 DUP3 ADD MSTORE PUSH1 0x84 ADD PUSH2 0xB21 JUMP JUMPDEST PUSH1 0x18 SSTORE JUMP JUMPDEST PUSH1 0x0 SLOAD PUSH1 0x1 PUSH1 0x1 PUSH1 0xA0 SHL SUB AND CALLER EQ DUP1 PUSH2 0x1645 JUMPI POP PUSH1 0x1D SLOAD PUSH2 0x100 SWAP1 DIV PUSH1 0x1 PUSH1 0x1 PUSH1 0xA0 SHL SUB AND CALLER EQ JUMPDEST PUSH2 0x1661 JUMPI PUSH1 0x40 MLOAD PUSH3 0x461BCD PUSH1 0xE5 SHL DUP2 MSTORE PUSH1 0x4 ADD PUSH2 0xB21 SWAP1 PUSH2 0x2CB6 JUMP JUMPDEST PUSH1 0x1D DUP1 SLOAD PUSH1 0xFF NOT AND SWAP2 ISZERO ISZERO SWAP2 SWAP1 SWAP2 OR SWAP1 SSTORE JUMP JUMPDEST PUSH2 0x167C PUSH2 0x18AA JUMP JUMPDEST PUSH1 0x1F DUP1 SLOAD DUP3 ISZERO ISZERO PUSH1 0x1 PUSH1 0xA8 SHL MUL PUSH1 0xFF PUSH1 0xA8 SHL NOT SWAP1 SWAP2 AND OR SWAP1 SSTORE PUSH1 0x40 MLOAD PUSH32 0x53726DFCAF90650AA7EB35524F4D3220F07413C8D6CB404CC8C18BF5591BC159 SWAP1 PUSH2 0x16C9 SWAP1 DUP4 ISZERO ISZERO DUP2 MSTORE PUSH1 0x20 ADD SWAP1 JUMP JUMPDEST PUSH1 0x40 MLOAD DUP1 SWAP2 SUB SWAP1 LOG1 POP JUMP JUMPDEST PUSH2 0x16DC PUSH2 0x18AA JUMP JUMPDEST PUSH1 0xA DUP2 GT ISZERO PUSH2 0x172D JUMPI PUSH1 0x40 MLOAD PUSH3 0x461BCD PUSH1 0xE5 SHL DUP2 MSTORE PUSH1 0x20 PUSH1 0x4 DUP3 ADD DUP2 SWAP1 MSTORE PUSH1 0x24 DUP3 ADD MSTORE PUSH32 0x4275726E206665652063616E6E6F74206265206D6F7265207468616E20313025 PUSH1 0x44 DUP3 ADD MSTORE PUSH1 0x64 ADD PUSH2 0xB21 JUMP JUMPDEST PUSH1 0x11 SSTORE JUMP JUMPDEST PUSH2 0x173A PUSH2 0x18AA JUMP JUMPDEST PUSH1 0xA DUP2 GT ISZERO PUSH2 0x1797 JUMPI PUSH1 0x40 MLOAD PUSH3 0x461BCD PUSH1 0xE5 SHL DUP2 MSTORE PUSH1 0x20 PUSH1 0x4 DUP3 ADD MSTORE PUSH1 0x24 DUP1 DUP3 ADD MSTORE PUSH32 0x53656C6C20746178206665652063616E6E6F74206265206D6F7265207468616E PUSH1 0x44 DUP3 ADD MSTORE PUSH4 0x20313025 PUSH1 0xE0 SHL PUSH1 0x64 DUP3 ADD MSTORE PUSH1 0x84 ADD PUSH2 0xB21 JUMP JUMPDEST PUSH1 0x16 SSTORE JUMP JUMPDEST PUSH2 0x17A4 PUSH2 0x18AA JUMP JUMPDEST PUSH1 0x1 PUSH1 0x1 PUSH1 0xA0 SHL SUB AND PUSH1 0x0 SWAP1 DUP2 MSTORE PUSH1 0x4 PUSH1 0x20 MSTORE PUSH1 0x40 SWAP1 KECCAK256 DUP1 SLOAD PUSH1 0xFF NOT AND SWAP1 SSTORE JUMP JUMPDEST PUSH2 0x17CD PUSH2 0x18AA JUMP JUMPDEST PUSH1 0xA DUP2 GT ISZERO PUSH2 0x182C JUMPI PUSH1 0x40 MLOAD PUSH3 0x461BCD PUSH1 0xE5 SHL DUP2 MSTORE PUSH1 0x20 PUSH1 0x4 DUP3 ADD MSTORE PUSH1 0x25 PUSH1 0x24 DUP3 ADD MSTORE PUSH32 0x53656C6C206275726E206665652063616E6E6F74206265206D6F726520746861 PUSH1 0x44 DUP3 ADD MSTORE PUSH5 0x6E20313025 PUSH1 0xD8 SHL PUSH1 0x64 DUP3 ADD MSTORE PUSH1 0x84 ADD PUSH2 0xB21 JUMP JUMPDEST PUSH1 0x19 SSTORE JUMP JUMPDEST PUSH2 0x1839 PUSH2 0x18AA JUMP JUMPDEST PUSH1 0x1 PUSH1 0x1 PUSH1 0xA0 SHL SUB DUP2 AND PUSH2 0x189E JUMPI PUSH1 0x40 MLOAD PUSH3 0x461BCD PUSH1 0xE5 SHL DUP2 MSTORE PUSH1 0x20 PUSH1 0x4 DUP3 ADD MSTORE PUSH1 0x26 PUSH1 0x24 DUP3 ADD MSTORE PUSH32 0x4F776E61626C653A206E6577206F776E657220697320746865207A65726F2061 PUSH1 0x44 DUP3 ADD MSTORE PUSH6 0x646472657373 PUSH1 0xD0 SHL PUSH1 0x64 DUP3 ADD MSTORE PUSH1 0x84 ADD PUSH2 0xB21 JUMP JUMPDEST PUSH2 0x18A7 DUP2 PUSH2 0x1DD2 JUMP JUMPDEST POP JUMP JUMPDEST PUSH1 0x0 SLOAD PUSH1 0x1 PUSH1 0x1 PUSH1 0xA0 SHL SUB AND CALLER EQ PUSH2 0x13C6 JUMPI PUSH1 0x40 MLOAD PUSH3 0x461BCD PUSH1 0xE5 SHL DUP2 MSTORE PUSH1 0x20 PUSH1 0x4 DUP3 ADD DUP2 SWAP1 MSTORE PUSH1 0x24 DUP3 ADD MSTORE PUSH32 0x4F776E61626C653A2063616C6C6572206973206E6F7420746865206F776E6572 PUSH1 0x44 DUP3 ADD MSTORE PUSH1 0x64 ADD PUSH2 0xB21 JUMP JUMPDEST PUSH1 0x1 PUSH1 0x1 PUSH1 0xA0 SHL SUB DUP4 AND PUSH2 0x1966 JUMPI PUSH1 0x40 MLOAD PUSH3 0x461BCD PUSH1 0xE5 SHL DUP2 MSTORE PUSH1 0x20 PUSH1 0x4 DUP3 ADD MSTORE PUSH1 0x24 DUP1 DUP3 ADD MSTORE PUSH32 0x42455032303A20617070726F76652066726F6D20746865207A65726F20616464 PUSH1 0x44 DUP3 ADD MSTORE PUSH4 0x72657373 PUSH1 0xE0 SHL PUSH1 0x64 DUP3 ADD MSTORE PUSH1 0x84 ADD PUSH2 0xB21 JUMP JUMPDEST PUSH1 0x1 PUSH1 0x1 PUSH1 0xA0 SHL SUB DUP3 AND PUSH2 0x19C7 JUMPI PUSH1 0x40 MLOAD PUSH3 0x461BCD PUSH1 0xE5 SHL DUP2 MSTORE PUSH1 0x20 PUSH1 0x4 DUP3 ADD MSTORE PUSH1 0x22 PUSH1 0x24 DUP3 ADD MSTORE PUSH32 0x42455032303A20617070726F766520746F20746865207A65726F206164647265 PUSH1 0x44 DUP3 ADD MSTORE PUSH2 0x7373 PUSH1 0xF0 SHL PUSH1 0x64 DUP3 ADD MSTORE PUSH1 0x84 ADD PUSH2 0xB21 JUMP JUMPDEST PUSH1 0x1 PUSH1 0x1 PUSH1 0xA0 SHL SUB DUP4 DUP2 AND PUSH1 0x0 DUP2 DUP2 MSTORE PUSH1 0x3 PUSH1 0x20 SWAP1 DUP2 MSTORE PUSH1 0x40 DUP1 DUP4 KECCAK256 SWAP5 DUP8 AND DUP1 DUP5 MSTORE SWAP5 DUP3 MSTORE SWAP2 DUP3 SWAP1 KECCAK256 DUP6 SWAP1 SSTORE SWAP1 MLOAD DUP5 DUP2 MSTORE PUSH32 0x8C5BE1E5EBEC7D5BD14F71427D1E84F3DD0314C0F7B2291E5B200AC8C7C3B925 SWAP2 ADD PUSH1 0x40 MLOAD DUP1 SWAP2 SUB SWAP1 LOG3 POP POP POP JUMP JUMPDEST PUSH1 0x1 PUSH1 0x1 PUSH1 0xA0 SHL SUB DUP4 AND PUSH2 0x1A8C JUMPI PUSH1 0x40 MLOAD PUSH3 0x461BCD PUSH1 0xE5 SHL DUP2 MSTORE PUSH1 0x20 PUSH1 0x4 DUP3 ADD MSTORE PUSH1 0x25 PUSH1 0x24 DUP3 ADD MSTORE PUSH32 0x42455032303A207472616E736665722066726F6D20746865207A65726F206164 PUSH1 0x44 DUP3 ADD MSTORE PUSH5 0x6472657373 PUSH1 0xD8 SHL PUSH1 0x64 DUP3 ADD MSTORE PUSH1 0x84 ADD PUSH2 0xB21 JUMP JUMPDEST PUSH1 0x0 DUP2 GT PUSH2 0x1AEE JUMPI PUSH1 0x40 MLOAD PUSH3 0x461BCD PUSH1 0xE5 SHL DUP2 MSTORE PUSH1 0x20 PUSH1 0x4 DUP3 ADD MSTORE PUSH1 0x29 PUSH1 0x24 DUP3 ADD MSTORE PUSH32 0x5472616E7366657220616D6F756E74206D757374206265206772656174657220 PUSH1 0x44 DUP3 ADD MSTORE PUSH9 0x7468616E207A65726F PUSH1 0xB8 SHL PUSH1 0x64 DUP3 ADD MSTORE PUSH1 0x84 ADD PUSH2 0xB21 JUMP JUMPDEST PUSH2 0x1AF9 DUP4 DUP4 DUP4 PUSH2 0x1E22 JUMP JUMPDEST PUSH1 0x1D SLOAD PUSH1 0xFF AND DUP1 ISZERO PUSH2 0x1B18 JUMPI POP PUSH1 0x1F SLOAD PUSH1 0x1 PUSH1 0x1 PUSH1 0xA0 SHL SUB DUP5 DUP2 AND SWAP2 AND EQ JUMPDEST ISZERO PUSH2 0x1B7B JUMPI PUSH1 0x0 DUP2 DUP2 MSTORE PUSH1 0x1C PUSH1 0x20 MSTORE PUSH1 0x40 SWAP1 KECCAK256 SLOAD PUSH1 0xFF AND PUSH2 0x1B7B JUMPI PUSH1 0x40 MLOAD PUSH3 0x461BCD PUSH1 0xE5 SHL DUP2 MSTORE PUSH1 0x20 PUSH1 0x4 DUP3 ADD MSTORE PUSH1 0x18 PUSH1 0x24 DUP3 ADD MSTORE PUSH32 0x4F6E6C7920616C6C6F7765642062757920616D6F756E74730000000000000000 PUSH1 0x44 DUP3 ADD MSTORE PUSH1 0x64 ADD PUSH2 0xB21 JUMP JUMPDEST PUSH1 0x0 PUSH2 0x1B86 ADDRESS PUSH2 0x1355 JUMP JUMPDEST PUSH1 0x20 SLOAD SWAP1 SWAP2 POP DUP2 LT DUP1 ISZERO SWAP1 DUP2 SWAP1 PUSH2 0x1BA7 JUMPI POP PUSH1 0x1F SLOAD PUSH1 0x1 PUSH1 0xA0 SHL SWAP1 DIV PUSH1 0xFF AND ISZERO JUMPDEST DUP1 ISZERO PUSH2 0x1BC1 JUMPI POP PUSH1 0x1F SLOAD PUSH1 0x1 PUSH1 0x1 PUSH1 0xA0 SHL SUB DUP7 DUP2 AND SWAP2 AND EQ ISZERO JUMPDEST DUP1 ISZERO PUSH2 0x1BD6 JUMPI POP PUSH1 0x1F SLOAD PUSH1 0x1 PUSH1 0xA8 SHL SWAP1 DIV PUSH1 0xFF AND JUMPDEST ISZERO PUSH2 0x1BE9 JUMPI PUSH1 0x20 SLOAD SWAP2 POP PUSH2 0x1BE9 DUP3 PUSH2 0x1EEC JUMP JUMPDEST PUSH2 0x1BF4 DUP6 DUP6 DUP6 PUSH2 0x1F93 JUMP JUMPDEST PUSH1 0x1B SLOAD PUSH1 0xFF AND ISZERO PUSH2 0x1D09 JUMPI PUSH1 0x0 PUSH2 0x3E8 PUSH1 0x1A SLOAD PUSH1 0x7 SLOAD PUSH2 0x1C14 SWAP2 SWAP1 PUSH2 0x2DA3 JUMP JUMPDEST PUSH2 0x1C1E SWAP2 SWAP1 PUSH2 0x2D81 JUMP JUMPDEST PUSH1 0x1F SLOAD SWAP1 SWAP2 POP PUSH1 0x1 PUSH1 0x1 PUSH1 0xA0 SHL SUB DUP7 DUP2 AND SWAP2 AND EQ ISZERO PUSH2 0x1CA3 JUMPI DUP1 DUP5 GT ISZERO PUSH2 0x1C9E JUMPI PUSH1 0x40 MLOAD PUSH3 0x461BCD PUSH1 0xE5 SHL DUP2 MSTORE PUSH1 0x20 PUSH1 0x4 DUP3 ADD MSTORE PUSH1 0x2E PUSH1 0x24 DUP3 ADD MSTORE PUSH32 0x5472616E73616374656420616D6F756E742065786365656420746865206D6178 PUSH1 0x44 DUP3 ADD MSTORE PUSH14 0x20616C6C6F7765642076616C7565 PUSH1 0x90 SHL PUSH1 0x64 DUP3 ADD MSTORE PUSH1 0x84 ADD PUSH2 0xB21 JUMP JUMPDEST PUSH2 0x1D07 JUMP JUMPDEST DUP1 PUSH2 0x1CAD DUP7 PUSH2 0x1355 JUMP JUMPDEST GT ISZERO PUSH2 0x1D07 JUMPI PUSH1 0x40 MLOAD PUSH3 0x461BCD PUSH1 0xE5 SHL DUP2 MSTORE PUSH1 0x20 PUSH1 0x4 DUP3 ADD MSTORE PUSH1 0x24 DUP1 DUP3 ADD MSTORE PUSH32 0x57616C6C65742062616C616E6365206578636565647320746865206D6178206C PUSH1 0x44 DUP3 ADD MSTORE PUSH4 0x1A5B5A5D PUSH1 0xE2 SHL PUSH1 0x64 DUP3 ADD MSTORE PUSH1 0x84 ADD PUSH2 0xB21 JUMP JUMPDEST POP JUMPDEST POP POP POP POP POP JUMP JUMPDEST PUSH1 0x0 DUP2 DUP5 DUP5 GT ISZERO PUSH2 0x1D34 JUMPI PUSH1 0x40 MLOAD PUSH3 0x461BCD PUSH1 0xE5 SHL DUP2 MSTORE PUSH1 0x4 ADD PUSH2 0xB21 SWAP2 SWAP1 PUSH2 0x2C61 JUMP JUMPDEST POP POP POP SWAP1 SUB SWAP1 JUMP JUMPDEST PUSH1 0x0 DUP1 PUSH1 0x0 PUSH2 0x1D49 PUSH2 0x22C0 JUMP JUMPDEST SWAP1 SWAP3 POP SWAP1 POP PUSH2 0x1D58 DUP3 DUP3 PUSH2 0x1D5F JUMP JUMPDEST SWAP3 POP POP POP SWAP1 JUMP JUMPDEST PUSH1 0x0 PUSH2 0xCBE DUP3 DUP5 PUSH2 0x2D81 JUMP JUMPDEST PUSH1 0x0 PUSH2 0xCBE DUP3 DUP5 PUSH2 0x2D69 JUMP JUMPDEST PUSH1 0x0 DUP1 PUSH1 0x0 DUP1 PUSH1 0x0 DUP1 PUSH1 0x0 DUP1 PUSH1 0x0 PUSH2 0x1D8E DUP11 PUSH2 0x2442 JUMP JUMPDEST SWAP3 POP SWAP3 POP SWAP3 POP PUSH1 0x0 DUP1 PUSH1 0x0 PUSH2 0x1DAC DUP14 DUP7 DUP7 PUSH2 0x1DA7 PUSH2 0x1D3C JUMP JUMPDEST PUSH2 0x247E JUMP JUMPDEST SWAP2 SWAP16 SWAP1 SWAP15 POP SWAP1 SWAP13 POP SWAP6 SWAP11 POP SWAP4 SWAP9 POP SWAP2 SWAP7 POP SWAP3 SWAP5 POP POP POP POP POP JUMP JUMPDEST PUSH1 0x0 PUSH2 0xCBE DUP3 DUP5 PUSH2 0x2DC2 JUMP JUMPDEST PUSH1 0x0 DUP1 SLOAD PUSH1 0x1 PUSH1 0x1 PUSH1 0xA0 SHL SUB DUP4 DUP2 AND PUSH1 0x1 PUSH1 0x1 PUSH1 0xA0 SHL SUB NOT DUP4 AND DUP2 OR DUP5 SSTORE PUSH1 0x40 MLOAD SWAP2 SWAP1 SWAP3 AND SWAP3 DUP4 SWAP2 PUSH32 0x8BE0079C531659141344CD1FD0A4F28419497F9722A3DAAFE3B4186F6B6457E0 SWAP2 SWAP1 LOG3 POP POP JUMP JUMPDEST PUSH1 0x1 PUSH1 0x1 PUSH1 0xA0 SHL SUB DUP4 AND ISZERO DUP1 PUSH2 0x1E3F JUMPI POP PUSH1 0x1 PUSH1 0x1 PUSH1 0xA0 SHL SUB DUP3 AND ISZERO JUMPDEST ISZERO PUSH2 0x1E49 JUMPI POP POP POP JUMP JUMPDEST PUSH1 0x22 SLOAD PUSH1 0x1 PUSH1 0xA0 SHL SWAP1 DIV PUSH1 0xFF AND ISZERO DUP1 ISZERO PUSH2 0x1E6D JUMPI POP PUSH1 0x22 SLOAD PUSH1 0x1 PUSH1 0x1 PUSH1 0xA0 SHL SUB AND ISZERO ISZERO JUMPDEST ISZERO PUSH2 0x1EE7 JUMPI PUSH1 0x22 SLOAD PUSH1 0x40 MLOAD PUSH4 0x5D37A8DD PUSH1 0xE0 SHL DUP2 MSTORE CALLER PUSH1 0x4 DUP3 ADD MSTORE PUSH1 0x1 PUSH1 0x1 PUSH1 0xA0 SHL SUB DUP6 DUP2 AND PUSH1 0x24 DUP4 ADD MSTORE DUP5 DUP2 AND PUSH1 0x44 DUP4 ADD MSTORE PUSH1 0x64 DUP3 ADD DUP5 SWAP1 MSTORE SWAP1 SWAP2 AND SWAP1 PUSH4 0x5D37A8DD SWAP1 PUSH1 0x84 ADD PUSH1 0x0 PUSH1 0x40 MLOAD DUP1 DUP4 SUB DUP2 PUSH1 0x0 DUP8 DUP1 EXTCODESIZE ISZERO DUP1 ISZERO PUSH2 0x1ECE JUMPI PUSH1 0x0 DUP1 REVERT JUMPDEST POP GAS CALL ISZERO DUP1 ISZERO PUSH2 0x1EE2 JUMPI RETURNDATASIZE PUSH1 0x0 DUP1 RETURNDATACOPY RETURNDATASIZE PUSH1 0x0 REVERT JUMPDEST POP POP POP POP JUMPDEST POP POP POP JUMP JUMPDEST PUSH1 0x1F DUP1 SLOAD PUSH1 0xFF PUSH1 0xA0 SHL NOT AND PUSH1 0x1 PUSH1 0xA0 SHL OR SWAP1 SSTORE PUSH1 0x0 PUSH2 0x1F0C DUP3 PUSH1 0x2 PUSH2 0x1D5F JUMP JUMPDEST SWAP1 POP PUSH1 0x0 PUSH2 0x1F1A DUP4 DUP4 PUSH2 0x1DC6 JUMP JUMPDEST SWAP1 POP SELFBALANCE PUSH2 0x1F26 DUP4 PUSH2 0x24CE JUMP JUMPDEST PUSH1 0x0 PUSH2 0x1F32 SELFBALANCE DUP4 PUSH2 0x1DC6 JUMP JUMPDEST SWAP1 POP PUSH2 0x1F3E DUP4 DUP3 PUSH2 0x262F JUMP JUMPDEST PUSH1 0x40 DUP1 MLOAD DUP6 DUP2 MSTORE PUSH1 0x20 DUP2 ADD DUP4 SWAP1 MSTORE SWAP1 DUP2 ADD DUP5 SWAP1 MSTORE PUSH32 0x17BBFB9A6069321B6DED73BD96327C9E6B7212A5CD51FF219CD61370ACAFB561 SWAP1 PUSH1 0x60 ADD PUSH1 0x40 MLOAD DUP1 SWAP2 SUB SWAP1 LOG1 POP POP PUSH1 0x1F DUP1 SLOAD PUSH1 0xFF PUSH1 0xA0 SHL NOT AND SWAP1 SSTORE POP POP POP JUMP JUMPDEST PUSH1 0x1 PUSH1 0x1 PUSH1 0xA0 SHL SUB DUP4 AND PUSH1 0x0 SWAP1 DUP2 MSTORE PUSH1 0x4 PUSH1 0x20 MSTORE PUSH1 0x40 SWAP1 KECCAK256 SLOAD PUSH1 0xFF AND DUP1 PUSH2 0x1FD2 JUMPI POP PUSH1 0x1 PUSH1 0x1 PUSH1 0xA0 SHL SUB DUP3 AND PUSH1 0x0 SWAP1 DUP2 MSTORE PUSH1 0x4 PUSH1 0x20 MSTORE PUSH1 0x40 SWAP1 KECCAK256 SLOAD PUSH1 0xFF AND JUMPDEST ISZERO PUSH2 0x1FE4 JUMPI PUSH2 0x1FDF PUSH2 0x270C JUMP JUMPDEST PUSH2 0x2032 JUMP JUMPDEST PUSH1 0x1F SLOAD PUSH1 0x1 PUSH1 0x1 PUSH1 0xA0 SHL SUB DUP4 DUP2 AND SWAP2 AND EQ ISZERO PUSH2 0x2032 JUMPI PUSH2 0x2032 PUSH1 0xD DUP1 SLOAD PUSH1 0xE SSTORE PUSH1 0xF DUP1 SLOAD PUSH1 0x10 SSTORE PUSH1 0x11 DUP1 SLOAD PUSH1 0x12 SSTORE PUSH1 0x13 DUP1 SLOAD PUSH1 0x15 SSTORE PUSH1 0x16 SLOAD SWAP1 SWAP4 SSTORE PUSH1 0x17 SLOAD SWAP1 SWAP2 SSTORE PUSH1 0x18 SLOAD SWAP1 SWAP2 SSTORE PUSH1 0x19 SLOAD SWAP1 SSTORE JUMP JUMPDEST PUSH1 0x0 PUSH2 0x2054 PUSH1 0x64 PUSH2 0x204E PUSH1 0x11 SLOAD DUP6 PUSH2 0x2768 SWAP1 SWAP2 SWAP1 PUSH4 0xFFFFFFFF AND JUMP JUMPDEST SWAP1 PUSH2 0x1D5F JUMP JUMPDEST SWAP1 POP PUSH1 0x0 PUSH2 0x2072 PUSH1 0x64 PUSH2 0x204E PUSH1 0x13 SLOAD DUP7 PUSH2 0x2768 SWAP1 SWAP2 SWAP1 PUSH4 0xFFFFFFFF AND JUMP JUMPDEST PUSH1 0x1 PUSH1 0x1 PUSH1 0xA0 SHL SUB DUP7 AND PUSH1 0x0 SWAP1 DUP2 MSTORE PUSH1 0x5 PUSH1 0x20 MSTORE PUSH1 0x40 SWAP1 KECCAK256 SLOAD SWAP1 SWAP2 POP PUSH1 0xFF AND DUP1 ISZERO PUSH2 0x20B6 JUMPI POP PUSH1 0x1 PUSH1 0x1 PUSH1 0xA0 SHL SUB DUP5 AND PUSH1 0x0 SWAP1 DUP2 MSTORE PUSH1 0x5 PUSH1 0x20 MSTORE PUSH1 0x40 SWAP1 KECCAK256 SLOAD PUSH1 0xFF AND ISZERO JUMPDEST ISZERO PUSH2 0x20DE JUMPI PUSH2 0x20D9 DUP6 DUP6 PUSH2 0x20D4 DUP5 PUSH2 0x20CE DUP9 DUP9 PUSH2 0x1DC6 JUMP JUMPDEST SWAP1 PUSH2 0x1DC6 JUMP JUMPDEST PUSH2 0x2774 JUMP JUMPDEST PUSH2 0x220B JUMP JUMPDEST PUSH1 0x1 PUSH1 0x1 PUSH1 0xA0 SHL SUB DUP6 AND PUSH1 0x0 SWAP1 DUP2 MSTORE PUSH1 0x5 PUSH1 0x20 MSTORE PUSH1 0x40 SWAP1 KECCAK256 SLOAD PUSH1 0xFF AND ISZERO DUP1 ISZERO PUSH2 0x211F JUMPI POP PUSH1 0x1 PUSH1 0x1 PUSH1 0xA0 SHL SUB DUP5 AND PUSH1 0x0 SWAP1 DUP2 MSTORE PUSH1 0x5 PUSH1 0x20 MSTORE PUSH1 0x40 SWAP1 KECCAK256 SLOAD PUSH1 0xFF AND JUMPDEST ISZERO PUSH2 0x213C JUMPI PUSH2 0x20D9 DUP6 DUP6 PUSH2 0x2137 DUP5 PUSH2 0x20CE DUP9 DUP9 PUSH2 0x1DC6 JUMP JUMPDEST PUSH2 0x289A JUMP JUMPDEST PUSH1 0x1 PUSH1 0x1 PUSH1 0xA0 SHL SUB DUP6 AND PUSH1 0x0 SWAP1 DUP2 MSTORE PUSH1 0x5 PUSH1 0x20 MSTORE PUSH1 0x40 SWAP1 KECCAK256 SLOAD PUSH1 0xFF AND ISZERO DUP1 ISZERO PUSH2 0x217E JUMPI POP PUSH1 0x1 PUSH1 0x1 PUSH1 0xA0 SHL SUB DUP5 AND PUSH1 0x0 SWAP1 DUP2 MSTORE PUSH1 0x5 PUSH1 0x20 MSTORE PUSH1 0x40 SWAP1 KECCAK256 SLOAD PUSH1 0xFF AND ISZERO JUMPDEST ISZERO PUSH2 0x219B JUMPI PUSH2 0x20D9 DUP6 DUP6 PUSH2 0x2196 DUP5 PUSH2 0x20CE DUP9 DUP9 PUSH2 0x1DC6 JUMP JUMPDEST PUSH2 0x2943 JUMP JUMPDEST PUSH1 0x1 PUSH1 0x1 PUSH1 0xA0 SHL SUB DUP6 AND PUSH1 0x0 SWAP1 DUP2 MSTORE PUSH1 0x5 PUSH1 0x20 MSTORE PUSH1 0x40 SWAP1 KECCAK256 SLOAD PUSH1 0xFF AND DUP1 ISZERO PUSH2 0x21DB JUMPI POP PUSH1 0x1 PUSH1 0x1 PUSH1 0xA0 SHL SUB DUP5 AND PUSH1 0x0 SWAP1 DUP2 MSTORE PUSH1 0x5 PUSH1 0x20 MSTORE PUSH1 0x40 SWAP1 KECCAK256 SLOAD PUSH1 0xFF AND JUMPDEST ISZERO PUSH2 0x21F8 JUMPI PUSH2 0x20D9 DUP6 DUP6 PUSH2 0x21F3 DUP5 PUSH2 0x20CE DUP9 DUP9 PUSH2 0x1DC6 JUMP JUMPDEST PUSH2 0x2987 JUMP JUMPDEST PUSH2 0x220B DUP6 DUP6 PUSH2 0x2196 DUP5 PUSH2 0x20CE DUP9 DUP9 PUSH2 0x1DC6 JUMP JUMPDEST PUSH1 0x0 PUSH1 0xD DUP2 SWAP1 SSTORE PUSH1 0xF DUP2 SWAP1 SSTORE PUSH2 0x2223 SWAP1 DUP7 SWAP1 DUP5 PUSH2 0x2943 JUMP JUMPDEST PUSH1 0x14 SLOAD PUSH2 0x223B SWAP1 DUP7 SWAP1 PUSH1 0x1 PUSH1 0x1 PUSH1 0xA0 SHL SUB AND DUP4 PUSH2 0x2943 JUMP JUMPDEST PUSH1 0xE SLOAD PUSH1 0xD SSTORE PUSH1 0x10 SLOAD PUSH1 0xF SSTORE PUSH1 0x1 PUSH1 0x1 PUSH1 0xA0 SHL SUB DUP6 AND PUSH1 0x0 SWAP1 DUP2 MSTORE PUSH1 0x4 PUSH1 0x20 MSTORE PUSH1 0x40 SWAP1 KECCAK256 SLOAD PUSH1 0xFF AND DUP1 PUSH2 0x2286 JUMPI POP PUSH1 0x1 PUSH1 0x1 PUSH1 0xA0 SHL SUB DUP5 AND PUSH1 0x0 SWAP1 DUP2 MSTORE PUSH1 0x4 PUSH1 0x20 MSTORE PUSH1 0x40 SWAP1 KECCAK256 SLOAD PUSH1 0xFF AND JUMPDEST DUP1 PUSH2 0x229E JUMPI POP PUSH1 0x1F SLOAD PUSH1 0x1 PUSH1 0x1 PUSH1 0xA0 SHL SUB DUP6 DUP2 AND SWAP2 AND EQ JUMPDEST ISZERO PUSH2 0x1D09 JUMPI PUSH2 0x1D09 PUSH1 0xE SLOAD PUSH1 0xD SSTORE PUSH1 0x10 SLOAD PUSH1 0xF SSTORE PUSH1 0x12 SLOAD PUSH1 0x11 SSTORE PUSH1 0x15 SLOAD PUSH1 0x13 SSTORE JUMP JUMPDEST PUSH1 0x8 SLOAD PUSH1 0x7 SLOAD PUSH1 0x0 SWAP2 DUP3 SWAP2 DUP3 JUMPDEST PUSH1 0x6 SLOAD DUP2 LT ISZERO PUSH2 0x2412 JUMPI DUP3 PUSH1 0x1 PUSH1 0x0 PUSH1 0x6 DUP5 DUP2 SLOAD DUP2 LT PUSH2 0x22EF JUMPI PUSH2 0x22EF PUSH2 0x2E5B JUMP JUMPDEST PUSH1 0x0 SWAP2 DUP3 MSTORE PUSH1 0x20 DUP1 DUP4 KECCAK256 SWAP1 SWAP2 ADD SLOAD PUSH1 0x1 PUSH1 0x1 PUSH1 0xA0 SHL SUB AND DUP4 MSTORE DUP3 ADD SWAP3 SWAP1 SWAP3 MSTORE PUSH1 0x40 ADD SWAP1 KECCAK256 SLOAD GT DUP1 PUSH2 0x235A JUMPI POP DUP2 PUSH1 0x2 PUSH1 0x0 PUSH1 0x6 DUP5 DUP2 SLOAD DUP2 LT PUSH2 0x2333 JUMPI PUSH2 0x2333 PUSH2 0x2E5B JUMP JUMPDEST PUSH1 0x0 SWAP2 DUP3 MSTORE PUSH1 0x20 DUP1 DUP4 KECCAK256 SWAP1 SWAP2 ADD SLOAD PUSH1 0x1 PUSH1 0x1 PUSH1 0xA0 SHL SUB AND DUP4 MSTORE DUP3 ADD SWAP3 SWAP1 SWAP3 MSTORE PUSH1 0x40 ADD SWAP1 KECCAK256 SLOAD GT JUMPDEST ISZERO PUSH2 0x2370 JUMPI PUSH1 0x8 SLOAD PUSH1 0x7 SLOAD SWAP5 POP SWAP5 POP POP POP POP SWAP1 SWAP2 JUMP JUMPDEST PUSH2 0x23B6 PUSH1 0x1 PUSH1 0x0 PUSH1 0x6 DUP5 DUP2 SLOAD DUP2 LT PUSH2 0x238A JUMPI PUSH2 0x238A PUSH2 0x2E5B JUMP JUMPDEST PUSH1 0x0 SWAP2 DUP3 MSTORE PUSH1 0x20 DUP1 DUP4 KECCAK256 SWAP1 SWAP2 ADD SLOAD PUSH1 0x1 PUSH1 0x1 PUSH1 0xA0 SHL SUB AND DUP4 MSTORE DUP3 ADD SWAP3 SWAP1 SWAP3 MSTORE PUSH1 0x40 ADD SWAP1 KECCAK256 SLOAD DUP5 SWAP1 PUSH2 0x1DC6 JUMP JUMPDEST SWAP3 POP PUSH2 0x23FE PUSH1 0x2 PUSH1 0x0 PUSH1 0x6 DUP5 DUP2 SLOAD DUP2 LT PUSH2 0x23D2 JUMPI PUSH2 0x23D2 PUSH2 0x2E5B JUMP JUMPDEST PUSH1 0x0 SWAP2 DUP3 MSTORE PUSH1 0x20 DUP1 DUP4 KECCAK256 SWAP1 SWAP2 ADD SLOAD PUSH1 0x1 PUSH1 0x1 PUSH1 0xA0 SHL SUB AND DUP4 MSTORE DUP3 ADD SWAP3 SWAP1 SWAP3 MSTORE PUSH1 0x40 ADD SWAP1 KECCAK256 SLOAD DUP4 SWAP1 PUSH2 0x1DC6 JUMP JUMPDEST SWAP2 POP DUP1 PUSH2 0x240A DUP2 PUSH2 0x2E14 JUMP JUMPDEST SWAP2 POP POP PUSH2 0x22CD JUMP JUMPDEST POP PUSH1 0x7 SLOAD PUSH1 0x8 SLOAD PUSH2 0x2422 SWAP2 PUSH2 0x1D5F JUMP JUMPDEST DUP3 LT ISZERO PUSH2 0x2439 JUMPI PUSH1 0x8 SLOAD PUSH1 0x7 SLOAD SWAP4 POP SWAP4 POP POP POP SWAP1 SWAP2 JUMP JUMPDEST SWAP1 SWAP4 SWAP1 SWAP3 POP SWAP1 POP JUMP JUMPDEST PUSH1 0x0 DUP1 PUSH1 0x0 DUP1 PUSH2 0x2451 DUP6 PUSH2 0x29FA JUMP JUMPDEST SWAP1 POP PUSH1 0x0 PUSH2 0x245E DUP7 PUSH2 0x2A16 JUMP JUMPDEST SWAP1 POP PUSH1 0x0 PUSH2 0x2470 DUP3 PUSH2 0x20CE DUP10 DUP7 PUSH2 0x1DC6 JUMP JUMPDEST SWAP8 SWAP3 SWAP7 POP SWAP1 SWAP5 POP SWAP1 SWAP3 POP POP POP JUMP JUMPDEST PUSH1 0x0 DUP1 DUP1 DUP1 PUSH2 0x248D DUP9 DUP7 PUSH2 0x2768 JUMP JUMPDEST SWAP1 POP PUSH1 0x0 PUSH2 0x249B DUP9 DUP8 PUSH2 0x2768 JUMP JUMPDEST SWAP1 POP PUSH1 0x0 PUSH2 0x24A9 DUP9 DUP9 PUSH2 0x2768 JUMP JUMPDEST SWAP1 POP PUSH1 0x0 PUSH2 0x24BB DUP3 PUSH2 0x20CE DUP7 DUP7 PUSH2 0x1DC6 JUMP JUMPDEST SWAP4 SWAP12 SWAP4 SWAP11 POP SWAP2 SWAP9 POP SWAP2 SWAP7 POP POP POP POP POP POP POP JUMP JUMPDEST PUSH1 0x40 DUP1 MLOAD PUSH1 0x2 DUP1 DUP3 MSTORE PUSH1 0x60 DUP3 ADD DUP4 MSTORE PUSH1 0x0 SWAP3 PUSH1 0x20 DUP4 ADD SWAP1 DUP1 CALLDATASIZE DUP4 CALLDATACOPY ADD SWAP1 POP POP SWAP1 POP ADDRESS DUP2 PUSH1 0x0 DUP2 MLOAD DUP2 LT PUSH2 0x2503 JUMPI PUSH2 0x2503 PUSH2 0x2E5B JUMP JUMPDEST PUSH1 0x1 PUSH1 0x1 PUSH1 0xA0 SHL SUB SWAP3 DUP4 AND PUSH1 0x20 SWAP2 DUP3 MUL SWAP3 SWAP1 SWAP3 ADD DUP2 ADD SWAP2 SWAP1 SWAP2 MSTORE PUSH1 0x1E SLOAD PUSH1 0x40 DUP1 MLOAD PUSH4 0x15AB88C9 PUSH1 0xE3 SHL DUP2 MSTORE SWAP1 MLOAD SWAP2 SWAP1 SWAP4 AND SWAP3 PUSH4 0xAD5C4648 SWAP3 PUSH1 0x4 DUP1 DUP4 ADD SWAP4 SWAP2 SWAP3 DUP3 SWAP1 SUB ADD DUP2 DUP7 DUP1 EXTCODESIZE ISZERO DUP1 ISZERO PUSH2 0x2557 JUMPI PUSH1 0x0 DUP1 REVERT JUMPDEST POP GAS STATICCALL ISZERO DUP1 ISZERO PUSH2 0x256B JUMPI RETURNDATASIZE PUSH1 0x0 DUP1 RETURNDATACOPY RETURNDATASIZE PUSH1 0x0 REVERT JUMPDEST POP POP POP POP PUSH1 0x40 MLOAD RETURNDATASIZE PUSH1 0x1F NOT PUSH1 0x1F DUP3 ADD AND DUP3 ADD DUP1 PUSH1 0x40 MSTORE POP DUP2 ADD SWAP1 PUSH2 0x258F SWAP2 SWAP1 PUSH2 0x2B10 JUMP JUMPDEST DUP2 PUSH1 0x1 DUP2 MLOAD DUP2 LT PUSH2 0x25A2 JUMPI PUSH2 0x25A2 PUSH2 0x2E5B JUMP JUMPDEST PUSH1 0x1 PUSH1 0x1 PUSH1 0xA0 SHL SUB SWAP3 DUP4 AND PUSH1 0x20 SWAP2 DUP3 MUL SWAP3 SWAP1 SWAP3 ADD ADD MSTORE PUSH1 0x1E SLOAD PUSH2 0x25C8 SWAP2 ADDRESS SWAP2 AND DUP5 PUSH2 0x1904 JUMP JUMPDEST PUSH1 0x1E SLOAD PUSH1 0x40 MLOAD PUSH4 0x791AC947 PUSH1 0xE0 SHL DUP2 MSTORE PUSH1 0x1 PUSH1 0x1 PUSH1 0xA0 SHL SUB SWAP1 SWAP2 AND SWAP1 PUSH4 0x791AC947 SWAP1 PUSH2 0x2601 SWAP1 DUP6 SWAP1 PUSH1 0x0 SWAP1 DUP7 SWAP1 ADDRESS SWAP1 TIMESTAMP SWAP1 PUSH1 0x4 ADD PUSH2 0x2CF8 JUMP JUMPDEST PUSH1 0x0 PUSH1 0x40 MLOAD DUP1 DUP4 SUB DUP2 PUSH1 0x0 DUP8 DUP1 EXTCODESIZE ISZERO DUP1 ISZERO PUSH2 0x261B JUMPI PUSH1 0x0 DUP1 REVERT JUMPDEST POP GAS CALL ISZERO DUP1 ISZERO PUSH2 0x1D07 JUMPI RETURNDATASIZE PUSH1 0x0 DUP1 RETURNDATACOPY RETURNDATASIZE PUSH1 0x0 REVERT JUMPDEST PUSH1 0x1E SLOAD PUSH2 0x2647 SWAP1 ADDRESS SWAP1 PUSH1 0x1 PUSH1 0x1 PUSH1 0xA0 SHL SUB AND DUP5 PUSH2 0x1904 JUMP JUMPDEST PUSH1 0x1E SLOAD PUSH1 0x1 PUSH1 0x1 PUSH1 0xA0 SHL SUB AND PUSH4 0xF305D719 DUP3 ADDRESS DUP6 PUSH1 0x0 DUP1 PUSH2 0x2670 PUSH1 0x0 SLOAD PUSH1 0x1 PUSH1 0x1 PUSH1 0xA0 SHL SUB AND SWAP1 JUMP JUMPDEST PUSH1 0x40 MLOAD PUSH1 0xE0 DUP9 SWAP1 SHL PUSH1 0x1 PUSH1 0x1 PUSH1 0xE0 SHL SUB NOT AND DUP2 MSTORE PUSH1 0x1 PUSH1 0x1 PUSH1 0xA0 SHL SUB SWAP6 DUP7 AND PUSH1 0x4 DUP3 ADD MSTORE PUSH1 0x24 DUP2 ADD SWAP5 SWAP1 SWAP5 MSTORE PUSH1 0x44 DUP5 ADD SWAP3 SWAP1 SWAP3 MSTORE PUSH1 0x64 DUP4 ADD MSTORE SWAP1 SWAP2 AND PUSH1 0x84 DUP3 ADD MSTORE TIMESTAMP PUSH1 0xA4 DUP3 ADD MSTORE PUSH1 0xC4 ADD PUSH1 0x60 PUSH1 0x40 MLOAD DUP1 DUP4 SUB DUP2 DUP6 DUP9 DUP1 EXTCODESIZE ISZERO DUP1 ISZERO PUSH2 0x26D3 JUMPI PUSH1 0x0 DUP1 REVERT JUMPDEST POP GAS CALL ISZERO DUP1 ISZERO PUSH2 0x26E7 JUMPI RETURNDATASIZE PUSH1 0x0 DUP1 RETURNDATACOPY RETURNDATASIZE PUSH1 0x0 REVERT JUMPDEST POP POP POP POP POP PUSH1 0x40 MLOAD RETURNDATASIZE PUSH1 0x1F NOT PUSH1 0x1F DUP3 ADD AND DUP3 ADD DUP1 PUSH1 0x40 MSTORE POP DUP2 ADD SWAP1 PUSH2 0x1D09 SWAP2 SWAP1 PUSH2 0x2C33 JUMP JUMPDEST PUSH1 0xD SLOAD ISZERO DUP1 ISZERO PUSH2 0x271C JUMPI POP PUSH1 0xF SLOAD ISZERO JUMPDEST DUP1 ISZERO PUSH2 0x2728 JUMPI POP PUSH1 0x13 SLOAD ISZERO JUMPDEST DUP1 ISZERO PUSH2 0x2734 JUMPI POP PUSH1 0x11 SLOAD ISZERO JUMPDEST ISZERO PUSH2 0x273B JUMPI JUMP JUMPDEST PUSH1 0xD DUP1 SLOAD PUSH1 0xE SSTORE PUSH1 0xF DUP1 SLOAD PUSH1 0x10 SSTORE PUSH1 0x11 DUP1 SLOAD PUSH1 0x12 SSTORE PUSH1 0x13 DUP1 SLOAD PUSH1 0x15 SSTORE PUSH1 0x0 SWAP4 DUP5 SWAP1 SSTORE SWAP2 DUP4 SWAP1 SSTORE SWAP1 DUP3 SWAP1 SSTORE SSTORE JUMP JUMPDEST PUSH1 0x0 PUSH2 0xCBE DUP3 DUP5 PUSH2 0x2DA3 JUMP JUMPDEST PUSH1 0x0 DUP1 PUSH1 0x0 DUP1 PUSH1 0x0 DUP1 PUSH2 0x2786 DUP8 PUSH2 0x1D77 JUMP JUMPDEST PUSH1 0x1 PUSH1 0x1 PUSH1 0xA0 SHL SUB DUP16 AND PUSH1 0x0 SWAP1 DUP2 MSTORE PUSH1 0x2 PUSH1 0x20 MSTORE PUSH1 0x40 SWAP1 KECCAK256 SLOAD SWAP6 SWAP12 POP SWAP4 SWAP10 POP SWAP2 SWAP8 POP SWAP6 POP SWAP4 POP SWAP2 POP PUSH2 0x27B8 SWAP1 DUP9 PUSH2 0x1DC6 JUMP JUMPDEST PUSH1 0x1 PUSH1 0x1 PUSH1 0xA0 SHL SUB DUP11 AND PUSH1 0x0 SWAP1 DUP2 MSTORE PUSH1 0x2 PUSH1 0x20 SWAP1 DUP2 MSTORE PUSH1 0x40 DUP1 DUP4 KECCAK256 SWAP4 SWAP1 SWAP4 SSTORE PUSH1 0x1 SWAP1 MSTORE KECCAK256 SLOAD PUSH2 0x27E7 SWAP1 DUP8 PUSH2 0x1DC6 JUMP JUMPDEST PUSH1 0x1 PUSH1 0x1 PUSH1 0xA0 SHL SUB DUP1 DUP12 AND PUSH1 0x0 SWAP1 DUP2 MSTORE PUSH1 0x1 PUSH1 0x20 MSTORE PUSH1 0x40 DUP1 DUP3 KECCAK256 SWAP4 SWAP1 SWAP4 SSTORE SWAP1 DUP11 AND DUP2 MSTORE KECCAK256 SLOAD PUSH2 0x2816 SWAP1 DUP7 PUSH2 0x1D6B JUMP JUMPDEST PUSH1 0x1 PUSH1 0x1 PUSH1 0xA0 SHL SUB DUP10 AND PUSH1 0x0 SWAP1 DUP2 MSTORE PUSH1 0x1 PUSH1 0x20 MSTORE PUSH1 0x40 SWAP1 KECCAK256 SSTORE PUSH2 0x2838 DUP2 PUSH2 0x2A32 JUMP JUMPDEST PUSH2 0x2842 DUP5 DUP4 PUSH2 0x2ABA JUMP JUMPDEST DUP8 PUSH1 0x1 PUSH1 0x1 PUSH1 0xA0 SHL SUB AND DUP10 PUSH1 0x1 PUSH1 0x1 PUSH1 0xA0 SHL SUB AND PUSH32 0xDDF252AD1BE2C89B69C2B068FC378DAA952BA7F163C4A11628F55A4DF523B3EF DUP6 PUSH1 0x40 MLOAD PUSH2 0x2887 SWAP2 DUP2 MSTORE PUSH1 0x20 ADD SWAP1 JUMP JUMPDEST PUSH1 0x40 MLOAD DUP1 SWAP2 SUB SWAP1 LOG3 POP POP POP POP POP POP POP POP POP JUMP JUMPDEST PUSH1 0x0 DUP1 PUSH1 0x0 DUP1 PUSH1 0x0 DUP1 PUSH2 0x28AC DUP8 PUSH2 0x1D77 JUMP JUMPDEST PUSH1 0x1 PUSH1 0x1 PUSH1 0xA0 SHL SUB DUP16 AND PUSH1 0x0 SWAP1 DUP2 MSTORE PUSH1 0x1 PUSH1 0x20 MSTORE PUSH1 0x40 SWAP1 KECCAK256 SLOAD SWAP6 SWAP12 POP SWAP4 SWAP10 POP SWAP2 SWAP8 POP SWAP6 POP SWAP4 POP SWAP2 POP PUSH2 0x28DE SWAP1 DUP8 PUSH2 0x1DC6 JUMP JUMPDEST PUSH1 0x1 PUSH1 0x1 PUSH1 0xA0 SHL SUB DUP1 DUP12 AND PUSH1 0x0 SWAP1 DUP2 MSTORE PUSH1 0x1 PUSH1 0x20 SWAP1 DUP2 MSTORE PUSH1 0x40 DUP1 DUP4 KECCAK256 SWAP5 SWAP1 SWAP5 SSTORE SWAP2 DUP12 AND DUP2 MSTORE PUSH1 0x2 SWAP1 SWAP2 MSTORE KECCAK256 SLOAD PUSH2 0x2914 SWAP1 DUP5 PUSH2 0x1D6B JUMP JUMPDEST PUSH1 0x1 PUSH1 0x1 PUSH1 0xA0 SHL SUB DUP10 AND PUSH1 0x0 SWAP1 DUP2 MSTORE PUSH1 0x2 PUSH1 0x20 SWAP1 DUP2 MSTORE PUSH1 0x40 DUP1 DUP4 KECCAK256 SWAP4 SWAP1 SWAP4 SSTORE PUSH1 0x1 SWAP1 MSTORE KECCAK256 SLOAD PUSH2 0x2816 SWAP1 DUP7 PUSH2 0x1D6B JUMP JUMPDEST PUSH1 0x0 DUP1 PUSH1 0x0 DUP1 PUSH1 0x0 DUP1 PUSH2 0x2955 DUP8 PUSH2 0x1D77 JUMP JUMPDEST PUSH1 0x1 PUSH1 0x1 PUSH1 0xA0 SHL SUB DUP16 AND PUSH1 0x0 SWAP1 DUP2 MSTORE PUSH1 0x1 PUSH1 0x20 MSTORE PUSH1 0x40 SWAP1 KECCAK256 SLOAD SWAP6 SWAP12 POP SWAP4 SWAP10 POP SWAP2 SWAP8 POP SWAP6 POP SWAP4 POP SWAP2 POP PUSH2 0x27E7 SWAP1 DUP8 PUSH2 0x1DC6 JUMP JUMPDEST PUSH1 0x0 DUP1 PUSH1 0x0 DUP1 PUSH1 0x0 DUP1 PUSH2 0x2999 DUP8 PUSH2 0x1D77 JUMP JUMPDEST PUSH1 0x1 PUSH1 0x1 PUSH1 0xA0 SHL SUB DUP16 AND PUSH1 0x0 SWAP1 DUP2 MSTORE PUSH1 0x2 PUSH1 0x20 MSTORE PUSH1 0x40 SWAP1 KECCAK256 SLOAD SWAP6 SWAP12 POP SWAP4 SWAP10 POP SWAP2 SWAP8 POP SWAP6 POP SWAP4 POP SWAP2 POP PUSH2 0x29CB SWAP1 DUP9 PUSH2 0x1DC6 JUMP JUMPDEST PUSH1 0x1 PUSH1 0x1 PUSH1 0xA0 SHL SUB DUP11 AND PUSH1 0x0 SWAP1 DUP2 MSTORE PUSH1 0x2 PUSH1 0x20 SWAP1 DUP2 MSTORE PUSH1 0x40 DUP1 DUP4 KECCAK256 SWAP4 SWAP1 SWAP4 SSTORE PUSH1 0x1 SWAP1 MSTORE KECCAK256 SLOAD PUSH2 0x28DE SWAP1 DUP8 PUSH2 0x1DC6 JUMP JUMPDEST PUSH1 0x0 PUSH2 0xBD2 PUSH1 0x64 PUSH2 0x204E PUSH1 0xD SLOAD DUP6 PUSH2 0x2768 SWAP1 SWAP2 SWAP1 PUSH4 0xFFFFFFFF AND JUMP JUMPDEST PUSH1 0x0 PUSH2 0xBD2 PUSH1 0x64 PUSH2 0x204E PUSH1 0xF SLOAD DUP6 PUSH2 0x2768 SWAP1 SWAP2 SWAP1 PUSH4 0xFFFFFFFF AND JUMP JUMPDEST PUSH1 0x0 PUSH2 0x2A3C PUSH2 0x1D3C JUMP JUMPDEST SWAP1 POP PUSH1 0x0 PUSH2 0x2A4A DUP4 DUP4 PUSH2 0x2768 JUMP JUMPDEST ADDRESS PUSH1 0x0 SWAP1 DUP2 MSTORE PUSH1 0x1 PUSH1 0x20 MSTORE PUSH1 0x40 SWAP1 KECCAK256 SLOAD SWAP1 SWAP2 POP PUSH2 0x2A67 SWAP1 DUP3 PUSH2 0x1D6B JUMP JUMPDEST ADDRESS PUSH1 0x0 SWAP1 DUP2 MSTORE PUSH1 0x1 PUSH1 0x20 SWAP1 DUP2 MSTORE PUSH1 0x40 DUP1 DUP4 KECCAK256 SWAP4 SWAP1 SWAP4 SSTORE PUSH1 0x5 SWAP1 MSTORE KECCAK256 SLOAD PUSH1 0xFF AND ISZERO PUSH2 0x1EE7 JUMPI ADDRESS PUSH1 0x0 SWAP1 DUP2 MSTORE PUSH1 0x2 PUSH1 0x20 MSTORE PUSH1 0x40 SWAP1 KECCAK256 SLOAD PUSH2 0x2AA5 SWAP1 DUP5 PUSH2 0x1D6B JUMP JUMPDEST ADDRESS PUSH1 0x0 SWAP1 DUP2 MSTORE PUSH1 0x2 PUSH1 0x20 MSTORE PUSH1 0x40 SWAP1 KECCAK256 SSTORE POP POP POP JUMP JUMPDEST PUSH1 0x8 SLOAD PUSH2 0x2AC7 SWAP1 DUP4 PUSH2 0x1DC6 JUMP JUMPDEST PUSH1 0x8 SSTORE PUSH1 0x9 SLOAD PUSH2 0x2AD7 SWAP1 DUP3 PUSH2 0x1D6B JUMP JUMPDEST PUSH1 0x9 SSTORE POP POP JUMP JUMPDEST DUP1 CALLDATALOAD DUP1 ISZERO ISZERO DUP2 EQ PUSH2 0x2AEE JUMPI PUSH1 0x0 DUP1 REVERT JUMPDEST SWAP2 SWAP1 POP JUMP JUMPDEST PUSH1 0x0 PUSH1 0x20 DUP3 DUP5 SUB SLT ISZERO PUSH2 0x2B05 JUMPI PUSH1 0x0 DUP1 REVERT JUMPDEST DUP2 CALLDATALOAD PUSH2 0xCBE DUP2 PUSH2 0x2E71 JUMP JUMPDEST PUSH1 0x0 PUSH1 0x20 DUP3 DUP5 SUB SLT ISZERO PUSH2 0x2B22 JUMPI PUSH1 0x0 DUP1 REVERT JUMPDEST DUP2 MLOAD PUSH2 0xCBE DUP2 PUSH2 0x2E71 JUMP JUMPDEST PUSH1 0x0 DUP1 PUSH1 0x40 DUP4 DUP6 SUB SLT ISZERO PUSH2 0x2B40 JUMPI PUSH1 0x0 DUP1 REVERT JUMPDEST DUP3 CALLDATALOAD PUSH2 0x2B4B DUP2 PUSH2 0x2E71 JUMP JUMPDEST SWAP2 POP PUSH1 0x20 DUP4 ADD CALLDATALOAD PUSH2 0x2B5B DUP2 PUSH2 0x2E71 JUMP JUMPDEST DUP1 SWAP2 POP POP SWAP3 POP SWAP3 SWAP1 POP JUMP JUMPDEST PUSH1 0x0 DUP1 PUSH1 0x0 PUSH1 0x60 DUP5 DUP7 SUB SLT ISZERO PUSH2 0x2B7B JUMPI PUSH1 0x0 DUP1 REVERT JUMPDEST DUP4 CALLDATALOAD PUSH2 0x2B86 DUP2 PUSH2 0x2E71 JUMP JUMPDEST SWAP3 POP PUSH1 0x20 DUP5 ADD CALLDATALOAD PUSH2 0x2B96 DUP2 PUSH2 0x2E71 JUMP JUMPDEST SWAP3 SWAP6 SWAP3 SWAP5 POP POP POP PUSH1 0x40 SWAP2 SWAP1 SWAP2 ADD CALLDATALOAD SWAP1 JUMP JUMPDEST PUSH1 0x0 DUP1 PUSH1 0x40 DUP4 DUP6 SUB SLT ISZERO PUSH2 0x2BBA JUMPI PUSH1 0x0 DUP1 REVERT JUMPDEST DUP3 CALLDATALOAD PUSH2 0x2BC5 DUP2 PUSH2 0x2E71 JUMP JUMPDEST SWAP5 PUSH1 0x20 SWAP4 SWAP1 SWAP4 ADD CALLDATALOAD SWAP4 POP POP POP JUMP JUMPDEST PUSH1 0x0 PUSH1 0x20 DUP3 DUP5 SUB SLT ISZERO PUSH2 0x2BE5 JUMPI PUSH1 0x0 DUP1 REVERT JUMPDEST PUSH2 0xCBE DUP3 PUSH2 0x2ADE JUMP JUMPDEST PUSH1 0x0 PUSH1 0x20 DUP3 DUP5 SUB SLT ISZERO PUSH2 0x2C00 JUMPI PUSH1 0x0 DUP1 REVERT JUMPDEST POP CALLDATALOAD SWAP2 SWAP1 POP JUMP JUMPDEST PUSH1 0x0 DUP1 PUSH1 0x40 DUP4 DUP6 SUB SLT ISZERO PUSH2 0x2C1A JUMPI PUSH1 0x0 DUP1 REVERT JUMPDEST DUP3 CALLDATALOAD SWAP2 POP PUSH2 0x2C2A PUSH1 0x20 DUP5 ADD PUSH2 0x2ADE JUMP JUMPDEST SWAP1 POP SWAP3 POP SWAP3 SWAP1 POP JUMP JUMPDEST PUSH1 0x0 DUP1 PUSH1 0x0 PUSH1 0x60 DUP5 DUP7 SUB SLT ISZERO PUSH2 0x2C48 JUMPI PUSH1 0x0 DUP1 REVERT JUMPDEST DUP4 MLOAD SWAP3 POP PUSH1 0x20 DUP5 ADD MLOAD SWAP2 POP PUSH1 0x40 DUP5 ADD MLOAD SWAP1 POP SWAP3 POP SWAP3 POP SWAP3 JUMP JUMPDEST PUSH1 0x0 PUSH1 0x20 DUP1 DUP4 MSTORE DUP4 MLOAD DUP1 DUP3 DUP6 ADD MSTORE PUSH1 0x0 JUMPDEST DUP2 DUP2 LT ISZERO PUSH2 0x2C8E JUMPI DUP6 DUP2 ADD DUP4 ADD MLOAD DUP6 DUP3 ADD PUSH1 0x40 ADD MSTORE DUP3 ADD PUSH2 0x2C72 JUMP JUMPDEST DUP2 DUP2 GT ISZERO PUSH2 0x2CA0 JUMPI PUSH1 0x0 PUSH1 0x40 DUP4 DUP8 ADD ADD MSTORE JUMPDEST POP PUSH1 0x1F ADD PUSH1 0x1F NOT AND SWAP3 SWAP1 SWAP3 ADD PUSH1 0x40 ADD SWAP4 SWAP3 POP POP POP JUMP JUMPDEST PUSH1 0x20 DUP1 DUP3 MSTORE PUSH1 0x22 SWAP1 DUP3 ADD MSTORE PUSH32 0x4F6E6C792061646D696E206F7220616E7469206D616E6167657220616C6C6F77 PUSH1 0x40 DUP3 ADD MSTORE PUSH2 0x1959 PUSH1 0xF2 SHL PUSH1 0x60 DUP3 ADD MSTORE PUSH1 0x80 ADD SWAP1 JUMP JUMPDEST PUSH1 0x0 PUSH1 0xA0 DUP3 ADD DUP8 DUP4 MSTORE PUSH1 0x20 DUP8 DUP2 DUP6 ADD MSTORE PUSH1 0xA0 PUSH1 0x40 DUP6 ADD MSTORE DUP2 DUP8 MLOAD DUP1 DUP5 MSTORE PUSH1 0xC0 DUP7 ADD SWAP2 POP DUP3 DUP10 ADD SWAP4 POP PUSH1 0x0 JUMPDEST DUP2 DUP2 LT ISZERO PUSH2 0x2D48 JUMPI DUP5 MLOAD PUSH1 0x1 PUSH1 0x1 PUSH1 0xA0 SHL SUB AND DUP4 MSTORE SWAP4 DUP4 ADD SWAP4 SWAP2 DUP4 ADD SWAP2 PUSH1 0x1 ADD PUSH2 0x2D23 JUMP JUMPDEST POP POP PUSH1 0x1 PUSH1 0x1 PUSH1 0xA0 SHL SUB SWAP7 SWAP1 SWAP7 AND PUSH1 0x60 DUP6 ADD MSTORE POP POP POP PUSH1 0x80 ADD MSTORE SWAP4 SWAP3 POP POP POP JUMP JUMPDEST PUSH1 0x0 DUP3 NOT DUP3 GT ISZERO PUSH2 0x2D7C JUMPI PUSH2 0x2D7C PUSH2 0x2E2F JUMP JUMPDEST POP ADD SWAP1 JUMP JUMPDEST PUSH1 0x0 DUP3 PUSH2 0x2D9E JUMPI PUSH4 0x4E487B71 PUSH1 0xE0 SHL PUSH1 0x0 MSTORE PUSH1 0x12 PUSH1 0x4 MSTORE PUSH1 0x24 PUSH1 0x0 REVERT JUMPDEST POP DIV SWAP1 JUMP JUMPDEST PUSH1 0x0 DUP2 PUSH1 0x0 NOT DIV DUP4 GT DUP3 ISZERO ISZERO AND ISZERO PUSH2 0x2DBD JUMPI PUSH2 0x2DBD PUSH2 0x2E2F JUMP JUMPDEST POP MUL SWAP1 JUMP JUMPDEST PUSH1 0x0 DUP3 DUP3 LT ISZERO PUSH2 0x2DD4 JUMPI PUSH2 0x2DD4 PUSH2 0x2E2F JUMP JUMPDEST POP SUB SWAP1 JUMP JUMPDEST PUSH1 0x1 DUP2 DUP2 SHR SWAP1 DUP3 AND DUP1 PUSH2 0x2DED JUMPI PUSH1 0x7F DUP3 AND SWAP2 POP JUMPDEST PUSH1 0x20 DUP3 LT DUP2 EQ ISZERO PUSH2 0x2E0E JUMPI PUSH4 0x4E487B71 PUSH1 0xE0 SHL PUSH1 0x0 MSTORE PUSH1 0x22 PUSH1 0x4 MSTORE PUSH1 0x24 PUSH1 0x0 REVERT JUMPDEST POP SWAP2 SWAP1 POP JUMP JUMPDEST PUSH1 0x0 PUSH1 0x0 NOT DUP3 EQ ISZERO PUSH2 0x2E28 JUMPI PUSH2 0x2E28 PUSH2 0x2E2F JUMP JUMPDEST POP PUSH1 0x1 ADD SWAP1 JUMP JUMPDEST PUSH4 0x4E487B71 PUSH1 0xE0 SHL PUSH1 0x0 MSTORE PUSH1 0x11 PUSH1 0x4 MSTORE PUSH1 0x24 PUSH1 0x0 REVERT JUMPDEST PUSH4 0x4E487B71 PUSH1 0xE0 SHL PUSH1 0x0 MSTORE PUSH1 0x31 PUSH1 0x4 MSTORE PUSH1 0x24 PUSH1 0x0 REVERT JUMPDEST PUSH4 0x4E487B71 PUSH1 0xE0 SHL PUSH1 0x0 MSTORE PUSH1 0x32 PUSH1 0x4 MSTORE PUSH1 0x24 PUSH1 0x0 REVERT JUMPDEST PUSH1 0x1 PUSH1 0x1 PUSH1 0xA0 SHL SUB DUP2 AND DUP2 EQ PUSH2 0x18A7 JUMPI PUSH1 0x0 DUP1 REVERT INVALID TIMESTAMP GASLIMIT POP ORIGIN ADDRESS GASPRICE KECCAK256 PUSH21 0x72616E7366657220616D6F756E7420657863656564 PUSH20 0x20616C6C6F77616E636542455032303A20646563 PUSH19 0x656173656420616C6C6F77616E63652062656C PUSH16 0x77207A65726FA2646970667358221220 KECCAK256 SWAP6 JUMPI PUSH10 0xF4DC6C0AF072BA702647 PUSH13 0xBA804CFB8D88C7106EC059D436 BALANCE DUP8 0xEA JUMPI PUSH5 0x736F6C6343 STOP ADDMOD SMOD STOP CALLER "
		},
		"gasEstimates": {
			"creation": {
				"codeDepositCost": "2408200",
				"executionCost": "infinite",
				"totalCost": "infinite"
			},
			"external": {
				"MAX_HOLDING_PERCENTS_DIVISOR()": "328",
				"_burnFee()": "2407",
				"_liquidityFee()": "2364",
				"_marketingFee()": "2386",
				"_maxHoldingPercents()": "2364",
				"_sellBurnFee()": "2407",
				"_sellLiquidityFee()": "2363",
				"_sellMarketingFee()": "2406",
				"_sellTaxFee()": "2364",
				"_taxFee()": "2364",
				"allowance(address,address)": "infinite",
				"antiBotEnabled()": "2421",
				"antiManager()": "2437",
				"antiWhaleEnabled()": "2422",
				"antisnipe()": "2471",
				"antisnipeDisable()": "2393",
				"approve(address,uint256)": "24705",
				"balanceOf(address)": "infinite",
				"decimals()": "2379",
				"decreaseAllowance(address,uint256)": "infinite",
				"deliver(uint256)": "infinite",
				"excludeFromFee(address)": "26881",
				"excludeFromReward(address)": "infinite",
				"includeInFee(address)": "26850",
				"includeInReward(address)": "infinite",
				"increaseAllowance(address,uint256)": "27105",
				"isExcludedFromFee(address)": "2633",
				"isExcludedFromReward(address)": "2633",
				"marketingWallet()": "2427",
				"name()": "infinite",
				"owner()": "2443",
				"pancakeV2Pair()": "2448",
				"pancakeV2Router()": "2472",
				"reflectionFromToken(uint256,bool)": "infinite",
				"renounceOwnership()": "infinite",
				"setAntiBot(bool)": "28892",
				"setAntiWhale(bool)": "28937",
				"setAntisnipeAddress(address)": "26818",
				"setAntisnipeDisable()": "28755",
				"setBurnFeePercent(uint256)": "24647",
				"setLiquidityFeePercent(uint256)": "24581",
				"setMarketingFeePercent(uint256)": "24604",
				"setMarketingWallet(address)": "26796",
				"setMaxHoldingPercents(uint256)": "24651",
				"setSellBurnFeePercent(uint256)": "24624",
				"setSellLiquidityFeePercent(uint256)": "24648",
				"setSellMarketingFeePercent(uint256)": "24604",
				"setSellTaxFeePercent(uint256)": "24581",
				"setSwapAndLiquifyEnabled(bool)": "27882",
				"setTaxFeePercent(uint256)": "24584",
				"swapAndLiquifyEnabled()": "2461",
				"symbol()": "infinite",
				"tokenFromReflection(uint256)": "infinite",
				"totalFees()": "2383",
				"totalSupply()": "2405",
				"transfer(address,uint256)": "infinite",
				"transferFrom(address,address,uint256)": "infinite",
				"transferOwnership(address)": "infinite"
			},
			"internal": {
				"_approve(address,address,uint256)": "infinite",
				"_beforeTokenTransfer(address,address,uint256)": "infinite",
				"_getCurrentSupply()": "infinite",
				"_getRValues(uint256,uint256,uint256,uint256)": "infinite",
				"_getRate()": "infinite",
				"_getTValues(uint256)": "infinite",
				"_getValues(uint256)": "infinite",
				"_reflectFee(uint256,uint256)": "infinite",
				"_takeLiquidity(uint256)": "infinite",
				"_tokenTransfer(address,address,uint256)": "infinite",
				"_transfer(address,address,uint256)": "infinite",
				"_transferBothExcluded(address,address,uint256)": "infinite",
				"_transferFromExcluded(address,address,uint256)": "infinite",
				"_transferStandard(address,address,uint256)": "infinite",
				"_transferToExcluded(address,address,uint256)": "infinite",
				"activateSellFee()": "infinite",
				"addLiquidity(uint256,uint256)": "infinite",
				"calculateLiquidityFee(uint256)": "infinite",
				"calculateTaxFee(uint256)": "infinite",
				"removeAllFee()": "125382",
				"restoreAllFee()": "infinite",
				"swapAndLiquify(uint256)": "infinite",
				"swapTokensForEth(uint256)": "infinite"
			}
		},
		"methodIdentifiers": {
			"MAX_HOLDING_PERCENTS_DIVISOR()": "64a06e80",
			"_burnFee()": "c0b0fda2",
			"_liquidityFee()": "6bc87c3a",
			"_marketingFee()": "22976e0d",
			"_maxHoldingPercents()": "0a7d2d87",
			"_sellBurnFee()": "7abdc1ca",
			"_sellLiquidityFee()": "88790a68",
			"_sellMarketingFee()": "c8607952",
			"_sellTaxFee()": "200a692d",
			"_taxFee()": "3b124fe7",
			"allowance(address,address)": "dd62ed3e",
			"antiBotEnabled()": "d8c6404b",
			"antiManager()": "d5bde46c",
			"antiWhaleEnabled()": "57d87f0d",
			"antisnipe()": "882cfb3f",
			"antisnipeDisable()": "e1e144de",
			"approve(address,uint256)": "095ea7b3",
			"balanceOf(address)": "70a08231",
			"decimals()": "313ce567",
			"decreaseAllowance(address,uint256)": "a457c2d7",
			"deliver(uint256)": "3bd5d173",
			"excludeFromFee(address)": "437823ec",
			"excludeFromReward(address)": "52390c02",
			"includeInFee(address)": "ea2f0b37",
			"includeInReward(address)": "3685d419",
			"increaseAllowance(address,uint256)": "39509351",
			"isExcludedFromFee(address)": "5342acb4",
			"isExcludedFromReward(address)": "88f82020",
			"marketingWallet()": "75f0a874",
			"name()": "06fdde03",
			"owner()": "8da5cb5b",
			"pancakeV2Pair()": "632a6a35",
			"pancakeV2Router()": "1a4cd1b1",
			"reflectionFromToken(uint256,bool)": "4549b039",
			"renounceOwnership()": "715018a6",
			"setAntiBot(bool)": "c2c7c03a",
			"setAntiWhale(bool)": "4a5566bf",
			"setAntisnipeAddress(address)": "611bf629",
			"setAntisnipeDisable()": "74fb20e1",
			"setBurnFeePercent(uint256)": "cea26958",
			"setLiquidityFeePercent(uint256)": "8ee88c53",
			"setMarketingFeePercent(uint256)": "457c194c",
			"setMarketingWallet(address)": "5d098b38",
			"setMaxHoldingPercents(uint256)": "9655cab5",
			"setSellBurnFeePercent(uint256)": "ebf78663",
			"setSellLiquidityFeePercent(uint256)": "5876ccc5",
			"setSellMarketingFeePercent(uint256)": "a928681c",
			"setSellTaxFeePercent(uint256)": "d0e03523",
			"setSwapAndLiquifyEnabled(bool)": "c49b9a80",
			"setTaxFeePercent(uint256)": "061c82d0",
			"swapAndLiquifyEnabled()": "4a74bb02",
			"symbol()": "95d89b41",
			"tokenFromReflection(uint256)": "2d838119",
			"totalFees()": "13114a9d",
			"totalSupply()": "18160ddd",
			"transfer(address,uint256)": "a9059cbb",
			"transferFrom(address,address,uint256)": "23b872dd",
			"transferOwnership(address)": "f2fde38b"
		}
	},
	"abi": [
		{
			"inputs": [
				{
					"internalType": "contract IPancakeV2Router02",
					"name": "_pancakeV2Router",
					"type": "address"
				},
				{
					"internalType": "address",
					"name": "_marketingWallet",
					"type": "address"
				},
				{
					"internalType": "address",
					"name": "_antiManager",
					"type": "address"
				}
			],
			"stateMutability": "nonpayable",
			"type": "constructor"
		},
		{
			"anonymous": false,
			"inputs": [
				{
					"indexed": true,
					"internalType": "address",
					"name": "owner",
					"type": "address"
				},
				{
					"indexed": true,
					"internalType": "address",
					"name": "spender",
					"type": "address"
				},
				{
					"indexed": false,
					"internalType": "uint256",
					"name": "value",
					"type": "uint256"
				}
			],
			"name": "Approval",
			"type": "event"
		},
		{
			"anonymous": false,
			"inputs": [
				{
					"indexed": true,
					"internalType": "address",
					"name": "previousOwner",
					"type": "address"
				},
				{
					"indexed": true,
					"internalType": "address",
					"name": "newOwner",
					"type": "address"
				}
			],
			"name": "OwnershipTransferred",
			"type": "event"
		},
		{
			"anonymous": false,
			"inputs": [
				{
					"indexed": false,
					"internalType": "uint256",
					"name": "tokensSwapped",
					"type": "uint256"
				},
				{
					"indexed": false,
					"internalType": "uint256",
					"name": "ethReceived",
					"type": "uint256"
				},
				{
					"indexed": false,
					"internalType": "uint256",
					"name": "tokensIntoLiqudity",
					"type": "uint256"
				}
			],
			"name": "SwapAndLiquify",
			"type": "event"
		},
		{
			"anonymous": false,
			"inputs": [
				{
					"indexed": false,
					"internalType": "bool",
					"name": "enabled",
					"type": "bool"
				}
			],
			"name": "SwapAndLiquifyEnabledUpdated",
			"type": "event"
		},
		{
			"anonymous": false,
			"inputs": [
				{
					"indexed": true,
					"internalType": "address",
					"name": "from",
					"type": "address"
				},
				{
					"indexed": true,
					"internalType": "address",
					"name": "to",
					"type": "address"
				},
				{
					"indexed": false,
					"internalType": "uint256",
					"name": "value",
					"type": "uint256"
				}
			],
			"name": "Transfer",
			"type": "event"
		},
		{
			"inputs": [],
			"name": "MAX_HOLDING_PERCENTS_DIVISOR",
			"outputs": [
				{
					"internalType": "uint256",
					"name": "",
					"type": "uint256"
				}
			],
			"stateMutability": "view",
			"type": "function"
		},
		{
			"inputs": [],
			"name": "_burnFee",
			"outputs": [
				{
					"internalType": "uint256",
					"name": "",
					"type": "uint256"
				}
			],
			"stateMutability": "view",
			"type": "function"
		},
		{
			"inputs": [],
			"name": "_liquidityFee",
			"outputs": [
				{
					"internalType": "uint256",
					"name": "",
					"type": "uint256"
				}
			],
			"stateMutability": "view",
			"type": "function"
		},
		{
			"inputs": [],
			"name": "_marketingFee",
			"outputs": [
				{
					"internalType": "uint256",
					"name": "",
					"type": "uint256"
				}
			],
			"stateMutability": "view",
			"type": "function"
		},
		{
			"inputs": [],
			"name": "_maxHoldingPercents",
			"outputs": [
				{
					"internalType": "uint256",
					"name": "",
					"type": "uint256"
				}
			],
			"stateMutability": "view",
			"type": "function"
		},
		{
			"inputs": [],
			"name": "_sellBurnFee",
			"outputs": [
				{
					"internalType": "uint256",
					"name": "",
					"type": "uint256"
				}
			],
			"stateMutability": "view",
			"type": "function"
		},
		{
			"inputs": [],
			"name": "_sellLiquidityFee",
			"outputs": [
				{
					"internalType": "uint256",
					"name": "",
					"type": "uint256"
				}
			],
			"stateMutability": "view",
			"type": "function"
		},
		{
			"inputs": [],
			"name": "_sellMarketingFee",
			"outputs": [
				{
					"internalType": "uint256",
					"name": "",
					"type": "uint256"
				}
			],
			"stateMutability": "view",
			"type": "function"
		},
		{
			"inputs": [],
			"name": "_sellTaxFee",
			"outputs": [
				{
					"internalType": "uint256",
					"name": "",
					"type": "uint256"
				}
			],
			"stateMutability": "view",
			"type": "function"
		},
		{
			"inputs": [],
			"name": "_taxFee",
			"outputs": [
				{
					"internalType": "uint256",
					"name": "",
					"type": "uint256"
				}
			],
			"stateMutability": "view",
			"type": "function"
		},
		{
			"inputs": [
				{
					"internalType": "address",
					"name": "owner",
					"type": "address"
				},
				{
					"internalType": "address",
					"name": "spender",
					"type": "address"
				}
			],
			"name": "allowance",
			"outputs": [
				{
					"internalType": "uint256",
					"name": "",
					"type": "uint256"
				}
			],
			"stateMutability": "view",
			"type": "function"
		},
		{
			"inputs": [],
			"name": "antiBotEnabled",
			"outputs": [
				{
					"internalType": "bool",
					"name": "",
					"type": "bool"
				}
			],
			"stateMutability": "view",
			"type": "function"
		},
		{
			"inputs": [],
			"name": "antiManager",
			"outputs": [
				{
					"internalType": "address",
					"name": "",
					"type": "address"
				}
			],
			"stateMutability": "view",
			"type": "function"
		},
		{
			"inputs": [],
			"name": "antiWhaleEnabled",
			"outputs": [
				{
					"internalType": "bool",
					"name": "",
					"type": "bool"
				}
			],
			"stateMutability": "view",
			"type": "function"
		},
		{
			"inputs": [],
			"name": "antisnipe",
			"outputs": [
				{
					"internalType": "contract IAntisnipe",
					"name": "",
					"type": "address"
				}
			],
			"stateMutability": "view",
			"type": "function"
		},
		{
			"inputs": [],
			"name": "antisnipeDisable",
			"outputs": [
				{
					"internalType": "bool",
					"name": "",
					"type": "bool"
				}
			],
			"stateMutability": "view",
			"type": "function"
		},
		{
			"inputs": [
				{
					"internalType": "address",
					"name": "spender",
					"type": "address"
				},
				{
					"internalType": "uint256",
					"name": "amount",
					"type": "uint256"
				}
			],
			"name": "approve",
			"outputs": [
				{
					"internalType": "bool",
					"name": "",
					"type": "bool"
				}
			],
			"stateMutability": "nonpayable",
			"type": "function"
		},
		{
			"inputs": [
				{
					"internalType": "address",
					"name": "account",
					"type": "address"
				}
			],
			"name": "balanceOf",
			"outputs": [
				{
					"internalType": "uint256",
					"name": "",
					"type": "uint256"
				}
			],
			"stateMutability": "view",
			"type": "function"
		},
		{
			"inputs": [],
			"name": "decimals",
			"outputs": [
				{
					"internalType": "uint8",
					"name": "",
					"type": "uint8"
				}
			],
			"stateMutability": "view",
			"type": "function"
		},
		{
			"inputs": [
				{
					"internalType": "address",
					"name": "spender",
					"type": "address"
				},
				{
					"internalType": "uint256",
					"name": "subtractedValue",
					"type": "uint256"
				}
			],
			"name": "decreaseAllowance",
			"outputs": [
				{
					"internalType": "bool",
					"name": "",
					"type": "bool"
				}
			],
			"stateMutability": "nonpayable",
			"type": "function"
		},
		{
			"inputs": [
				{
					"internalType": "uint256",
					"name": "tAmount",
					"type": "uint256"
				}
			],
			"name": "deliver",
			"outputs": [],
			"stateMutability": "nonpayable",
			"type": "function"
		},
		{
			"inputs": [
				{
					"internalType": "address",
					"name": "account",
					"type": "address"
				}
			],
			"name": "excludeFromFee",
			"outputs": [],
			"stateMutability": "nonpayable",
			"type": "function"
		},
		{
			"inputs": [
				{
					"internalType": "address",
					"name": "account",
					"type": "address"
				}
			],
			"name": "excludeFromReward",
			"outputs": [],
			"stateMutability": "nonpayable",
			"type": "function"
		},
		{
			"inputs": [
				{
					"internalType": "address",
					"name": "account",
					"type": "address"
				}
			],
			"name": "includeInFee",
			"outputs": [],
			"stateMutability": "nonpayable",
			"type": "function"
		},
		{
			"inputs": [
				{
					"internalType": "address",
					"name": "account",
					"type": "address"
				}
			],
			"name": "includeInReward",
			"outputs": [],
			"stateMutability": "nonpayable",
			"type": "function"
		},
		{
			"inputs": [
				{
					"internalType": "address",
					"name": "spender",
					"type": "address"
				},
				{
					"internalType": "uint256",
					"name": "addedValue",
					"type": "uint256"
				}
			],
			"name": "increaseAllowance",
			"outputs": [
				{
					"internalType": "bool",
					"name": "",
					"type": "bool"
				}
			],
			"stateMutability": "nonpayable",
			"type": "function"
		},
		{
			"inputs": [
				{
					"internalType": "address",
					"name": "account",
					"type": "address"
				}
			],
			"name": "isExcludedFromFee",
			"outputs": [
				{
					"internalType": "bool",
					"name": "",
					"type": "bool"
				}
			],
			"stateMutability": "view",
			"type": "function"
		},
		{
			"inputs": [
				{
					"internalType": "address",
					"name": "account",
					"type": "address"
				}
			],
			"name": "isExcludedFromReward",
			"outputs": [
				{
					"internalType": "bool",
					"name": "",
					"type": "bool"
				}
			],
			"stateMutability": "view",
			"type": "function"
		},
		{
			"inputs": [],
			"name": "marketingWallet",
			"outputs": [
				{
					"internalType": "address",
					"name": "",
					"type": "address"
				}
			],
			"stateMutability": "view",
			"type": "function"
		},
		{
			"inputs": [],
			"name": "name",
			"outputs": [
				{
					"internalType": "string",
					"name": "",
					"type": "string"
				}
			],
			"stateMutability": "view",
			"type": "function"
		},
		{
			"inputs": [],
			"name": "owner",
			"outputs": [
				{
					"internalType": "address",
					"name": "",
					"type": "address"
				}
			],
			"stateMutability": "view",
			"type": "function"
		},
		{
			"inputs": [],
			"name": "pancakeV2Pair",
			"outputs": [
				{
					"internalType": "address",
					"name": "",
					"type": "address"
				}
			],
			"stateMutability": "view",
			"type": "function"
		},
		{
			"inputs": [],
			"name": "pancakeV2Router",
			"outputs": [
				{
					"internalType": "contract IPancakeV2Router02",
					"name": "",
					"type": "address"
				}
			],
			"stateMutability": "view",
			"type": "function"
		},
		{
			"inputs": [
				{
					"internalType": "uint256",
					"name": "tAmount",
					"type": "uint256"
				},
				{
					"internalType": "bool",
					"name": "deductTransferFee",
					"type": "bool"
				}
			],
			"name": "reflectionFromToken",
			"outputs": [
				{
					"internalType": "uint256",
					"name": "",
					"type": "uint256"
				}
			],
			"stateMutability": "view",
			"type": "function"
		},
		{
			"inputs": [],
			"name": "renounceOwnership",
			"outputs": [],
			"stateMutability": "nonpayable",
			"type": "function"
		},
		{
			"inputs": [
				{
					"internalType": "bool",
					"name": "enabled",
					"type": "bool"
				}
			],
			"name": "setAntiBot",
			"outputs": [],
			"stateMutability": "nonpayable",
			"type": "function"
		},
		{
			"inputs": [
				{
					"internalType": "bool",
					"name": "enabled",
					"type": "bool"
				}
			],
			"name": "setAntiWhale",
			"outputs": [],
			"stateMutability": "nonpayable",
			"type": "function"
		},
		{
			"inputs": [
				{
					"internalType": "address",
					"name": "addr",
					"type": "address"
				}
			],
			"name": "setAntisnipeAddress",
			"outputs": [],
			"stateMutability": "nonpayable",
			"type": "function"
		},
		{
			"inputs": [],
			"name": "setAntisnipeDisable",
			"outputs": [],
			"stateMutability": "nonpayable",
			"type": "function"
		},
		{
			"inputs": [
				{
					"internalType": "uint256",
					"name": "burnFee",
					"type": "uint256"
				}
			],
			"name": "setBurnFeePercent",
			"outputs": [],
			"stateMutability": "nonpayable",
			"type": "function"
		},
		{
			"inputs": [
				{
					"internalType": "uint256",
					"name": "liquidityFee",
					"type": "uint256"
				}
			],
			"name": "setLiquidityFeePercent",
			"outputs": [],
			"stateMutability": "nonpayable",
			"type": "function"
		},
		{
			"inputs": [
				{
					"internalType": "uint256",
					"name": "marketingFee",
					"type": "uint256"
				}
			],
			"name": "setMarketingFeePercent",
			"outputs": [],
			"stateMutability": "nonpayable",
			"type": "function"
		},
		{
			"inputs": [
				{
					"internalType": "address",
					"name": "newWallet",
					"type": "address"
				}
			],
			"name": "setMarketingWallet",
			"outputs": [],
			"stateMutability": "nonpayable",
			"type": "function"
		},
		{
			"inputs": [
				{
					"internalType": "uint256",
					"name": "maxHoldingPercents",
					"type": "uint256"
				}
			],
			"name": "setMaxHoldingPercents",
			"outputs": [],
			"stateMutability": "nonpayable",
			"type": "function"
		},
		{
			"inputs": [
				{
					"internalType": "uint256",
					"name": "sellBurnFee",
					"type": "uint256"
				}
			],
			"name": "setSellBurnFeePercent",
			"outputs": [],
			"stateMutability": "nonpayable",
			"type": "function"
		},
		{
			"inputs": [
				{
					"internalType": "uint256",
					"name": "sellLiquidityFee",
					"type": "uint256"
				}
			],
			"name": "setSellLiquidityFeePercent",
			"outputs": [],
			"stateMutability": "nonpayable",
			"type": "function"
		},
		{
			"inputs": [
				{
					"internalType": "uint256",
					"name": "sellMarketingFee",
					"type": "uint256"
				}
			],
			"name": "setSellMarketingFeePercent",
			"outputs": [],
			"stateMutability": "nonpayable",
			"type": "function"
		},
		{
			"inputs": [
				{
					"internalType": "uint256",
					"name": "sellTaxFee",
					"type": "uint256"
				}
			],
			"name": "setSellTaxFeePercent",
			"outputs": [],
			"stateMutability": "nonpayable",
			"type": "function"
		},
		{
			"inputs": [
				{
					"internalType": "bool",
					"name": "_enabled",
					"type": "bool"
				}
			],
			"name": "setSwapAndLiquifyEnabled",
			"outputs": [],
			"stateMutability": "nonpayable",
			"type": "function"
		},
		{
			"inputs": [
				{
					"internalType": "uint256",
					"name": "taxFee",
					"type": "uint256"
				}
			],
			"name": "setTaxFeePercent",
			"outputs": [],
			"stateMutability": "nonpayable",
			"type": "function"
		},
		{
			"inputs": [],
			"name": "swapAndLiquifyEnabled",
			"outputs": [
				{
					"internalType": "bool",
					"name": "",
					"type": "bool"
				}
			],
			"stateMutability": "view",
			"type": "function"
		},
		{
			"inputs": [],
			"name": "symbol",
			"outputs": [
				{
					"internalType": "string",
					"name": "",
					"type": "string"
				}
			],
			"stateMutability": "view",
			"type": "function"
		},
		{
			"inputs": [
				{
					"internalType": "uint256",
					"name": "rAmount",
					"type": "uint256"
				}
			],
			"name": "tokenFromReflection",
			"outputs": [
				{
					"internalType": "uint256",
					"name": "",
					"type": "uint256"
				}
			],
			"stateMutability": "view",
			"type": "function"
		},
		{
			"inputs": [],
			"name": "totalFees",
			"outputs": [
				{
					"internalType": "uint256",
					"name": "",
					"type": "uint256"
				}
			],
			"stateMutability": "view",
			"type": "function"
		},
		{
			"inputs": [],
			"name": "totalSupply",
			"outputs": [
				{
					"internalType": "uint256",
					"name": "",
					"type": "uint256"
				}
			],
			"stateMutability": "view",
			"type": "function"
		},
		{
			"inputs": [
				{
					"internalType": "address",
					"name": "recipient",
					"type": "address"
				},
				{
					"internalType": "uint256",
					"name": "amount",
					"type": "uint256"
				}
			],
			"name": "transfer",
			"outputs": [
				{
					"internalType": "bool",
					"name": "",
					"type": "bool"
				}
			],
			"stateMutability": "nonpayable",
			"type": "function"
		},
		{
			"inputs": [
				{
					"internalType": "address",
					"name": "sender",
					"type": "address"
				},
				{
					"internalType": "address",
					"name": "recipient",
					"type": "address"
				},
				{
					"internalType": "uint256",
					"name": "amount",
					"type": "uint256"
				}
			],
			"name": "transferFrom",
			"outputs": [
				{
					"internalType": "bool",
					"name": "",
					"type": "bool"
				}
			],
			"stateMutability": "nonpayable",
			"type": "function"
		},
		{
			"inputs": [
				{
					"internalType": "address",
					"name": "newOwner",
					"type": "address"
				}
			],
			"name": "transferOwnership",
			"outputs": [],
			"stateMutability": "nonpayable",
			"type": "function"
		},
		{
			"stateMutability": "payable",
			"type": "receive"
		}
	]
}